{
  "address": "0x501D6d86240De5A57E91414356ad4B1778F0AB18",
  "abi": [
    {
      "inputs": [
        {
          "internalType": "contract IEAS",
          "name": "eas",
          "type": "address"
        }
      ],
      "stateMutability": "nonpayable",
      "type": "constructor"
    },
    {
      "inputs": [],
      "name": "InvalidAttestation",
      "type": "error"
    },
    {
      "inputs": [],
      "name": "InvalidEAS",
      "type": "error"
    },
    {
      "inputs": [],
      "name": "InvalidOffset",
      "type": "error"
    },
    {
      "anonymous": false,
      "inputs": [
        {
          "indexed": true,
          "internalType": "bytes32",
          "name": "uid",
          "type": "bytes32"
        }
      ],
      "name": "Indexed",
      "type": "event"
    },
    {
      "inputs": [],
      "name": "getEAS",
      "outputs": [
        {
          "internalType": "contract IEAS",
          "name": "",
          "type": "address"
        }
      ],
      "stateMutability": "view",
      "type": "function"
    },
    {
      "inputs": [
        {
          "internalType": "address",
          "name": "recipient",
          "type": "address"
        },
        {
          "internalType": "bytes32",
          "name": "schemaUID",
          "type": "bytes32"
        }
      ],
      "name": "getReceivedAttestationUIDCount",
      "outputs": [
        {
          "internalType": "uint256",
          "name": "",
          "type": "uint256"
        }
      ],
      "stateMutability": "view",
      "type": "function"
    },
    {
      "inputs": [
        {
          "internalType": "address",
          "name": "recipient",
          "type": "address"
        },
        {
          "internalType": "bytes32",
          "name": "schemaUID",
          "type": "bytes32"
        },
        {
          "internalType": "uint256",
          "name": "start",
          "type": "uint256"
        },
        {
          "internalType": "uint256",
          "name": "length",
          "type": "uint256"
        },
        {
          "internalType": "bool",
          "name": "reverseOrder",
          "type": "bool"
        }
      ],
      "name": "getReceivedAttestationUIDs",
      "outputs": [
        {
          "internalType": "bytes32[]",
          "name": "",
          "type": "bytes32[]"
        }
      ],
      "stateMutability": "view",
      "type": "function"
    },
    {
      "inputs": [
        {
          "internalType": "bytes32",
          "name": "schemaUID",
          "type": "bytes32"
        }
      ],
      "name": "getSchemaAttestationUIDCount",
      "outputs": [
        {
          "internalType": "uint256",
          "name": "",
          "type": "uint256"
        }
      ],
      "stateMutability": "view",
      "type": "function"
    },
    {
      "inputs": [
        {
          "internalType": "bytes32",
          "name": "schemaUID",
          "type": "bytes32"
        },
        {
          "internalType": "uint256",
          "name": "start",
          "type": "uint256"
        },
        {
          "internalType": "uint256",
          "name": "length",
          "type": "uint256"
        },
        {
          "internalType": "bool",
          "name": "reverseOrder",
          "type": "bool"
        }
      ],
      "name": "getSchemaAttestationUIDs",
      "outputs": [
        {
          "internalType": "bytes32[]",
          "name": "",
          "type": "bytes32[]"
        }
      ],
      "stateMutability": "view",
      "type": "function"
    },
    {
      "inputs": [
        {
          "internalType": "bytes32",
          "name": "schemaUID",
          "type": "bytes32"
        },
        {
          "internalType": "address",
          "name": "attester",
          "type": "address"
        },
        {
          "internalType": "address",
          "name": "recipient",
          "type": "address"
        }
      ],
      "name": "getSchemaAttesterRecipientAttestationUIDCount",
      "outputs": [
        {
          "internalType": "uint256",
          "name": "",
          "type": "uint256"
        }
      ],
      "stateMutability": "view",
      "type": "function"
    },
    {
      "inputs": [
        {
          "internalType": "bytes32",
          "name": "schemaUID",
          "type": "bytes32"
        },
        {
          "internalType": "address",
          "name": "attester",
          "type": "address"
        },
        {
          "internalType": "address",
          "name": "recipient",
          "type": "address"
        },
        {
          "internalType": "uint256",
          "name": "start",
          "type": "uint256"
        },
        {
          "internalType": "uint256",
          "name": "length",
          "type": "uint256"
        },
        {
          "internalType": "bool",
          "name": "reverseOrder",
          "type": "bool"
        }
      ],
      "name": "getSchemaAttesterRecipientAttestationUIDs",
      "outputs": [
        {
          "internalType": "bytes32[]",
          "name": "",
          "type": "bytes32[]"
        }
      ],
      "stateMutability": "view",
      "type": "function"
    },
    {
      "inputs": [
        {
          "internalType": "address",
          "name": "attester",
          "type": "address"
        },
        {
          "internalType": "bytes32",
          "name": "schemaUID",
          "type": "bytes32"
        }
      ],
      "name": "getSentAttestationUIDCount",
      "outputs": [
        {
          "internalType": "uint256",
          "name": "",
          "type": "uint256"
        }
      ],
      "stateMutability": "view",
      "type": "function"
    },
    {
      "inputs": [
        {
          "internalType": "address",
          "name": "attester",
          "type": "address"
        },
        {
          "internalType": "bytes32",
          "name": "schemaUID",
          "type": "bytes32"
        },
        {
          "internalType": "uint256",
          "name": "start",
          "type": "uint256"
        },
        {
          "internalType": "uint256",
          "name": "length",
          "type": "uint256"
        },
        {
          "internalType": "bool",
          "name": "reverseOrder",
          "type": "bool"
        }
      ],
      "name": "getSentAttestationUIDs",
      "outputs": [
        {
          "internalType": "bytes32[]",
          "name": "",
          "type": "bytes32[]"
        }
      ],
      "stateMutability": "view",
      "type": "function"
    },
    {
      "inputs": [
        {
          "internalType": "bytes32",
          "name": "attestationUID",
          "type": "bytes32"
        }
      ],
      "name": "indexAttestation",
      "outputs": [],
      "stateMutability": "nonpayable",
      "type": "function"
    },
    {
      "inputs": [
        {
          "internalType": "bytes32[]",
          "name": "attestationUIDs",
          "type": "bytes32[]"
        }
      ],
      "name": "indexAttestations",
      "outputs": [],
      "stateMutability": "nonpayable",
      "type": "function"
    },
    {
      "inputs": [
        {
          "internalType": "bytes32",
          "name": "attestationUID",
          "type": "bytes32"
        }
      ],
      "name": "isAttestationIndexed",
      "outputs": [
        {
          "internalType": "bool",
          "name": "",
          "type": "bool"
        }
      ],
      "stateMutability": "view",
      "type": "function"
    },
    {
      "inputs": [],
      "name": "version",
      "outputs": [
        {
          "internalType": "string",
          "name": "",
          "type": "string"
        }
      ],
      "stateMutability": "view",
      "type": "function"
    }
  ],
  "transactionHash": "0x27b5c81214899c2d5aa10bdfa54beff6fd062b355ee8957d23109e1232597581",
  "args": [
    "0x2521021fc8BF070473E1e1801D3c7B4aB701E1dE"
  ],
  "numDeployments": 1,
  "solcInputHash": "ab2e55c92b39ec3be86af0608f634927",
  "bytecode": "0x61010060405234801561001157600080fd5b506040516111db3803806111db83398101604081905261003091610077565b6001608052600360a052600060c0526001600160a01b038116610066576040516341bc07ff60e11b815260040160405180910390fd5b6001600160a01b031660e0526100a7565b60006020828403121561008957600080fd5b81516001600160a01b03811681146100a057600080fd5b9392505050565b60805160a05160c05160e0516110f46100e7600039600081816101ea01526108330152600061034c01526000610323015260006102fa01526110f46000f3fe608060405234801561001057600080fd5b50600436106100df5760003560e01c8063715ecdf61161008c578063b616352a11610066578063b616352a1461026d578063bbbdc81814610282578063ea51994b14610295578063ec864cba146102e057600080fd5b8063715ecdf61461021457806389a82fbe14610227578063af288efe1461025a57600080fd5b806354fd4d50116100bd57806354fd4d501461019b57806363bbf81b146101b057806365c40b9c146101d057600080fd5b80632412e9cc146100e4578063288a0a7b146101385780632f45f90e1461017b575b600080fd5b6101256100f2366004610b38565b73ffffffffffffffffffffffffffffffffffffffff91909116600090815260208181526040808320938352929052205490565b6040519081526020015b60405180910390f35b610125610146366004610b38565b73ffffffffffffffffffffffffffffffffffffffff919091166000908152600160209081526040808320938352929052205490565b610125610189366004610b64565b60009081526003602052604090205490565b6101a36102f3565b60405161012f9190610ba1565b6101c36101be366004610c00565b610396565b60405161012f9190610c41565b60405173ffffffffffffffffffffffffffffffffffffffff7f000000000000000000000000000000000000000000000000000000000000000016815260200161012f565b6101c3610222366004610c84565b610410565b61024a610235366004610b64565b60009081526004602052604090205460ff1690565b604051901515815260200161012f565b6101c3610268366004610ceb565b6104ad565b61028061027b366004610d41565b61053c565b005b610280610290366004610b64565b610577565b6101256102a3366004610db8565b600092835260026020908152604080852073ffffffffffffffffffffffffffffffffffffffff948516865282528085209290931684525290205490565b6101c36102ee366004610ceb565b610583565b606061031e7f000000000000000000000000000000000000000000000000000000000000000061060a565b6103477f000000000000000000000000000000000000000000000000000000000000000061060a565b6103707f000000000000000000000000000000000000000000000000000000000000000061060a565b60405160200161038293929190610dfa565b604051602081830303815290604052905090565b6060610405600360008781526020019081526020016000208054806020026020016040519081016040528092919081815260200182805480156103f857602002820191906000526020600020905b8154815260200190600101908083116103e4575b50505050508585856106c8565b90505b949350505050565b600086815260026020908152604080832073ffffffffffffffffffffffffffffffffffffffff808a168552908352818420908816845282529182902080548351818402810184019094528084526060936104a293909291908301828280156103f857602002820191906000526020600020908154815260200190600101908083116103e45750505050508585856106c8565b979650505050505050565b73ffffffffffffffffffffffffffffffffffffffff8516600090815260208181526040808320878452825291829020805483518184028101840190945280845260609361053293909291908301828280156103f857602002820191906000526020600020908154815260200190600101908083116103e45750505050508585856106c8565b9695505050505050565b8060005b818110156105715761056984848381811061055d5761055d610e91565b905060200201356107e7565b600101610540565b50505050565b610580816107e7565b50565b73ffffffffffffffffffffffffffffffffffffffff85166000908152600160209081526040808320878452825291829020805483518184028101840190945280845260609361053293909291908301828280156103f857602002820191906000526020600020908154815260200190600101908083116103e45750505050508585856106c8565b6060600061061783610a33565b600101905060008167ffffffffffffffff81111561063757610637610ec0565b6040519080825280601f01601f191660200182016040528015610661576020820181803683370190505b5090508181016020015b7fffffffffffffffffffffffffffffffffffffffffffffffffffffffffffffffff017f3031323334353637383961626364656600000000000000000000000000000000600a86061a8153600a850494508461066b57509392505050565b835160609060008190036106ec575050604080516000815260208101909152610408565b808510610725576040517f01da157200000000000000000000000000000000000000000000000000000000815260040160405180910390fd5b8385810182101561073557508481035b60008167ffffffffffffffff81111561075057610750610ec0565b604051908082528060200260200182016040528015610779578160200160208202803683370190505b50905060005b828110156107db5788866107955781890161079e565b81890160010185035b815181106107ae576107ae610e91565b60200260200101518282815181106107c8576107c8610e91565b602090810291909101015260010161077f565b50979650505050505050565b60008181526004602052604090205460ff16156108015750565b6040517fa3112a64000000000000000000000000000000000000000000000000000000008152600481018290526000907f000000000000000000000000000000000000000000000000000000000000000073ffffffffffffffffffffffffffffffffffffffff169063a3112a6490602401600060405180830381865afa15801561088f573d6000803e3d6000fd5b505050506040513d6000823e601f3d9081017fffffffffffffffffffffffffffffffffffffffffffffffffffffffffffffffe01682016040526108d59190810190610fed565b805190915080610911576040517fbd8ba84d00000000000000000000000000000000000000000000000000000000815260040160405180910390fd5b60e082015160c0830151602080850151600087815260048352604080822080547fffffffffffffffffffffffffffffffffffffffffffffffffffffffffffffff001660019081179091558383526003855281832080548083018255908452858420018a905573ffffffffffffffffffffffffffffffffffffffff808716808552848752838520868652875283852080548085018255908652878620018c9055908816808552828752838520868652875283852080548085018255908652878620018c905585855260028752838520908552865282842090845285528183208054918201815583529382209093018890559151909185917f2178f435e9624d54115e1d50a7313c90518a363b292678118444c0a239f11cf99190a2505050505050565b6000807a184f03e93ff9f4daa797ed6e38ed64bf6a1f0100000000000000008310610a7c577a184f03e93ff9f4daa797ed6e38ed64bf6a1f010000000000000000830492506040015b6d04ee2d6d415b85acef81000000008310610aa8576d04ee2d6d415b85acef8100000000830492506020015b662386f26fc100008310610ac657662386f26fc10000830492506010015b6305f5e1008310610ade576305f5e100830492506008015b6127108310610af257612710830492506004015b60648310610b04576064830492506002015b600a8310610b10576001015b92915050565b73ffffffffffffffffffffffffffffffffffffffff8116811461058057600080fd5b60008060408385031215610b4b57600080fd5b8235610b5681610b16565b946020939093013593505050565b600060208284031215610b7657600080fd5b5035919050565b60005b83811015610b98578181015183820152602001610b80565b50506000910152565b6020815260008251806020840152610bc0816040850160208701610b7d565b601f017fffffffffffffffffffffffffffffffffffffffffffffffffffffffffffffffe0169190910160400192915050565b801515811461058057600080fd5b60008060008060808587031215610c1657600080fd5b8435935060208501359250604085013591506060850135610c3681610bf2565b939692955090935050565b602080825282518282018190526000918401906040840190835b81811015610c79578351835260209384019390920191600101610c5b565b509095945050505050565b60008060008060008060c08789031215610c9d57600080fd5b863595506020870135610caf81610b16565b94506040870135610cbf81610b16565b9350606087013592506080870135915060a0870135610cdd81610bf2565b809150509295509295509295565b600080600080600060a08688031215610d0357600080fd5b8535610d0e81610b16565b94506020860135935060408601359250606086013591506080860135610d3381610bf2565b809150509295509295909350565b60008060208385031215610d5457600080fd5b823567ffffffffffffffff811115610d6b57600080fd5b8301601f81018513610d7c57600080fd5b803567ffffffffffffffff811115610d9357600080fd5b8560208260051b8401011115610da857600080fd5b6020919091019590945092505050565b600080600060608486031215610dcd57600080fd5b833592506020840135610ddf81610b16565b91506040840135610def81610b16565b809150509250925092565b60008451610e0c818460208901610b7d565b7f2e000000000000000000000000000000000000000000000000000000000000009083019081528451610e46816001840160208901610b7d565b7f2e00000000000000000000000000000000000000000000000000000000000000600192909101918201528351610e84816002840160208801610b7d565b0160020195945050505050565b7f4e487b7100000000000000000000000000000000000000000000000000000000600052603260045260246000fd5b7f4e487b7100000000000000000000000000000000000000000000000000000000600052604160045260246000fd5b604051610140810167ffffffffffffffff81118282101715610f1357610f13610ec0565b60405290565b805167ffffffffffffffff81168114610f3157600080fd5b919050565b8051610f3181610b16565b8051610f3181610bf2565b600082601f830112610f5d57600080fd5b815167ffffffffffffffff811115610f7757610f77610ec0565b604051601f82017fffffffffffffffffffffffffffffffffffffffffffffffffffffffffffffffe0908116603f0116810167ffffffffffffffff81118282101715610fc457610fc4610ec0565b604052818152838201602001851015610fdc57600080fd5b610408826020830160208701610b7d565b600060208284031215610fff57600080fd5b815167ffffffffffffffff81111561101657600080fd5b8201610140818503121561102957600080fd5b611031610eef565b815181526020808301519082015261104b60408301610f19565b604082015261105c60608301610f19565b606082015261106d60808301610f19565b608082015260a0828101519082015261108860c08301610f36565b60c082015261109960e08301610f36565b60e08201526110ab6101008301610f41565b61010082015261012082015167ffffffffffffffff8111156110cc57600080fd5b6110d886828501610f4c565b6101208301525094935050505056fea164736f6c634300081b000a",
  "devdoc": {
    "events": {
      "Indexed(bytes32)": {
        "params": {
          "uid": "The UID the attestation."
        }
      }
    },
    "kind": "dev",
    "methods": {
      "constructor": {
        "details": "Creates a new Indexer instance.",
        "params": {
          "eas": "The address of the global EAS contract."
        }
      },
      "getReceivedAttestationUIDCount(address,bytes32)": {
        "params": {
          "recipient": "The recipient of the attestation.",
          "schemaUID": "The UID of the schema."
        },
        "returns": {
          "_0": "The total number of attestations."
        }
      },
      "getReceivedAttestationUIDs(address,bytes32,uint256,uint256,bool)": {
        "params": {
          "length": "The number of total members to retrieve.",
          "recipient": "The recipient of the attestation.",
          "reverseOrder": "Whether the offset starts from the end and the data is returned in reverse.",
          "schemaUID": "The UID of the schema.",
          "start": "The offset to start from."
        },
        "returns": {
          "_0": "An array of attestation UIDs."
        }
      },
      "getSchemaAttestationUIDCount(bytes32)": {
        "params": {
          "schemaUID": "The UID of the schema."
        },
        "returns": {
          "_0": "An array of attestation UIDs."
        }
      },
      "getSchemaAttestationUIDs(bytes32,uint256,uint256,bool)": {
        "params": {
          "length": "The number of total members to retrieve.",
          "reverseOrder": "Whether the offset starts from the end and the data is returned in reverse.",
          "schemaUID": "The UID of the schema.",
          "start": "The offset to start from."
        },
        "returns": {
          "_0": "An array of attestation UIDs."
        }
      },
      "getSchemaAttesterRecipientAttestationUIDCount(bytes32,address,address)": {
        "params": {
          "attester": "The attester of the attestation.",
          "recipient": "The recipient of the attestation.",
          "schemaUID": "The UID of the schema."
        },
        "returns": {
          "_0": "An array of attestation UIDs."
        }
      },
      "getSchemaAttesterRecipientAttestationUIDs(bytes32,address,address,uint256,uint256,bool)": {
        "params": {
          "attester": "The attester of the attestation.",
          "length": "The number of total members to retrieve.",
          "recipient": "The recipient of the attestation.",
          "reverseOrder": "Whether the offset starts from the end and the data is returned in reverse.",
          "schemaUID": "The UID of the schema.",
          "start": "The offset to start from."
        },
        "returns": {
          "_0": "An array of attestation UIDs."
        }
      },
      "getSentAttestationUIDCount(address,bytes32)": {
        "params": {
          "attester": "The attester of the attestation.",
          "schemaUID": "The UID of the schema."
        },
        "returns": {
          "_0": "The total number of attestations."
        }
      },
      "getSentAttestationUIDs(address,bytes32,uint256,uint256,bool)": {
        "params": {
          "attester": "The attester of the attestation.",
          "length": "The number of total members to retrieve.",
          "reverseOrder": "Whether the offset starts from the end and the data is returned in reverse.",
          "schemaUID": "The UID of the schema.",
          "start": "The offset to start from."
        },
        "returns": {
          "_0": "An array of attestation UIDs."
        }
      },
      "indexAttestation(bytes32)": {
        "params": {
          "attestationUID": "The UID of the attestation to index."
        }
      },
      "indexAttestations(bytes32[])": {
        "params": {
          "attestationUIDs": "The UIDs of the attestations to index."
        }
      },
      "isAttestationIndexed(bytes32)": {
        "params": {
          "attestationUID": "The UID of the attestation to check."
        },
        "returns": {
          "_0": "Whether an attestation has been already indexed."
        }
      },
      "version()": {
        "returns": {
          "_0": "Semver contract version as a string."
        }
      }
    },
    "title": "Indexer",
    "version": 1
  },
  "userdoc": {
    "events": {
      "Indexed(bytes32)": {
        "notice": "Emitted when an attestation has been indexed."
      }
    },
    "kind": "user",
    "methods": {
      "getEAS()": {
        "notice": "Returns the EAS."
      },
      "getReceivedAttestationUIDCount(address,bytes32)": {
        "notice": "Returns the total number of attestations to a specific schema which were attested to/received by a     specific recipient."
      },
      "getReceivedAttestationUIDs(address,bytes32,uint256,uint256,bool)": {
        "notice": "Returns the UIDs of attestations to a specific schema which were attested to/received by a specific     recipient."
      },
      "getSchemaAttestationUIDCount(bytes32)": {
        "notice": "Returns the total number of attestations to a specific schema."
      },
      "getSchemaAttestationUIDs(bytes32,uint256,uint256,bool)": {
        "notice": "Returns the UIDs of attestations to a specific schema."
      },
      "getSchemaAttesterRecipientAttestationUIDCount(bytes32,address,address)": {
        "notice": "Returns the total number of UIDs of attestations to a specific schema which were attested by a specific     attester to a specific recipient."
      },
      "getSchemaAttesterRecipientAttestationUIDs(bytes32,address,address,uint256,uint256,bool)": {
        "notice": "Returns the UIDs of attestations to a specific schema which were attested by a specific attester to a     specific recipient."
      },
      "getSentAttestationUIDCount(address,bytes32)": {
        "notice": "Returns the total number of attestations to a specific schema which were attested by a specific attester."
      },
      "getSentAttestationUIDs(address,bytes32,uint256,uint256,bool)": {
        "notice": "Returns the UIDs of attestations to a specific schema which were attested by a specific attester."
      },
      "indexAttestation(bytes32)": {
        "notice": "Indexes an existing attestation."
      },
      "indexAttestations(bytes32[])": {
        "notice": "Indexes multiple existing attestations."
      },
      "isAttestationIndexed(bytes32)": {
        "notice": "Returns whether an existing attestation has been already indexed."
      },
      "version()": {
        "notice": "Returns the full semver contract version."
      }
    },
    "notice": "Indexing Service for the Ethereum Attestation Service",
    "version": 1
  },
  "storageLayout": {
    "storage": [
      {
        "astId": 2421,
        "contract": "@ethereum-attestation-service/eas-contracts/contracts/Indexer.sol:Indexer",
        "label": "_receivedAttestations",
        "offset": 0,
        "slot": "0",
        "type": "t_mapping(t_address,t_mapping(t_bytes32,t_array(t_bytes32)dyn_storage))"
      },
      {
        "astId": 2428,
        "contract": "@ethereum-attestation-service/eas-contracts/contracts/Indexer.sol:Indexer",
        "label": "_sentAttestations",
        "offset": 0,
        "slot": "1",
        "type": "t_mapping(t_address,t_mapping(t_bytes32,t_array(t_bytes32)dyn_storage))"
      },
      {
        "astId": 2437,
        "contract": "@ethereum-attestation-service/eas-contracts/contracts/Indexer.sol:Indexer",
        "label": "_schemaAttesterRecipientAttestations",
        "offset": 0,
        "slot": "2",
        "type": "t_mapping(t_bytes32,t_mapping(t_address,t_mapping(t_address,t_array(t_bytes32)dyn_storage)))"
      },
      {
        "astId": 2442,
        "contract": "@ethereum-attestation-service/eas-contracts/contracts/Indexer.sol:Indexer",
        "label": "_schemaAttestations",
        "offset": 0,
        "slot": "3",
        "type": "t_mapping(t_bytes32,t_array(t_bytes32)dyn_storage)"
      },
      {
        "astId": 2446,
        "contract": "@ethereum-attestation-service/eas-contracts/contracts/Indexer.sol:Indexer",
        "label": "_indexedAttestations",
        "offset": 0,
        "slot": "4",
        "type": "t_mapping(t_bytes32,t_bool)"
      }
    ],
    "types": {
      "t_address": {
        "encoding": "inplace",
        "label": "address",
        "numberOfBytes": "20"
      },
      "t_array(t_bytes32)dyn_storage": {
        "base": "t_bytes32",
        "encoding": "dynamic_array",
        "label": "bytes32[]",
        "numberOfBytes": "32"
      },
      "t_bool": {
        "encoding": "inplace",
        "label": "bool",
        "numberOfBytes": "1"
      },
      "t_bytes32": {
        "encoding": "inplace",
        "label": "bytes32",
        "numberOfBytes": "32"
      },
      "t_mapping(t_address,t_array(t_bytes32)dyn_storage)": {
        "encoding": "mapping",
        "key": "t_address",
        "label": "mapping(address => bytes32[])",
        "numberOfBytes": "32",
        "value": "t_array(t_bytes32)dyn_storage"
      },
      "t_mapping(t_address,t_mapping(t_address,t_array(t_bytes32)dyn_storage))": {
        "encoding": "mapping",
        "key": "t_address",
        "label": "mapping(address => mapping(address => bytes32[]))",
        "numberOfBytes": "32",
        "value": "t_mapping(t_address,t_array(t_bytes32)dyn_storage)"
      },
      "t_mapping(t_address,t_mapping(t_bytes32,t_array(t_bytes32)dyn_storage))": {
        "encoding": "mapping",
        "key": "t_address",
        "label": "mapping(address => mapping(bytes32 => bytes32[]))",
        "numberOfBytes": "32",
        "value": "t_mapping(t_bytes32,t_array(t_bytes32)dyn_storage)"
      },
      "t_mapping(t_bytes32,t_array(t_bytes32)dyn_storage)": {
        "encoding": "mapping",
        "key": "t_bytes32",
        "label": "mapping(bytes32 => bytes32[])",
        "numberOfBytes": "32",
        "value": "t_array(t_bytes32)dyn_storage"
      },
      "t_mapping(t_bytes32,t_bool)": {
        "encoding": "mapping",
        "key": "t_bytes32",
        "label": "mapping(bytes32 => bool)",
        "numberOfBytes": "32",
        "value": "t_bool"
      },
      "t_mapping(t_bytes32,t_mapping(t_address,t_mapping(t_address,t_array(t_bytes32)dyn_storage)))": {
        "encoding": "mapping",
        "key": "t_bytes32",
        "label": "mapping(bytes32 => mapping(address => mapping(address => bytes32[])))",
        "numberOfBytes": "32",
        "value": "t_mapping(t_address,t_mapping(t_address,t_array(t_bytes32)dyn_storage))"
      }
    }
  }
}