{
  "address": "0xaEF4103A04090071165F78D45D83A0C0782c2B2a",
  "abi": [
    {
      "inputs": [
        {
          "internalType": "contract ISchemaRegistry",
          "name": "registry",
          "type": "address"
        }
      ],
      "stateMutability": "nonpayable",
      "type": "constructor"
    },
    {
      "inputs": [],
      "name": "AccessDenied",
      "type": "error"
    },
    {
      "inputs": [],
      "name": "AlreadyRevoked",
      "type": "error"
    },
    {
      "inputs": [],
      "name": "AlreadyRevokedOffchain",
      "type": "error"
    },
    {
      "inputs": [],
      "name": "AlreadyTimestamped",
      "type": "error"
    },
    {
      "inputs": [],
      "name": "InsufficientValue",
      "type": "error"
    },
    {
      "inputs": [],
      "name": "InvalidAttestation",
      "type": "error"
    },
    {
      "inputs": [],
      "name": "InvalidAttestations",
      "type": "error"
    },
    {
      "inputs": [],
      "name": "InvalidExpirationTime",
      "type": "error"
    },
    {
      "inputs": [],
      "name": "InvalidLength",
      "type": "error"
    },
    {
      "inputs": [],
      "name": "InvalidOffset",
      "type": "error"
    },
    {
      "inputs": [],
      "name": "InvalidRegistry",
      "type": "error"
    },
    {
      "inputs": [],
      "name": "InvalidRevocation",
      "type": "error"
    },
    {
      "inputs": [],
      "name": "InvalidRevocations",
      "type": "error"
    },
    {
      "inputs": [],
      "name": "InvalidSchema",
      "type": "error"
    },
    {
      "inputs": [],
      "name": "InvalidShortString",
      "type": "error"
    },
    {
      "inputs": [],
      "name": "InvalidSignature",
      "type": "error"
    },
    {
      "inputs": [],
      "name": "InvalidVerifier",
      "type": "error"
    },
    {
      "inputs": [],
      "name": "Irrevocable",
      "type": "error"
    },
    {
      "inputs": [],
      "name": "NotFound",
      "type": "error"
    },
    {
      "inputs": [],
      "name": "NotPayable",
      "type": "error"
    },
    {
      "inputs": [
        {
          "internalType": "string",
          "name": "str",
          "type": "string"
        }
      ],
      "name": "StringTooLong",
      "type": "error"
    },
    {
      "inputs": [],
      "name": "WrongSchema",
      "type": "error"
    },
    {
      "anonymous": false,
      "inputs": [
        {
          "indexed": true,
          "internalType": "address",
          "name": "recipient",
          "type": "address"
        },
        {
          "indexed": true,
          "internalType": "address",
          "name": "attester",
          "type": "address"
        },
        {
          "indexed": false,
          "internalType": "bytes32",
          "name": "uid",
          "type": "bytes32"
        },
        {
          "indexed": true,
          "internalType": "bytes32",
          "name": "schema",
          "type": "bytes32"
        }
      ],
      "name": "Attested",
      "type": "event"
    },
    {
      "anonymous": false,
      "inputs": [],
      "name": "EIP712DomainChanged",
      "type": "event"
    },
    {
      "anonymous": false,
      "inputs": [
        {
          "indexed": true,
          "internalType": "address",
          "name": "recipient",
          "type": "address"
        },
        {
          "indexed": true,
          "internalType": "address",
          "name": "attester",
          "type": "address"
        },
        {
          "indexed": false,
          "internalType": "bytes32",
          "name": "uid",
          "type": "bytes32"
        },
        {
          "indexed": true,
          "internalType": "bytes32",
          "name": "schema",
          "type": "bytes32"
        }
      ],
      "name": "Revoked",
      "type": "event"
    },
    {
      "anonymous": false,
      "inputs": [
        {
          "indexed": true,
          "internalType": "address",
          "name": "revoker",
          "type": "address"
        },
        {
          "indexed": true,
          "internalType": "bytes32",
          "name": "data",
          "type": "bytes32"
        },
        {
          "indexed": true,
          "internalType": "uint64",
          "name": "timestamp",
          "type": "uint64"
        }
      ],
      "name": "RevokedOffchain",
      "type": "event"
    },
    {
      "anonymous": false,
      "inputs": [
        {
          "indexed": true,
          "internalType": "bytes32",
          "name": "data",
          "type": "bytes32"
        },
        {
          "indexed": true,
          "internalType": "uint64",
          "name": "timestamp",
          "type": "uint64"
        }
      ],
      "name": "Timestamped",
      "type": "event"
    },
    {
      "inputs": [
        {
          "components": [
            {
              "internalType": "bytes32",
              "name": "schema",
              "type": "bytes32"
            },
            {
              "components": [
                {
                  "internalType": "address",
                  "name": "recipient",
                  "type": "address"
                },
                {
                  "internalType": "uint64",
                  "name": "expirationTime",
                  "type": "uint64"
                },
                {
                  "internalType": "bool",
                  "name": "revocable",
                  "type": "bool"
                },
                {
                  "internalType": "bytes32",
                  "name": "refUID",
                  "type": "bytes32"
                },
                {
                  "internalType": "bytes",
                  "name": "data",
                  "type": "bytes"
                },
                {
                  "internalType": "uint256",
                  "name": "value",
                  "type": "uint256"
                }
              ],
              "internalType": "struct AttestationRequestData",
              "name": "data",
              "type": "tuple"
            }
          ],
          "internalType": "struct AttestationRequest",
          "name": "request",
          "type": "tuple"
        }
      ],
      "name": "attest",
      "outputs": [
        {
          "internalType": "bytes32",
          "name": "",
          "type": "bytes32"
        }
      ],
      "stateMutability": "payable",
      "type": "function"
    },
    {
      "inputs": [
        {
          "components": [
            {
              "internalType": "bytes32",
              "name": "schema",
              "type": "bytes32"
            },
            {
              "components": [
                {
                  "internalType": "address",
                  "name": "recipient",
                  "type": "address"
                },
                {
                  "internalType": "uint64",
                  "name": "expirationTime",
                  "type": "uint64"
                },
                {
                  "internalType": "bool",
                  "name": "revocable",
                  "type": "bool"
                },
                {
                  "internalType": "bytes32",
                  "name": "refUID",
                  "type": "bytes32"
                },
                {
                  "internalType": "bytes",
                  "name": "data",
                  "type": "bytes"
                },
                {
                  "internalType": "uint256",
                  "name": "value",
                  "type": "uint256"
                }
              ],
              "internalType": "struct AttestationRequestData",
              "name": "data",
              "type": "tuple"
            },
            {
              "components": [
                {
                  "internalType": "uint8",
                  "name": "v",
                  "type": "uint8"
                },
                {
                  "internalType": "bytes32",
                  "name": "r",
                  "type": "bytes32"
                },
                {
                  "internalType": "bytes32",
                  "name": "s",
                  "type": "bytes32"
                }
              ],
              "internalType": "struct Signature",
              "name": "signature",
              "type": "tuple"
            },
            {
              "internalType": "address",
              "name": "attester",
              "type": "address"
            }
          ],
          "internalType": "struct DelegatedAttestationRequest",
          "name": "delegatedRequest",
          "type": "tuple"
        }
      ],
      "name": "attestByDelegation",
      "outputs": [
        {
          "internalType": "bytes32",
          "name": "",
          "type": "bytes32"
        }
      ],
      "stateMutability": "payable",
      "type": "function"
    },
    {
      "inputs": [],
      "name": "eip712Domain",
      "outputs": [
        {
          "internalType": "bytes1",
          "name": "fields",
          "type": "bytes1"
        },
        {
          "internalType": "string",
          "name": "name",
          "type": "string"
        },
        {
          "internalType": "string",
          "name": "version",
          "type": "string"
        },
        {
          "internalType": "uint256",
          "name": "chainId",
          "type": "uint256"
        },
        {
          "internalType": "address",
          "name": "verifyingContract",
          "type": "address"
        },
        {
          "internalType": "bytes32",
          "name": "salt",
          "type": "bytes32"
        },
        {
          "internalType": "uint256[]",
          "name": "extensions",
          "type": "uint256[]"
        }
      ],
      "stateMutability": "view",
      "type": "function"
    },
    {
      "inputs": [],
      "name": "getAttestTypeHash",
      "outputs": [
        {
          "internalType": "bytes32",
          "name": "",
          "type": "bytes32"
        }
      ],
      "stateMutability": "pure",
      "type": "function"
    },
    {
      "inputs": [
        {
          "internalType": "bytes32",
          "name": "uid",
          "type": "bytes32"
        }
      ],
      "name": "getAttestation",
      "outputs": [
        {
          "components": [
            {
              "internalType": "bytes32",
              "name": "uid",
              "type": "bytes32"
            },
            {
              "internalType": "bytes32",
              "name": "schema",
              "type": "bytes32"
            },
            {
              "internalType": "uint64",
              "name": "time",
              "type": "uint64"
            },
            {
              "internalType": "uint64",
              "name": "expirationTime",
              "type": "uint64"
            },
            {
              "internalType": "uint64",
              "name": "revocationTime",
              "type": "uint64"
            },
            {
              "internalType": "bytes32",
              "name": "refUID",
              "type": "bytes32"
            },
            {
              "internalType": "address",
              "name": "recipient",
              "type": "address"
            },
            {
              "internalType": "address",
              "name": "attester",
              "type": "address"
            },
            {
              "internalType": "bool",
              "name": "revocable",
              "type": "bool"
            },
            {
              "internalType": "bytes",
              "name": "data",
              "type": "bytes"
            }
          ],
          "internalType": "struct Attestation",
          "name": "",
          "type": "tuple"
        }
      ],
      "stateMutability": "view",
      "type": "function"
    },
    {
      "inputs": [],
      "name": "getDomainSeparator",
      "outputs": [
        {
          "internalType": "bytes32",
          "name": "",
          "type": "bytes32"
        }
      ],
      "stateMutability": "view",
      "type": "function"
    },
    {
      "inputs": [],
      "name": "getName",
      "outputs": [
        {
          "internalType": "string",
          "name": "",
          "type": "string"
        }
      ],
      "stateMutability": "view",
      "type": "function"
    },
    {
      "inputs": [
        {
          "internalType": "address",
          "name": "account",
          "type": "address"
        }
      ],
      "name": "getNonce",
      "outputs": [
        {
          "internalType": "uint256",
          "name": "",
          "type": "uint256"
        }
      ],
      "stateMutability": "view",
      "type": "function"
    },
    {
      "inputs": [
        {
          "internalType": "address",
          "name": "revoker",
          "type": "address"
        },
        {
          "internalType": "bytes32",
          "name": "data",
          "type": "bytes32"
        }
      ],
      "name": "getRevokeOffchain",
      "outputs": [
        {
          "internalType": "uint64",
          "name": "",
          "type": "uint64"
        }
      ],
      "stateMutability": "view",
      "type": "function"
    },
    {
      "inputs": [],
      "name": "getRevokeTypeHash",
      "outputs": [
        {
          "internalType": "bytes32",
          "name": "",
          "type": "bytes32"
        }
      ],
      "stateMutability": "pure",
      "type": "function"
    },
    {
      "inputs": [],
      "name": "getSchemaRegistry",
      "outputs": [
        {
          "internalType": "contract ISchemaRegistry",
          "name": "",
          "type": "address"
        }
      ],
      "stateMutability": "view",
      "type": "function"
    },
    {
      "inputs": [
        {
          "internalType": "bytes32",
          "name": "data",
          "type": "bytes32"
        }
      ],
      "name": "getTimestamp",
      "outputs": [
        {
          "internalType": "uint64",
          "name": "",
          "type": "uint64"
        }
      ],
      "stateMutability": "view",
      "type": "function"
    },
    {
      "inputs": [
        {
          "internalType": "bytes32",
          "name": "uid",
          "type": "bytes32"
        }
      ],
      "name": "isAttestationValid",
      "outputs": [
        {
          "internalType": "bool",
          "name": "",
          "type": "bool"
        }
      ],
      "stateMutability": "view",
      "type": "function"
    },
    {
      "inputs": [
        {
          "components": [
            {
              "internalType": "bytes32",
              "name": "schema",
              "type": "bytes32"
            },
            {
              "components": [
                {
                  "internalType": "address",
                  "name": "recipient",
                  "type": "address"
                },
                {
                  "internalType": "uint64",
                  "name": "expirationTime",
                  "type": "uint64"
                },
                {
                  "internalType": "bool",
                  "name": "revocable",
                  "type": "bool"
                },
                {
                  "internalType": "bytes32",
                  "name": "refUID",
                  "type": "bytes32"
                },
                {
                  "internalType": "bytes",
                  "name": "data",
                  "type": "bytes"
                },
                {
                  "internalType": "uint256",
                  "name": "value",
                  "type": "uint256"
                }
              ],
              "internalType": "struct AttestationRequestData[]",
              "name": "data",
              "type": "tuple[]"
            }
          ],
          "internalType": "struct MultiAttestationRequest[]",
          "name": "multiRequests",
          "type": "tuple[]"
        }
      ],
      "name": "multiAttest",
      "outputs": [
        {
          "internalType": "bytes32[]",
          "name": "",
          "type": "bytes32[]"
        }
      ],
      "stateMutability": "payable",
      "type": "function"
    },
    {
      "inputs": [
        {
          "components": [
            {
              "internalType": "bytes32",
              "name": "schema",
              "type": "bytes32"
            },
            {
              "components": [
                {
                  "internalType": "address",
                  "name": "recipient",
                  "type": "address"
                },
                {
                  "internalType": "uint64",
                  "name": "expirationTime",
                  "type": "uint64"
                },
                {
                  "internalType": "bool",
                  "name": "revocable",
                  "type": "bool"
                },
                {
                  "internalType": "bytes32",
                  "name": "refUID",
                  "type": "bytes32"
                },
                {
                  "internalType": "bytes",
                  "name": "data",
                  "type": "bytes"
                },
                {
                  "internalType": "uint256",
                  "name": "value",
                  "type": "uint256"
                }
              ],
              "internalType": "struct AttestationRequestData[]",
              "name": "data",
              "type": "tuple[]"
            },
            {
              "components": [
                {
                  "internalType": "uint8",
                  "name": "v",
                  "type": "uint8"
                },
                {
                  "internalType": "bytes32",
                  "name": "r",
                  "type": "bytes32"
                },
                {
                  "internalType": "bytes32",
                  "name": "s",
                  "type": "bytes32"
                }
              ],
              "internalType": "struct Signature[]",
              "name": "signatures",
              "type": "tuple[]"
            },
            {
              "internalType": "address",
              "name": "attester",
              "type": "address"
            }
          ],
          "internalType": "struct MultiDelegatedAttestationRequest[]",
          "name": "multiDelegatedRequests",
          "type": "tuple[]"
        }
      ],
      "name": "multiAttestByDelegation",
      "outputs": [
        {
          "internalType": "bytes32[]",
          "name": "",
          "type": "bytes32[]"
        }
      ],
      "stateMutability": "payable",
      "type": "function"
    },
    {
      "inputs": [
        {
          "components": [
            {
              "internalType": "bytes32",
              "name": "schema",
              "type": "bytes32"
            },
            {
              "components": [
                {
                  "internalType": "bytes32",
                  "name": "uid",
                  "type": "bytes32"
                },
                {
                  "internalType": "uint256",
                  "name": "value",
                  "type": "uint256"
                }
              ],
              "internalType": "struct RevocationRequestData[]",
              "name": "data",
              "type": "tuple[]"
            }
          ],
          "internalType": "struct MultiRevocationRequest[]",
          "name": "multiRequests",
          "type": "tuple[]"
        }
      ],
      "name": "multiRevoke",
      "outputs": [],
      "stateMutability": "payable",
      "type": "function"
    },
    {
      "inputs": [
        {
          "components": [
            {
              "internalType": "bytes32",
              "name": "schema",
              "type": "bytes32"
            },
            {
              "components": [
                {
                  "internalType": "bytes32",
                  "name": "uid",
                  "type": "bytes32"
                },
                {
                  "internalType": "uint256",
                  "name": "value",
                  "type": "uint256"
                }
              ],
              "internalType": "struct RevocationRequestData[]",
              "name": "data",
              "type": "tuple[]"
            },
            {
              "components": [
                {
                  "internalType": "uint8",
                  "name": "v",
                  "type": "uint8"
                },
                {
                  "internalType": "bytes32",
                  "name": "r",
                  "type": "bytes32"
                },
                {
                  "internalType": "bytes32",
                  "name": "s",
                  "type": "bytes32"
                }
              ],
              "internalType": "struct Signature[]",
              "name": "signatures",
              "type": "tuple[]"
            },
            {
              "internalType": "address",
              "name": "revoker",
              "type": "address"
            }
          ],
          "internalType": "struct MultiDelegatedRevocationRequest[]",
          "name": "multiDelegatedRequests",
          "type": "tuple[]"
        }
      ],
      "name": "multiRevokeByDelegation",
      "outputs": [],
      "stateMutability": "payable",
      "type": "function"
    },
    {
      "inputs": [
        {
          "internalType": "bytes32[]",
          "name": "data",
          "type": "bytes32[]"
        }
      ],
      "name": "multiRevokeOffchain",
      "outputs": [
        {
          "internalType": "uint64",
          "name": "",
          "type": "uint64"
        }
      ],
      "stateMutability": "nonpayable",
      "type": "function"
    },
    {
      "inputs": [
        {
          "internalType": "bytes32[]",
          "name": "data",
          "type": "bytes32[]"
        }
      ],
      "name": "multiTimestamp",
      "outputs": [
        {
          "internalType": "uint64",
          "name": "",
          "type": "uint64"
        }
      ],
      "stateMutability": "nonpayable",
      "type": "function"
    },
    {
      "inputs": [
        {
          "components": [
            {
              "internalType": "bytes32",
              "name": "schema",
              "type": "bytes32"
            },
            {
              "components": [
                {
                  "internalType": "bytes32",
                  "name": "uid",
                  "type": "bytes32"
                },
                {
                  "internalType": "uint256",
                  "name": "value",
                  "type": "uint256"
                }
              ],
              "internalType": "struct RevocationRequestData",
              "name": "data",
              "type": "tuple"
            }
          ],
          "internalType": "struct RevocationRequest",
          "name": "request",
          "type": "tuple"
        }
      ],
      "name": "revoke",
      "outputs": [],
      "stateMutability": "payable",
      "type": "function"
    },
    {
      "inputs": [
        {
          "components": [
            {
              "internalType": "bytes32",
              "name": "schema",
              "type": "bytes32"
            },
            {
              "components": [
                {
                  "internalType": "bytes32",
                  "name": "uid",
                  "type": "bytes32"
                },
                {
                  "internalType": "uint256",
                  "name": "value",
                  "type": "uint256"
                }
              ],
              "internalType": "struct RevocationRequestData",
              "name": "data",
              "type": "tuple"
            },
            {
              "components": [
                {
                  "internalType": "uint8",
                  "name": "v",
                  "type": "uint8"
                },
                {
                  "internalType": "bytes32",
                  "name": "r",
                  "type": "bytes32"
                },
                {
                  "internalType": "bytes32",
                  "name": "s",
                  "type": "bytes32"
                }
              ],
              "internalType": "struct Signature",
              "name": "signature",
              "type": "tuple"
            },
            {
              "internalType": "address",
              "name": "revoker",
              "type": "address"
            }
          ],
          "internalType": "struct DelegatedRevocationRequest",
          "name": "delegatedRequest",
          "type": "tuple"
        }
      ],
      "name": "revokeByDelegation",
      "outputs": [],
      "stateMutability": "payable",
      "type": "function"
    },
    {
      "inputs": [
        {
          "internalType": "bytes32",
          "name": "data",
          "type": "bytes32"
        }
      ],
      "name": "revokeOffchain",
      "outputs": [
        {
          "internalType": "uint64",
          "name": "",
          "type": "uint64"
        }
      ],
      "stateMutability": "nonpayable",
      "type": "function"
    },
    {
      "inputs": [
        {
          "internalType": "bytes32",
          "name": "data",
          "type": "bytes32"
        }
      ],
      "name": "timestamp",
      "outputs": [
        {
          "internalType": "uint64",
          "name": "",
          "type": "uint64"
        }
      ],
      "stateMutability": "nonpayable",
      "type": "function"
    },
    {
      "inputs": [],
      "name": "version",
      "outputs": [
        {
          "internalType": "string",
          "name": "",
          "type": "string"
        }
      ],
      "stateMutability": "view",
      "type": "function"
    }
  ],
  "transactionHash": "0x4e7a7e2950bfea9b57301bdca9a6d6b0bd124c5f5275254faa306b2345405a11",
  "args": [
    "0x55D26f9ae0203EF95494AE4C170eD35f4Cf77797"
  ],
  "numDeployments": 1,
  "solcInputHash": "d846ede084486833491fa24e33cc12af",
  "bytecode": "0x6101e06040523480156200001257600080fd5b5060405162004b0638038062004b0683398101604081905262000035916200020d565b604080518082018252600381526245415360e81b602080830191909152825180840190935260058352640312e312e360dc1b908301526001608081905260a052600060c0819052909190829082906200009090839062000188565b61018052620000a181600162000188565b6101a052815160208084019190912061014052815190820120610160524661010052620001326101405161016051604080517f8b73c3c69bb8fe3d512ecc4cf759cc79239f7b179b0ffacaa9a75d522b39400f60208201529081019290925260608201524660808201523060a082015260009060c00160405160208183030381529060405280519060200120905090565b60e0525050306101205260026200014a8382620002e4565b5050506001600160a01b03811662000175576040516311a1e69760e01b815260040160405180910390fd5b6001600160a01b03166101c05262000425565b6000602083511015620001a857620001a083620001c1565b9050620001bb565b81620001b58482620002e4565b5060ff90505b92915050565b600080829050601f81511115620001f8578260405163305a27a960e01b8152600401620001ef9190620003b0565b60405180910390fd5b8051620002058262000400565b179392505050565b6000602082840312156200022057600080fd5b81516001600160a01b03811681146200023857600080fd5b9392505050565b634e487b7160e01b600052604160045260246000fd5b600181811c908216806200026a57607f821691505b6020821081036200028b57634e487b7160e01b600052602260045260246000fd5b50919050565b601f821115620002df57600081815260208120601f850160051c81016020861015620002ba5750805b601f850160051c820191505b81811015620002db57828155600101620002c6565b5050505b505050565b81516001600160401b038111156200030057620003006200023f565b620003188162000311845462000255565b8462000291565b602080601f831160018114620003505760008415620003375750858301515b600019600386901b1c1916600185901b178555620002db565b600085815260208120601f198616915b82811015620003815788860151825594840194600190910190840162000360565b5085821015620003a05787850151600019600388901b60f8161c191681555b5050505050600190811b01905550565b600060208083528351808285015260005b81811015620003df57858101830151858201604001528201620003c1565b506000604082860101526040601f19601f8301168501019250505092915050565b805160208083015191908110156200028b5760001960209190910360031b1b16919050565b60805160a05160c05160e05161010051610120516101405161016051610180516101a0516101c05161464c620004ba6000396000818161050d015281816114060152611ba901526000610bfd01526000610bd301526000612717015260006126ef0152600061264a015260006126740152600061269e0152600061092a01526000610901015260006108d8015261464c6000f3fe60806040526004361061018b5760003560e01c8063b469318d116100d6578063e45d03f91161007f578063ed24911d11610059578063ed24911d146104d1578063f10b5cc8146104e6578063f17325e71461053757600080fd5b8063e45d03f91461048b578063e57a6b1b1461049e578063e71ff365146104b157600080fd5b8063d45c4435116100b0578063d45c443514610402578063e13458fc14610439578063e30bb5631461044c57600080fd5b8063b469318d14610355578063b83010d3146103af578063cf190f34146103e257600080fd5b80634cb7e9e511610138578063831e05a111610112578063831e05a1146102ed57806384b0196e14610300578063a3112a641461032857600080fd5b80634cb7e9e5146102a55780634d003070146102b857806354fd4d50146102d857600080fd5b80632d0335ab116101695780632d0335ab1461022d57806344adc90e14610270578063469262671461029057600080fd5b806312b11a171461019057806313893f61146101d257806317d7de7c1461020b575b600080fd5b34801561019c57600080fd5b507fdbfdf8dc2b135c26253e00d5b6cbe6f20457e003fd526d97cea183883570de615b6040519081526020015b60405180910390f35b3480156101de57600080fd5b506101f26101ed36600461351a565b61054a565b60405167ffffffffffffffff90911681526020016101c9565b34801561021757600080fd5b5061022061058f565b6040516101c991906135ca565b34801561023957600080fd5b506101bf610248366004613616565b73ffffffffffffffffffffffffffffffffffffffff1660009081526003602052604090205490565b61028361027e36600461351a565b610621565b6040516101c99190613633565b6102a361029e366004613677565b610758565b005b6102a36102b336600461351a565b6107dc565b3480156102c457600080fd5b506101f26102d336600461368f565b6108c4565b3480156102e457600080fd5b506102206108d1565b6102836102fb36600461351a565b610974565b34801561030c57600080fd5b50610315610bc5565b6040516101c997969594939291906136e3565b34801561033457600080fd5b5061034861034336600461368f565b610c69565b6040516101c99190613853565b34801561036157600080fd5b506101f2610370366004613866565b73ffffffffffffffffffffffffffffffffffffffff919091166000908152600660209081526040808320938352929052205467ffffffffffffffff1690565b3480156103bb57600080fd5b507fa98d02348410c9c76735e0d0bb1396f4015ac2bb9615f9c2611d19d7a8a996506101bf565b3480156103ee57600080fd5b506101f26103fd36600461368f565b610e2b565b34801561040e57600080fd5b506101f261041d36600461368f565b60009081526005602052604090205467ffffffffffffffff1690565b6101bf610447366004613892565b610e39565b34801561045857600080fd5b5061047b61046736600461368f565b600090815260046020526040902054151590565b60405190151581526020016101c9565b6102a361049936600461351a565b610f3c565b6102a36104ac3660046138cd565b6110b7565b3480156104bd57600080fd5b506101f26104cc36600461351a565b61115c565b3480156104dd57600080fd5b506101bf611194565b3480156104f257600080fd5b5060405173ffffffffffffffffffffffffffffffffffffffff7f00000000000000000000000000000000000000000000000000000000000000001681526020016101c9565b6101bf6105453660046138df565b6111a3565b60004282825b818110156105835761057b3387878481811061056e5761056e61391a565b9050602002013585611261565b600101610550565b50909150505b92915050565b60606002805461059e90613949565b80601f01602080910402602001604051908101604052809291908181526020018280546105ca90613949565b80156106175780601f106105ec57610100808354040283529160200191610617565b820191906000526020600020905b8154815290600101906020018083116105fa57829003601f168201915b5050505050905090565b606060008267ffffffffffffffff81111561063e5761063e613996565b60405190808252806020026020018201604052801561067157816020015b606081526020019060019003908161065c5790505b509050600034815b85811015610743577fffffffffffffffffffffffffffffffffffffffffffffffffffffffffffffffff86018114368888848181106106b9576106b961391a565b90506020028101906106cb91906139c5565b905060006106f282356106e16020850185613a03565b6106ea91613c7c565b338887611360565b80519091506107019086613cf0565b9450806020015187858151811061071a5761071a61391a565b60200260200101819052508060200151518601955050505061073c8160010190565b9050610679565b5061074e8383611a93565b9695505050505050565b604080516001808252818301909252600091816020015b604080518082019091526000808252602082015281526020019060019003908161076f5790505090506107aa36839003830160208401613d79565b816000815181106107bd576107bd61391a565b60209081029190910101526107d782358233346001611b60565b505050565b3460005b828110156108be577fffffffffffffffffffffffffffffffffffffffffffffffffffffffffffffffff83018114368585848181106108205761082061391a565b905060200281019061083291906139c5565b905061089f81356108466020840184613d95565b808060200260200160405190810160405280939291908181526020016000905b828210156108925761088360408302860136819003810190613d79565b81526020019060010190610866565b5050505050338786611b60565b6108a99085613cf0565b935050506108b78160010190565b90506107e0565b50505050565b60004261058983826121bc565b60606108fc7f000000000000000000000000000000000000000000000000000000000000000061227e565b6109257f000000000000000000000000000000000000000000000000000000000000000061227e565b61094e7f000000000000000000000000000000000000000000000000000000000000000061227e565b60405160200161096093929190613dfd565b604051602081830303815290604052905090565b606060008267ffffffffffffffff81111561099157610991613996565b6040519080825280602002602001820160405280156109c457816020015b60608152602001906001900390816109af5790505b509050600034815b85811015610743577fffffffffffffffffffffffffffffffffffffffffffffffffffffffffffffffff8601811436888884818110610a0c57610a0c61391a565b9050602002810190610a1e9190613e73565b9050366000610a306020840184613a03565b9092509050801580610a505750610a4a6040840184613ea7565b82141590505b15610a87576040517f947d5a8400000000000000000000000000000000000000000000000000000000815260040160405180910390fd5b60005b81811015610b4957610b41604051806080016040528086600001358152602001858585818110610abc57610abc61391a565b9050602002810190610ace9190613f0e565b610ad790613f42565b8152602001610ae96040880188613ea7565b85818110610af957610af961391a565b905060600201803603810190610b0f9190613fb9565b8152602001610b246080880160608901613616565b73ffffffffffffffffffffffffffffffffffffffff16905261233c565b600101610a8a565b506000610b728435610b5b8486613c7c565b610b6b6080880160608901613616565b8a89611360565b8051909150610b819088613cf0565b96508060200151898781518110610b9a57610b9a61391a565b6020026020010181905250806020015151880197505050505050610bbe8160010190565b90506109cc565b600060608082808083610bf87f0000000000000000000000000000000000000000000000000000000000000000836124f6565b610c237f000000000000000000000000000000000000000000000000000000000000000060016124f6565b604080516000808252602082019092527f0f000000000000000000000000000000000000000000000000000000000000009b939a50919850469750309650945092509050565b604080516101408101825260008082526020820181905291810182905260608082018390526080820183905260a0820183905260c0820183905260e0820183905261010082019290925261012081019190915260008281526004602081815260409283902083516101408101855281548152600182015492810192909252600281015467ffffffffffffffff808216958401959095526801000000000000000081048516606084015270010000000000000000000000000000000090049093166080820152600383015460a08201529082015473ffffffffffffffffffffffffffffffffffffffff90811660c0830152600583015490811660e083015274010000000000000000000000000000000000000000900460ff16151561010082015260068201805491929161012084019190610da290613949565b80601f0160208091040260200160405190810160405280929190818152602001828054610dce90613949565b8015610e1b5780601f10610df057610100808354040283529160200191610e1b565b820191906000526020600020905b815481529060010190602001808311610dfe57829003601f168201915b5050505050815250509050919050565b600042610589338483611261565b6000610e4c610e4783613fd5565b61233c565b604080516001808252818301909252600091816020015b6040805160c081018252600080825260208083018290529282018190526060808301829052608083015260a082015282527fffffffffffffffffffffffffffffffffffffffffffffffffffffffffffffffff909201910181610e63579050509050610ed16020840184613f0e565b610eda90613f42565b81600081518110610eed57610eed61391a565b6020908102919091010152610f16833582610f0e60c0870160a08801613616565b346001611360565b60200151600081518110610f2c57610f2c61391a565b6020026020010151915050919050565b3460005b828110156108be577fffffffffffffffffffffffffffffffffffffffffffffffffffffffffffffffff830181146000858584818110610f8157610f8161391a565b9050602002810190610f939190613e73565b610f9c906140ba565b60208101518051919250901580610fb95750816040015151815114155b15610ff0576040517f947d5a8400000000000000000000000000000000000000000000000000000000815260040160405180910390fd5b60005b8151811015611081576110796040518060800160405280856000015181526020018484815181106110265761102661391a565b60200260200101518152602001856040015184815181106110495761104961391a565b60200260200101518152602001856060015173ffffffffffffffffffffffffffffffffffffffff168152506125a1565b600101610ff3565b5061109782600001518284606001518887611b60565b6110a19086613cf0565b94505050506110b08160010190565b9050610f40565b6110ce6110c936839003830183614199565b6125a1565b604080516001808252818301909252600091816020015b60408051808201909152600080825260208201528152602001906001900390816110e557905050905061112036839003830160208401613d79565b816000815181106111335761113361391a565b60209081029190910101526107d782358261115460e0860160c08701613616565b346001611b60565b60004282825b818110156105835761118c86868381811061117f5761117f61391a565b90506020020135846121bc565b600101611162565b600061119e612630565b905090565b604080516001808252818301909252600091829190816020015b6040805160c081018252600080825260208083018290529282018190526060808301829052608083015260a082015282527fffffffffffffffffffffffffffffffffffffffffffffffffffffffffffffffff9092019101816111bd57905050905061122b6020840184613f0e565b61123490613f42565b816000815181106112475761124761391a565b6020908102919091010152610f1683358233346001611360565b73ffffffffffffffffffffffffffffffffffffffff83166000908152600660209081526040808320858452918290529091205467ffffffffffffffff16156112d5576040517fec9d6eeb00000000000000000000000000000000000000000000000000000000815260040160405180910390fd5b60008381526020829052604080822080547fffffffffffffffffffffffffffffffffffffffffffffffff00000000000000001667ffffffffffffffff861690811790915590519091859173ffffffffffffffffffffffffffffffffffffffff8816917f92a1f7a41a7c585a8b09e25b195e225b1d43248daca46b0faf9e0792777a222991a450505050565b60408051808201909152600081526060602082015284516040805180820190915260008152606060208201528167ffffffffffffffff8111156113a5576113a5613996565b6040519080825280602002602001820160405280156113ce578160200160208202803683370190505b5060208201526040517fa2ea7c6e000000000000000000000000000000000000000000000000000000008152600481018990526000907f000000000000000000000000000000000000000000000000000000000000000073ffffffffffffffffffffffffffffffffffffffff169063a2ea7c6e90602401600060405180830381865afa158015611462573d6000803e3d6000fd5b505050506040513d6000823e601f3d9081017fffffffffffffffffffffffffffffffffffffffffffffffffffffffffffffffe01682016040526114a891908101906141f5565b80519091506114e3576040517fbf37b20e00000000000000000000000000000000000000000000000000000000815260040160405180910390fd5b60008367ffffffffffffffff8111156114fe576114fe613996565b60405190808252806020026020018201604052801561159d57816020015b60408051610140810182526000808252602080830182905292820181905260608083018290526080830182905260a0830182905260c0830182905260e0830182905261010083019190915261012082015282527fffffffffffffffffffffffffffffffffffffffffffffffffffffffffffffffff90920191018161151c5790505b50905060008467ffffffffffffffff8111156115bb576115bb613996565b6040519080825280602002602001820160405280156115e4578160200160208202803683370190505b50905060005b85811015611a725760008b82815181106116065761160661391a565b60200260200101519050600067ffffffffffffffff16816020015167ffffffffffffffff161415801561165157504267ffffffffffffffff16816020015167ffffffffffffffff1611155b15611688576040517f08e8b93700000000000000000000000000000000000000000000000000000000815260040160405180910390fd5b846040015115801561169b575080604001515b156116d2576040517f157bd4c300000000000000000000000000000000000000000000000000000000815260040160405180910390fd5b60006040518061014001604052806000801b81526020018f81526020016116f64290565b67ffffffffffffffff168152602001836020015167ffffffffffffffff168152602001600067ffffffffffffffff16815260200183606001518152602001836000015173ffffffffffffffffffffffffffffffffffffffff1681526020018d73ffffffffffffffffffffffffffffffffffffffff16815260200183604001511515815260200183608001518152509050600080600090505b6117988382612768565b600081815260046020526040902054909250156117b75760010161178e565b81835260008281526004602081815260409283902086518155908601516001820155918501516002830180546060880151608089015167ffffffffffffffff908116700100000000000000000000000000000000027fffffffffffffffff0000000000000000ffffffffffffffffffffffffffffffff92821668010000000000000000027fffffffffffffffffffffffffffffffff000000000000000000000000000000009094169190951617919091171691909117905560a0850151600383015560c0850151908201805473ffffffffffffffffffffffffffffffffffffffff9283167fffffffffffffffffffffffff000000000000000000000000000000000000000090911617905560e0850151600583018054610100880151151574010000000000000000000000000000000000000000027fffffffffffffffffffffff00000000000000000000000000000000000000000090911692909316919091179190911790556101208401518491906006820190611936908261431b565b50505060608401511561198d57606084015160009081526004602052604090205461198d576040517fc5723b5100000000000000000000000000000000000000000000000000000000815260040160405180910390fd5b828786815181106119a0576119a061391a565b60200260200101819052508360a001518686815181106119c2576119c261391a565b60200260200101818152505081896020015186815181106119e5576119e561391a565b6020026020010181815250508f8e73ffffffffffffffffffffffffffffffffffffffff16856000015173ffffffffffffffffffffffffffffffffffffffff167f8bf46bf4cfd674fa735a3d63ec1c9ad4153f033c290341f3a588b75685141b3585604051611a5591815260200190565b60405180910390a450505050611a6b8160010190565b90506115ea565b50611a8283838360008c8c6127c7565b845250919998505050505050505050565b606060008267ffffffffffffffff811115611ab057611ab0613996565b604051908082528060200260200182016040528015611ad9578160200160208202803683370190505b5090506000805b8551811015610583576000868281518110611afd57611afd61391a565b6020026020010151905060005b8151811015611b5657818181518110611b2557611b2561391a565b6020026020010151858581518110611b3f57611b3f61391a565b602090810291909101015260019384019301611b0a565b5050600101611ae0565b6040517fa2ea7c6e00000000000000000000000000000000000000000000000000000000815260048101869052600090819073ffffffffffffffffffffffffffffffffffffffff7f0000000000000000000000000000000000000000000000000000000000000000169063a2ea7c6e90602401600060405180830381865afa158015611bf0573d6000803e3d6000fd5b505050506040513d6000823e601f3d9081017fffffffffffffffffffffffffffffffffffffffffffffffffffffffffffffffe0168201604052611c3691908101906141f5565b8051909150611c71576040517fbf37b20e00000000000000000000000000000000000000000000000000000000815260040160405180910390fd5b855160008167ffffffffffffffff811115611c8e57611c8e613996565b604051908082528060200260200182016040528015611d2d57816020015b60408051610140810182526000808252602080830182905292820181905260608083018290526080830182905260a0830182905260c0830182905260e0830182905261010083019190915261012082015282527fffffffffffffffffffffffffffffffffffffffffffffffffffffffffffffffff909201910181611cac5790505b50905060008267ffffffffffffffff811115611d4b57611d4b613996565b604051908082528060200260200182016040528015611d74578160200160208202803683370190505b50905060005b8381101561219e5760008a8281518110611d9657611d9661391a565b6020908102919091018101518051600090815260049092526040909120805491925090611def576040517fc5723b5100000000000000000000000000000000000000000000000000000000815260040160405180910390fd5b8c816001015414611e2c576040517fbf37b20e00000000000000000000000000000000000000000000000000000000815260040160405180910390fd5b600581015473ffffffffffffffffffffffffffffffffffffffff8c8116911614611e82576040517f4ca8886700000000000000000000000000000000000000000000000000000000815260040160405180910390fd5b600581015474010000000000000000000000000000000000000000900460ff16611ed8576040517f157bd4c300000000000000000000000000000000000000000000000000000000815260040160405180910390fd5b6002810154700100000000000000000000000000000000900467ffffffffffffffff1615611f32576040517f905e710700000000000000000000000000000000000000000000000000000000815260040160405180910390fd5b426002820180547fffffffffffffffff0000000000000000ffffffffffffffffffffffffffffffff811670010000000000000000000000000000000067ffffffffffffffff948516810291821793849055604080516101408101825287548152600188015460208201529386169286169290921791830191909152680100000000000000008304841660608301529091049091166080820152600382015460a0820152600482015473ffffffffffffffffffffffffffffffffffffffff90811660c0830152600583015490811660e083015274010000000000000000000000000000000000000000900460ff161515610100820152600682018054839161012084019161203e90613949565b80601f016020809104026020016040519081016040528092919081815260200182805461206a90613949565b80156120b75780601f1061208c576101008083540402835291602001916120b7565b820191906000526020600020905b81548152906001019060200180831161209a57829003601f168201915b5050505050815250508584815181106120d2576120d261391a565b602002602001018190525081602001518484815181106120f4576120f461391a565b60200260200101818152505080600101548b73ffffffffffffffffffffffffffffffffffffffff168260040160009054906101000a900473ffffffffffffffffffffffffffffffffffffffff1673ffffffffffffffffffffffffffffffffffffffff167ff930a6e2523c9cc298691873087a740550b8fc85a0680830414c148ed927f615856000015160405161218c91815260200190565b60405180910390a45050600101611d7a565b506121ae84838360018b8b6127c7565b9a9950505050505050505050565b60008281526005602052604090205467ffffffffffffffff161561220c576040517f2e26794600000000000000000000000000000000000000000000000000000000815260040160405180910390fd5b60008281526005602052604080822080547fffffffffffffffffffffffffffffffffffffffffffffffff00000000000000001667ffffffffffffffff85169081179091559051909184917f5aafceeb1c7ad58e4a84898bdee37c02c0fc46e7d24e6b60e8209449f183459f9190a35050565b6060600061228b83612ba1565b600101905060008167ffffffffffffffff8111156122ab576122ab613996565b6040519080825280601f01601f1916602001820160405280156122d5576020820181803683370190505b5090508181016020015b7fffffffffffffffffffffffffffffffffffffffffffffffffffffffffffffffff017f3031323334353637383961626364656600000000000000000000000000000000600a86061a8153600a85049450846122df57509392505050565b60208082015160408084015160608086015173ffffffffffffffffffffffffffffffffffffffff166000908152600386528381208054600181019091558751865187890151878901519589015160808a01518051908c01209851999a97999498959761244397612428977fdbfdf8dc2b135c26253e00d5b6cbe6f20457e003fd526d97cea183883570de619791939290918c9101978852602088019690965273ffffffffffffffffffffffffffffffffffffffff94909416604087015267ffffffffffffffff9290921660608601521515608085015260a084015260c083015260e08201526101000190565b60405160208183030381529060405280519060200120612c83565b90506124b98560600151828560200151866040015187600001516040516020016124a593929190928352602083019190915260f81b7fff0000000000000000000000000000000000000000000000000000000000000016604082015260410190565b604051602081830303815290604052612ccb565b6124ef576040517f8baa579f00000000000000000000000000000000000000000000000000000000815260040160405180910390fd5b5050505050565b606060ff83146125105761250983612d3c565b9050610589565b81805461251c90613949565b80601f016020809104026020016040519081016040528092919081815260200182805461254890613949565b80156125955780601f1061256a57610100808354040283529160200191612595565b820191906000526020600020905b81548152906001019060200180831161257857829003601f168201915b50505050509050610589565b60208181015160408084015160608086015173ffffffffffffffffffffffffffffffffffffffff166000908152600386528381208054600181019091558751865186517fa98d02348410c9c76735e0d0bb1396f4015ac2bb9615f9c2611d19d7a8a99650998101999099529588015291860193909352608085018190529293909291906124439060a001612428565b60003073ffffffffffffffffffffffffffffffffffffffff7f00000000000000000000000000000000000000000000000000000000000000001614801561269657507f000000000000000000000000000000000000000000000000000000000000000046145b156126c057507f000000000000000000000000000000000000000000000000000000000000000090565b61119e604080517f8b73c3c69bb8fe3d512ecc4cf759cc79239f7b179b0ffacaa9a75d522b39400f60208201527f0000000000000000000000000000000000000000000000000000000000000000918101919091527f000000000000000000000000000000000000000000000000000000000000000060608201524660808201523060a082015260009060c00160405160208183030381529060405280519060200120905090565b60208083015160c084015160e0850151604080870151606088015161010089015160a08a01516101208b015194516000996127a999989796918c9101614435565b60405160208183030381529060405280519060200120905092915050565b8451600090600181900361281f5761281788886000815181106127ec576127ec61391a565b6020026020010151886000815181106128075761280761391a565b6020026020010151888888612d7b565b91505061074e565b602088015173ffffffffffffffffffffffffffffffffffffffff81166128b15760005b828110156128a55787818151811061285c5761285c61391a565b602002602001015160001461289d576040517f1574f9f300000000000000000000000000000000000000000000000000000000815260040160405180910390fd5b600101612842565b5060009250505061074e565b6000805b838110156129db5760008982815181106128d1576128d161391a565b602002602001015190508060001415801561295857508373ffffffffffffffffffffffffffffffffffffffff1663ce46e0466040518163ffffffff1660e01b8152600401602060405180830381865afa158015612932573d6000803e3d6000fd5b505050506040513d601f19601f820116820180604052508101906129569190614513565b155b1561298f576040517f1574f9f300000000000000000000000000000000000000000000000000000000815260040160405180910390fd5b878111156129c9576040517f1101129400000000000000000000000000000000000000000000000000000000815260040160405180910390fd5b968790039691909101906001016128b5565b508615612ab6576040517f88e5b2d900000000000000000000000000000000000000000000000000000000815273ffffffffffffffffffffffffffffffffffffffff8316906388e5b2d9908390612a38908d908d90600401614530565b60206040518083038185885af1158015612a56573d6000803e3d6000fd5b50505050506040513d601f19601f82011682018060405250810190612a7b9190614513565b612ab1576040517fbf2f3a8b00000000000000000000000000000000000000000000000000000000815260040160405180910390fd5b612b85565b6040517f91db0b7e00000000000000000000000000000000000000000000000000000000815273ffffffffffffffffffffffffffffffffffffffff8316906391db0b7e908390612b0c908d908d90600401614530565b60206040518083038185885af1158015612b2a573d6000803e3d6000fd5b50505050506040513d601f19601f82011682018060405250810190612b4f9190614513565b612b85576040517fe8bee83900000000000000000000000000000000000000000000000000000000815260040160405180910390fd5b8415612b9457612b9486613091565b9998505050505050505050565b6000807a184f03e93ff9f4daa797ed6e38ed64bf6a1f0100000000000000008310612bea577a184f03e93ff9f4daa797ed6e38ed64bf6a1f010000000000000000830492506040015b6d04ee2d6d415b85acef81000000008310612c16576d04ee2d6d415b85acef8100000000830492506020015b662386f26fc100008310612c3457662386f26fc10000830492506010015b6305f5e1008310612c4c576305f5e100830492506008015b6127108310612c6057612710830492506004015b60648310612c72576064830492506002015b600a83106105895760010192915050565b6000610589612c90612630565b836040517f19010000000000000000000000000000000000000000000000000000000000008152600281019290925260228201526042902090565b6000806000612cda85856130a4565b90925090506000816004811115612cf357612cf36145c4565b148015612d2b57508573ffffffffffffffffffffffffffffffffffffffff168273ffffffffffffffffffffffffffffffffffffffff16145b8061074e575061074e8686866130e9565b60606000612d4983613246565b604080516020808252818301909252919250600091906020820181803683375050509182525060208101929092525090565b602086015160009073ffffffffffffffffffffffffffffffffffffffff8116612de0578515612dd6576040517f1574f9f300000000000000000000000000000000000000000000000000000000815260040160405180910390fd5b600091505061074e565b8515801590612e5b57508073ffffffffffffffffffffffffffffffffffffffff1663ce46e0466040518163ffffffff1660e01b8152600401602060405180830381865afa158015612e35573d6000803e3d6000fd5b505050506040513d601f19601f82011682018060405250810190612e599190614513565b155b15612e92576040517f1574f9f300000000000000000000000000000000000000000000000000000000815260040160405180910390fd5b83861115612ecc576040517f1101129400000000000000000000000000000000000000000000000000000000815260040160405180910390fd5b85840393508415612fa9576040517fe49617e100000000000000000000000000000000000000000000000000000000815273ffffffffffffffffffffffffffffffffffffffff82169063e49617e1908890612f2b908b90600401613853565b60206040518083038185885af1158015612f49573d6000803e3d6000fd5b50505050506040513d601f19601f82011682018060405250810190612f6e9190614513565b612fa4576040517fccf3bb2700000000000000000000000000000000000000000000000000000000815260040160405180910390fd5b613076565b6040517fe60c350500000000000000000000000000000000000000000000000000000000815273ffffffffffffffffffffffffffffffffffffffff82169063e60c3505908890612ffd908b90600401613853565b60206040518083038185885af115801561301b573d6000803e3d6000fd5b50505050506040513d601f19601f820116820180604052508101906130409190614513565b613076576040517fbd8ba84d00000000000000000000000000000000000000000000000000000000815260040160405180910390fd5b82156130855761308584613091565b50939695505050505050565b80156130a1576130a13382613287565b50565b60008082516041036130da5760208301516040840151606085015160001a6130ce878285856133e6565b945094505050506130e2565b506000905060025b9250929050565b60008060008573ffffffffffffffffffffffffffffffffffffffff16631626ba7e60e01b86866040516024016131209291906145f3565b604080517fffffffffffffffffffffffffffffffffffffffffffffffffffffffffffffffe08184030181529181526020820180517bffffffffffffffffffffffffffffffffffffffffffffffffffffffff167fffffffff000000000000000000000000000000000000000000000000000000009094169390931790925290516131a99190614614565b600060405180830381855afa9150503d80600081146131e4576040519150601f19603f3d011682016040523d82523d6000602084013e6131e9565b606091505b50915091508180156131fd57506020815110155b801561074e575080517f1626ba7e000000000000000000000000000000000000000000000000000000009061323b9083016020908101908401614626565b149695505050505050565b600060ff8216601f811115610589576040517fb3512b0c00000000000000000000000000000000000000000000000000000000815260040160405180910390fd5b804710156132f6576040517f08c379a000000000000000000000000000000000000000000000000000000000815260206004820152601d60248201527f416464726573733a20696e73756666696369656e742062616c616e636500000060448201526064015b60405180910390fd5b60008273ffffffffffffffffffffffffffffffffffffffff168260405160006040518083038185875af1925050503d8060008114613350576040519150601f19603f3d011682016040523d82523d6000602084013e613355565b606091505b50509050806107d7576040517f08c379a000000000000000000000000000000000000000000000000000000000815260206004820152603a60248201527f416464726573733a20756e61626c6520746f2073656e642076616c75652c207260448201527f6563697069656e74206d6179206861766520726576657274656400000000000060648201526084016132ed565b6000807f7fffffffffffffffffffffffffffffff5d576e7357a4501ddfe92f46681b20a083111561341d57506000905060036134cc565b6040805160008082526020820180845289905260ff881692820192909252606081018690526080810185905260019060a0016020604051602081039080840390855afa158015613471573d6000803e3d6000fd5b50506040517fffffffffffffffffffffffffffffffffffffffffffffffffffffffffffffffe0015191505073ffffffffffffffffffffffffffffffffffffffff81166134c5576000600192509250506134cc565b9150600090505b94509492505050565b60008083601f8401126134e757600080fd5b50813567ffffffffffffffff8111156134ff57600080fd5b6020830191508360208260051b85010111156130e257600080fd5b6000806020838503121561352d57600080fd5b823567ffffffffffffffff81111561354457600080fd5b613550858286016134d5565b90969095509350505050565b60005b8381101561357757818101518382015260200161355f565b50506000910152565b6000815180845261359881602086016020860161355c565b601f017fffffffffffffffffffffffffffffffffffffffffffffffffffffffffffffffe0169290920160200192915050565b6020815260006135dd6020830184613580565b9392505050565b73ffffffffffffffffffffffffffffffffffffffff811681146130a157600080fd5b8035613611816135e4565b919050565b60006020828403121561362857600080fd5b81356135dd816135e4565b6020808252825182820181905260009190848201906040850190845b8181101561366b5783518352928401929184019160010161364f565b50909695505050505050565b60006060828403121561368957600080fd5b50919050565b6000602082840312156136a157600080fd5b5035919050565b600081518084526020808501945080840160005b838110156136d8578151875295820195908201906001016136bc565b509495945050505050565b7fff000000000000000000000000000000000000000000000000000000000000008816815260e06020820152600061371e60e0830189613580565b82810360408401526137308189613580565b905086606084015273ffffffffffffffffffffffffffffffffffffffff861660808401528460a084015282810360c08401526121ae81856136a8565b60006101408251845260208301516020850152604083015161379a604086018267ffffffffffffffff169052565b5060608301516137b6606086018267ffffffffffffffff169052565b5060808301516137d2608086018267ffffffffffffffff169052565b5060a083015160a085015260c083015161380460c086018273ffffffffffffffffffffffffffffffffffffffff169052565b5060e083015161382c60e086018273ffffffffffffffffffffffffffffffffffffffff169052565b50610100838101511515908501526101208084015181860183905261074e83870182613580565b6020815260006135dd602083018461376c565b6000806040838503121561387957600080fd5b8235613884816135e4565b946020939093013593505050565b6000602082840312156138a457600080fd5b813567ffffffffffffffff8111156138bb57600080fd5b820160c081850312156135dd57600080fd5b600060e0828403121561368957600080fd5b6000602082840312156138f157600080fd5b813567ffffffffffffffff81111561390857600080fd5b8201604081850312156135dd57600080fd5b7f4e487b7100000000000000000000000000000000000000000000000000000000600052603260045260246000fd5b600181811c9082168061395d57607f821691505b602082108103613689577f4e487b7100000000000000000000000000000000000000000000000000000000600052602260045260246000fd5b7f4e487b7100000000000000000000000000000000000000000000000000000000600052604160045260246000fd5b600082357fffffffffffffffffffffffffffffffffffffffffffffffffffffffffffffffc18336030181126139f957600080fd5b9190910192915050565b60008083357fffffffffffffffffffffffffffffffffffffffffffffffffffffffffffffffe1843603018112613a3857600080fd5b83018035915067ffffffffffffffff821115613a5357600080fd5b6020019150600581901b36038213156130e257600080fd5b60405160c0810167ffffffffffffffff81118282101715613a8e57613a8e613996565b60405290565b6040516080810167ffffffffffffffff81118282101715613a8e57613a8e613996565b604051601f82017fffffffffffffffffffffffffffffffffffffffffffffffffffffffffffffffe016810167ffffffffffffffff81118282101715613afe57613afe613996565b604052919050565b600067ffffffffffffffff821115613b2057613b20613996565b5060051b60200190565b80151581146130a157600080fd5b803561361181613b2a565b600067ffffffffffffffff821115613b5d57613b5d613996565b50601f017fffffffffffffffffffffffffffffffffffffffffffffffffffffffffffffffe01660200190565b600082601f830112613b9a57600080fd5b8135613bad613ba882613b43565b613ab7565b818152846020838601011115613bc257600080fd5b816020850160208301376000918101602001919091529392505050565b600060c08284031215613bf157600080fd5b613bf9613a6b565b90508135613c06816135e4565b8152602082013567ffffffffffffffff8082168214613c2457600080fd5b816020840152613c3660408501613b38565b6040840152606084013560608401526080840135915080821115613c5957600080fd5b50613c6684828501613b89565b60808301525060a082013560a082015292915050565b6000613c8a613ba884613b06565b80848252602080830192508560051b850136811115613ca857600080fd5b855b81811015613ce457803567ffffffffffffffff811115613cca5760008081fd5b613cd636828a01613bdf565b865250938201938201613caa565b50919695505050505050565b81810381811115610589577f4e487b7100000000000000000000000000000000000000000000000000000000600052601160045260246000fd5b600060408284031215613d3c57600080fd5b6040516040810181811067ffffffffffffffff82111715613d5f57613d5f613996565b604052823581526020928301359281019290925250919050565b600060408284031215613d8b57600080fd5b6135dd8383613d2a565b60008083357fffffffffffffffffffffffffffffffffffffffffffffffffffffffffffffffe1843603018112613dca57600080fd5b83018035915067ffffffffffffffff821115613de557600080fd5b6020019150600681901b36038213156130e257600080fd5b60008451613e0f81846020890161355c565b80830190507f2e000000000000000000000000000000000000000000000000000000000000008082528551613e4b816001850160208a0161355c565b60019201918201528351613e6681600284016020880161355c565b0160020195945050505050565b600082357fffffffffffffffffffffffffffffffffffffffffffffffffffffffffffffff818336030181126139f957600080fd5b60008083357fffffffffffffffffffffffffffffffffffffffffffffffffffffffffffffffe1843603018112613edc57600080fd5b83018035915067ffffffffffffffff821115613ef757600080fd5b60200191506060810236038213156130e257600080fd5b600082357fffffffffffffffffffffffffffffffffffffffffffffffffffffffffffffff418336030181126139f957600080fd5b60006105893683613bdf565b600060608284031215613f6057600080fd5b6040516060810181811067ffffffffffffffff82111715613f8357613f83613996565b604052905080823560ff81168114613f9a57600080fd5b8082525060208301356020820152604083013560408201525092915050565b600060608284031215613fcb57600080fd5b6135dd8383613f4e565b600060c08236031215613fe757600080fd5b613fef613a94565b82358152602083013567ffffffffffffffff81111561400d57600080fd5b61401936828601613bdf565b60208301525061402c3660408501613f4e565b604082015260a083013561403f816135e4565b606082015292915050565b600082601f83011261405b57600080fd5b8135602061406b613ba883613b06565b8281526060928302850182019282820191908785111561408a57600080fd5b8387015b858110156140ad576140a08982613f4e565b845292840192810161408e565b5090979650505050505050565b6000608082360312156140cc57600080fd5b6140d4613a94565b8235815260208084013567ffffffffffffffff808211156140f457600080fd5b9085019036601f83011261410757600080fd5b8135614115613ba882613b06565b81815260069190911b8301840190848101903683111561413457600080fd5b938501935b8285101561415d5761414b3686613d2a565b82528582019150604085019450614139565b8086880152505050604086013592508083111561417957600080fd5b50506141873682860161404a565b60408301525061403f60608401613606565b600060e082840312156141ab57600080fd5b6141b3613a94565b823581526141c48460208501613d2a565b60208201526141d68460608501613f4e565b604082015260c08301356141e9816135e4565b60608201529392505050565b6000602080838503121561420857600080fd5b825167ffffffffffffffff8082111561422057600080fd5b908401906080828703121561423457600080fd5b61423c613a94565b825181528383015161424d816135e4565b81850152604083015161425f81613b2a565b604082015260608301518281111561427657600080fd5b80840193505086601f84011261428b57600080fd5b8251915061429b613ba883613b43565b82815287858486010111156142af57600080fd5b6142be8386830187870161355c565b60608201529695505050505050565b601f8211156107d757600081815260208120601f850160051c810160208610156142f45750805b601f850160051c820191505b8181101561431357828155600101614300565b505050505050565b815167ffffffffffffffff81111561433557614335613996565b614349816143438454613949565b846142cd565b602080601f83116001811461439c57600084156143665750858301515b7fffffffffffffffffffffffffffffffffffffffffffffffffffffffffffffffff600386901b1c1916600185901b178555614313565b6000858152602081207fffffffffffffffffffffffffffffffffffffffffffffffffffffffffffffffe08616915b828110156143e9578886015182559484019460019091019084016143ca565b508582101561442557878501517fffffffffffffffffffffffffffffffffffffffffffffffffffffffffffffffff600388901b60f8161c191681555b5050505050600190811b01905550565b89815260007fffffffffffffffffffffffffffffffffffffffff000000000000000000000000808b60601b166020840152808a60601b166034840152507fffffffffffffffff000000000000000000000000000000000000000000000000808960c01b166048840152808860c01b1660508401525085151560f81b605883015284605983015283516144ce81607985016020880161355c565b80830190507fffffffff000000000000000000000000000000000000000000000000000000008460e01b166079820152607d81019150509a9950505050505050505050565b60006020828403121561452557600080fd5b81516135dd81613b2a565b6000604082016040835280855180835260608501915060608160051b8601019250602080880160005b838110156145a5577fffffffffffffffffffffffffffffffffffffffffffffffffffffffffffffffa088870301855261459386835161376c565b95509382019390820190600101614559565b5050858403818701525050506145bb81856136a8565b95945050505050565b7f4e487b7100000000000000000000000000000000000000000000000000000000600052602160045260246000fd5b82815260406020820152600061460c6040830184613580565b949350505050565b600082516139f981846020870161355c565b60006020828403121561463857600080fd5b505191905056fea164736f6c6343000813000a",
  "devdoc": {
    "events": {
      "Attested(address,address,bytes32,bytes32)": {
        "params": {
          "attester": "The attesting account.",
          "recipient": "The recipient of the attestation.",
          "schema": "The UID of the schema.",
          "uid": "The UID the revoked attestation."
        }
      },
      "EIP712DomainChanged()": {
        "details": "MAY be emitted to signal that the domain could have changed."
      },
      "Revoked(address,address,bytes32,bytes32)": {
        "params": {
          "attester": "The attesting account.",
          "recipient": "The recipient of the attestation.",
          "schema": "The UID of the schema.",
          "uid": "The UID the revoked attestation."
        }
      },
      "RevokedOffchain(address,bytes32,uint64)": {
        "params": {
          "data": "The data.",
          "revoker": "The address of the revoker.",
          "timestamp": "The timestamp."
        }
      },
      "Timestamped(bytes32,uint64)": {
        "params": {
          "data": "The data.",
          "timestamp": "The timestamp."
        }
      }
    },
    "kind": "dev",
    "methods": {
      "attest((bytes32,(address,uint64,bool,bytes32,bytes,uint256)))": {
        "params": {
          "request": "The arguments of the attestation request."
        },
        "returns": {
          "_0": "The UID of the new attestation. Example:     attest({         schema: \"0facc36681cbe2456019c1b0d1e7bedd6d1d40f6f324bf3dd3a4cef2999200a0\",         data: {             recipient: \"0xdEADBeAFdeAdbEafdeadbeafDeAdbEAFdeadbeaf\",             expirationTime: 0,             revocable: true,             refUID: \"0x0000000000000000000000000000000000000000000000000000000000000000\",             data: \"0xF00D\",             value: 0         }     })"
        }
      },
      "attestByDelegation((bytes32,(address,uint64,bool,bytes32,bytes,uint256),(uint8,bytes32,bytes32),address))": {
        "params": {
          "delegatedRequest": "The arguments of the delegated attestation request."
        },
        "returns": {
          "_0": "The UID of the new attestation. Example:     attestByDelegation({         schema: '0x8e72f5bc0a8d4be6aa98360baa889040c50a0e51f32dbf0baa5199bd93472ebc',         data: {             recipient: '0xf39Fd6e51aad88F6F4ce6aB8827279cffFb92266',             expirationTime: 1673891048,             revocable: true,             refUID: '0x0000000000000000000000000000000000000000000000000000000000000000',             data: '0x1234',             value: 0         },         signature: {             v: 28,             r: '0x148c...b25b',             s: '0x5a72...be22'         },         attester: '0xc5E8740aD971409492b1A63Db8d83025e0Fc427e'     })"
        }
      },
      "constructor": {
        "params": {
          "registry": "The address of the global schema registry."
        }
      },
      "eip712Domain()": {
        "details": "See {EIP-5267}. _Available since v4.9._"
      },
      "getAttestTypeHash()": {
        "returns": {
          "_0": "The EIP712 type hash for the attest function."
        }
      },
      "getAttestation(bytes32)": {
        "params": {
          "uid": "The UID of the attestation to retrieve."
        },
        "returns": {
          "_0": "The attestation data members."
        }
      },
      "getDomainSeparator()": {
        "returns": {
          "_0": "The domain separator used in the encoding of the signatures for attest, and revoke."
        }
      },
      "getName()": {
        "returns": {
          "_0": "The EIP712 name."
        }
      },
      "getNonce(address)": {
        "params": {
          "account": "The requested account."
        },
        "returns": {
          "_0": "The current nonce."
        }
      },
      "getRevokeOffchain(address,bytes32)": {
        "params": {
          "data": "The data to query."
        },
        "returns": {
          "_0": "The timestamp the data was timestamped with."
        }
      },
      "getRevokeTypeHash()": {
        "returns": {
          "_0": "The EIP712 type hash for the revoke function."
        }
      },
      "getSchemaRegistry()": {
        "returns": {
          "_0": "The address of the global schema registry."
        }
      },
      "getTimestamp(bytes32)": {
        "params": {
          "data": "The data to query."
        },
        "returns": {
          "_0": "The timestamp the data was timestamped with."
        }
      },
      "isAttestationValid(bytes32)": {
        "params": {
          "uid": "The UID of the attestation to retrieve."
        },
        "returns": {
          "_0": "Whether an attestation exists."
        }
      },
      "multiAttest((bytes32,(address,uint64,bool,bytes32,bytes,uint256)[])[])": {
        "params": {
          "multiRequests": "The arguments of the multi attestation requests. The requests should be grouped by distinct     schema ids to benefit from the best batching optimization."
        },
        "returns": {
          "_0": "The UIDs of the new attestations. Example:     multiAttest([{         schema: '0x33e9094830a5cba5554d1954310e4fbed2ef5f859ec1404619adea4207f391fd',         data: [{             recipient: '0xdEADBeAFdeAdbEafdeadbeafDeAdbEAFdeadbeaf',             expirationTime: 1673891048,             revocable: true,             refUID: '0x0000000000000000000000000000000000000000000000000000000000000000',             data: '0x1234',             value: 1000         },         {             recipient: '0xf39Fd6e51aad88F6F4ce6aB8827279cffFb92266',             expirationTime: 0,             revocable: false,             refUID: '0x480df4a039efc31b11bfdf491b383ca138b6bde160988222a2a3509c02cee174',             data: '0x00',             value: 0         }],     },     {         schema: '0x5ac273ce41e3c8bfa383efe7c03e54c5f0bff29c9f11ef6ffa930fc84ca32425',         data: [{             recipient: '0xdEADBeAFdeAdbEafdeadbeafDeAdbEAFdeadbeaf',             expirationTime: 0,             revocable: true,             refUID: '0x75bf2ed8dca25a8190c50c52db136664de25b2449535839008ccfdab469b214f',             data: '0x12345678',             value: 0         },     }])"
        }
      },
      "multiAttestByDelegation((bytes32,(address,uint64,bool,bytes32,bytes,uint256)[],(uint8,bytes32,bytes32)[],address)[])": {
        "params": {
          "multiDelegatedRequests": "The arguments of the delegated multi attestation requests. The requests should be     grouped by distinct schema ids to benefit from the best batching optimization."
        },
        "returns": {
          "_0": "The UIDs of the new attestations. Example:     multiAttestByDelegation([{         schema: '0x8e72f5bc0a8d4be6aa98360baa889040c50a0e51f32dbf0baa5199bd93472ebc',         data: [{             recipient: '0xf39Fd6e51aad88F6F4ce6aB8827279cffFb92266',             expirationTime: 1673891048,             revocable: true,             refUID: '0x0000000000000000000000000000000000000000000000000000000000000000',             data: '0x1234',             value: 0         },         {             recipient: '0xdEADBeAFdeAdbEafdeadbeafDeAdbEAFdeadbeaf',             expirationTime: 0,             revocable: false,             refUID: '0x0000000000000000000000000000000000000000000000000000000000000000',             data: '0x00',             value: 0         }],         signatures: [{             v: 28,             r: '0x148c...b25b',             s: '0x5a72...be22'         },         {             v: 28,             r: '0x487s...67bb',             s: '0x12ad...2366'         }],         attester: '0x1D86495b2A7B524D747d2839b3C645Bed32e8CF4'     }])"
        }
      },
      "multiRevoke((bytes32,(bytes32,uint256)[])[])": {
        "params": {
          "multiRequests": "The arguments of the multi revocation requests. The requests should be grouped by distinct     schema ids to benefit from the best batching optimization. Example:     multiRevoke([{         schema: '0x8e72f5bc0a8d4be6aa98360baa889040c50a0e51f32dbf0baa5199bd93472ebc',         data: [{             uid: '0x211296a1ca0d7f9f2cfebf0daaa575bea9b20e968d81aef4e743d699c6ac4b25',             value: 1000         },         {             uid: '0xe160ac1bd3606a287b4d53d5d1d6da5895f65b4b4bab6d93aaf5046e48167ade',             value: 0         }],     },     {         schema: '0x5ac273ce41e3c8bfa383efe7c03e54c5f0bff29c9f11ef6ffa930fc84ca32425',         data: [{             uid: '0x053d42abce1fd7c8fcddfae21845ad34dae287b2c326220b03ba241bc5a8f019',             value: 0         },     }])"
        }
      },
      "multiRevokeByDelegation((bytes32,(bytes32,uint256)[],(uint8,bytes32,bytes32)[],address)[])": {
        "params": {
          "multiDelegatedRequests": "The arguments of the delegated multi revocation attestation requests. The requests     should be grouped by distinct schema ids to benefit from the best batching optimization. Example:     multiRevokeByDelegation([{         schema: '0x8e72f5bc0a8d4be6aa98360baa889040c50a0e51f32dbf0baa5199bd93472ebc',         data: [{             uid: '0x211296a1ca0d7f9f2cfebf0daaa575bea9b20e968d81aef4e743d699c6ac4b25',             value: 1000         },         {             uid: '0xe160ac1bd3606a287b4d53d5d1d6da5895f65b4b4bab6d93aaf5046e48167ade',             value: 0         }],         signatures: [{             v: 28,             r: '0x148c...b25b',             s: '0x5a72...be22'         },         {             v: 28,             r: '0x487s...67bb',             s: '0x12ad...2366'         }],         revoker: '0x244934dd3e31bE2c81f84ECf0b3E6329F5381992'     }])"
        }
      },
      "multiRevokeOffchain(bytes32[])": {
        "params": {
          "data": "The data to timestamp."
        },
        "returns": {
          "_0": "The timestamp the data was revoked with."
        }
      },
      "multiTimestamp(bytes32[])": {
        "params": {
          "data": "The data to timestamp."
        },
        "returns": {
          "_0": "The timestamp the data was timestamped with."
        }
      },
      "revoke((bytes32,(bytes32,uint256)))": {
        "params": {
          "request": "The arguments of the revocation request. Example:     revoke({         schema: '0x8e72f5bc0a8d4be6aa98360baa889040c50a0e51f32dbf0baa5199bd93472ebc',         data: {             uid: '0x101032e487642ee04ee17049f99a70590c735b8614079fc9275f9dd57c00966d',             value: 0         }     })"
        }
      },
      "revokeByDelegation((bytes32,(bytes32,uint256),(uint8,bytes32,bytes32),address))": {
        "params": {
          "delegatedRequest": "The arguments of the delegated revocation request. Example:     revokeByDelegation({         schema: '0x8e72f5bc0a8d4be6aa98360baa889040c50a0e51f32dbf0baa5199bd93472ebc',         data: {             uid: '0xcbbc12102578c642a0f7b34fe7111e41afa25683b6cd7b5a14caf90fa14d24ba',             value: 0         },         signature: {             v: 27,             r: '0xb593...7142',             s: '0x0f5b...2cce'         },         revoker: '0x244934dd3e31bE2c81f84ECf0b3E6329F5381992'     })"
        }
      },
      "revokeOffchain(bytes32)": {
        "params": {
          "data": "The data to timestamp."
        },
        "returns": {
          "_0": "The timestamp the data was revoked with."
        }
      },
      "timestamp(bytes32)": {
        "params": {
          "data": "The data to timestamp."
        },
        "returns": {
          "_0": "The timestamp the data was timestamped with."
        }
      },
      "version()": {
        "returns": {
          "_0": "Semver contract version as a string."
        }
      }
    },
    "title": "EAS",
    "version": 1
  },
  "userdoc": {
    "events": {
      "Attested(address,address,bytes32,bytes32)": {
        "notice": "Emitted when an attestation has been made."
      },
      "Revoked(address,address,bytes32,bytes32)": {
        "notice": "Emitted when an attestation has been revoked."
      },
      "RevokedOffchain(address,bytes32,uint64)": {
        "notice": "Emitted when a data has been revoked."
      },
      "Timestamped(bytes32,uint64)": {
        "notice": "Emitted when a data has been timestamped."
      }
    },
    "kind": "user",
    "methods": {
      "attest((bytes32,(address,uint64,bool,bytes32,bytes,uint256)))": {
        "notice": "Attests to a specific schema."
      },
      "attestByDelegation((bytes32,(address,uint64,bool,bytes32,bytes,uint256),(uint8,bytes32,bytes32),address))": {
        "notice": "Attests to a specific schema via the provided ECDSA signature."
      },
      "constructor": {
        "notice": "Creates a new EAS instance."
      },
      "getAttestTypeHash()": {
        "notice": "Returns the EIP712 type hash for the attest function."
      },
      "getAttestation(bytes32)": {
        "notice": "Returns an existing attestation by UID."
      },
      "getDomainSeparator()": {
        "notice": "Returns the domain separator used in the encoding of the signatures for attest, and revoke."
      },
      "getName()": {
        "notice": "Returns the EIP712 name."
      },
      "getNonce(address)": {
        "notice": "Returns the current nonce per-account."
      },
      "getRevokeOffchain(address,bytes32)": {
        "notice": "Returns the timestamp that the specified data was timestamped with."
      },
      "getRevokeTypeHash()": {
        "notice": "Returns the EIP712 type hash for the revoke function."
      },
      "getSchemaRegistry()": {
        "notice": "Returns the address of the global schema registry."
      },
      "getTimestamp(bytes32)": {
        "notice": "Returns the timestamp that the specified data was timestamped with."
      },
      "isAttestationValid(bytes32)": {
        "notice": "Checks whether an attestation exists."
      },
      "multiAttest((bytes32,(address,uint64,bool,bytes32,bytes,uint256)[])[])": {
        "notice": "Attests to multiple schemas."
      },
      "multiAttestByDelegation((bytes32,(address,uint64,bool,bytes32,bytes,uint256)[],(uint8,bytes32,bytes32)[],address)[])": {
        "notice": "Attests to multiple schemas using via provided ECDSA signatures."
      },
      "multiRevoke((bytes32,(bytes32,uint256)[])[])": {
        "notice": "Revokes existing attestations to multiple schemas."
      },
      "multiRevokeByDelegation((bytes32,(bytes32,uint256)[],(uint8,bytes32,bytes32)[],address)[])": {
        "notice": "Revokes existing attestations to multiple schemas via provided ECDSA signatures."
      },
      "multiRevokeOffchain(bytes32[])": {
        "notice": "Revokes the specified multiple bytes32 data."
      },
      "multiTimestamp(bytes32[])": {
        "notice": "Timestamps the specified multiple bytes32 data."
      },
      "revoke((bytes32,(bytes32,uint256)))": {
        "notice": "Revokes an existing attestation to a specific schema."
      },
      "revokeByDelegation((bytes32,(bytes32,uint256),(uint8,bytes32,bytes32),address))": {
        "notice": "Revokes an existing attestation to a specific schema via the provided ECDSA signature."
      },
      "revokeOffchain(bytes32)": {
        "notice": "Revokes the specified bytes32 data."
      },
      "timestamp(bytes32)": {
        "notice": "Timestamps the specified bytes32 data."
      },
      "version()": {
        "notice": "Returns the full semver contract version."
      }
    },
    "notice": "EAS - Ethereum Attestation Service",
    "version": 1
  },
  "storageLayout": {
    "storage": [
      {
        "astId": 2559,
        "contract": "contracts/EAS.sol:EAS",
        "label": "_nameFallback",
        "offset": 0,
        "slot": "0",
        "type": "t_string_storage"
      },
      {
        "astId": 2561,
        "contract": "contracts/EAS.sol:EAS",
        "label": "_versionFallback",
        "offset": 0,
        "slot": "1",
        "type": "t_string_storage"
      },
      {
        "astId": 6325,
        "contract": "contracts/EAS.sol:EAS",
        "label": "_name",
        "offset": 0,
        "slot": "2",
        "type": "t_string_storage"
      },
      {
        "astId": 6329,
        "contract": "contracts/EAS.sol:EAS",
        "label": "_nonces",
        "offset": 0,
        "slot": "3",
        "type": "t_mapping(t_address,t_uint256)"
      },
      {
        "astId": 3952,
        "contract": "contracts/EAS.sol:EAS",
        "label": "_db",
        "offset": 0,
        "slot": "4",
        "type": "t_mapping(t_bytes32,t_struct(Attestation)3846_storage)"
      },
      {
        "astId": 3956,
        "contract": "contracts/EAS.sol:EAS",
        "label": "_timestamps",
        "offset": 0,
        "slot": "5",
        "type": "t_mapping(t_bytes32,t_uint64)"
      },
      {
        "astId": 3962,
        "contract": "contracts/EAS.sol:EAS",
        "label": "_revocationsOffchain",
        "offset": 0,
        "slot": "6",
        "type": "t_mapping(t_address,t_mapping(t_bytes32,t_uint64))"
      }
    ],
    "types": {
      "t_address": {
        "encoding": "inplace",
        "label": "address",
        "numberOfBytes": "20"
      },
      "t_bool": {
        "encoding": "inplace",
        "label": "bool",
        "numberOfBytes": "1"
      },
      "t_bytes32": {
        "encoding": "inplace",
        "label": "bytes32",
        "numberOfBytes": "32"
      },
      "t_bytes_storage": {
        "encoding": "bytes",
        "label": "bytes",
        "numberOfBytes": "32"
      },
      "t_mapping(t_address,t_mapping(t_bytes32,t_uint64))": {
        "encoding": "mapping",
        "key": "t_address",
        "label": "mapping(address => mapping(bytes32 => uint64))",
        "numberOfBytes": "32",
        "value": "t_mapping(t_bytes32,t_uint64)"
      },
      "t_mapping(t_address,t_uint256)": {
        "encoding": "mapping",
        "key": "t_address",
        "label": "mapping(address => uint256)",
        "numberOfBytes": "32",
        "value": "t_uint256"
      },
      "t_mapping(t_bytes32,t_struct(Attestation)3846_storage)": {
        "encoding": "mapping",
        "key": "t_bytes32",
        "label": "mapping(bytes32 => struct Attestation)",
        "numberOfBytes": "32",
        "value": "t_struct(Attestation)3846_storage"
      },
      "t_mapping(t_bytes32,t_uint64)": {
        "encoding": "mapping",
        "key": "t_bytes32",
        "label": "mapping(bytes32 => uint64)",
        "numberOfBytes": "32",
        "value": "t_uint64"
      },
      "t_string_storage": {
        "encoding": "bytes",
        "label": "string",
        "numberOfBytes": "32"
      },
      "t_struct(Attestation)3846_storage": {
        "encoding": "inplace",
        "label": "struct Attestation",
        "members": [
          {
            "astId": 3827,
            "contract": "contracts/EAS.sol:EAS",
            "label": "uid",
            "offset": 0,
            "slot": "0",
            "type": "t_bytes32"
          },
          {
            "astId": 3829,
            "contract": "contracts/EAS.sol:EAS",
            "label": "schema",
            "offset": 0,
            "slot": "1",
            "type": "t_bytes32"
          },
          {
            "astId": 3831,
            "contract": "contracts/EAS.sol:EAS",
            "label": "time",
            "offset": 0,
            "slot": "2",
            "type": "t_uint64"
          },
          {
            "astId": 3833,
            "contract": "contracts/EAS.sol:EAS",
            "label": "expirationTime",
            "offset": 8,
            "slot": "2",
            "type": "t_uint64"
          },
          {
            "astId": 3835,
            "contract": "contracts/EAS.sol:EAS",
            "label": "revocationTime",
            "offset": 16,
            "slot": "2",
            "type": "t_uint64"
          },
          {
            "astId": 3837,
            "contract": "contracts/EAS.sol:EAS",
            "label": "refUID",
            "offset": 0,
            "slot": "3",
            "type": "t_bytes32"
          },
          {
            "astId": 3839,
            "contract": "contracts/EAS.sol:EAS",
            "label": "recipient",
            "offset": 0,
            "slot": "4",
            "type": "t_address"
          },
          {
            "astId": 3841,
            "contract": "contracts/EAS.sol:EAS",
            "label": "attester",
            "offset": 0,
            "slot": "5",
            "type": "t_address"
          },
          {
            "astId": 3843,
            "contract": "contracts/EAS.sol:EAS",
            "label": "revocable",
            "offset": 20,
            "slot": "5",
            "type": "t_bool"
          },
          {
            "astId": 3845,
            "contract": "contracts/EAS.sol:EAS",
            "label": "data",
            "offset": 0,
            "slot": "6",
            "type": "t_bytes_storage"
          }
        ],
        "numberOfBytes": "224"
      },
      "t_uint256": {
        "encoding": "inplace",
        "label": "uint256",
        "numberOfBytes": "32"
      },
      "t_uint64": {
        "encoding": "inplace",
        "label": "uint64",
        "numberOfBytes": "8"
      }
    }
  }
}