{
  "_format": "hh-sol-artifact-1",
  "contractName": "SchemaRegistry",
  "sourceName": "contracts/eas/CredoraEASSchema.sol",
  "abi": [
    {
      "inputs": [],
      "stateMutability": "nonpayable",
      "type": "constructor"
    },
    {
      "inputs": [],
      "name": "AlreadyExists",
      "type": "error"
    },
    {
      "anonymous": false,
      "inputs": [
        {
          "indexed": true,
          "internalType": "bytes32",
          "name": "uid",
          "type": "bytes32"
        },
        {
          "indexed": true,
          "internalType": "address",
          "name": "registerer",
          "type": "address"
        },
        {
          "components": [
            {
              "internalType": "bytes32",
              "name": "uid",
              "type": "bytes32"
            },
            {
              "internalType": "contract ISchemaResolver",
              "name": "resolver",
              "type": "address"
            },
            {
              "internalType": "bool",
              "name": "revocable",
              "type": "bool"
            },
            {
              "internalType": "string",
              "name": "schema",
              "type": "string"
            }
          ],
          "indexed": false,
          "internalType": "struct SchemaRecord",
          "name": "schema",
          "type": "tuple"
        }
      ],
      "name": "Registered",
      "type": "event"
    },
    {
      "inputs": [
        {
          "internalType": "bytes32",
          "name": "uid",
          "type": "bytes32"
        }
      ],
      "name": "getSchema",
      "outputs": [
        {
          "components": [
            {
              "internalType": "bytes32",
              "name": "uid",
              "type": "bytes32"
            },
            {
              "internalType": "contract ISchemaResolver",
              "name": "resolver",
              "type": "address"
            },
            {
              "internalType": "bool",
              "name": "revocable",
              "type": "bool"
            },
            {
              "internalType": "string",
              "name": "schema",
              "type": "string"
            }
          ],
          "internalType": "struct SchemaRecord",
          "name": "",
          "type": "tuple"
        }
      ],
      "stateMutability": "view",
      "type": "function"
    },
    {
      "inputs": [
        {
          "internalType": "string",
          "name": "schema",
          "type": "string"
        },
        {
          "internalType": "contract ISchemaResolver",
          "name": "resolver",
          "type": "address"
        },
        {
          "internalType": "bool",
          "name": "revocable",
          "type": "bool"
        }
      ],
      "name": "register",
      "outputs": [
        {
          "internalType": "bytes32",
          "name": "",
          "type": "bytes32"
        }
      ],
      "stateMutability": "nonpayable",
      "type": "function"
    },
    {
      "inputs": [],
      "name": "version",
      "outputs": [
        {
          "internalType": "string",
          "name": "",
          "type": "string"
        }
      ],
      "stateMutability": "view",
      "type": "function"
    }
  ],
  "bytecode": "0x60e0604052348015600f57600080fd5b506001608052600360a052600060c05260805160a05160c05161095b61004b600039600060fe0152600060d50152600060ac015261095b6000f3fe608060405234801561001057600080fd5b50600436106100415760003560e01c806354fd4d501461004657806360d7a27814610064578063a2ea7c6e14610085575b600080fd5b61004e6100a5565b60405161005b91906105f1565b60405180910390f35b610077610072366004610620565b610148565b60405190815260200161005b565b6100986100933660046106c1565b6102d4565b60405161005b91906106da565b60606100d07f00000000000000000000000000000000000000000000000000000000000000006103de565b6100f97f00000000000000000000000000000000000000000000000000000000000000006103de565b6101227f00000000000000000000000000000000000000000000000000000000000000006103de565b60405160200161013493929190610726565b604051602081830303815290604052905090565b60008060405180608001604052806000801b8152602001856001600160a01b03168152602001841515815260200187878080601f0160208091040260200160405190810160405280939291908181526020018383808284376000920182905250939094525092935091506101bd90508261047e565b60008181526020819052604090205490915015610206576040517f23369fa600000000000000000000000000000000000000000000000000000000815260040160405180910390fd5b808252600081815260208181526040918290208451815590840151600182018054938601511515600160a01b027fffffffffffffffffffffff0000000000000000000000000000000000000000009094166001600160a01b039092169190911792909217909155606083015183919060028201906102849082610824565b50905050336001600160a01b0316817fd0b86852e21f9e5fa4bc3b0cff9757ffe243d50c4b43968a42202153d651ea5e846040516102c291906106da565b60405180910390a39695505050505050565b60408051608081018252600080825260208201819052918101919091526060808201526000828152602081815260409182902082516080810184528154815260018201546001600160a01b03811693820193909352600160a01b90920460ff161515928201929092526002820180549192916060840191906103559061079b565b80601f01602080910402602001604051908101604052809291908181526020018280546103819061079b565b80156103ce5780601f106103a3576101008083540402835291602001916103ce565b820191906000526020600020905b8154815290600101906020018083116103b157829003601f168201915b5050505050815250509050919050565b606060006103eb836104be565b600101905060008167ffffffffffffffff81111561040b5761040b610785565b6040519080825280601f01601f191660200182016040528015610435576020820181803683370190505b5090508181016020015b600019017f3031323334353637383961626364656600000000000000000000000000000000600a86061a8153600a850494508461043f57509392505050565b60008160600151826020015183604001516040516020016104a1939291906108e3565b604051602081830303815290604052805190602001209050919050565b6000807a184f03e93ff9f4daa797ed6e38ed64bf6a1f0100000000000000008310610507577a184f03e93ff9f4daa797ed6e38ed64bf6a1f010000000000000000830492506040015b6d04ee2d6d415b85acef81000000008310610533576d04ee2d6d415b85acef8100000000830492506020015b662386f26fc10000831061055157662386f26fc10000830492506010015b6305f5e1008310610569576305f5e100830492506008015b612710831061057d57612710830492506004015b6064831061058f576064830492506002015b600a831061059b576001015b92915050565b60005b838110156105bc5781810151838201526020016105a4565b50506000910152565b600081518084526105dd8160208601602086016105a1565b601f01601f19169290920160200192915050565b60208152600061060460208301846105c5565b9392505050565b8035801515811461061b57600080fd5b919050565b6000806000806060858703121561063657600080fd5b843567ffffffffffffffff81111561064d57600080fd5b8501601f8101871361065e57600080fd5b803567ffffffffffffffff81111561067557600080fd5b87602082840101111561068757600080fd5b6020918201955093508501356001600160a01b03811681146106a857600080fd5b91506106b66040860161060b565b905092959194509250565b6000602082840312156106d357600080fd5b5035919050565b60208152815160208201526001600160a01b0360208301511660408201526040820151151560608201526000606083015160808084015261071e60a08401826105c5565b949350505050565b600084516107388184602089016105a1565b601760f91b90830190815284516107568160018401602089016105a1565b601760f91b6001929091019182015283516107788160028401602088016105a1565b0160020195945050505050565b634e487b7160e01b600052604160045260246000fd5b600181811c908216806107af57607f821691505b6020821081036107cf57634e487b7160e01b600052602260045260246000fd5b50919050565b601f82111561081f57806000526020600020601f840160051c810160208510156107fc5750805b601f840160051c820191505b8181101561081c5760008155600101610808565b50505b505050565b815167ffffffffffffffff81111561083e5761083e610785565b6108528161084c845461079b565b846107d5565b6020601f821160018114610886576000831561086e5750848201515b600019600385901b1c1916600184901b17845561081c565b600084815260208120601f198516915b828110156108b65787850151825560209485019460019092019101610896565b50848210156108d45786840151600019600387901b60f8161c191681555b50505050600190811b01905550565b600084516108f58184602089016105a1565b60609490941b6bffffffffffffffffffffffff19169190930190815290151560f81b60148201526015019291505056fea264697066735822122000803e26610f3d3463970fa299935026de63b78b971d9984c8be79fe4f8d819b64736f6c634300081a0033",
  "linkReferences": {},
  "deployedLinkReferences": {}
}