{
  "address": "0xAcfE09Fd03f7812F022FBf636700AdEA18Fd2A7A",
  "abi": [
    {
      "inputs": [
        {
          "internalType": "contract ISchemaRegistry",
          "name": "registry",
          "type": "address"
        }
      ],
      "stateMutability": "nonpayable",
      "type": "constructor"
    },
    {
      "inputs": [],
      "name": "AccessDenied",
      "type": "error"
    },
    {
      "inputs": [],
      "name": "AlreadyRevoked",
      "type": "error"
    },
    {
      "inputs": [],
      "name": "AlreadyRevokedOffchain",
      "type": "error"
    },
    {
      "inputs": [],
      "name": "AlreadyTimestamped",
      "type": "error"
    },
    {
      "inputs": [],
      "name": "InsufficientValue",
      "type": "error"
    },
    {
      "inputs": [],
      "name": "InvalidAttestation",
      "type": "error"
    },
    {
      "inputs": [],
      "name": "InvalidAttestations",
      "type": "error"
    },
    {
      "inputs": [],
      "name": "InvalidExpirationTime",
      "type": "error"
    },
    {
      "inputs": [],
      "name": "InvalidLength",
      "type": "error"
    },
    {
      "inputs": [],
      "name": "InvalidOffset",
      "type": "error"
    },
    {
      "inputs": [],
      "name": "InvalidRegistry",
      "type": "error"
    },
    {
      "inputs": [],
      "name": "InvalidRevocation",
      "type": "error"
    },
    {
      "inputs": [],
      "name": "InvalidRevocations",
      "type": "error"
    },
    {
      "inputs": [],
      "name": "InvalidSchema",
      "type": "error"
    },
    {
      "inputs": [],
      "name": "InvalidSignature",
      "type": "error"
    },
    {
      "inputs": [],
      "name": "InvalidVerifier",
      "type": "error"
    },
    {
      "inputs": [],
      "name": "Irrevocable",
      "type": "error"
    },
    {
      "inputs": [],
      "name": "NotFound",
      "type": "error"
    },
    {
      "inputs": [],
      "name": "NotPayable",
      "type": "error"
    },
    {
      "inputs": [],
      "name": "WrongSchema",
      "type": "error"
    },
    {
      "anonymous": false,
      "inputs": [
        {
          "indexed": true,
          "internalType": "address",
          "name": "recipient",
          "type": "address"
        },
        {
          "indexed": true,
          "internalType": "address",
          "name": "attester",
          "type": "address"
        },
        {
          "indexed": false,
          "internalType": "bytes32",
          "name": "uid",
          "type": "bytes32"
        },
        {
          "indexed": true,
          "internalType": "bytes32",
          "name": "schema",
          "type": "bytes32"
        }
      ],
      "name": "Attested",
      "type": "event"
    },
    {
      "anonymous": false,
      "inputs": [
        {
          "indexed": true,
          "internalType": "address",
          "name": "recipient",
          "type": "address"
        },
        {
          "indexed": true,
          "internalType": "address",
          "name": "attester",
          "type": "address"
        },
        {
          "indexed": false,
          "internalType": "bytes32",
          "name": "uid",
          "type": "bytes32"
        },
        {
          "indexed": true,
          "internalType": "bytes32",
          "name": "schema",
          "type": "bytes32"
        }
      ],
      "name": "Revoked",
      "type": "event"
    },
    {
      "anonymous": false,
      "inputs": [
        {
          "indexed": true,
          "internalType": "address",
          "name": "revoker",
          "type": "address"
        },
        {
          "indexed": true,
          "internalType": "bytes32",
          "name": "data",
          "type": "bytes32"
        },
        {
          "indexed": true,
          "internalType": "uint64",
          "name": "timestamp",
          "type": "uint64"
        }
      ],
      "name": "RevokedOffchain",
      "type": "event"
    },
    {
      "anonymous": false,
      "inputs": [
        {
          "indexed": true,
          "internalType": "bytes32",
          "name": "data",
          "type": "bytes32"
        },
        {
          "indexed": true,
          "internalType": "uint64",
          "name": "timestamp",
          "type": "uint64"
        }
      ],
      "name": "Timestamped",
      "type": "event"
    },
    {
      "inputs": [],
      "name": "VERSION",
      "outputs": [
        {
          "internalType": "string",
          "name": "",
          "type": "string"
        }
      ],
      "stateMutability": "view",
      "type": "function"
    },
    {
      "inputs": [
        {
          "components": [
            {
              "internalType": "bytes32",
              "name": "schema",
              "type": "bytes32"
            },
            {
              "components": [
                {
                  "internalType": "address",
                  "name": "recipient",
                  "type": "address"
                },
                {
                  "internalType": "uint64",
                  "name": "expirationTime",
                  "type": "uint64"
                },
                {
                  "internalType": "bool",
                  "name": "revocable",
                  "type": "bool"
                },
                {
                  "internalType": "bytes32",
                  "name": "refUID",
                  "type": "bytes32"
                },
                {
                  "internalType": "bytes",
                  "name": "data",
                  "type": "bytes"
                },
                {
                  "internalType": "uint256",
                  "name": "value",
                  "type": "uint256"
                }
              ],
              "internalType": "struct AttestationRequestData",
              "name": "data",
              "type": "tuple"
            }
          ],
          "internalType": "struct AttestationRequest",
          "name": "request",
          "type": "tuple"
        }
      ],
      "name": "attest",
      "outputs": [
        {
          "internalType": "bytes32",
          "name": "",
          "type": "bytes32"
        }
      ],
      "stateMutability": "payable",
      "type": "function"
    },
    {
      "inputs": [
        {
          "components": [
            {
              "internalType": "bytes32",
              "name": "schema",
              "type": "bytes32"
            },
            {
              "components": [
                {
                  "internalType": "address",
                  "name": "recipient",
                  "type": "address"
                },
                {
                  "internalType": "uint64",
                  "name": "expirationTime",
                  "type": "uint64"
                },
                {
                  "internalType": "bool",
                  "name": "revocable",
                  "type": "bool"
                },
                {
                  "internalType": "bytes32",
                  "name": "refUID",
                  "type": "bytes32"
                },
                {
                  "internalType": "bytes",
                  "name": "data",
                  "type": "bytes"
                },
                {
                  "internalType": "uint256",
                  "name": "value",
                  "type": "uint256"
                }
              ],
              "internalType": "struct AttestationRequestData",
              "name": "data",
              "type": "tuple"
            },
            {
              "components": [
                {
                  "internalType": "uint8",
                  "name": "v",
                  "type": "uint8"
                },
                {
                  "internalType": "bytes32",
                  "name": "r",
                  "type": "bytes32"
                },
                {
                  "internalType": "bytes32",
                  "name": "s",
                  "type": "bytes32"
                }
              ],
              "internalType": "struct EIP712Signature",
              "name": "signature",
              "type": "tuple"
            },
            {
              "internalType": "address",
              "name": "attester",
              "type": "address"
            }
          ],
          "internalType": "struct DelegatedAttestationRequest",
          "name": "delegatedRequest",
          "type": "tuple"
        }
      ],
      "name": "attestByDelegation",
      "outputs": [
        {
          "internalType": "bytes32",
          "name": "",
          "type": "bytes32"
        }
      ],
      "stateMutability": "payable",
      "type": "function"
    },
    {
      "inputs": [],
      "name": "getAttestTypeHash",
      "outputs": [
        {
          "internalType": "bytes32",
          "name": "",
          "type": "bytes32"
        }
      ],
      "stateMutability": "pure",
      "type": "function"
    },
    {
      "inputs": [
        {
          "internalType": "bytes32",
          "name": "uid",
          "type": "bytes32"
        }
      ],
      "name": "getAttestation",
      "outputs": [
        {
          "components": [
            {
              "internalType": "bytes32",
              "name": "uid",
              "type": "bytes32"
            },
            {
              "internalType": "bytes32",
              "name": "schema",
              "type": "bytes32"
            },
            {
              "internalType": "uint64",
              "name": "time",
              "type": "uint64"
            },
            {
              "internalType": "uint64",
              "name": "expirationTime",
              "type": "uint64"
            },
            {
              "internalType": "uint64",
              "name": "revocationTime",
              "type": "uint64"
            },
            {
              "internalType": "bytes32",
              "name": "refUID",
              "type": "bytes32"
            },
            {
              "internalType": "address",
              "name": "recipient",
              "type": "address"
            },
            {
              "internalType": "address",
              "name": "attester",
              "type": "address"
            },
            {
              "internalType": "bool",
              "name": "revocable",
              "type": "bool"
            },
            {
              "internalType": "bytes",
              "name": "data",
              "type": "bytes"
            }
          ],
          "internalType": "struct Attestation",
          "name": "",
          "type": "tuple"
        }
      ],
      "stateMutability": "view",
      "type": "function"
    },
    {
      "inputs": [],
      "name": "getDomainSeparator",
      "outputs": [
        {
          "internalType": "bytes32",
          "name": "",
          "type": "bytes32"
        }
      ],
      "stateMutability": "view",
      "type": "function"
    },
    {
      "inputs": [],
      "name": "getName",
      "outputs": [
        {
          "internalType": "string",
          "name": "",
          "type": "string"
        }
      ],
      "stateMutability": "view",
      "type": "function"
    },
    {
      "inputs": [
        {
          "internalType": "address",
          "name": "account",
          "type": "address"
        }
      ],
      "name": "getNonce",
      "outputs": [
        {
          "internalType": "uint256",
          "name": "",
          "type": "uint256"
        }
      ],
      "stateMutability": "view",
      "type": "function"
    },
    {
      "inputs": [
        {
          "internalType": "address",
          "name": "revoker",
          "type": "address"
        },
        {
          "internalType": "bytes32",
          "name": "data",
          "type": "bytes32"
        }
      ],
      "name": "getRevokeOffchain",
      "outputs": [
        {
          "internalType": "uint64",
          "name": "",
          "type": "uint64"
        }
      ],
      "stateMutability": "view",
      "type": "function"
    },
    {
      "inputs": [],
      "name": "getRevokeTypeHash",
      "outputs": [
        {
          "internalType": "bytes32",
          "name": "",
          "type": "bytes32"
        }
      ],
      "stateMutability": "pure",
      "type": "function"
    },
    {
      "inputs": [],
      "name": "getSchemaRegistry",
      "outputs": [
        {
          "internalType": "contract ISchemaRegistry",
          "name": "",
          "type": "address"
        }
      ],
      "stateMutability": "view",
      "type": "function"
    },
    {
      "inputs": [
        {
          "internalType": "bytes32",
          "name": "data",
          "type": "bytes32"
        }
      ],
      "name": "getTimestamp",
      "outputs": [
        {
          "internalType": "uint64",
          "name": "",
          "type": "uint64"
        }
      ],
      "stateMutability": "view",
      "type": "function"
    },
    {
      "inputs": [
        {
          "internalType": "bytes32",
          "name": "uid",
          "type": "bytes32"
        }
      ],
      "name": "isAttestationValid",
      "outputs": [
        {
          "internalType": "bool",
          "name": "",
          "type": "bool"
        }
      ],
      "stateMutability": "view",
      "type": "function"
    },
    {
      "inputs": [
        {
          "components": [
            {
              "internalType": "bytes32",
              "name": "schema",
              "type": "bytes32"
            },
            {
              "components": [
                {
                  "internalType": "address",
                  "name": "recipient",
                  "type": "address"
                },
                {
                  "internalType": "uint64",
                  "name": "expirationTime",
                  "type": "uint64"
                },
                {
                  "internalType": "bool",
                  "name": "revocable",
                  "type": "bool"
                },
                {
                  "internalType": "bytes32",
                  "name": "refUID",
                  "type": "bytes32"
                },
                {
                  "internalType": "bytes",
                  "name": "data",
                  "type": "bytes"
                },
                {
                  "internalType": "uint256",
                  "name": "value",
                  "type": "uint256"
                }
              ],
              "internalType": "struct AttestationRequestData[]",
              "name": "data",
              "type": "tuple[]"
            }
          ],
          "internalType": "struct MultiAttestationRequest[]",
          "name": "multiRequests",
          "type": "tuple[]"
        }
      ],
      "name": "multiAttest",
      "outputs": [
        {
          "internalType": "bytes32[]",
          "name": "",
          "type": "bytes32[]"
        }
      ],
      "stateMutability": "payable",
      "type": "function"
    },
    {
      "inputs": [
        {
          "components": [
            {
              "internalType": "bytes32",
              "name": "schema",
              "type": "bytes32"
            },
            {
              "components": [
                {
                  "internalType": "address",
                  "name": "recipient",
                  "type": "address"
                },
                {
                  "internalType": "uint64",
                  "name": "expirationTime",
                  "type": "uint64"
                },
                {
                  "internalType": "bool",
                  "name": "revocable",
                  "type": "bool"
                },
                {
                  "internalType": "bytes32",
                  "name": "refUID",
                  "type": "bytes32"
                },
                {
                  "internalType": "bytes",
                  "name": "data",
                  "type": "bytes"
                },
                {
                  "internalType": "uint256",
                  "name": "value",
                  "type": "uint256"
                }
              ],
              "internalType": "struct AttestationRequestData[]",
              "name": "data",
              "type": "tuple[]"
            },
            {
              "components": [
                {
                  "internalType": "uint8",
                  "name": "v",
                  "type": "uint8"
                },
                {
                  "internalType": "bytes32",
                  "name": "r",
                  "type": "bytes32"
                },
                {
                  "internalType": "bytes32",
                  "name": "s",
                  "type": "bytes32"
                }
              ],
              "internalType": "struct EIP712Signature[]",
              "name": "signatures",
              "type": "tuple[]"
            },
            {
              "internalType": "address",
              "name": "attester",
              "type": "address"
            }
          ],
          "internalType": "struct MultiDelegatedAttestationRequest[]",
          "name": "multiDelegatedRequests",
          "type": "tuple[]"
        }
      ],
      "name": "multiAttestByDelegation",
      "outputs": [
        {
          "internalType": "bytes32[]",
          "name": "",
          "type": "bytes32[]"
        }
      ],
      "stateMutability": "payable",
      "type": "function"
    },
    {
      "inputs": [
        {
          "components": [
            {
              "internalType": "bytes32",
              "name": "schema",
              "type": "bytes32"
            },
            {
              "components": [
                {
                  "internalType": "bytes32",
                  "name": "uid",
                  "type": "bytes32"
                },
                {
                  "internalType": "uint256",
                  "name": "value",
                  "type": "uint256"
                }
              ],
              "internalType": "struct RevocationRequestData[]",
              "name": "data",
              "type": "tuple[]"
            }
          ],
          "internalType": "struct MultiRevocationRequest[]",
          "name": "multiRequests",
          "type": "tuple[]"
        }
      ],
      "name": "multiRevoke",
      "outputs": [],
      "stateMutability": "payable",
      "type": "function"
    },
    {
      "inputs": [
        {
          "components": [
            {
              "internalType": "bytes32",
              "name": "schema",
              "type": "bytes32"
            },
            {
              "components": [
                {
                  "internalType": "bytes32",
                  "name": "uid",
                  "type": "bytes32"
                },
                {
                  "internalType": "uint256",
                  "name": "value",
                  "type": "uint256"
                }
              ],
              "internalType": "struct RevocationRequestData[]",
              "name": "data",
              "type": "tuple[]"
            },
            {
              "components": [
                {
                  "internalType": "uint8",
                  "name": "v",
                  "type": "uint8"
                },
                {
                  "internalType": "bytes32",
                  "name": "r",
                  "type": "bytes32"
                },
                {
                  "internalType": "bytes32",
                  "name": "s",
                  "type": "bytes32"
                }
              ],
              "internalType": "struct EIP712Signature[]",
              "name": "signatures",
              "type": "tuple[]"
            },
            {
              "internalType": "address",
              "name": "revoker",
              "type": "address"
            }
          ],
          "internalType": "struct MultiDelegatedRevocationRequest[]",
          "name": "multiDelegatedRequests",
          "type": "tuple[]"
        }
      ],
      "name": "multiRevokeByDelegation",
      "outputs": [],
      "stateMutability": "payable",
      "type": "function"
    },
    {
      "inputs": [
        {
          "internalType": "bytes32[]",
          "name": "data",
          "type": "bytes32[]"
        }
      ],
      "name": "multiRevokeOffchain",
      "outputs": [
        {
          "internalType": "uint64",
          "name": "",
          "type": "uint64"
        }
      ],
      "stateMutability": "nonpayable",
      "type": "function"
    },
    {
      "inputs": [
        {
          "internalType": "bytes32[]",
          "name": "data",
          "type": "bytes32[]"
        }
      ],
      "name": "multiTimestamp",
      "outputs": [
        {
          "internalType": "uint64",
          "name": "",
          "type": "uint64"
        }
      ],
      "stateMutability": "nonpayable",
      "type": "function"
    },
    {
      "inputs": [
        {
          "components": [
            {
              "internalType": "bytes32",
              "name": "schema",
              "type": "bytes32"
            },
            {
              "components": [
                {
                  "internalType": "bytes32",
                  "name": "uid",
                  "type": "bytes32"
                },
                {
                  "internalType": "uint256",
                  "name": "value",
                  "type": "uint256"
                }
              ],
              "internalType": "struct RevocationRequestData",
              "name": "data",
              "type": "tuple"
            }
          ],
          "internalType": "struct RevocationRequest",
          "name": "request",
          "type": "tuple"
        }
      ],
      "name": "revoke",
      "outputs": [],
      "stateMutability": "payable",
      "type": "function"
    },
    {
      "inputs": [
        {
          "components": [
            {
              "internalType": "bytes32",
              "name": "schema",
              "type": "bytes32"
            },
            {
              "components": [
                {
                  "internalType": "bytes32",
                  "name": "uid",
                  "type": "bytes32"
                },
                {
                  "internalType": "uint256",
                  "name": "value",
                  "type": "uint256"
                }
              ],
              "internalType": "struct RevocationRequestData",
              "name": "data",
              "type": "tuple"
            },
            {
              "components": [
                {
                  "internalType": "uint8",
                  "name": "v",
                  "type": "uint8"
                },
                {
                  "internalType": "bytes32",
                  "name": "r",
                  "type": "bytes32"
                },
                {
                  "internalType": "bytes32",
                  "name": "s",
                  "type": "bytes32"
                }
              ],
              "internalType": "struct EIP712Signature",
              "name": "signature",
              "type": "tuple"
            },
            {
              "internalType": "address",
              "name": "revoker",
              "type": "address"
            }
          ],
          "internalType": "struct DelegatedRevocationRequest",
          "name": "delegatedRequest",
          "type": "tuple"
        }
      ],
      "name": "revokeByDelegation",
      "outputs": [],
      "stateMutability": "payable",
      "type": "function"
    },
    {
      "inputs": [
        {
          "internalType": "bytes32",
          "name": "data",
          "type": "bytes32"
        }
      ],
      "name": "revokeOffchain",
      "outputs": [
        {
          "internalType": "uint64",
          "name": "",
          "type": "uint64"
        }
      ],
      "stateMutability": "nonpayable",
      "type": "function"
    },
    {
      "inputs": [
        {
          "internalType": "bytes32",
          "name": "data",
          "type": "bytes32"
        }
      ],
      "name": "timestamp",
      "outputs": [
        {
          "internalType": "uint64",
          "name": "",
          "type": "uint64"
        }
      ],
      "stateMutability": "nonpayable",
      "type": "function"
    }
  ],
  "transactionHash": "0xea71070613c9987f5be2098ff0dfc3edf5a3c2dc8779c1c9cc6078a161986415",
  "args": [
    "0x720c2bA66D19A725143FBf5fDC5b4ADA2742682E"
  ],
  "numDeployments": 1,
  "solcInputHash": "d83b35e9073b87e3a3bddfe022bd63a3",
  "bytecode": "0x6101606040523480156200001257600080fd5b50604051620043cc380380620043cc83398101604081905262000035916200015b565b604080518082018252600381526245415360e81b6020808301918252835180850185526004815263302e323760e01b81830152835190922060e08190527f2be123d7d25e2a214dd01de409c0c206b6a5cf2b3b7b0350b53cba0d658819926101008190524660a081815287517f8b73c3c69bb8fe3d512ecc4cf759cc79239f7b179b0ffacaa9a75d522b39400f818701819052818a01959095526060810193909352608080840192909252308382018190528851808503909201825260c09384019098528051940193909320909252939052610120929092529060006200011d838262000232565b5050506001600160a01b03811662000148576040516311a1e69760e01b815260040160405180910390fd5b6001600160a01b031661014052620002fe565b6000602082840312156200016e57600080fd5b81516001600160a01b03811681146200018657600080fd5b9392505050565b634e487b7160e01b600052604160045260246000fd5b600181811c90821680620001b857607f821691505b602082108103620001d957634e487b7160e01b600052602260045260246000fd5b50919050565b601f8211156200022d57600081815260208120601f850160051c81016020861015620002085750805b601f850160051c820191505b81811015620002295782815560010162000214565b5050505b505050565b81516001600160401b038111156200024e576200024e6200018d565b62000266816200025f8454620001a3565b84620001df565b602080601f8311600181146200029e5760008415620002855750858301515b600019600386901b1c1916600185901b17855562000229565b600085815260208120601f198616915b82811015620002cf57888601518255948401946001909101908401620002ae565b5085821015620002ee5787850151600019600388901b60f8161c191681555b5050505050600190811b01905550565b60805160a05160c05160e05161010051610120516101405161406562000367600039600081816104c5015281816112a50152611a42015260006123cb0152600061241a015260006123f50152600061234e01526000612378015260006123a201526140656000f3fe6080604052600436106101805760003560e01c8063b83010d3116100d6578063e57a6b1b1161007f578063f10b5cc811610059578063f10b5cc81461049e578063f17325e7146104ef578063ffa1ad741461050257600080fd5b8063e57a6b1b14610456578063e71ff36514610469578063ed24911d1461048957600080fd5b8063e13458fc116100b0578063e13458fc146103f1578063e30bb56314610404578063e45d03f91461044357600080fd5b8063b83010d314610367578063cf190f341461039a578063d45c4435146103ba57600080fd5b80634692626711610138578063831e05a111610112578063831e05a1146102cd578063a3112a64146102e0578063b469318d1461030d57600080fd5b806346926267146102855780634cb7e9e51461029a5780634d003070146102ad57600080fd5b806317d7de7c1161016957806317d7de7c146102005780632d0335ab1461022257806344adc90e1461026557600080fd5b806312b11a171461018557806313893f61146101c7575b600080fd5b34801561019157600080fd5b507fdbfdf8dc2b135c26253e00d5b6cbe6f20457e003fd526d97cea183883570de615b6040519081526020015b60405180910390f35b3480156101d357600080fd5b506101e76101e2366004613094565b61054b565b60405167ffffffffffffffff90911681526020016101be565b34801561020c57600080fd5b50610215610590565b6040516101be9190613144565b34801561022e57600080fd5b506101b461023d366004613190565b73ffffffffffffffffffffffffffffffffffffffff1660009081526001602052604090205490565b610278610273366004613094565b610622565b6040516101be91906131ad565b6102986102933660046131f1565b610753565b005b6102986102a8366004613094565b6107d7565b3480156102b957600080fd5b506101e76102c8366004613209565b6108b9565b6102786102db366004613094565b6108c6565b3480156102ec57600080fd5b506103006102fb366004613209565b610b11565b6040516101be9190613309565b34801561031957600080fd5b506101e761032836600461331c565b73ffffffffffffffffffffffffffffffffffffffff919091166000908152600460209081526040808320938352929052205467ffffffffffffffff1690565b34801561037357600080fd5b507fa98d02348410c9c76735e0d0bb1396f4015ac2bb9615f9c2611d19d7a8a996506101b4565b3480156103a657600080fd5b506101e76103b5366004613209565b610cd0565b3480156103c657600080fd5b506101e76103d5366004613209565b60009081526003602052604090205467ffffffffffffffff1690565b6101b46103ff366004613348565b610cde565b34801561041057600080fd5b5061043361041f366004613209565b600090815260026020526040902054151590565b60405190151581526020016101be565b610298610451366004613094565b610de1565b610298610464366004613383565b610f56565b34801561047557600080fd5b506101e7610484366004613094565b610ffb565b34801561049557600080fd5b506101b4611033565b3480156104aa57600080fd5b5060405173ffffffffffffffffffffffffffffffffffffffff7f00000000000000000000000000000000000000000000000000000000000000001681526020016101be565b6101b46104fd366004613395565b611042565b34801561050e57600080fd5b506102156040518060400160405280600481526020017f302e32370000000000000000000000000000000000000000000000000000000081525081565b60004282825b818110156105845761057c3387878481811061056f5761056f6133d0565b9050602002013585611100565b600101610551565b50909150505b92915050565b60606000805461059f906133ff565b80601f01602080910402602001604051908101604052809291908181526020018280546105cb906133ff565b80156106185780601f106105ed57610100808354040283529160200191610618565b820191906000526020600020905b8154815290600101906020018083116105fb57829003601f168201915b5050505050905090565b606060008267ffffffffffffffff81111561063f5761063f61344c565b60405190808252806020026020018201604052801561067257816020015b606081526020019060019003908161065d5790505b509050600034815b8581101561073e577fffffffffffffffffffffffffffffffffffffffffffffffffffffffffffffffff86018114368888848181106106ba576106ba6133d0565b90506020028101906106cc919061347b565b905060006106f382356106e260208501856134b9565b6106eb91613732565b3388876111ff565b805190915061070290866137a6565b9450806020015187858151811061071b5761071b6133d0565b60200260200101819052508060200151518601955083600101935050505061067a565b50610749838361192c565b9695505050505050565b604080516001808252818301909252600091816020015b604080518082019091526000808252602082015281526020019060019003908161076a5790505090506107a53683900383016020840161382f565b816000815181106107b8576107b86133d0565b60209081029190910101526107d2823582333460016119f9565b505050565b3460005b828110156108b3577fffffffffffffffffffffffffffffffffffffffffffffffffffffffffffffffff830181143685858481811061081b5761081b6133d0565b905060200281019061082d919061347b565b905061089a8135610841602084018461384b565b808060200260200160405190810160405280939291908181526020016000905b8282101561088d5761087e6040830286013681900381019061382f565b81526020019060010190610861565b50505050503387866119f9565b6108a490856137a6565b935082600101925050506107db565b50505050565b60004261058a8382612055565b606060008267ffffffffffffffff8111156108e3576108e361344c565b60405190808252806020026020018201604052801561091657816020015b60608152602001906001900390816109015790505b509050600034815b8581101561073e577fffffffffffffffffffffffffffffffffffffffffffffffffffffffffffffffff860181143688888481811061095e5761095e6133d0565b905060200281019061097091906138b3565b905036600061098260208401846134b9565b90925090508015806109a2575061099c60408401846138e7565b82141590505b156109d9576040517f947d5a8400000000000000000000000000000000000000000000000000000000815260040160405180910390fd5b60005b81811015610a9b57610a93604051806080016040528086600001358152602001858585818110610a0e57610a0e6133d0565b9050602002810190610a20919061394e565b610a2990613982565b8152602001610a3b60408801886138e7565b85818110610a4b57610a4b6133d0565b905060600201803603810190610a6191906139f9565b8152602001610a766080880160608901613190565b73ffffffffffffffffffffffffffffffffffffffff169052612117565b6001016109dc565b506000610ac48435610aad8486613732565b610abd6080880160608901613190565b8a896111ff565b8051909150610ad390886137a6565b96508060200151898781518110610aec57610aec6133d0565b602002602001018190525080602001515188019750856001019550505050505061091e565b604080516101408101825260008082526020820181905291810182905260608082018390526080820183905260a0820183905260c0820183905260e08201839052610100820192909252610120810191909152600082815260026020818152604092839020835161014081018552815481526001820154928101929092529182015467ffffffffffffffff808216948301949094526801000000000000000081048416606083015270010000000000000000000000000000000090049092166080830152600381015460a0830152600481015473ffffffffffffffffffffffffffffffffffffffff90811660c0840152600582015490811660e084015274010000000000000000000000000000000000000000900460ff16151561010083015260068101805461012084019190610c47906133ff565b80601f0160208091040260200160405190810160405280929190818152602001828054610c73906133ff565b8015610cc05780601f10610c9557610100808354040283529160200191610cc0565b820191906000526020600020905b815481529060010190602001808311610ca357829003601f168201915b5050505050815250509050919050565b60004261058a338483611100565b6000610cf1610cec83613a15565b612117565b604080516001808252818301909252600091816020015b6040805160c081018252600080825260208083018290529282018190526060808301829052608083015260a082015282527fffffffffffffffffffffffffffffffffffffffffffffffffffffffffffffffff909201910181610d08579050509050610d76602084018461394e565b610d7f90613982565b81600081518110610d9257610d926133d0565b6020908102919091010152610dbb833582610db360c0870160a08801613190565b3460016111ff565b60200151600081518110610dd157610dd16133d0565b6020026020010151915050919050565b3460005b828110156108b3577fffffffffffffffffffffffffffffffffffffffffffffffffffffffffffffffff830181146000858584818110610e2657610e266133d0565b9050602002810190610e3891906138b3565b610e4190613afa565b60208101518051919250901580610e5e5750816040015151815114155b15610e95576040517f947d5a8400000000000000000000000000000000000000000000000000000000815260040160405180910390fd5b60005b8151811015610f2657610f1e604051806080016040528085600001518152602001848481518110610ecb57610ecb6133d0565b6020026020010151815260200185604001518481518110610eee57610eee6133d0565b60200260200101518152602001856060015173ffffffffffffffffffffffffffffffffffffffff168152506122a6565b600101610e98565b50610f3c826000015182846060015188876119f9565b610f4690866137a6565b9450836001019350505050610de5565b610f6d610f6836839003830183613bd9565b6122a6565b604080516001808252818301909252600091816020015b6040805180820190915260008082526020820152815260200190600190039081610f84579050509050610fbf3683900383016020840161382f565b81600081518110610fd257610fd26133d0565b60209081029190910101526107d2823582610ff360e0860160c08701613190565b3460016119f9565b60004282825b818110156105845761102b86868381811061101e5761101e6133d0565b9050602002013584612055565b600101611001565b600061103d612334565b905090565b604080516001808252818301909252600091829190816020015b6040805160c081018252600080825260208083018290529282018190526060808301829052608083015260a082015282527fffffffffffffffffffffffffffffffffffffffffffffffffffffffffffffffff90920191018161105c5790505090506110ca602084018461394e565b6110d390613982565b816000815181106110e6576110e66133d0565b6020908102919091010152610dbb833582333460016111ff565b73ffffffffffffffffffffffffffffffffffffffff83166000908152600460209081526040808320858452918290529091205467ffffffffffffffff1615611174576040517fec9d6eeb00000000000000000000000000000000000000000000000000000000815260040160405180910390fd5b60008381526020829052604080822080547fffffffffffffffffffffffffffffffffffffffffffffffff00000000000000001667ffffffffffffffff861690811790915590519091859173ffffffffffffffffffffffffffffffffffffffff8816917f92a1f7a41a7c585a8b09e25b195e225b1d43248daca46b0faf9e0792777a222991a450505050565b60408051808201909152600081526060602082015284516040805180820190915260008152606060208201528167ffffffffffffffff8111156112445761124461344c565b60405190808252806020026020018201604052801561126d578160200160208202803683370190505b5060208201526040517fa2ea7c6e000000000000000000000000000000000000000000000000000000008152600481018990526000907f000000000000000000000000000000000000000000000000000000000000000073ffffffffffffffffffffffffffffffffffffffff169063a2ea7c6e90602401600060405180830381865afa158015611301573d6000803e3d6000fd5b505050506040513d6000823e601f3d9081017fffffffffffffffffffffffffffffffffffffffffffffffffffffffffffffffe01682016040526113479190810190613c35565b8051909150611382576040517fbf37b20e00000000000000000000000000000000000000000000000000000000815260040160405180910390fd5b60008367ffffffffffffffff81111561139d5761139d61344c565b60405190808252806020026020018201604052801561143c57816020015b60408051610140810182526000808252602080830182905292820181905260608083018290526080830182905260a0830182905260c0830182905260e0830182905261010083019190915261012082015282527fffffffffffffffffffffffffffffffffffffffffffffffffffffffffffffffff9092019101816113bb5790505b50905060008467ffffffffffffffff81111561145a5761145a61344c565b604051908082528060200260200182016040528015611483578160200160208202803683370190505b50905060005b8581101561190b5760008b82815181106114a5576114a56133d0565b60200260200101519050600067ffffffffffffffff16816020015167ffffffffffffffff16141580156114f057504267ffffffffffffffff16816020015167ffffffffffffffff1611155b15611527576040517f08e8b93700000000000000000000000000000000000000000000000000000000815260040160405180910390fd5b846040015115801561153a575080604001515b15611571576040517f157bd4c300000000000000000000000000000000000000000000000000000000815260040160405180910390fd5b60006040518061014001604052806000801b81526020018f81526020016115954290565b67ffffffffffffffff168152602001836020015167ffffffffffffffff168152602001600067ffffffffffffffff16815260200183606001518152602001836000015173ffffffffffffffffffffffffffffffffffffffff1681526020018d73ffffffffffffffffffffffffffffffffffffffff16815260200183604001511515815260200183608001518152509050600080600090505b6116378382612468565b600081815260026020526040902054909250156116565760010161162d565b818352600082815260026020818152604092839020865181559086015160018201559185015190820180546060870151608088015167ffffffffffffffff908116700100000000000000000000000000000000027fffffffffffffffff0000000000000000ffffffffffffffffffffffffffffffff92821668010000000000000000027fffffffffffffffffffffffffffffffff000000000000000000000000000000009094169190951617919091171691909117905560a0840151600382015560c084015160048201805473ffffffffffffffffffffffffffffffffffffffff9283167fffffffffffffffffffffffff000000000000000000000000000000000000000090911617905560e0850151600583018054610100880151151574010000000000000000000000000000000000000000027fffffffffffffffffffffff000000000000000000000000000000000000000000909116929093169190911791909117905561012084015184919060068201906117d59082613d5b565b50505060608401511561182c57606084015160009081526002602052604090205461182c576040517fc5723b5100000000000000000000000000000000000000000000000000000000815260040160405180910390fd5b8287868151811061183f5761183f6133d0565b60200260200101819052508360a00151868681518110611861576118616133d0565b6020026020010181815250508189602001518681518110611884576118846133d0565b6020026020010181815250508f8e73ffffffffffffffffffffffffffffffffffffffff16856000015173ffffffffffffffffffffffffffffffffffffffff167f8bf46bf4cfd674fa735a3d63ec1c9ad4153f033c290341f3a588b75685141b35856040516118f491815260200190565b60405180910390a484600101945050505050611489565b5061191b83838360008c8c6124c7565b845250919998505050505050505050565b606060008267ffffffffffffffff8111156119495761194961344c565b604051908082528060200260200182016040528015611972578160200160208202803683370190505b5090506000805b8551811015610584576000868281518110611996576119966133d0565b6020026020010151905060005b81518110156119ef578181815181106119be576119be6133d0565b60200260200101518585815181106119d8576119d86133d0565b6020908102919091010152600193840193016119a3565b5050600101611979565b6040517fa2ea7c6e00000000000000000000000000000000000000000000000000000000815260048101869052600090819073ffffffffffffffffffffffffffffffffffffffff7f0000000000000000000000000000000000000000000000000000000000000000169063a2ea7c6e90602401600060405180830381865afa158015611a89573d6000803e3d6000fd5b505050506040513d6000823e601f3d9081017fffffffffffffffffffffffffffffffffffffffffffffffffffffffffffffffe0168201604052611acf9190810190613c35565b8051909150611b0a576040517fbf37b20e00000000000000000000000000000000000000000000000000000000815260040160405180910390fd5b855160008167ffffffffffffffff811115611b2757611b2761344c565b604051908082528060200260200182016040528015611bc657816020015b60408051610140810182526000808252602080830182905292820181905260608083018290526080830182905260a0830182905260c0830182905260e0830182905261010083019190915261012082015282527fffffffffffffffffffffffffffffffffffffffffffffffffffffffffffffffff909201910181611b455790505b50905060008267ffffffffffffffff811115611be457611be461344c565b604051908082528060200260200182016040528015611c0d578160200160208202803683370190505b50905060005b838110156120375760008a8281518110611c2f57611c2f6133d0565b6020908102919091018101518051600090815260029092526040909120805491925090611c88576040517fc5723b5100000000000000000000000000000000000000000000000000000000815260040160405180910390fd5b8c816001015414611cc5576040517fbf37b20e00000000000000000000000000000000000000000000000000000000815260040160405180910390fd5b600581015473ffffffffffffffffffffffffffffffffffffffff8c8116911614611d1b576040517f4ca8886700000000000000000000000000000000000000000000000000000000815260040160405180910390fd5b600581015474010000000000000000000000000000000000000000900460ff16611d71576040517f157bd4c300000000000000000000000000000000000000000000000000000000815260040160405180910390fd5b6002810154700100000000000000000000000000000000900467ffffffffffffffff1615611dcb576040517f905e710700000000000000000000000000000000000000000000000000000000815260040160405180910390fd5b426002820180547fffffffffffffffff0000000000000000ffffffffffffffffffffffffffffffff811670010000000000000000000000000000000067ffffffffffffffff948516810291821793849055604080516101408101825287548152600188015460208201529386169286169290921791830191909152680100000000000000008304841660608301529091049091166080820152600382015460a0820152600482015473ffffffffffffffffffffffffffffffffffffffff90811660c0830152600583015490811660e083015274010000000000000000000000000000000000000000900460ff1615156101008201526006820180548391610120840191611ed7906133ff565b80601f0160208091040260200160405190810160405280929190818152602001828054611f03906133ff565b8015611f505780601f10611f2557610100808354040283529160200191611f50565b820191906000526020600020905b815481529060010190602001808311611f3357829003601f168201915b505050505081525050858481518110611f6b57611f6b6133d0565b60200260200101819052508160200151848481518110611f8d57611f8d6133d0565b60200260200101818152505080600101548b73ffffffffffffffffffffffffffffffffffffffff168260040160009054906101000a900473ffffffffffffffffffffffffffffffffffffffff1673ffffffffffffffffffffffffffffffffffffffff167ff930a6e2523c9cc298691873087a740550b8fc85a0680830414c148ed927f615856000015160405161202591815260200190565b60405180910390a45050600101611c13565b5061204784838360018b8b6124c7565b9a9950505050505050505050565b60008281526003602052604090205467ffffffffffffffff16156120a5576040517f2e26794600000000000000000000000000000000000000000000000000000000815260040160405180910390fd5b60008281526003602052604080822080547fffffffffffffffffffffffffffffffffffffffffffffffff00000000000000001667ffffffffffffffff85169081179091559051909184917f5aafceeb1c7ad58e4a84898bdee37c02c0fc46e7d24e6b60e8209449f183459f9190a35050565b60208082015160408084015160608086015173ffffffffffffffffffffffffffffffffffffffff1660009081526001808752848220805491820190558751865187890151878901519589015160808a01518051908c01209851999a97999498959761221d97612202977fdbfdf8dc2b135c26253e00d5b6cbe6f20457e003fd526d97cea183883570de619791939290918c9101978852602088019690965273ffffffffffffffffffffffffffffffffffffffff94909416604087015267ffffffffffffffff9290921660608601521515608085015260a084015260c083015260e08201526101000190565b604051602081830303815290604052805190602001206128a1565b9050846060015173ffffffffffffffffffffffffffffffffffffffff16612252828560000151866020015187604001516128b4565b73ffffffffffffffffffffffffffffffffffffffff161461229f576040517f8baa579f00000000000000000000000000000000000000000000000000000000815260040160405180910390fd5b5050505050565b60208181015160408084015160608086015173ffffffffffffffffffffffffffffffffffffffff1660009081526001808752848220805491820190558751865186517fa98d02348410c9c76735e0d0bb1396f4015ac2bb9615f9c2611d19d7a8a996509981019990995295880152918601939093526080850181905292939092919061221d9060a001612202565b60003073ffffffffffffffffffffffffffffffffffffffff7f00000000000000000000000000000000000000000000000000000000000000001614801561239a57507f000000000000000000000000000000000000000000000000000000000000000046145b156123c457507f000000000000000000000000000000000000000000000000000000000000000090565b50604080517f00000000000000000000000000000000000000000000000000000000000000006020808301919091527f0000000000000000000000000000000000000000000000000000000000000000828401527f000000000000000000000000000000000000000000000000000000000000000060608301524660808301523060a0808401919091528351808403909101815260c0909201909252805191012090565b60208083015160c084015160e0850151604080870151606088015161010089015160a08a01516101208b015194516000996124a999989796918c9101613e75565b60405160208183030381529060405280519060200120905092915050565b8451600090600181900361251f5761251788886000815181106124ec576124ec6133d0565b602002602001015188600081518110612507576125076133d0565b60200260200101518888886128dc565b915050610749565b602088015173ffffffffffffffffffffffffffffffffffffffff81166125b15760005b828110156125a55787818151811061255c5761255c6133d0565b602002602001015160001461259d576040517f1574f9f300000000000000000000000000000000000000000000000000000000815260040160405180910390fd5b600101612542565b50600092505050610749565b6000805b838110156126db5760008982815181106125d1576125d16133d0565b602002602001015190508060001415801561265857508373ffffffffffffffffffffffffffffffffffffffff1663ce46e0466040518163ffffffff1660e01b8152600401602060405180830381865afa158015612632573d6000803e3d6000fd5b505050506040513d601f19601f820116820180604052508101906126569190613f53565b155b1561268f576040517f1574f9f300000000000000000000000000000000000000000000000000000000815260040160405180910390fd5b878111156126c9576040517f1101129400000000000000000000000000000000000000000000000000000000815260040160405180910390fd5b968790039691909101906001016125b5565b5086156127b6576040517f88e5b2d900000000000000000000000000000000000000000000000000000000815273ffffffffffffffffffffffffffffffffffffffff8316906388e5b2d9908390612738908d908d90600401613f70565b60206040518083038185885af1158015612756573d6000803e3d6000fd5b50505050506040513d601f19601f8201168201806040525081019061277b9190613f53565b6127b1576040517fbf2f3a8b00000000000000000000000000000000000000000000000000000000815260040160405180910390fd5b612885565b6040517f91db0b7e00000000000000000000000000000000000000000000000000000000815273ffffffffffffffffffffffffffffffffffffffff8316906391db0b7e90839061280c908d908d90600401613f70565b60206040518083038185885af115801561282a573d6000803e3d6000fd5b50505050506040513d601f19601f8201168201806040525081019061284f9190613f53565b612885576040517fe8bee83900000000000000000000000000000000000000000000000000000000815260040160405180910390fd5b84156128945761289486612bf2565b9998505050505050505050565b600061058a6128ae612334565b83612c05565b60008060006128c587878787612c47565b915091506128d281612d36565b5095945050505050565b602086015160009073ffffffffffffffffffffffffffffffffffffffff8116612941578515612937576040517f1574f9f300000000000000000000000000000000000000000000000000000000815260040160405180910390fd5b6000915050610749565b85158015906129bc57508073ffffffffffffffffffffffffffffffffffffffff1663ce46e0466040518163ffffffff1660e01b8152600401602060405180830381865afa158015612996573d6000803e3d6000fd5b505050506040513d601f19601f820116820180604052508101906129ba9190613f53565b155b156129f3576040517f1574f9f300000000000000000000000000000000000000000000000000000000815260040160405180910390fd5b83861115612a2d576040517f1101129400000000000000000000000000000000000000000000000000000000815260040160405180910390fd5b85840393508415612b0a576040517fe49617e100000000000000000000000000000000000000000000000000000000815273ffffffffffffffffffffffffffffffffffffffff82169063e49617e1908890612a8c908b90600401613309565b60206040518083038185885af1158015612aaa573d6000803e3d6000fd5b50505050506040513d601f19601f82011682018060405250810190612acf9190613f53565b612b05576040517fccf3bb2700000000000000000000000000000000000000000000000000000000815260040160405180910390fd5b612bd7565b6040517fe60c350500000000000000000000000000000000000000000000000000000000815273ffffffffffffffffffffffffffffffffffffffff82169063e60c3505908890612b5e908b90600401613309565b60206040518083038185885af1158015612b7c573d6000803e3d6000fd5b50505050506040513d601f19601f82011682018060405250810190612ba19190613f53565b612bd7576040517fbd8ba84d00000000000000000000000000000000000000000000000000000000815260040160405180910390fd5b8215612be657612be684612bf2565b50939695505050505050565b8015612c0257612c023382612eee565b50565b6040517f1901000000000000000000000000000000000000000000000000000000000000602082015260228101839052604281018290526000906062016124a9565b6000807f7fffffffffffffffffffffffffffffff5d576e7357a4501ddfe92f46681b20a0831115612c7e5750600090506003612d2d565b6040805160008082526020820180845289905260ff881692820192909252606081018690526080810185905260019060a0016020604051602081039080840390855afa158015612cd2573d6000803e3d6000fd5b50506040517fffffffffffffffffffffffffffffffffffffffffffffffffffffffffffffffe0015191505073ffffffffffffffffffffffffffffffffffffffff8116612d2657600060019250925050612d2d565b9150600090505b94509492505050565b6000816004811115612d4a57612d4a614029565b03612d525750565b6001816004811115612d6657612d66614029565b03612dd2576040517f08c379a000000000000000000000000000000000000000000000000000000000815260206004820152601860248201527f45434453413a20696e76616c6964207369676e6174757265000000000000000060448201526064015b60405180910390fd5b6002816004811115612de657612de6614029565b03612e4d576040517f08c379a000000000000000000000000000000000000000000000000000000000815260206004820152601f60248201527f45434453413a20696e76616c6964207369676e6174757265206c656e677468006044820152606401612dc9565b6003816004811115612e6157612e61614029565b03612c02576040517f08c379a000000000000000000000000000000000000000000000000000000000815260206004820152602260248201527f45434453413a20696e76616c6964207369676e6174757265202773272076616c60448201527f75650000000000000000000000000000000000000000000000000000000000006064820152608401612dc9565b80471015612f58576040517f08c379a000000000000000000000000000000000000000000000000000000000815260206004820152601d60248201527f416464726573733a20696e73756666696369656e742062616c616e63650000006044820152606401612dc9565b60008273ffffffffffffffffffffffffffffffffffffffff168260405160006040518083038185875af1925050503d8060008114612fb2576040519150601f19603f3d011682016040523d82523d6000602084013e612fb7565b606091505b50509050806107d2576040517f08c379a000000000000000000000000000000000000000000000000000000000815260206004820152603a60248201527f416464726573733a20756e61626c6520746f2073656e642076616c75652c207260448201527f6563697069656e74206d617920686176652072657665727465640000000000006064820152608401612dc9565b60008083601f84011261305a57600080fd5b50813567ffffffffffffffff81111561307257600080fd5b6020830191508360208260051b850101111561308d57600080fd5b9250929050565b600080602083850312156130a757600080fd5b823567ffffffffffffffff8111156130be57600080fd5b6130ca85828601613048565b90969095509350505050565b60005b838110156130f15781810151838201526020016130d9565b50506000910152565b600081518084526131128160208601602086016130d6565b601f017fffffffffffffffffffffffffffffffffffffffffffffffffffffffffffffffe0169290920160200192915050565b60208152600061315760208301846130fa565b9392505050565b73ffffffffffffffffffffffffffffffffffffffff81168114612c0257600080fd5b803561318b8161315e565b919050565b6000602082840312156131a257600080fd5b81356131578161315e565b6020808252825182820181905260009190848201906040850190845b818110156131e5578351835292840192918401916001016131c9565b50909695505050505050565b60006060828403121561320357600080fd5b50919050565b60006020828403121561321b57600080fd5b5035919050565b600061014082518452602083015160208501526040830151613250604086018267ffffffffffffffff169052565b50606083015161326c606086018267ffffffffffffffff169052565b506080830151613288608086018267ffffffffffffffff169052565b5060a083015160a085015260c08301516132ba60c086018273ffffffffffffffffffffffffffffffffffffffff169052565b5060e08301516132e260e086018273ffffffffffffffffffffffffffffffffffffffff169052565b506101008381015115159085015261012080840151818601839052610749838701826130fa565b6020815260006131576020830184613222565b6000806040838503121561332f57600080fd5b823561333a8161315e565b946020939093013593505050565b60006020828403121561335a57600080fd5b813567ffffffffffffffff81111561337157600080fd5b820160c0818503121561315757600080fd5b600060e0828403121561320357600080fd5b6000602082840312156133a757600080fd5b813567ffffffffffffffff8111156133be57600080fd5b82016040818503121561315757600080fd5b7f4e487b7100000000000000000000000000000000000000000000000000000000600052603260045260246000fd5b600181811c9082168061341357607f821691505b602082108103613203577f4e487b7100000000000000000000000000000000000000000000000000000000600052602260045260246000fd5b7f4e487b7100000000000000000000000000000000000000000000000000000000600052604160045260246000fd5b600082357fffffffffffffffffffffffffffffffffffffffffffffffffffffffffffffffc18336030181126134af57600080fd5b9190910192915050565b60008083357fffffffffffffffffffffffffffffffffffffffffffffffffffffffffffffffe18436030181126134ee57600080fd5b83018035915067ffffffffffffffff82111561350957600080fd5b6020019150600581901b360382131561308d57600080fd5b60405160c0810167ffffffffffffffff811182821017156135445761354461344c565b60405290565b6040516080810167ffffffffffffffff811182821017156135445761354461344c565b604051601f82017fffffffffffffffffffffffffffffffffffffffffffffffffffffffffffffffe016810167ffffffffffffffff811182821017156135b4576135b461344c565b604052919050565b600067ffffffffffffffff8211156135d6576135d661344c565b5060051b60200190565b8015158114612c0257600080fd5b803561318b816135e0565b600067ffffffffffffffff8211156136135761361361344c565b50601f017fffffffffffffffffffffffffffffffffffffffffffffffffffffffffffffffe01660200190565b600082601f83011261365057600080fd5b813561366361365e826135f9565b61356d565b81815284602083860101111561367857600080fd5b816020850160208301376000918101602001919091529392505050565b600060c082840312156136a757600080fd5b6136af613521565b905081356136bc8161315e565b8152602082013567ffffffffffffffff80821682146136da57600080fd5b8160208401526136ec604085016135ee565b604084015260608401356060840152608084013591508082111561370f57600080fd5b5061371c8482850161363f565b60808301525060a082013560a082015292915050565b600061374061365e846135bc565b80848252602080830192508560051b85013681111561375e57600080fd5b855b8181101561379a57803567ffffffffffffffff8111156137805760008081fd5b61378c36828a01613695565b865250938201938201613760565b50919695505050505050565b8181038181111561058a577f4e487b7100000000000000000000000000000000000000000000000000000000600052601160045260246000fd5b6000604082840312156137f257600080fd5b6040516040810181811067ffffffffffffffff821117156138155761381561344c565b604052823581526020928301359281019290925250919050565b60006040828403121561384157600080fd5b61315783836137e0565b60008083357fffffffffffffffffffffffffffffffffffffffffffffffffffffffffffffffe184360301811261388057600080fd5b83018035915067ffffffffffffffff82111561389b57600080fd5b6020019150600681901b360382131561308d57600080fd5b600082357fffffffffffffffffffffffffffffffffffffffffffffffffffffffffffffff818336030181126134af57600080fd5b60008083357fffffffffffffffffffffffffffffffffffffffffffffffffffffffffffffffe184360301811261391c57600080fd5b83018035915067ffffffffffffffff82111561393757600080fd5b602001915060608102360382131561308d57600080fd5b600082357fffffffffffffffffffffffffffffffffffffffffffffffffffffffffffffff418336030181126134af57600080fd5b600061058a3683613695565b6000606082840312156139a057600080fd5b6040516060810181811067ffffffffffffffff821117156139c3576139c361344c565b604052905080823560ff811681146139da57600080fd5b8082525060208301356020820152604083013560408201525092915050565b600060608284031215613a0b57600080fd5b613157838361398e565b600060c08236031215613a2757600080fd5b613a2f61354a565b82358152602083013567ffffffffffffffff811115613a4d57600080fd5b613a5936828601613695565b602083015250613a6c366040850161398e565b604082015260a0830135613a7f8161315e565b606082015292915050565b600082601f830112613a9b57600080fd5b81356020613aab61365e836135bc565b82815260609283028501820192828201919087851115613aca57600080fd5b8387015b85811015613aed57613ae0898261398e565b8452928401928101613ace565b5090979650505050505050565b600060808236031215613b0c57600080fd5b613b1461354a565b8235815260208084013567ffffffffffffffff80821115613b3457600080fd5b9085019036601f830112613b4757600080fd5b8135613b5561365e826135bc565b81815260069190911b83018401908481019036831115613b7457600080fd5b938501935b82851015613b9d57613b8b36866137e0565b82528582019150604085019450613b79565b80868801525050506040860135925080831115613bb957600080fd5b5050613bc736828601613a8a565b604083015250613a7f60608401613180565b600060e08284031215613beb57600080fd5b613bf361354a565b82358152613c0484602085016137e0565b6020820152613c16846060850161398e565b604082015260c0830135613c298161315e565b60608201529392505050565b60006020808385031215613c4857600080fd5b825167ffffffffffffffff80821115613c6057600080fd5b9084019060808287031215613c7457600080fd5b613c7c61354a565b8251815283830151613c8d8161315e565b818501526040830151613c9f816135e0565b6040820152606083015182811115613cb657600080fd5b80840193505086601f840112613ccb57600080fd5b82519150613cdb61365e836135f9565b8281528785848601011115613cef57600080fd5b613cfe838683018787016130d6565b60608201529695505050505050565b601f8211156107d257600081815260208120601f850160051c81016020861015613d345750805b601f850160051c820191505b81811015613d5357828155600101613d40565b505050505050565b815167ffffffffffffffff811115613d7557613d7561344c565b613d8981613d8384546133ff565b84613d0d565b602080601f831160018114613ddc5760008415613da65750858301515b7fffffffffffffffffffffffffffffffffffffffffffffffffffffffffffffffff600386901b1c1916600185901b178555613d53565b6000858152602081207fffffffffffffffffffffffffffffffffffffffffffffffffffffffffffffffe08616915b82811015613e2957888601518255948401946001909101908401613e0a565b5085821015613e6557878501517fffffffffffffffffffffffffffffffffffffffffffffffffffffffffffffffff600388901b60f8161c191681555b5050505050600190811b01905550565b89815260007fffffffffffffffffffffffffffffffffffffffff000000000000000000000000808b60601b166020840152808a60601b166034840152507fffffffffffffffff000000000000000000000000000000000000000000000000808960c01b166048840152808860c01b1660508401525085151560f81b60588301528460598301528351613f0e8160798501602088016130d6565b80830190507fffffffff000000000000000000000000000000000000000000000000000000008460e01b166079820152607d81019150509a9950505050505050505050565b600060208284031215613f6557600080fd5b8151613157816135e0565b6000604082016040835280855180835260608501915060608160051b8601019250602080880160005b83811015613fe5577fffffffffffffffffffffffffffffffffffffffffffffffffffffffffffffffa0888703018552613fd3868351613222565b95509382019390820190600101613f99565b50508584038187015286518085528782019482019350915060005b8281101561401c57845184529381019392810192600101614000565b5091979650505050505050565b7f4e487b7100000000000000000000000000000000000000000000000000000000600052602160045260246000fdfea164736f6c6343000813000a",
  "devdoc": {
    "events": {
      "Attested(address,address,bytes32,bytes32)": {
        "details": "Emitted when an attestation has been made.",
        "params": {
          "attester": "The attesting account.",
          "recipient": "The recipient of the attestation.",
          "schema": "The UID of the schema.",
          "uid": "The UID the revoked attestation."
        }
      },
      "Revoked(address,address,bytes32,bytes32)": {
        "details": "Emitted when an attestation has been revoked.",
        "params": {
          "attester": "The attesting account.",
          "recipient": "The recipient of the attestation.",
          "schema": "The UID of the schema.",
          "uid": "The UID the revoked attestation."
        }
      },
      "RevokedOffchain(address,bytes32,uint64)": {
        "details": "Emitted when a data has been revoked.",
        "params": {
          "data": "The data.",
          "revoker": "The address of the revoker.",
          "timestamp": "The timestamp."
        }
      },
      "Timestamped(bytes32,uint64)": {
        "details": "Emitted when a data has been timestamped.",
        "params": {
          "data": "The data.",
          "timestamp": "The timestamp."
        }
      }
    },
    "kind": "dev",
    "methods": {
      "attest((bytes32,(address,uint64,bool,bytes32,bytes,uint256)))": {
        "details": "Attests to a specific schema.",
        "params": {
          "request": "The arguments of the attestation request. Example: attest({     schema: \"0facc36681cbe2456019c1b0d1e7bedd6d1d40f6f324bf3dd3a4cef2999200a0\",     data: {         recipient: \"0xdEADBeAFdeAdbEafdeadbeafDeAdbEAFdeadbeaf\",         expirationTime: 0,         revocable: true,         refUID: \"0x0000000000000000000000000000000000000000000000000000000000000000\",         data: \"0xF00D\",         value: 0     } })"
        },
        "returns": {
          "_0": "The UID of the new attestation."
        }
      },
      "attestByDelegation((bytes32,(address,uint64,bool,bytes32,bytes,uint256),(uint8,bytes32,bytes32),address))": {
        "details": "Attests to a specific schema via the provided EIP712 signature.",
        "params": {
          "delegatedRequest": "The arguments of the delegated attestation request. Example: attestByDelegation({     schema: '0x8e72f5bc0a8d4be6aa98360baa889040c50a0e51f32dbf0baa5199bd93472ebc',     data: {         recipient: '0xf39Fd6e51aad88F6F4ce6aB8827279cffFb92266',         expirationTime: 1673891048,         revocable: true,         refUID: '0x0000000000000000000000000000000000000000000000000000000000000000',         data: '0x1234',         value: 0     },     signature: {         v: 28,         r: '0x148c...b25b',         s: '0x5a72...be22'     },     attester: '0xc5E8740aD971409492b1A63Db8d83025e0Fc427e' })"
        },
        "returns": {
          "_0": "The UID of the new attestation."
        }
      },
      "constructor": {
        "details": "Creates a new EAS instance.",
        "params": {
          "registry": "The address of the global schema registry."
        }
      },
      "getAttestation(bytes32)": {
        "details": "Returns an existing attestation by UID.",
        "params": {
          "uid": "The UID of the attestation to retrieve."
        },
        "returns": {
          "_0": "The attestation data members."
        }
      },
      "getDomainSeparator()": {
        "details": "Returns the domain separator used in the encoding of the signatures for attest, and revoke."
      },
      "getNonce(address)": {
        "details": "Returns the current nonce per-account.",
        "params": {
          "account": "The requested account."
        },
        "returns": {
          "_0": "The current nonce."
        }
      },
      "getRevokeOffchain(address,bytes32)": {
        "details": "Returns the timestamp that the specified data was timestamped with.",
        "params": {
          "data": "The data to query."
        },
        "returns": {
          "_0": "The timestamp the data was timestamped with."
        }
      },
      "getSchemaRegistry()": {
        "details": "Returns the address of the global schema registry.",
        "returns": {
          "_0": "The address of the global schema registry."
        }
      },
      "getTimestamp(bytes32)": {
        "details": "Returns the timestamp that the specified data was timestamped with.",
        "params": {
          "data": "The data to query."
        },
        "returns": {
          "_0": "The timestamp the data was timestamped with."
        }
      },
      "isAttestationValid(bytes32)": {
        "details": "Checks whether an attestation exists.",
        "params": {
          "uid": "The UID of the attestation to retrieve."
        },
        "returns": {
          "_0": "Whether an attestation exists."
        }
      },
      "multiAttest((bytes32,(address,uint64,bool,bytes32,bytes,uint256)[])[])": {
        "details": "Attests to multiple schemas.",
        "params": {
          "multiRequests": "The arguments of the multi attestation requests. The requests should be grouped by distinct schema ids to benefit from the best batching optimization. Example: multiAttest([{     schema: '0x33e9094830a5cba5554d1954310e4fbed2ef5f859ec1404619adea4207f391fd',     data: [{         recipient: '0xdEADBeAFdeAdbEafdeadbeafDeAdbEAFdeadbeaf',         expirationTime: 1673891048,         revocable: true,         refUID: '0x0000000000000000000000000000000000000000000000000000000000000000',         data: '0x1234',         value: 1000     },     {         recipient: '0xf39Fd6e51aad88F6F4ce6aB8827279cffFb92266',         expirationTime: 0,         revocable: false,         refUID: '0x480df4a039efc31b11bfdf491b383ca138b6bde160988222a2a3509c02cee174',         data: '0x00',         value: 0     }], }, {     schema: '0x5ac273ce41e3c8bfa383efe7c03e54c5f0bff29c9f11ef6ffa930fc84ca32425',     data: [{         recipient: '0xdEADBeAFdeAdbEafdeadbeafDeAdbEAFdeadbeaf',         expirationTime: 0,         revocable: true,         refUID: '0x75bf2ed8dca25a8190c50c52db136664de25b2449535839008ccfdab469b214f',         data: '0x12345678',         value: 0     }, }])"
        },
        "returns": {
          "_0": "The UIDs of the new attestations."
        }
      },
      "multiAttestByDelegation((bytes32,(address,uint64,bool,bytes32,bytes,uint256)[],(uint8,bytes32,bytes32)[],address)[])": {
        "details": "Attests to multiple schemas using via provided EIP712 signatures.",
        "params": {
          "multiDelegatedRequests": "The arguments of the delegated multi attestation requests. The requests should be grouped by distinct schema ids to benefit from the best batching optimization. Example: multiAttestByDelegation([{     schema: '0x8e72f5bc0a8d4be6aa98360baa889040c50a0e51f32dbf0baa5199bd93472ebc',     data: [{         recipient: '0xf39Fd6e51aad88F6F4ce6aB8827279cffFb92266',         expirationTime: 1673891048,         revocable: true,         refUID: '0x0000000000000000000000000000000000000000000000000000000000000000',         data: '0x1234',         value: 0     },     {         recipient: '0xdEADBeAFdeAdbEafdeadbeafDeAdbEAFdeadbeaf',         expirationTime: 0,         revocable: false,         refUID: '0x0000000000000000000000000000000000000000000000000000000000000000',         data: '0x00',         value: 0     }],     signatures: [{         v: 28,         r: '0x148c...b25b',         s: '0x5a72...be22'     },     {         v: 28,         r: '0x487s...67bb',         s: '0x12ad...2366'     }],     attester: '0x1D86495b2A7B524D747d2839b3C645Bed32e8CF4' }])"
        },
        "returns": {
          "_0": "The UIDs of the new attestations."
        }
      },
      "multiRevoke((bytes32,(bytes32,uint256)[])[])": {
        "details": "Revokes existing attestations to multiple schemas.",
        "params": {
          "multiRequests": "The arguments of the multi revocation requests. The requests should be grouped by distinct schema ids to benefit from the best batching optimization. Example: multiRevoke([{     schema: '0x8e72f5bc0a8d4be6aa98360baa889040c50a0e51f32dbf0baa5199bd93472ebc',     data: [{         uid: '0x211296a1ca0d7f9f2cfebf0daaa575bea9b20e968d81aef4e743d699c6ac4b25',         value: 1000     },     {         uid: '0xe160ac1bd3606a287b4d53d5d1d6da5895f65b4b4bab6d93aaf5046e48167ade',         value: 0     }], }, {     schema: '0x5ac273ce41e3c8bfa383efe7c03e54c5f0bff29c9f11ef6ffa930fc84ca32425',     data: [{         uid: '0x053d42abce1fd7c8fcddfae21845ad34dae287b2c326220b03ba241bc5a8f019',         value: 0     }, }])"
        }
      },
      "multiRevokeByDelegation((bytes32,(bytes32,uint256)[],(uint8,bytes32,bytes32)[],address)[])": {
        "details": "Revokes existing attestations to multiple schemas via provided EIP712 signatures.",
        "params": {
          "multiDelegatedRequests": "The arguments of the delegated multi revocation attestation requests. The requests should be grouped by distinct schema ids to benefit from the best batching optimization. Example: multiRevokeByDelegation([{     schema: '0x8e72f5bc0a8d4be6aa98360baa889040c50a0e51f32dbf0baa5199bd93472ebc',     data: [{         uid: '0x211296a1ca0d7f9f2cfebf0daaa575bea9b20e968d81aef4e743d699c6ac4b25',         value: 1000     },     {         uid: '0xe160ac1bd3606a287b4d53d5d1d6da5895f65b4b4bab6d93aaf5046e48167ade',         value: 0     }],     signatures: [{         v: 28,         r: '0x148c...b25b',         s: '0x5a72...be22'     },     {         v: 28,         r: '0x487s...67bb',         s: '0x12ad...2366'     }],     revoker: '0x244934dd3e31bE2c81f84ECf0b3E6329F5381992' }])"
        }
      },
      "multiRevokeOffchain(bytes32[])": {
        "details": "Revokes the specified multiple bytes32 data.",
        "params": {
          "data": "The data to timestamp."
        },
        "returns": {
          "_0": "The timestamp the data was revoked with."
        }
      },
      "multiTimestamp(bytes32[])": {
        "details": "Timestamps the specified multiple bytes32 data.",
        "params": {
          "data": "The data to timestamp."
        },
        "returns": {
          "_0": "The timestamp the data was timestamped with."
        }
      },
      "revoke((bytes32,(bytes32,uint256)))": {
        "details": "Revokes an existing attestation to a specific schema. Example: revoke({     schema: '0x8e72f5bc0a8d4be6aa98360baa889040c50a0e51f32dbf0baa5199bd93472ebc',     data: {         uid: '0x101032e487642ee04ee17049f99a70590c735b8614079fc9275f9dd57c00966d',         value: 0     } })",
        "params": {
          "request": "The arguments of the revocation request."
        }
      },
      "revokeByDelegation((bytes32,(bytes32,uint256),(uint8,bytes32,bytes32),address))": {
        "details": "Revokes an existing attestation to a specific schema via the provided EIP712 signature. Example: revokeByDelegation({     schema: '0x8e72f5bc0a8d4be6aa98360baa889040c50a0e51f32dbf0baa5199bd93472ebc',     data: {         uid: '0xcbbc12102578c642a0f7b34fe7111e41afa25683b6cd7b5a14caf90fa14d24ba',         value: 0     },     signature: {         v: 27,         r: '0xb593...7142',         s: '0x0f5b...2cce'     },     revoker: '0x244934dd3e31bE2c81f84ECf0b3E6329F5381992' })",
        "params": {
          "delegatedRequest": "The arguments of the delegated revocation request."
        }
      },
      "revokeOffchain(bytes32)": {
        "details": "Revokes the specified bytes32 data.",
        "params": {
          "data": "The data to timestamp."
        },
        "returns": {
          "_0": "The timestamp the data was revoked with."
        }
      },
      "timestamp(bytes32)": {
        "details": "Timestamps the specified bytes32 data.",
        "params": {
          "data": "The data to timestamp."
        },
        "returns": {
          "_0": "The timestamp the data was timestamped with."
        }
      }
    },
    "title": "EAS - Ethereum Attestation Service",
    "version": 1
  },
  "userdoc": {
    "kind": "user",
    "methods": {
      "getAttestTypeHash()": {
        "notice": "Returns the EIP712 type hash for the attest function."
      },
      "getName()": {
        "notice": "Returns the EIP712 name."
      },
      "getRevokeTypeHash()": {
        "notice": "Returns the EIP712 type hash for the revoke function."
      }
    },
    "version": 1
  },
  "storageLayout": {
    "storage": [
      {
        "astId": 5421,
        "contract": "contracts/EAS.sol:EAS",
        "label": "_name",
        "offset": 0,
        "slot": "0",
        "type": "t_string_storage"
      },
      {
        "astId": 5425,
        "contract": "contracts/EAS.sol:EAS",
        "label": "_nonces",
        "offset": 0,
        "slot": "1",
        "type": "t_mapping(t_address,t_uint256)"
      },
      {
        "astId": 3160,
        "contract": "contracts/EAS.sol:EAS",
        "label": "_db",
        "offset": 0,
        "slot": "2",
        "type": "t_mapping(t_bytes32,t_struct(Attestation)3072_storage)"
      },
      {
        "astId": 3164,
        "contract": "contracts/EAS.sol:EAS",
        "label": "_timestamps",
        "offset": 0,
        "slot": "3",
        "type": "t_mapping(t_bytes32,t_uint64)"
      },
      {
        "astId": 3170,
        "contract": "contracts/EAS.sol:EAS",
        "label": "_revocationsOffchain",
        "offset": 0,
        "slot": "4",
        "type": "t_mapping(t_address,t_mapping(t_bytes32,t_uint64))"
      }
    ],
    "types": {
      "t_address": {
        "encoding": "inplace",
        "label": "address",
        "numberOfBytes": "20"
      },
      "t_bool": {
        "encoding": "inplace",
        "label": "bool",
        "numberOfBytes": "1"
      },
      "t_bytes32": {
        "encoding": "inplace",
        "label": "bytes32",
        "numberOfBytes": "32"
      },
      "t_bytes_storage": {
        "encoding": "bytes",
        "label": "bytes",
        "numberOfBytes": "32"
      },
      "t_mapping(t_address,t_mapping(t_bytes32,t_uint64))": {
        "encoding": "mapping",
        "key": "t_address",
        "label": "mapping(address => mapping(bytes32 => uint64))",
        "numberOfBytes": "32",
        "value": "t_mapping(t_bytes32,t_uint64)"
      },
      "t_mapping(t_address,t_uint256)": {
        "encoding": "mapping",
        "key": "t_address",
        "label": "mapping(address => uint256)",
        "numberOfBytes": "32",
        "value": "t_uint256"
      },
      "t_mapping(t_bytes32,t_struct(Attestation)3072_storage)": {
        "encoding": "mapping",
        "key": "t_bytes32",
        "label": "mapping(bytes32 => struct Attestation)",
        "numberOfBytes": "32",
        "value": "t_struct(Attestation)3072_storage"
      },
      "t_mapping(t_bytes32,t_uint64)": {
        "encoding": "mapping",
        "key": "t_bytes32",
        "label": "mapping(bytes32 => uint64)",
        "numberOfBytes": "32",
        "value": "t_uint64"
      },
      "t_string_storage": {
        "encoding": "bytes",
        "label": "string",
        "numberOfBytes": "32"
      },
      "t_struct(Attestation)3072_storage": {
        "encoding": "inplace",
        "label": "struct Attestation",
        "members": [
          {
            "astId": 3053,
            "contract": "contracts/EAS.sol:EAS",
            "label": "uid",
            "offset": 0,
            "slot": "0",
            "type": "t_bytes32"
          },
          {
            "astId": 3055,
            "contract": "contracts/EAS.sol:EAS",
            "label": "schema",
            "offset": 0,
            "slot": "1",
            "type": "t_bytes32"
          },
          {
            "astId": 3057,
            "contract": "contracts/EAS.sol:EAS",
            "label": "time",
            "offset": 0,
            "slot": "2",
            "type": "t_uint64"
          },
          {
            "astId": 3059,
            "contract": "contracts/EAS.sol:EAS",
            "label": "expirationTime",
            "offset": 8,
            "slot": "2",
            "type": "t_uint64"
          },
          {
            "astId": 3061,
            "contract": "contracts/EAS.sol:EAS",
            "label": "revocationTime",
            "offset": 16,
            "slot": "2",
            "type": "t_uint64"
          },
          {
            "astId": 3063,
            "contract": "contracts/EAS.sol:EAS",
            "label": "refUID",
            "offset": 0,
            "slot": "3",
            "type": "t_bytes32"
          },
          {
            "astId": 3065,
            "contract": "contracts/EAS.sol:EAS",
            "label": "recipient",
            "offset": 0,
            "slot": "4",
            "type": "t_address"
          },
          {
            "astId": 3067,
            "contract": "contracts/EAS.sol:EAS",
            "label": "attester",
            "offset": 0,
            "slot": "5",
            "type": "t_address"
          },
          {
            "astId": 3069,
            "contract": "contracts/EAS.sol:EAS",
            "label": "revocable",
            "offset": 20,
            "slot": "5",
            "type": "t_bool"
          },
          {
            "astId": 3071,
            "contract": "contracts/EAS.sol:EAS",
            "label": "data",
            "offset": 0,
            "slot": "6",
            "type": "t_bytes_storage"
          }
        ],
        "numberOfBytes": "224"
      },
      "t_uint256": {
        "encoding": "inplace",
        "label": "uint256",
        "numberOfBytes": "32"
      },
      "t_uint64": {
        "encoding": "inplace",
        "label": "uint64",
        "numberOfBytes": "8"
      }
    }
  }
}