{
  "address": "0x50DB967C805A88FAebA43a2049AAc78052ff9f8F",
  "abi": [
    {
      "inputs": [
        {
          "internalType": "contract ISchemaRegistry",
          "name": "registry",
          "type": "address"
        }
      ],
      "stateMutability": "nonpayable",
      "type": "constructor"
    },
    {
      "inputs": [],
      "name": "AccessDenied",
      "type": "error"
    },
    {
      "inputs": [],
      "name": "AlreadyRevoked",
      "type": "error"
    },
    {
      "inputs": [],
      "name": "AlreadyTimestamped",
      "type": "error"
    },
    {
      "inputs": [],
      "name": "InsufficientValue",
      "type": "error"
    },
    {
      "inputs": [],
      "name": "InvalidAttestation",
      "type": "error"
    },
    {
      "inputs": [],
      "name": "InvalidAttestations",
      "type": "error"
    },
    {
      "inputs": [],
      "name": "InvalidExpirationTime",
      "type": "error"
    },
    {
      "inputs": [],
      "name": "InvalidLength",
      "type": "error"
    },
    {
      "inputs": [],
      "name": "InvalidOffset",
      "type": "error"
    },
    {
      "inputs": [],
      "name": "InvalidRegistry",
      "type": "error"
    },
    {
      "inputs": [],
      "name": "InvalidRevocation",
      "type": "error"
    },
    {
      "inputs": [],
      "name": "InvalidRevocations",
      "type": "error"
    },
    {
      "inputs": [],
      "name": "InvalidSchema",
      "type": "error"
    },
    {
      "inputs": [],
      "name": "InvalidSignature",
      "type": "error"
    },
    {
      "inputs": [],
      "name": "InvalidVerifier",
      "type": "error"
    },
    {
      "inputs": [],
      "name": "Irrevocable",
      "type": "error"
    },
    {
      "inputs": [],
      "name": "NotFound",
      "type": "error"
    },
    {
      "inputs": [],
      "name": "NotPayable",
      "type": "error"
    },
    {
      "inputs": [],
      "name": "WrongSchema",
      "type": "error"
    },
    {
      "anonymous": false,
      "inputs": [
        {
          "indexed": true,
          "internalType": "address",
          "name": "recipient",
          "type": "address"
        },
        {
          "indexed": true,
          "internalType": "address",
          "name": "attester",
          "type": "address"
        },
        {
          "indexed": false,
          "internalType": "bytes32",
          "name": "uuid",
          "type": "bytes32"
        },
        {
          "indexed": true,
          "internalType": "bytes32",
          "name": "schema",
          "type": "bytes32"
        }
      ],
      "name": "Attested",
      "type": "event"
    },
    {
      "anonymous": false,
      "inputs": [
        {
          "indexed": true,
          "internalType": "address",
          "name": "recipient",
          "type": "address"
        },
        {
          "indexed": true,
          "internalType": "address",
          "name": "attester",
          "type": "address"
        },
        {
          "indexed": false,
          "internalType": "bytes32",
          "name": "uuid",
          "type": "bytes32"
        },
        {
          "indexed": true,
          "internalType": "bytes32",
          "name": "schema",
          "type": "bytes32"
        }
      ],
      "name": "Revoked",
      "type": "event"
    },
    {
      "anonymous": false,
      "inputs": [
        {
          "indexed": true,
          "internalType": "bytes32",
          "name": "data",
          "type": "bytes32"
        },
        {
          "indexed": true,
          "internalType": "uint64",
          "name": "timestamp",
          "type": "uint64"
        }
      ],
      "name": "Timestamped",
      "type": "event"
    },
    {
      "inputs": [],
      "name": "VERSION",
      "outputs": [
        {
          "internalType": "string",
          "name": "",
          "type": "string"
        }
      ],
      "stateMutability": "view",
      "type": "function"
    },
    {
      "inputs": [
        {
          "components": [
            {
              "internalType": "bytes32",
              "name": "schema",
              "type": "bytes32"
            },
            {
              "components": [
                {
                  "internalType": "address",
                  "name": "recipient",
                  "type": "address"
                },
                {
                  "internalType": "uint64",
                  "name": "expirationTime",
                  "type": "uint64"
                },
                {
                  "internalType": "bool",
                  "name": "revocable",
                  "type": "bool"
                },
                {
                  "internalType": "bytes32",
                  "name": "refUUID",
                  "type": "bytes32"
                },
                {
                  "internalType": "bytes",
                  "name": "data",
                  "type": "bytes"
                },
                {
                  "internalType": "uint256",
                  "name": "value",
                  "type": "uint256"
                }
              ],
              "internalType": "struct AttestationRequestData",
              "name": "data",
              "type": "tuple"
            }
          ],
          "internalType": "struct AttestationRequest",
          "name": "request",
          "type": "tuple"
        }
      ],
      "name": "attest",
      "outputs": [
        {
          "internalType": "bytes32",
          "name": "",
          "type": "bytes32"
        }
      ],
      "stateMutability": "payable",
      "type": "function"
    },
    {
      "inputs": [
        {
          "components": [
            {
              "internalType": "bytes32",
              "name": "schema",
              "type": "bytes32"
            },
            {
              "components": [
                {
                  "internalType": "address",
                  "name": "recipient",
                  "type": "address"
                },
                {
                  "internalType": "uint64",
                  "name": "expirationTime",
                  "type": "uint64"
                },
                {
                  "internalType": "bool",
                  "name": "revocable",
                  "type": "bool"
                },
                {
                  "internalType": "bytes32",
                  "name": "refUUID",
                  "type": "bytes32"
                },
                {
                  "internalType": "bytes",
                  "name": "data",
                  "type": "bytes"
                },
                {
                  "internalType": "uint256",
                  "name": "value",
                  "type": "uint256"
                }
              ],
              "internalType": "struct AttestationRequestData",
              "name": "data",
              "type": "tuple"
            },
            {
              "components": [
                {
                  "internalType": "uint8",
                  "name": "v",
                  "type": "uint8"
                },
                {
                  "internalType": "bytes32",
                  "name": "r",
                  "type": "bytes32"
                },
                {
                  "internalType": "bytes32",
                  "name": "s",
                  "type": "bytes32"
                }
              ],
              "internalType": "struct EIP712Signature",
              "name": "signature",
              "type": "tuple"
            },
            {
              "internalType": "address",
              "name": "attester",
              "type": "address"
            }
          ],
          "internalType": "struct DelegatedAttestationRequest",
          "name": "delegatedRequest",
          "type": "tuple"
        }
      ],
      "name": "attestByDelegation",
      "outputs": [
        {
          "internalType": "bytes32",
          "name": "",
          "type": "bytes32"
        }
      ],
      "stateMutability": "payable",
      "type": "function"
    },
    {
      "inputs": [],
      "name": "getAttestTypeHash",
      "outputs": [
        {
          "internalType": "bytes32",
          "name": "",
          "type": "bytes32"
        }
      ],
      "stateMutability": "pure",
      "type": "function"
    },
    {
      "inputs": [
        {
          "internalType": "bytes32",
          "name": "uuid",
          "type": "bytes32"
        }
      ],
      "name": "getAttestation",
      "outputs": [
        {
          "components": [
            {
              "internalType": "bytes32",
              "name": "uuid",
              "type": "bytes32"
            },
            {
              "internalType": "bytes32",
              "name": "schema",
              "type": "bytes32"
            },
            {
              "internalType": "uint64",
              "name": "time",
              "type": "uint64"
            },
            {
              "internalType": "uint64",
              "name": "expirationTime",
              "type": "uint64"
            },
            {
              "internalType": "uint64",
              "name": "revocationTime",
              "type": "uint64"
            },
            {
              "internalType": "bytes32",
              "name": "refUUID",
              "type": "bytes32"
            },
            {
              "internalType": "address",
              "name": "recipient",
              "type": "address"
            },
            {
              "internalType": "address",
              "name": "attester",
              "type": "address"
            },
            {
              "internalType": "bool",
              "name": "revocable",
              "type": "bool"
            },
            {
              "internalType": "bytes",
              "name": "data",
              "type": "bytes"
            }
          ],
          "internalType": "struct Attestation",
          "name": "",
          "type": "tuple"
        }
      ],
      "stateMutability": "view",
      "type": "function"
    },
    {
      "inputs": [],
      "name": "getDomainSeparator",
      "outputs": [
        {
          "internalType": "bytes32",
          "name": "",
          "type": "bytes32"
        }
      ],
      "stateMutability": "view",
      "type": "function"
    },
    {
      "inputs": [
        {
          "internalType": "address",
          "name": "account",
          "type": "address"
        }
      ],
      "name": "getNonce",
      "outputs": [
        {
          "internalType": "uint256",
          "name": "",
          "type": "uint256"
        }
      ],
      "stateMutability": "view",
      "type": "function"
    },
    {
      "inputs": [],
      "name": "getRevokeTypeHash",
      "outputs": [
        {
          "internalType": "bytes32",
          "name": "",
          "type": "bytes32"
        }
      ],
      "stateMutability": "pure",
      "type": "function"
    },
    {
      "inputs": [],
      "name": "getSchemaRegistry",
      "outputs": [
        {
          "internalType": "contract ISchemaRegistry",
          "name": "",
          "type": "address"
        }
      ],
      "stateMutability": "view",
      "type": "function"
    },
    {
      "inputs": [
        {
          "internalType": "bytes32",
          "name": "data",
          "type": "bytes32"
        }
      ],
      "name": "getTimestamp",
      "outputs": [
        {
          "internalType": "uint64",
          "name": "",
          "type": "uint64"
        }
      ],
      "stateMutability": "view",
      "type": "function"
    },
    {
      "inputs": [
        {
          "internalType": "bytes32",
          "name": "uuid",
          "type": "bytes32"
        }
      ],
      "name": "isAttestationValid",
      "outputs": [
        {
          "internalType": "bool",
          "name": "",
          "type": "bool"
        }
      ],
      "stateMutability": "view",
      "type": "function"
    },
    {
      "inputs": [
        {
          "components": [
            {
              "internalType": "bytes32",
              "name": "schema",
              "type": "bytes32"
            },
            {
              "components": [
                {
                  "internalType": "address",
                  "name": "recipient",
                  "type": "address"
                },
                {
                  "internalType": "uint64",
                  "name": "expirationTime",
                  "type": "uint64"
                },
                {
                  "internalType": "bool",
                  "name": "revocable",
                  "type": "bool"
                },
                {
                  "internalType": "bytes32",
                  "name": "refUUID",
                  "type": "bytes32"
                },
                {
                  "internalType": "bytes",
                  "name": "data",
                  "type": "bytes"
                },
                {
                  "internalType": "uint256",
                  "name": "value",
                  "type": "uint256"
                }
              ],
              "internalType": "struct AttestationRequestData[]",
              "name": "data",
              "type": "tuple[]"
            }
          ],
          "internalType": "struct MultiAttestationRequest[]",
          "name": "multiRequests",
          "type": "tuple[]"
        }
      ],
      "name": "multiAttest",
      "outputs": [
        {
          "internalType": "bytes32[]",
          "name": "",
          "type": "bytes32[]"
        }
      ],
      "stateMutability": "payable",
      "type": "function"
    },
    {
      "inputs": [
        {
          "components": [
            {
              "internalType": "bytes32",
              "name": "schema",
              "type": "bytes32"
            },
            {
              "components": [
                {
                  "internalType": "address",
                  "name": "recipient",
                  "type": "address"
                },
                {
                  "internalType": "uint64",
                  "name": "expirationTime",
                  "type": "uint64"
                },
                {
                  "internalType": "bool",
                  "name": "revocable",
                  "type": "bool"
                },
                {
                  "internalType": "bytes32",
                  "name": "refUUID",
                  "type": "bytes32"
                },
                {
                  "internalType": "bytes",
                  "name": "data",
                  "type": "bytes"
                },
                {
                  "internalType": "uint256",
                  "name": "value",
                  "type": "uint256"
                }
              ],
              "internalType": "struct AttestationRequestData[]",
              "name": "data",
              "type": "tuple[]"
            },
            {
              "components": [
                {
                  "internalType": "uint8",
                  "name": "v",
                  "type": "uint8"
                },
                {
                  "internalType": "bytes32",
                  "name": "r",
                  "type": "bytes32"
                },
                {
                  "internalType": "bytes32",
                  "name": "s",
                  "type": "bytes32"
                }
              ],
              "internalType": "struct EIP712Signature[]",
              "name": "signatures",
              "type": "tuple[]"
            },
            {
              "internalType": "address",
              "name": "attester",
              "type": "address"
            }
          ],
          "internalType": "struct MultiDelegatedAttestationRequest[]",
          "name": "multiDelegatedRequests",
          "type": "tuple[]"
        }
      ],
      "name": "multiAttestByDelegation",
      "outputs": [
        {
          "internalType": "bytes32[]",
          "name": "",
          "type": "bytes32[]"
        }
      ],
      "stateMutability": "payable",
      "type": "function"
    },
    {
      "inputs": [
        {
          "components": [
            {
              "internalType": "bytes32",
              "name": "schema",
              "type": "bytes32"
            },
            {
              "components": [
                {
                  "internalType": "bytes32",
                  "name": "uuid",
                  "type": "bytes32"
                },
                {
                  "internalType": "uint256",
                  "name": "value",
                  "type": "uint256"
                }
              ],
              "internalType": "struct RevocationRequestData[]",
              "name": "data",
              "type": "tuple[]"
            }
          ],
          "internalType": "struct MultiRevocationRequest[]",
          "name": "multiRequests",
          "type": "tuple[]"
        }
      ],
      "name": "multiRevoke",
      "outputs": [],
      "stateMutability": "payable",
      "type": "function"
    },
    {
      "inputs": [
        {
          "components": [
            {
              "internalType": "bytes32",
              "name": "schema",
              "type": "bytes32"
            },
            {
              "components": [
                {
                  "internalType": "bytes32",
                  "name": "uuid",
                  "type": "bytes32"
                },
                {
                  "internalType": "uint256",
                  "name": "value",
                  "type": "uint256"
                }
              ],
              "internalType": "struct RevocationRequestData[]",
              "name": "data",
              "type": "tuple[]"
            },
            {
              "components": [
                {
                  "internalType": "uint8",
                  "name": "v",
                  "type": "uint8"
                },
                {
                  "internalType": "bytes32",
                  "name": "r",
                  "type": "bytes32"
                },
                {
                  "internalType": "bytes32",
                  "name": "s",
                  "type": "bytes32"
                }
              ],
              "internalType": "struct EIP712Signature[]",
              "name": "signatures",
              "type": "tuple[]"
            },
            {
              "internalType": "address",
              "name": "revoker",
              "type": "address"
            }
          ],
          "internalType": "struct MultiDelegatedRevocationRequest[]",
          "name": "multiDelegatedRequests",
          "type": "tuple[]"
        }
      ],
      "name": "multiRevokeByDelegation",
      "outputs": [],
      "stateMutability": "payable",
      "type": "function"
    },
    {
      "inputs": [
        {
          "internalType": "bytes32[]",
          "name": "data",
          "type": "bytes32[]"
        }
      ],
      "name": "multiTimestamp",
      "outputs": [
        {
          "internalType": "uint64",
          "name": "",
          "type": "uint64"
        }
      ],
      "stateMutability": "nonpayable",
      "type": "function"
    },
    {
      "inputs": [
        {
          "components": [
            {
              "internalType": "bytes32",
              "name": "schema",
              "type": "bytes32"
            },
            {
              "components": [
                {
                  "internalType": "bytes32",
                  "name": "uuid",
                  "type": "bytes32"
                },
                {
                  "internalType": "uint256",
                  "name": "value",
                  "type": "uint256"
                }
              ],
              "internalType": "struct RevocationRequestData",
              "name": "data",
              "type": "tuple"
            }
          ],
          "internalType": "struct RevocationRequest",
          "name": "request",
          "type": "tuple"
        }
      ],
      "name": "revoke",
      "outputs": [],
      "stateMutability": "payable",
      "type": "function"
    },
    {
      "inputs": [
        {
          "components": [
            {
              "internalType": "bytes32",
              "name": "schema",
              "type": "bytes32"
            },
            {
              "components": [
                {
                  "internalType": "bytes32",
                  "name": "uuid",
                  "type": "bytes32"
                },
                {
                  "internalType": "uint256",
                  "name": "value",
                  "type": "uint256"
                }
              ],
              "internalType": "struct RevocationRequestData",
              "name": "data",
              "type": "tuple"
            },
            {
              "components": [
                {
                  "internalType": "uint8",
                  "name": "v",
                  "type": "uint8"
                },
                {
                  "internalType": "bytes32",
                  "name": "r",
                  "type": "bytes32"
                },
                {
                  "internalType": "bytes32",
                  "name": "s",
                  "type": "bytes32"
                }
              ],
              "internalType": "struct EIP712Signature",
              "name": "signature",
              "type": "tuple"
            },
            {
              "internalType": "address",
              "name": "revoker",
              "type": "address"
            }
          ],
          "internalType": "struct DelegatedRevocationRequest",
          "name": "delegatedRequest",
          "type": "tuple"
        }
      ],
      "name": "revokeByDelegation",
      "outputs": [],
      "stateMutability": "payable",
      "type": "function"
    },
    {
      "inputs": [
        {
          "internalType": "bytes32",
          "name": "data",
          "type": "bytes32"
        }
      ],
      "name": "timestamp",
      "outputs": [
        {
          "internalType": "uint64",
          "name": "",
          "type": "uint64"
        }
      ],
      "stateMutability": "nonpayable",
      "type": "function"
    }
  ],
  "transactionHash": "0x37b634ef00a0103cfb48bb62695ddbb49318ec88a830981d2dab0529433e0252",
  "args": [
    "0x16399b867877D7f59deE9f04bD79B07fa8D17f7A"
  ],
  "numDeployments": 1,
  "solcInputHash": "04f9ff8892dd62e5b44635f16b58cd9f",
  "bytecode": "0x61016034620001b657601f62004da838819003918201601f19168301926001600160401b0392909183851183861017620001a0578160209284926040978852833981010312620001b657516001600160a01b03811692838203620001b6578051926200006b84620001bb565b6004845260208401630c0b8c8d60e21b81526003602084516200008e81620001bb565b828152016245415360e81b81522094519020948460e052610100958087524660a052835160208101917f8b73c3c69bb8fe3d512ecc4cf759cc79239f7b179b0ffacaa9a75d522b39400f978884528683015260608201524660808201523060a082015260a0815260c081019381851090851117620001a0578385525190206080523060c052610120948552156200019157506101409182525191614bd09384620001d8853960805184614648015260a05184614703015260c05184614619015260e05184614697015251836146bd0152518261467401525181818161026501528181610a9301528181611093015281816129d9015281816130c701526133450152f35b6311a1e69760e01b8152600490fd5b634e487b7160e01b600052604160045260246000fd5b600080fd5b604081019081106001600160401b03821117620001a05760405256fe61010080604052600436101561001457600080fd5b60003560e01c90816312b11a1714611d91575080632d0335ab14611d2957806344adc90e14611c245780634692626714611bc65780634cb7e9e514611ac45780634d00307014611a7c578063831e05a114611843578063a3112a64146117dc578063b83010d314611783578063d45c44351461172f578063e13458fc14610f37578063e30bb56314610ee3578063e45d03f914610c7f578063e57a6b1b14610b7b578063e71ff36514610af8578063ed24911d14610ab7578063f10b5cc814610a48578063f17325e7146101765763ffa1ad74146100f157600080fd5b346101715760007ffffffffffffffffffffffffffffffffffffffffffffffffffffffffffffffffc3601126101715761016d60405161012f81611fcb565b600481527f302e3234000000000000000000000000000000000000000000000000000000006020820152604051918291602083526020830190611e98565b0390f35b600080fd5b7ffffffffffffffffffffffffffffffffffffffffffffffffffffffffffffffffc602081360112610171576004359067ffffffffffffffff821161017157604082600401918336030112610171576101e36101cf612097565b926101de6024369201846120ff565b612153565b6101ec83612132565b526101f682612132565b506101ff6127bd565b5081519161020b6127bd565b91610215846127d7565b6020840152604051937fa2ea7c6e0000000000000000000000000000000000000000000000000000000085528135600486015260008560248173ffffffffffffffffffffffffffffffffffffffff7f0000000000000000000000000000000000000000000000000000000000000000165afa948515610a3c57600095610a17575b508451156109ed57916102a8836128fa565b916102b2846127d7565b936000925b8184106102e35760206102da81896102d1348b8b8f6135e8565b81520151612132565b51604051908152f35b6102f58482999496989395979961213f565b519267ffffffffffffffff60208501511680151590816109d8575b506109ae57604081015115806109a1575b6109775760608401519467ffffffffffffffff6020860151169573ffffffffffffffffffffffffffffffffffffffff86511660408701511515906080880151926040519961036e8b611fe7565b60008b528b3560208c015267ffffffffffffffff421660408c015260608b0152600060808b015260a08a015260c08901523360e089015261010088015261012087015260005b602087015160c08801516104bd609d60e08b015160408c01518c60608101519161010082015115159061012060a084015193015193604051988996602088019b8c527fffffffffffffffffffffffffffffffffffffffff000000000000000000000000809260601b16604089015260601b1660548701527fffffffffffffffff000000000000000000000000000000000000000000000000809260c01b16606887015260c01b16607085015260f81b6078840152607983015280516104828160999360208587019101611e75565b8201907fffffffff000000000000000000000000000000000000000000000000000000008860e01b169082015203607d810184520182612004565b519020806000526001602052604060002054156104e3575060010163ffffffff166103b4565b919690509997919998969492939881815281600052600160205260406000209080518255602081015160018301556105c26002830167ffffffffffffffff6040840151168154907fffffffffffffffffffffffffffffffff000000000000000000000000000000006fffffffffffffffff0000000000000000606087015160401b1692161717815567ffffffffffffffff6080840151167fffffffffffffffff0000000000000000ffffffffffffffffffffffffffffffff77ffffffffffffffff0000000000000000000000000000000083549260801b169116179055565b60a081015160038301556004820173ffffffffffffffffffffffffffffffffffffffff60c0830151167fffffffffffffffffffffffff00000000000000000000000000000000000000008254161790556005820173ffffffffffffffffffffffffffffffffffffffff60e0830151168154907fffffffffffffffffffffff00000000000000000000000000000000000000000074ff0000000000000000000000000000000000000000610100860151151560a01b1692161717905561012081015180519167ffffffffffffffff831161094857838c938c938f9660066106a991015461260a565b601f81116108d4575b50602090601f83116001146107f75760069291600091836107ec575b50507fffffffffffffffffffffffffffffffffffffffffffffffffffffffffffffffff8260011b9260031b1c1916179101555b606087015180610797575b5085602073ffffffffffffffffffffffffffffffffffffffff9560019995610744848761075c9761073e838e9b61213f565b5261213f565b506107548460a08901519261213f565b52015161213f565b525116906040519081528535917f8bf46bf4cfd674fa735a3d63ec1c9ad4153f033c290341f3a588b75685141b3560203393a40192906102b7565b915092506107b391506000526001602052604060002054151590565b156107c25788888b928e61070c565b60046040517fc5723b51000000000000000000000000000000000000000000000000000000008152fd5b0151905038806106ce565b906006840160005260206000209160005b7fffffffffffffffffffffffffffffffffffffffffffffffffffffffffffffffe0851681106108a95750918391600193837fffffffffffffffffffffffffffffffffffffffffffffffffffffffffffffffe06006971610610872575b505050811b01910155610701565b01517fffffffffffffffffffffffffffffffffffffffffffffffffffffffffffffffff60f88460031b161c19169055388080610864565b9497509295509396506020600181928685015181550194019201928f9693928f9693928f9693610808565b9295509295509250600684016000526020600020601f840160051c810160208510610941575b928f9693928f9693928f96935b601f830160051c8201811061091d5750506106b2565b60019396995080929598506000919497505501928f9693928f9693928f9693610907565b50806108fa565b7f4e487b7100000000000000000000000000000000000000000000000000000000600052604160045260246000fd5b60046040517f157bd4c3000000000000000000000000000000000000000000000000000000008152fd5b5060408401511515610321565b60046040517f08e8b937000000000000000000000000000000000000000000000000000000008152fd5b905067ffffffffffffffff421610158a610310565b60046040517fbf37b20e000000000000000000000000000000000000000000000000000000008152fd5b610a359195503d806000833e610a2d8183612004565b810190612833565b9385610296565b6040513d6000823e3d90fd5b346101715760007ffffffffffffffffffffffffffffffffffffffffffffffffffffffffffffffffc36011261017157602060405173ffffffffffffffffffffffffffffffffffffffff7f0000000000000000000000000000000000000000000000000000000000000000168152f35b346101715760007ffffffffffffffffffffffffffffffffffffffffffffffffffffffffffffffffc360112610171576020610af0614602565b604051908152f35b346101715760207ffffffffffffffffffffffffffffffffffffffffffffffffffffffffffffffffc3601126101715767ffffffffffffffff60043581811161017157610b48903690600401611e09565b909142169160005b828110610b6257602084604051908152f35b80610b758560019360051b85013561455c565b01610b50565b60e07ffffffffffffffffffffffffffffffffffffffffffffffffffffffffffffffffc36011261017157604051610bb181611f77565b600435808252610bc036612507565b602083015260607fffffffffffffffffffffffffffffffffffffffffffffffffffffffffffffff9c36011261017157604051610bfb81611faf565b60643560ff81168103610171578152608435602082015260a4356040820152604083015260c43573ffffffffffffffffffffffffffffffffffffffff8116810361017157610c5183826060610c7d960152614afd565b610c596124b8565b610c6236612507565b610c6b82612132565b52610c7581612132565b50349261307a565b005b6020807ffffffffffffffffffffffffffffffffffffffffffffffffffffffffffffffffc3601126101715767ffffffffffffffff60043581811161017157610ccc83913690600401611e09565b909234926000915b838310610cdd57005b610ce8838588612424565b946080863603126101715760405195610d0087611f77565b803587528381013583811161017157810194601f9536878201121561017157610d2f903690878135910161254d565b9285890193845260408301358581116101715783019636908801121561017157863594610d5b8661207f565b97610d69604051998a612004565b868952878901886060809902830101913683116101715789808a9201925b848410610ecb5750509050610da5915060408c01958a875201611de8565b94868b01958652519788518015918215610ebf575b5050610e955760005b8851811015610e2b57600190610e258c51610dde838d61213f565b51610dea848a5161213f565b5173ffffffffffffffffffffffffffffffffffffffff8b51169160405193610e1185611f77565b84528d84015260408301528a820152614afd565b01610dc3565b50986001955081935090610e85929a97610e8b9592519073ffffffffffffffffffffffffffffffffffffffff8d7fffffffffffffffffffffffffffffffffffffffffffffffffffffffffffffffff8d0114945116916132f7565b906123e8565b9501919493610cd4565b60046040517f947d5a84000000000000000000000000000000000000000000000000000000008152fd5b51141590508c80610dba565b610ed5368561221e565b815201910190898991610d87565b346101715760207ffffffffffffffffffffffffffffffffffffffffffffffffffffffffffffffffc360112610171576020610f2d6004356000526001602052604060002054151590565b6040519015158152f35b7ffffffffffffffffffffffffffffffffffffffffffffffffffffffffffffffffc6020813601126101715760043567ffffffffffffffff81116101715760c0816004019282360301126101715760405190610f9182611f77565b82358252602481019182359167ffffffffffffffff83116101715760a4610ff191610fc56110219560043691840101612153565b6020850152610fd7366044830161221e565b60408501520191610fe783611de8565b6060820152614729565b611008610ffc612097565b936101de3691876120ff565b61101184612132565b5261101b83612132565b5061225c565b9061102a6127bd565b508051906110366127bd565b608052611042826127d7565b602060805101526040517fa2ea7c6e0000000000000000000000000000000000000000000000000000000081528435600482015260008160248173ffffffffffffffffffffffffffffffffffffffff7f0000000000000000000000000000000000000000000000000000000000000000165afa8015610a3c57600060c052611712575b5060c05151156109ed5790916110da836128fa565b60a0526110e6836127d7565b60e0526000915b83831061111a576111063460e05160a05160c0516135e8565b6080515260206102da816080510151612132565b611124838261213f565b519067ffffffffffffffff60208301511680151590816116fd575b506109ae57604060c051015115806116f0575b6109775760608201519467ffffffffffffffff6020840151169573ffffffffffffffffffffffffffffffffffffffff84511660408501511515906080860151926040519961119f8b611fe7565b60008b528b3560208c015267ffffffffffffffff421660408c015260608b0152600060808b015260a08a015260c089015273ffffffffffffffffffffffffffffffffffffffff861660e089015261010088015261012087015260005b602087015160c08801516112c9609d60e08b015160408c01518c60608101519161010082015115159061012060a084015193015193604051988996602088019b8c527fffffffffffffffffffffffffffffffffffffffff000000000000000000000000809260601b16604089015260601b1660548701527fffffffffffffffff000000000000000000000000000000000000000000000000809260c01b16606887015260c01b16607085015260f81b6078840152607983015280516104828160999360208587019101611e75565b519020806000526001602052604060002054156112ef575060010163ffffffff166111fb565b91959294969050818152816000526001602052604060002081518155602082015160018201556113c66002820167ffffffffffffffff6040850151168154907fffffffffffffffffffffffffffffffff000000000000000000000000000000006fffffffffffffffff0000000000000000606088015160401b1692161717815567ffffffffffffffff6080850151167fffffffffffffffff0000000000000000ffffffffffffffffffffffffffffffff77ffffffffffffffff0000000000000000000000000000000083549260801b169116179055565b60a082015160038201556004810173ffffffffffffffffffffffffffffffffffffffff60c0840151167fffffffffffffffffffffffff00000000000000000000000000000000000000008254161790556005810173ffffffffffffffffffffffffffffffffffffffff60e0840151168154907fffffffffffffffffffffff00000000000000000000000000000000000000000074ff0000000000000000000000000000000000000000610100870151151560a01b1692161717905561012082015180519067ffffffffffffffff8211610948576114a6600684015461260a565b601f81116116a9575b50602090601f83116001146115df5760069291600091836115d4575b50507fffffffffffffffffffffffffffffffffffffffffffffffffffffffffffffffff8260011b9260031b1c1916179101555b6060840151806115b2575b5060019373ffffffffffffffffffffffffffffffffffffffff9161152f8560a05161213f565b5261153c8460a05161213f565b5060a081015161154e8560e05161213f565b5282611560856020608051015161213f565b525116906040519081528735917f8bf46bf4cfd674fa735a3d63ec1c9ad4153f033c290341f3a588b75685141b35602073ffffffffffffffffffffffffffffffffffffffff8a1693a4019192906110ed565b6115c9906000526001602052604060002054151590565b156107c25788611509565b015190508c806114cb565b906006840160005260206000209160005b7fffffffffffffffffffffffffffffffffffffffffffffffffffffffffffffffe0851681106116915750918391600193837fffffffffffffffffffffffffffffffffffffffffffffffffffffffffffffffe0600697161061165a575b505050811b019101556114fe565b01517fffffffffffffffffffffffffffffffffffffffffffffffffffffffffffffffff60f88460031b161c191690558c808061164c565b919260206001819286850151815501940192016115f0565b600684016000526020600020601f840160051c8101602085106116e9575b601f830160051c820181106116dd5750506114af565b600081556001016116c7565b50806116c7565b5060408201511515611152565b905067ffffffffffffffff421610158761113f565b611726903d806000833e610a2d8183612004565b60c052846110c5565b346101715760207ffffffffffffffffffffffffffffffffffffffffffffffffffffffffffffffffc360112610171576004356000526002602052602067ffffffffffffffff60406000205416604051908152f35b346101715760007ffffffffffffffffffffffffffffffffffffffffffffffffffffffffffffffffc3601126101715760206040517ff4d55e0bcbb226b4aaff947cf2f41ec6d6dcaecd1306fbe6f9b8746ad288b48e8152f35b346101715760207ffffffffffffffffffffffffffffffffffffffffffffffffffffffffffffffffc360112610171576118136125bf565b50600435600052600160205261016d61182f604060002061265d565b604051918291602083526020830190611edb565b60207ffffffffffffffffffffffffffffffffffffffffffffffffffffffffffffffffc3601126101715760043567ffffffffffffffff81116101715761188d903690600401611e09565b6118968161227d565b916000918291345b8284106118be5761016d6118b286886144ef565b60405191829182611e3a565b909192936118cd858585612424565b6118da6020820182612324565b909181158015611a64575b610e9557908491888860005b84811061197c5750936119559361194c9361194560019998947fffffffffffffffffffffffffffffffffffffffffffffffffffffffffffffffff60209901149461193d6060840161225c565b933691612378565b9035612967565b948551906123e8565b93018051611963888a61213f565b5261196e878961213f565b50515101940192919061189e565b9293945050506119918160051b8501856120ff565b9061199f6040840184612464565b829391931015611a35576119b56060850161225c565b926040519081608081011067ffffffffffffffff60808401111761094857600194611a1973ffffffffffffffffffffffffffffffffffffffff92611a08611a2996608087016040528a3587523690612153565b60208601523690606088020161221e565b6040840152166060820152614729565b019088888794936118f1565b7f4e487b7100000000000000000000000000000000000000000000000000000000600052603260045260246000fd5b50611a726040820182612464565b90508214156118e5565b346101715760207ffffffffffffffffffffffffffffffffffffffffffffffffffffffffffffffffc36011261017157602067ffffffffffffffff4216610af08160043561455c565b6020807ffffffffffffffffffffffffffffffffffffffffffffffffffffffffffffffffc3601126101715767ffffffffffffffff9060043582811161017157611b11903690600401611e09565b929091600090345b858310611b2257005b611b2d8387876122e4565b828101357fffffffffffffffffffffffffffffffffffffffffffffffffffffffffffffffe18236030181121561017157810191823592868411610171578401928060061b360384136101715760019382610e8592611bbe95611bb77fffffffffffffffffffffffffffffffffffffffffffffffffffffffffffffffff8e018b14943393369161254d565b90356132f7565b920191611b19565b60607ffffffffffffffffffffffffffffffffffffffffffffffffffffffffffffffffc36011261017157610c7d611bfb6124b8565b611c0436612507565b611c0d82612132565b52611c1781612132565b503490339060043561307a565b6020807ffffffffffffffffffffffffffffffffffffffffffffffffffffffffffffffffc3601126101715760043567ffffffffffffffff811161017157611c6f903690600401611e09565b611c7b8193929361227d565b92600092346000937fffffffffffffffffffffffffffffffffffffffffffffffffffffffffffffffff8101905b808610611cbc5761016d6118b2888a6144ef565b90919293949560019085611d00611cf78a8888611cda838a8f6122e4565b611945611ce988830183612324565b939095149433933691612378565b968751906123e8565b95018051611d0e8a8c61213f565b52611d19898b61213f565b5051510196019493929190611ca8565b346101715760207ffffffffffffffffffffffffffffffffffffffffffffffffffffffffffffffffc3601126101715760043573ffffffffffffffffffffffffffffffffffffffff81168091036101715760005260006020526020604060002054604051908152f35b346101715760007ffffffffffffffffffffffffffffffffffffffffffffffffffffffffffffffffc36011261017157807f6fddd0d8bc416c66f4749c05d7b3e4dc45adc924f7eaaf3ef86c361f481e27c260209252f35b359073ffffffffffffffffffffffffffffffffffffffff8216820361017157565b9181601f840112156101715782359167ffffffffffffffff8311610171576020808501948460051b01011161017157565b6020908160408183019282815285518094520193019160005b828110611e61575050505090565b835185529381019392810192600101611e53565b60005b838110611e885750506000910152565b8181015183820152602001611e78565b907fffffffffffffffffffffffffffffffffffffffffffffffffffffffffffffffe0601f602093611ed481518092818752878088019101611e75565b0116010190565b90611f7491805182526020810151602083015267ffffffffffffffff806040830151166040840152806060830151166060840152608082015116608083015260a081015160a083015273ffffffffffffffffffffffffffffffffffffffff8060c08301511660c084015260e08201511660e083015261010080820151151590830152610120809101519161014080928201520190611e98565b90565b6080810190811067ffffffffffffffff82111761094857604052565b60c0810190811067ffffffffffffffff82111761094857604052565b6060810190811067ffffffffffffffff82111761094857604052565b6040810190811067ffffffffffffffff82111761094857604052565b610140810190811067ffffffffffffffff82111761094857604052565b90601f7fffffffffffffffffffffffffffffffffffffffffffffffffffffffffffffffe0910116810190811067ffffffffffffffff82111761094857604052565b67ffffffffffffffff811161094857601f017fffffffffffffffffffffffffffffffffffffffffffffffffffffffffffffffe01660200190565b67ffffffffffffffff81116109485760051b60200190565b6040908151916120a683611fcb565b60018352829160005b6020808210156120f7578351602092916120c882611f93565b6000825260008183015260008683015260606000818401526080830152600060a08301528288010152016120af565b505091925050565b9035907fffffffffffffffffffffffffffffffffffffffffffffffffffffffffffffff4181360301821215610171570190565b805115611a355760200190565b8051821015611a355760209160051b010190565b919060c083820312610171576040519067ffffffffffffffff9060c083018281118482101761094857604052829461218a81611de8565b84526020928382013581811681036101715784860152604082013580151581036101715760408601526060820135606086015260808201359081116101715781019180601f84011215610171578235926121e384612045565b916121f16040519384612004565b84835285858301011161017157848460a09695879660009401838601378301015260808501520135910152565b91908260609103126101715760405161223681611faf565b8092803560ff811681036101715760409182918452602081013560208501520135910152565b3573ffffffffffffffffffffffffffffffffffffffff811681036101715790565b906122878261207f565b6122946040519182612004565b8281527fffffffffffffffffffffffffffffffffffffffffffffffffffffffffffffffe06122c2829461207f565b019060005b8281106122d357505050565b8060606020809385010152016122c7565b9190811015611a355760051b810135907fffffffffffffffffffffffffffffffffffffffffffffffffffffffffffffffc181360301821215610171570190565b9035907fffffffffffffffffffffffffffffffffffffffffffffffffffffffffffffffe181360301821215610171570180359067ffffffffffffffff821161017157602001918160051b3603831361017157565b929190926123858461207f565b916123936040519384612004565b829480845260208094019060051b8301928284116101715780915b8483106123bd57505050505050565b823567ffffffffffffffff81116101715786916123dd8684938601612153565b8152019201916123ae565b919082039182116123f557565b7f4e487b7100000000000000000000000000000000000000000000000000000000600052601160045260246000fd5b9190811015611a355760051b810135907fffffffffffffffffffffffffffffffffffffffffffffffffffffffffffffff8181360301821215610171570190565b9035907fffffffffffffffffffffffffffffffffffffffffffffffffffffffffffffffe181360301821215610171570180359067ffffffffffffffff82116101715760200191606082023603831361017157565b6040908151916124c783611fcb565b600183528291600091825b6020808210156124fe578251602092916124eb82611fcb565b86825286818301528289010152016124d2565b50505091925050565b7fffffffffffffffffffffffffffffffffffffffffffffffffffffffffffffffdc6040910112610171576040519061253e82611fcb565b60243582526044356020830152565b9291926125598261207f565b60409261256884519283612004565b819581835260208093019160061b84019381851161017157915b84831061259157505050505050565b85838303126101715783869182516125a881611fcb565b853581528286013583820152815201920191612582565b604051906125cc82611fe7565b606061012083600080825280602083015280604083015280848301528060808301528060a08301528060c08301528060e08301526101008201520152565b90600182811c92168015612653575b602083101461262457565b7f4e487b7100000000000000000000000000000000000000000000000000000000600052602260045260246000fd5b91607f1691612619565b906040519161266b83611fe7565b828154815260016006818401549360209485850152600281015467ffffffffffffffff908181166040870152818160401c16606087015260801c166080850152600381015460a085015260ff73ffffffffffffffffffffffffffffffffffffffff8060048401541660c0870152600583015490811660e087015260a01c16151561010085015201906040519384926000928154916127088361260a565b8087529282811690811561277d5750600114612737575b505050506101209291612733910384612004565b0152565b60009081528381209695945091905b818310612765575093945091925090820101816127336101203861271f565b86548884018501529586019587945091830191612746565b7fffffffffffffffffffffffffffffffffffffffffffffffffffffffffffffff001685880152505050151560051b8301019050816127336101203861271f565b604051906127ca82611fcb565b6060602083600081520152565b906127e18261207f565b6127ee6040519182612004565b8281527fffffffffffffffffffffffffffffffffffffffffffffffffffffffffffffffe061281c829461207f565b0190602036910137565b5190811515820361017157565b906020808383031261017157825167ffffffffffffffff93848211610171570192608084840312610171576040519361286b85611f77565b805185528281015173ffffffffffffffffffffffffffffffffffffffff8116810361017157838601526128a060408201612826565b60408601526060810151918211610171570182601f82011215610171578051906128c982612045565b936128d76040519586612004565b82855283838301011161017157826128f29385019101611e75565b606082015290565b906129048261207f565b6129116040519182612004565b8281527fffffffffffffffffffffffffffffffffffffffffffffffffffffffffffffffe061293f829461207f565b019060005b82811061295057505050565b60209061295b6125bf565b82828501015201612944565b92909493916129746127bd565b508551936129806127bd565b9461298a816127d7565b6020870152604051907fa2ea7c6e00000000000000000000000000000000000000000000000000000000825282600483015260008260248173ffffffffffffffffffffffffffffffffffffffff7f0000000000000000000000000000000000000000000000000000000000000000165afa918215610a3c5760009261305d575b508151156109ed5792979091612a1f846128fa565b98612a29856127d7565b946000935b818510612a4b57505050505095612a4694959661384f565b815290565b91959398949699909297612a5f8a8461213f565b519a67ffffffffffffffff60208d0151168015159081613048575b506109ae576040890151158061303b575b61097757899860608d01518d602081015167ffffffffffffffff1691815173ffffffffffffffffffffffffffffffffffffffff1690604083015115159260800151936040519e8f90612adc82611fe7565b6000825260208201524267ffffffffffffffff166040820152606001528d608081016000905260a0015260c08d015273ffffffffffffffffffffffffffffffffffffffff8b1660e08d01526101008c01526101208b015260005b60208b01518b612c07609d60c08301519260e08101519060408101519060608101519161010082015115159061012060a084015193015193604051988996602088019b8c527fffffffffffffffffffffffffffffffffffffffff000000000000000000000000809260601b16604089015260601b1660548701527fffffffffffffffff000000000000000000000000000000000000000000000000809260c01b16606887015260c01b16607085015260f81b6078840152607983015280516104828160999360208587019101611e75565b51902080600052600160205260406000205415612c2d575060010163ffffffff16612b36565b90509d979b9199929a949d9c909698939c8084528060005260016020526040600020918451835560208501516001840155612d0f6002840167ffffffffffffffff6040880151168154907fffffffffffffffffffffffffffffffff000000000000000000000000000000006fffffffffffffffff000000000000000060608b015160401b1692161717815567ffffffffffffffff6080880151167fffffffffffffffff0000000000000000ffffffffffffffffffffffffffffffff77ffffffffffffffff0000000000000000000000000000000083549260801b169116179055565b60a085015160038401556004830173ffffffffffffffffffffffffffffffffffffffff60c0870151167fffffffffffffffffffffffff00000000000000000000000000000000000000008254161790556005830173ffffffffffffffffffffffffffffffffffffffff60e0870151168154907fffffffffffffffffffffff00000000000000000000000000000000000000000074ff00000000000000000000000000000000000000006101008a0151151560a01b1692161717905561012085015192835167ffffffffffffffff8111610948578894612df1600684015461260a565b601f8111612fe0575b50602090601f8311600114612f13576006929160009183612f08575b50507fffffffffffffffffffffffffffffffffffffffffffffffffffffffffffffffff8260011b9260031b1c1916179101555b8d8b8b606084015180612edb575b5086602073ffffffffffffffffffffffffffffffffffffffff95948794610744848660019e61073e83612e899a61213f565b5251166040519182527f8bf46bf4cfd674fa735a3d63ec1c9ad4153f033c290341f3a588b75685141b35602073ffffffffffffffffffffffffffffffffffffffff881693a4019290919293949a612a2e565b92505050612ef89193506000526001602052604060002054151590565b156107c25785918d8b8b38612e57565b015190503880612e16565b906006840160005260206000209160005b7fffffffffffffffffffffffffffffffffffffffffffffffffffffffffffffffe085168110612fc55750918391600193837fffffffffffffffffffffffffffffffffffffffffffffffffffffffffffffffe06006971610612f8e575b505050811b01910155612e49565b01517fffffffffffffffffffffffffffffffffffffffffffffffffffffffffffffffff60f88460031b161c19169055388080612f80565b8183015184558c985060019093019260209283019201612f24565b90919293949550600684016000526020600020601f840160051c810160208510613034575b908b979695949392915b601f830160051c82018110613025575050612dfa565b600081558c985060010161300f565b5080613005565b5060408c01511515612a8b565b905067ffffffffffffffff4216101538612a7a565b6130739192503d806000833e610a2d8183612004565b9038612a0a565b939291936040517fa2ea7c6e00000000000000000000000000000000000000000000000000000000815281600482015260008160248173ffffffffffffffffffffffffffffffffffffffff7f0000000000000000000000000000000000000000000000000000000000000000165afa908115610a3c576000916132dc575b508051156109ed57825161310b816128fa565b92613115826127d7565b9460005b83811061312f5750505050611f74949550613a30565b613139818361213f565b5190815160005260016020526040600020918254156107c257846001840154036109ed57600583015473ffffffffffffffffffffffffffffffffffffffff8d1673ffffffffffffffffffffffffffffffffffffffff8216036132b25760a01c60ff16156109775767ffffffffffffffff600284015460801c16613288576002830180547fffffffffffffffff0000000000000000ffffffffffffffffffffffffffffffff164260801b77ffffffffffffffff00000000000000000000000000000000161790556001928c9161320d8261265d565b613217858c61213f565b52613222848b61213f565b506020810151613232858d61213f565b527ff930a6e2523c9cc298691873087a740550b8fc85a0680830414c148ed927f615602073ffffffffffffffffffffffffffffffffffffffff87816004870154169451950154956040519586521693a401613119565b60046040517f905e7107000000000000000000000000000000000000000000000000000000008152fd5b60046040517f4ca88867000000000000000000000000000000000000000000000000000000008152fd5b6132f191503d806000833e610a2d8183612004565b386130f8565b90949392916040517fa2ea7c6e00000000000000000000000000000000000000000000000000000000815282600482015260008160248173ffffffffffffffffffffffffffffffffffffffff7f0000000000000000000000000000000000000000000000000000000000000000165afa908115610a3c57600091613519575b508051156109ed578651613389816128fa565b92613393826127d7565b9460005b8381106133ad5750505050611f74959650613c2f565b6133b7818c61213f565b5190815160005260016020526040600020918254156107c257836001840154036109ed57600583015473ffffffffffffffffffffffffffffffffffffffff861673ffffffffffffffffffffffffffffffffffffffff8216036132b25760a01c60ff16156109775767ffffffffffffffff600284015460801c16613288576002830180547fffffffffffffffff0000000000000000ffffffffffffffffffffffffffffffff164260801b77ffffffffffffffff00000000000000000000000000000000161790556001926134898161265d565b613493848b61213f565b5261349e838a61213f565b5060208201516134ae848c61213f565b528373ffffffffffffffffffffffffffffffffffffffff6004830154169251910154916040519182527ff930a6e2523c9cc298691873087a740550b8fc85a0680830414c148ed927f615602073ffffffffffffffffffffffffffffffffffffffff891693a401613397565b61352e91503d806000833e610a2d8183612004565b38613376565b60408101906040815282518092526060810160608360051b830101926020809501916000905b82821061359d57505050508281830391015281808451928381520193019160005b828110613589575050505090565b83518552938101939281019260010161357b565b909192959485806135d8837fffffffffffffffffffffffffffffffffffffffffffffffffffffffffffffffa089600196030186528a51611edb565b979801949391909101910161355a565b90929183519360019081861461382e5773ffffffffffffffffffffffffffffffffffffffff602080950151169182156137fe579560009687915b8083106136f0575050509183929161366b9492876040518097819582947f91db0b7e00000000000000000000000000000000000000000000000000000000845260048401613534565b03925af1908115610a3c576000916136b9575b5090501561368f57611f74906143c0565b60046040517fe8bee839000000000000000000000000000000000000000000000000000000008152fd5b82813d83116136e9575b6136cd8183612004565b810103126136e657506136df90612826565b803861367e565b80fd5b503d6136c3565b909197966136fe898761213f565b5180151580613778575b61374e5781811161372457808492039801980190919091613622565b60046040517f11011294000000000000000000000000000000000000000000000000000000008152fd5b60046040517f1574f9f3000000000000000000000000000000000000000000000000000000008152fd5b50604080517fce46e04600000000000000000000000000000000000000000000000000000000815289816004818b5afa9182156137f457506000916137bf575b5015613708565b908982813d83116137ed575b6137d58183612004565b810103126136e657506137e790612826565b386137b8565b503d6137cb565b513d6000823e3d90fd5b9594505050905060005b8281106138185750505050600090565b613822818361213f565b5161374e578301613808565b611f749550613848915061384190612132565b5191612132565b5191613e07565b909391845194600190818714613a135773ffffffffffffffffffffffffffffffffffffffff602080950151169182156139e2579660009788915b80831061393257505050918392916138d29492886040518097819582947f91db0b7e00000000000000000000000000000000000000000000000000000000845260048401613534565b03925af1908115610a3c576000916138fe575b5090501561368f576138f5575090565b611f74906143c0565b82813d831161392b575b6139128183612004565b810103126136e6575061392490612826565b80386138e5565b503d613908565b909198976139408a8761213f565b5180151580613966575b61374e5781811161372457808492039901990190919091613889565b50604080517fce46e04600000000000000000000000000000000000000000000000000000000815289816004818b5afa9182156137f457506000916139ad575b501561394a565b908982813d83116139db575b6139c38183612004565b810103126136e657506139d590612826565b386139a6565b503d6139b9565b969550505091505060005b8281106139fd5750505050600090565b613a07818361213f565b5161374e5783016139ed565b611f749650613a29915061384190959495612132565b5191613f8e565b909291835193600190818614613c155773ffffffffffffffffffffffffffffffffffffffff60208095015116918215613be5579560009687915b808310613b355750505091839291613ab39492876040518097819582947f88e5b2d900000000000000000000000000000000000000000000000000000000845260048401613534565b03925af1908115610a3c57600091613b01575b50905015613ad757611f74906143c0565b60046040517fbf2f3a8b000000000000000000000000000000000000000000000000000000008152fd5b82813d8311613b2e575b613b158183612004565b810103126136e65750613b2790612826565b8038613ac6565b503d613b0b565b90919796613b43898761213f565b5180151580613b69575b61374e5781811161372457808492039801980190919091613a6a565b50604080517fce46e04600000000000000000000000000000000000000000000000000000000815289816004818b5afa9182156137f45750600091613bb0575b5015613b4d565b908982813d8311613bde575b613bc68183612004565b810103126136e65750613bd890612826565b38613ba9565b503d613bbc565b9594505050905060005b828110613bff5750505050600090565b613c09818361213f565b5161374e578301613bef565b611f749550613c28915061384190612132565b51916140f6565b909391845194600190818714613dea5773ffffffffffffffffffffffffffffffffffffffff60208095015116918215613db9579660009788915b808310613d095750505091839291613cb29492886040518097819582947f88e5b2d900000000000000000000000000000000000000000000000000000000845260048401613534565b03925af1908115610a3c57600091613cd5575b50905015613ad7576138f5575090565b82813d8311613d02575b613ce98183612004565b810103126136e65750613cfb90612826565b8038613cc5565b503d613cdf565b90919897613d178a8761213f565b5180151580613d3d575b61374e5781811161372457808492039901990190919091613c69565b50604080517fce46e04600000000000000000000000000000000000000000000000000000000815289816004818b5afa9182156137f45750600091613d84575b5015613d21565b908982813d8311613db2575b613d9a8183612004565b810103126136e65750613dac90612826565b38613d7d565b503d613d90565b969550505091505060005b828110613dd45750505050600090565b613dde818361213f565b5161374e578301613dc4565b611f749650613e00915061384190959495612132565b5191614270565b92919273ffffffffffffffffffffffffffffffffffffffff602080920151168015613f815784151580613f07575b61374e5783851161372457613e83829186946040519586809481937fe60c35050000000000000000000000000000000000000000000000000000000083528760048401526024830190611edb565b03925af1908115610a3c57600091613ed3575b50905015613ea95781611f7491036143c0565b60046040517fbd8ba84d000000000000000000000000000000000000000000000000000000008152fd5b82813d8311613f00575b613ee78183612004565b810103126136e65750613ef990612826565b8038613e96565b503d613edd565b506040517fce46e0460000000000000000000000000000000000000000000000000000000081528281600481855afa908115610a3c57600091613f4c575b5015613e35565b908382813d8311613f7a575b613f628183612004565b810103126136e65750613f7490612826565b38613f45565b503d613f58565b5050505061374e57600090565b93919373ffffffffffffffffffffffffffffffffffffffff6020809201511680156140e8578515158061406e575b61374e578486116137245761400a829187946040519586809481937fe60c35050000000000000000000000000000000000000000000000000000000083528760048401526024830190611edb565b03925af1908115610a3c5760009161403a575b50905015613ea957829061403057505090565b611f7491036143c0565b82813d8311614067575b61404e8183612004565b810103126136e6575061406090612826565b803861401d565b503d614044565b506040517fce46e0460000000000000000000000000000000000000000000000000000000081528281600481855afa908115610a3c576000916140b3575b5015613fbc565b908382813d83116140e1575b6140c98183612004565b810103126136e657506140db90612826565b386140ac565b503d6140bf565b505050505061374e57600090565b92919273ffffffffffffffffffffffffffffffffffffffff602080920151168015613f8157841515806141f6575b61374e5783851161372457614172829186946040519586809481937fe49617e10000000000000000000000000000000000000000000000000000000083528760048401526024830190611edb565b03925af1908115610a3c576000916141c2575b509050156141985781611f7491036143c0565b60046040517fccf3bb27000000000000000000000000000000000000000000000000000000008152fd5b82813d83116141ef575b6141d68183612004565b810103126136e657506141e890612826565b8038614185565b503d6141cc565b506040517fce46e0460000000000000000000000000000000000000000000000000000000081528281600481855afa908115610a3c5760009161423b575b5015614124565b908382813d8311614269575b6142518183612004565b810103126136e6575061426390612826565b38614234565b503d614247565b93919373ffffffffffffffffffffffffffffffffffffffff6020809201511680156140e85785151580614346575b61374e57848611613724576142ec829187946040519586809481937fe49617e10000000000000000000000000000000000000000000000000000000083528760048401526024830190611edb565b03925af1908115610a3c57600091614312575b5090501561419857829061403057505090565b82813d831161433f575b6143268183612004565b810103126136e6575061433890612826565b80386142ff565b503d61431c565b506040517fce46e0460000000000000000000000000000000000000000000000000000000081528281600481855afa908115610a3c5760009161438b575b501561429e565b908382813d83116143b9575b6143a18183612004565b810103126136e657506143b390612826565b38614384565b503d614397565b806143c85750565b80471061449157600080808093335af13d1561448c573d6143e881612045565b906143f66040519283612004565b8152600060203d92013e5b1561440857565b60846040517f08c379a000000000000000000000000000000000000000000000000000000000815260206004820152603a60248201527f416464726573733a20756e61626c6520746f2073656e642076616c75652c207260448201527f6563697069656e74206d617920686176652072657665727465640000000000006064820152fd5b614401565b60646040517f08c379a000000000000000000000000000000000000000000000000000000000815260206004820152601d60248201527f416464726573733a20696e73756666696369656e742062616c616e63650000006044820152fd5b906144f9906127d7565b60009283925b80518410156145545793614513848661213f565b519160005b83518110156145435761452b818561213f565b51614536848761213f565b5260019283019201614518565b5090946001909401939091506144ff565b509250905090565b6000818152600260205267ffffffffffffffff90816040822054166145d8577f5aafceeb1c7ad58e4a84898bdee37c02c0fc46e7d24e6b60e8209449f183459f91838252600260205260408220941693847fffffffffffffffffffffffffffffffffffffffffffffffff000000000000000082541617905580a3565b60046040517f2e267946000000000000000000000000000000000000000000000000000000008152fd5b73ffffffffffffffffffffffffffffffffffffffff7f000000000000000000000000000000000000000000000000000000000000000016301480614700575b1561466a577f000000000000000000000000000000000000000000000000000000000000000090565b60405160208101907f000000000000000000000000000000000000000000000000000000000000000082527f000000000000000000000000000000000000000000000000000000000000000060408201527f000000000000000000000000000000000000000000000000000000000000000060608201524660808201523060a082015260a081526146fa81611f93565b51902090565b507f00000000000000000000000000000000000000000000000000000000000000004614614641565b6020908181015190604080938183015192606081019173ffffffffffffffffffffffffffffffffffffffff948584511660005260008252846000209283549360018501905551928688511667ffffffffffffffff988985820151168882015115159060806060840151930151878151910120938a5198888a019b7f6fddd0d8bc416c66f4749c05d7b3e4dc45adc924f7eaaf3ef86c361f481e27c28d528a01526060890152608088015260a087015260c086015260e0850152610100908185015283526101208301968388109088111761094857614814869561482894614830998b52519020614a9a565b918860ff83511691830151920151926149fe565b949094614865565b511691160361483c5750565b600490517f8baa579f000000000000000000000000000000000000000000000000000000008152fd5b60058110156149cf57806148765750565b600181036148dc5760646040517f08c379a000000000000000000000000000000000000000000000000000000000815260206004820152601860248201527f45434453413a20696e76616c6964207369676e617475726500000000000000006044820152fd5b600281036149425760646040517f08c379a000000000000000000000000000000000000000000000000000000000815260206004820152601f60248201527f45434453413a20696e76616c6964207369676e6174757265206c656e677468006044820152fd5b60031461494b57565b60846040517f08c379a000000000000000000000000000000000000000000000000000000000815260206004820152602260248201527f45434453413a20696e76616c6964207369676e6174757265202773272076616c60448201527f75650000000000000000000000000000000000000000000000000000000000006064820152fd5b7f4e487b7100000000000000000000000000000000000000000000000000000000600052602160045260246000fd5b9291907f7fffffffffffffffffffffffffffffff5d576e7357a4501ddfe92f46681b20a08311614a8e5791608094939160ff602094604051948552168484015260408301526060820152600093849182805260015afa15614a8157815173ffffffffffffffffffffffffffffffffffffffff811615614a7b579190565b50600190565b50604051903d90823e3d90fd5b50505050600090600390565b614aa2614602565b906040519060208201927f1901000000000000000000000000000000000000000000000000000000000000845260228301526042820152604281526080810181811067ffffffffffffffff8211176109485760405251902090565b602081015160409182810151916060820173ffffffffffffffffffffffffffffffffffffffff9283825116600052600060205285600020908154916001830190555192519086519160208301947ff4d55e0bcbb226b4aaff947cf2f41ec6d6dcaecd1306fbe6f9b8746ad288b48e865288840152606083015260808201526080815260a081019481861067ffffffffffffffff87111761094857614bae859461482893614830988a52519020614a9a565b9060ff815116886020830151920151926149fe56fea164736f6c6343000811000a",
  "devdoc": {
    "kind": "dev",
    "methods": {
      "attest((bytes32,(address,uint64,bool,bytes32,bytes,uint256)))": {
        "details": "Attests to a specific schema.",
        "params": {
          "request": "The arguments of the attestation request. Example: attest({     schema: \"0facc36681cbe2456019c1b0d1e7bedd6d1d40f6f324bf3dd3a4cef2999200a0\",     data: {         recipient: \"0xdEADBeAFdeAdbEafdeadbeafDeAdbEAFdeadbeaf\",         expirationTime: 0,         revocable: true,         refUUID: \"0x0000000000000000000000000000000000000000000000000000000000000000\",         data: \"0xF00D\",         value: 0     } })"
        },
        "returns": {
          "_0": "The UUID of the new attestation."
        }
      },
      "attestByDelegation((bytes32,(address,uint64,bool,bytes32,bytes,uint256),(uint8,bytes32,bytes32),address))": {
        "details": "Attests to a specific schema via the provided EIP712 signature.",
        "params": {
          "delegatedRequest": "The arguments of the delegated attestation request. Example: attestByDelegation({     schema: '0x8e72f5bc0a8d4be6aa98360baa889040c50a0e51f32dbf0baa5199bd93472ebc',     data: {         recipient: '0xf39Fd6e51aad88F6F4ce6aB8827279cffFb92266',         expirationTime: 1673891048,         revocable: true,         refUUID: '0x0000000000000000000000000000000000000000000000000000000000000000',         data: '0x1234',         value: 0     },     signature: {         v: 28,         r: '0x148c...b25b',         s: '0x5a72...be22'     },     attester: '0xc5E8740aD971409492b1A63Db8d83025e0Fc427e' })"
        },
        "returns": {
          "_0": "The UUID of the new attestation."
        }
      },
      "constructor": {
        "details": "Creates a new EAS instance.",
        "params": {
          "registry": "The address of the global schema registry."
        }
      },
      "getAttestation(bytes32)": {
        "details": "Returns an existing attestation by UUID.",
        "params": {
          "uuid": "The UUID of the attestation to retrieve."
        },
        "returns": {
          "_0": "The attestation data members."
        }
      },
      "getDomainSeparator()": {
        "details": "Returns the domain separator used in the encoding of the signatures for attest, and revoke."
      },
      "getNonce(address)": {
        "details": "Returns the current nonce per-account.",
        "params": {
          "account": "The requested account."
        },
        "returns": {
          "_0": "The current nonce."
        }
      },
      "getSchemaRegistry()": {
        "details": "Returns the address of the global schema registry.",
        "returns": {
          "_0": "The address of the global schema registry."
        }
      },
      "getTimestamp(bytes32)": {
        "details": "Returns the timestamp that the specified data was timestamped with.",
        "params": {
          "data": "The data to query."
        },
        "returns": {
          "_0": "The timestamp the data was timestamped with."
        }
      },
      "isAttestationValid(bytes32)": {
        "details": "Checks whether an attestation exists.",
        "params": {
          "uuid": "The UUID of the attestation to retrieve."
        },
        "returns": {
          "_0": "Whether an attestation exists."
        }
      },
      "multiAttest((bytes32,(address,uint64,bool,bytes32,bytes,uint256)[])[])": {
        "details": "Attests to multiple schemas.",
        "params": {
          "multiRequests": "The arguments of the multi attestation requests. The requests should be grouped by distinct schema ids to benefit from the best batching optimization. Example: multiAttest([{     schema: '0x33e9094830a5cba5554d1954310e4fbed2ef5f859ec1404619adea4207f391fd',     data: [{         recipient: '0xdEADBeAFdeAdbEafdeadbeafDeAdbEAFdeadbeaf',         expirationTime: 1673891048,         revocable: true,         refUUID: '0x0000000000000000000000000000000000000000000000000000000000000000',         data: '0x1234',         value: 1000     },     {         recipient: '0xf39Fd6e51aad88F6F4ce6aB8827279cffFb92266',         expirationTime: 0,         revocable: false,         refUUID: '0x480df4a039efc31b11bfdf491b383ca138b6bde160988222a2a3509c02cee174',         data: '0x00',         value: 0     }], }, {     schema: '0x5ac273ce41e3c8bfa383efe7c03e54c5f0bff29c9f11ef6ffa930fc84ca32425',     data: [{         recipient: '0xdEADBeAFdeAdbEafdeadbeafDeAdbEAFdeadbeaf',         expirationTime: 0,         revocable: true,         refUUID: '0x75bf2ed8dca25a8190c50c52db136664de25b2449535839008ccfdab469b214f',         data: '0x12345678',         value: 0     }, }])"
        },
        "returns": {
          "_0": "The UUIDs of the new attestations."
        }
      },
      "multiAttestByDelegation((bytes32,(address,uint64,bool,bytes32,bytes,uint256)[],(uint8,bytes32,bytes32)[],address)[])": {
        "details": "Attests to multiple schemas using via provided EIP712 signatures.",
        "params": {
          "multiDelegatedRequests": "The arguments of the delegated multi attestation requests. The requests should be grouped by distinct schema ids to benefit from the best batching optimization. Example: multiAttestByDelegation([{     schema: '0x8e72f5bc0a8d4be6aa98360baa889040c50a0e51f32dbf0baa5199bd93472ebc',     data: [{         recipient: '0xf39Fd6e51aad88F6F4ce6aB8827279cffFb92266',         expirationTime: 1673891048,         revocable: true,         refUUID: '0x0000000000000000000000000000000000000000000000000000000000000000',         data: '0x1234',         value: 0     },     {         recipient: '0xdEADBeAFdeAdbEafdeadbeafDeAdbEAFdeadbeaf',         expirationTime: 0,         revocable: false,         refUUID: '0x0000000000000000000000000000000000000000000000000000000000000000',         data: '0x00',         value: 0     }],     signatures: [{         v: 28,         r: '0x148c...b25b',         s: '0x5a72...be22'     },     {         v: 28,         r: '0x487s...67bb',         s: '0x12ad...2366'     }],     attester: '0x1D86495b2A7B524D747d2839b3C645Bed32e8CF4' }])"
        },
        "returns": {
          "_0": "The UUIDs of the new attestations."
        }
      },
      "multiRevoke((bytes32,(bytes32,uint256)[])[])": {
        "details": "Revokes existing attestations to multiple schemas.",
        "params": {
          "multiRequests": "The arguments of the multi revocation requests. The requests should be grouped by distinct schema ids to benefit from the best batching optimization. Example: multiRevoke([{     schema: '0x8e72f5bc0a8d4be6aa98360baa889040c50a0e51f32dbf0baa5199bd93472ebc',     data: [{         uuid: '0x211296a1ca0d7f9f2cfebf0daaa575bea9b20e968d81aef4e743d699c6ac4b25',         value: 1000     },     {         uuid: '0xe160ac1bd3606a287b4d53d5d1d6da5895f65b4b4bab6d93aaf5046e48167ade',         value: 0     }], }, {     schema: '0x5ac273ce41e3c8bfa383efe7c03e54c5f0bff29c9f11ef6ffa930fc84ca32425',     data: [{         uuid: '0x053d42abce1fd7c8fcddfae21845ad34dae287b2c326220b03ba241bc5a8f019',         value: 0     }, }])"
        }
      },
      "multiRevokeByDelegation((bytes32,(bytes32,uint256)[],(uint8,bytes32,bytes32)[],address)[])": {
        "details": "Revokes existing attestations to multiple schemas via provided EIP712 signatures.",
        "params": {
          "multiDelegatedRequests": "The arguments of the delegated multi revocation attestation requests. The requests should be grouped by distinct schema ids to benefit from the best batching optimization. Example: multiRevokeByDelegation([{     schema: '0x8e72f5bc0a8d4be6aa98360baa889040c50a0e51f32dbf0baa5199bd93472ebc',     data: [{         uuid: '0x211296a1ca0d7f9f2cfebf0daaa575bea9b20e968d81aef4e743d699c6ac4b25',         value: 1000     },     {         uuid: '0xe160ac1bd3606a287b4d53d5d1d6da5895f65b4b4bab6d93aaf5046e48167ade',         value: 0     }],     signatures: [{         v: 28,         r: '0x148c...b25b',         s: '0x5a72...be22'     },     {         v: 28,         r: '0x487s...67bb',         s: '0x12ad...2366'     }],     revoker: '0x244934dd3e31bE2c81f84ECf0b3E6329F5381992' }])"
        }
      },
      "multiTimestamp(bytes32[])": {
        "details": "Timestamps the specified multiple bytes32 data.",
        "params": {
          "data": "The data to timestamp."
        },
        "returns": {
          "_0": "The timestamp the data was timestamped with."
        }
      },
      "revoke((bytes32,(bytes32,uint256)))": {
        "details": "Revokes an existing attestation to a specific schema. Example: revoke({     schema: '0x8e72f5bc0a8d4be6aa98360baa889040c50a0e51f32dbf0baa5199bd93472ebc',     data: {         uuid: '0x101032e487642ee04ee17049f99a70590c735b8614079fc9275f9dd57c00966d',         value: 0     } })",
        "params": {
          "request": "The arguments of the revocation request."
        }
      },
      "revokeByDelegation((bytes32,(bytes32,uint256),(uint8,bytes32,bytes32),address))": {
        "details": "Revokes an existing attestation to a specific schema via the provided EIP712 signature. Example: revokeByDelegation({     schema: '0x8e72f5bc0a8d4be6aa98360baa889040c50a0e51f32dbf0baa5199bd93472ebc',     data: {         uuid: '0xcbbc12102578c642a0f7b34fe7111e41afa25683b6cd7b5a14caf90fa14d24ba',         value: 0     },     signature: {         v: 27,         r: '0xb593...7142',         s: '0x0f5b...2cce'     },     revoker: '0x244934dd3e31bE2c81f84ECf0b3E6329F5381992' })",
        "params": {
          "delegatedRequest": "The arguments of the delegated revocation request."
        }
      },
      "timestamp(bytes32)": {
        "details": "Timestamps the specified bytes32 data.",
        "params": {
          "data": "The data to timestamp."
        },
        "returns": {
          "_0": "The timestamp the data was timestamped with."
        }
      }
    },
    "title": "EAS - Ethereum Attestation Service",
    "version": 1
  },
  "userdoc": {
    "kind": "user",
    "methods": {
      "getAttestTypeHash()": {
        "notice": "Returns the EIP712 type hash for the attest function."
      },
      "getRevokeTypeHash()": {
        "notice": "Returns the EIP712 type hash for the revoke function."
      }
    },
    "version": 1
  },
  "storageLayout": {
    "storage": [
      {
        "astId": 4686,
        "contract": "contracts/EAS.sol:EAS",
        "label": "_nonces",
        "offset": 0,
        "slot": "0",
        "type": "t_mapping(t_address,t_uint256)"
      },
      {
        "astId": 3004,
        "contract": "contracts/EAS.sol:EAS",
        "label": "_db",
        "offset": 0,
        "slot": "1",
        "type": "t_mapping(t_bytes32,t_struct(Attestation)4908_storage)"
      },
      {
        "astId": 3008,
        "contract": "contracts/EAS.sol:EAS",
        "label": "_timestamps",
        "offset": 0,
        "slot": "2",
        "type": "t_mapping(t_bytes32,t_uint64)"
      }
    ],
    "types": {
      "t_address": {
        "encoding": "inplace",
        "label": "address",
        "numberOfBytes": "20"
      },
      "t_bool": {
        "encoding": "inplace",
        "label": "bool",
        "numberOfBytes": "1"
      },
      "t_bytes32": {
        "encoding": "inplace",
        "label": "bytes32",
        "numberOfBytes": "32"
      },
      "t_bytes_storage": {
        "encoding": "bytes",
        "label": "bytes",
        "numberOfBytes": "32"
      },
      "t_mapping(t_address,t_uint256)": {
        "encoding": "mapping",
        "key": "t_address",
        "label": "mapping(address => uint256)",
        "numberOfBytes": "32",
        "value": "t_uint256"
      },
      "t_mapping(t_bytes32,t_struct(Attestation)4908_storage)": {
        "encoding": "mapping",
        "key": "t_bytes32",
        "label": "mapping(bytes32 => struct Attestation)",
        "numberOfBytes": "32",
        "value": "t_struct(Attestation)4908_storage"
      },
      "t_mapping(t_bytes32,t_uint64)": {
        "encoding": "mapping",
        "key": "t_bytes32",
        "label": "mapping(bytes32 => uint64)",
        "numberOfBytes": "32",
        "value": "t_uint64"
      },
      "t_struct(Attestation)4908_storage": {
        "encoding": "inplace",
        "label": "struct Attestation",
        "members": [
          {
            "astId": 4889,
            "contract": "contracts/EAS.sol:EAS",
            "label": "uuid",
            "offset": 0,
            "slot": "0",
            "type": "t_bytes32"
          },
          {
            "astId": 4891,
            "contract": "contracts/EAS.sol:EAS",
            "label": "schema",
            "offset": 0,
            "slot": "1",
            "type": "t_bytes32"
          },
          {
            "astId": 4893,
            "contract": "contracts/EAS.sol:EAS",
            "label": "time",
            "offset": 0,
            "slot": "2",
            "type": "t_uint64"
          },
          {
            "astId": 4895,
            "contract": "contracts/EAS.sol:EAS",
            "label": "expirationTime",
            "offset": 8,
            "slot": "2",
            "type": "t_uint64"
          },
          {
            "astId": 4897,
            "contract": "contracts/EAS.sol:EAS",
            "label": "revocationTime",
            "offset": 16,
            "slot": "2",
            "type": "t_uint64"
          },
          {
            "astId": 4899,
            "contract": "contracts/EAS.sol:EAS",
            "label": "refUUID",
            "offset": 0,
            "slot": "3",
            "type": "t_bytes32"
          },
          {
            "astId": 4901,
            "contract": "contracts/EAS.sol:EAS",
            "label": "recipient",
            "offset": 0,
            "slot": "4",
            "type": "t_address"
          },
          {
            "astId": 4903,
            "contract": "contracts/EAS.sol:EAS",
            "label": "attester",
            "offset": 0,
            "slot": "5",
            "type": "t_address"
          },
          {
            "astId": 4905,
            "contract": "contracts/EAS.sol:EAS",
            "label": "revocable",
            "offset": 20,
            "slot": "5",
            "type": "t_bool"
          },
          {
            "astId": 4907,
            "contract": "contracts/EAS.sol:EAS",
            "label": "data",
            "offset": 0,
            "slot": "6",
            "type": "t_bytes_storage"
          }
        ],
        "numberOfBytes": "224"
      },
      "t_uint256": {
        "encoding": "inplace",
        "label": "uint256",
        "numberOfBytes": "32"
      },
      "t_uint64": {
        "encoding": "inplace",
        "label": "uint64",
        "numberOfBytes": "8"
      }
    }
  }
}