{
  "address": "0x25E36ebB051ae76c0D59E6c1dD0b29A5fc520061",
  "abi": [
    {
      "inputs": [
        {
          "internalType": "contract ISchemaRegistry",
          "name": "registry",
          "type": "address"
        }
      ],
      "stateMutability": "nonpayable",
      "type": "constructor"
    },
    {
      "inputs": [],
      "name": "AccessDenied",
      "type": "error"
    },
    {
      "inputs": [],
      "name": "AlreadyRevoked",
      "type": "error"
    },
    {
      "inputs": [],
      "name": "AlreadyTimestamped",
      "type": "error"
    },
    {
      "inputs": [],
      "name": "InsufficientValue",
      "type": "error"
    },
    {
      "inputs": [],
      "name": "InvalidAttestation",
      "type": "error"
    },
    {
      "inputs": [],
      "name": "InvalidAttestations",
      "type": "error"
    },
    {
      "inputs": [],
      "name": "InvalidExpirationTime",
      "type": "error"
    },
    {
      "inputs": [],
      "name": "InvalidLength",
      "type": "error"
    },
    {
      "inputs": [],
      "name": "InvalidOffset",
      "type": "error"
    },
    {
      "inputs": [],
      "name": "InvalidRegistry",
      "type": "error"
    },
    {
      "inputs": [],
      "name": "InvalidRevocation",
      "type": "error"
    },
    {
      "inputs": [],
      "name": "InvalidRevocations",
      "type": "error"
    },
    {
      "inputs": [],
      "name": "InvalidSchema",
      "type": "error"
    },
    {
      "inputs": [],
      "name": "InvalidSignature",
      "type": "error"
    },
    {
      "inputs": [],
      "name": "InvalidVerifier",
      "type": "error"
    },
    {
      "inputs": [],
      "name": "Irrevocable",
      "type": "error"
    },
    {
      "inputs": [],
      "name": "NotFound",
      "type": "error"
    },
    {
      "inputs": [],
      "name": "NotPayable",
      "type": "error"
    },
    {
      "inputs": [],
      "name": "WrongSchema",
      "type": "error"
    },
    {
      "anonymous": false,
      "inputs": [
        {
          "indexed": true,
          "internalType": "address",
          "name": "recipient",
          "type": "address"
        },
        {
          "indexed": true,
          "internalType": "address",
          "name": "attester",
          "type": "address"
        },
        {
          "indexed": false,
          "internalType": "bytes32",
          "name": "uuid",
          "type": "bytes32"
        },
        {
          "indexed": true,
          "internalType": "bytes32",
          "name": "schema",
          "type": "bytes32"
        }
      ],
      "name": "Attested",
      "type": "event"
    },
    {
      "anonymous": false,
      "inputs": [
        {
          "indexed": true,
          "internalType": "address",
          "name": "recipient",
          "type": "address"
        },
        {
          "indexed": true,
          "internalType": "address",
          "name": "attester",
          "type": "address"
        },
        {
          "indexed": false,
          "internalType": "bytes32",
          "name": "uuid",
          "type": "bytes32"
        },
        {
          "indexed": true,
          "internalType": "bytes32",
          "name": "schema",
          "type": "bytes32"
        }
      ],
      "name": "Revoked",
      "type": "event"
    },
    {
      "anonymous": false,
      "inputs": [
        {
          "indexed": true,
          "internalType": "bytes32",
          "name": "data",
          "type": "bytes32"
        },
        {
          "indexed": true,
          "internalType": "uint64",
          "name": "timestamp",
          "type": "uint64"
        }
      ],
      "name": "Timestamped",
      "type": "event"
    },
    {
      "inputs": [],
      "name": "VERSION",
      "outputs": [
        {
          "internalType": "string",
          "name": "",
          "type": "string"
        }
      ],
      "stateMutability": "view",
      "type": "function"
    },
    {
      "inputs": [
        {
          "components": [
            {
              "internalType": "bytes32",
              "name": "schema",
              "type": "bytes32"
            },
            {
              "components": [
                {
                  "internalType": "address",
                  "name": "recipient",
                  "type": "address"
                },
                {
                  "internalType": "uint64",
                  "name": "expirationTime",
                  "type": "uint64"
                },
                {
                  "internalType": "bool",
                  "name": "revocable",
                  "type": "bool"
                },
                {
                  "internalType": "bytes32",
                  "name": "refUUID",
                  "type": "bytes32"
                },
                {
                  "internalType": "bytes",
                  "name": "data",
                  "type": "bytes"
                },
                {
                  "internalType": "uint256",
                  "name": "value",
                  "type": "uint256"
                }
              ],
              "internalType": "struct AttestationRequestData",
              "name": "data",
              "type": "tuple"
            }
          ],
          "internalType": "struct AttestationRequest",
          "name": "request",
          "type": "tuple"
        }
      ],
      "name": "attest",
      "outputs": [
        {
          "internalType": "bytes32",
          "name": "",
          "type": "bytes32"
        }
      ],
      "stateMutability": "payable",
      "type": "function"
    },
    {
      "inputs": [
        {
          "components": [
            {
              "internalType": "bytes32",
              "name": "schema",
              "type": "bytes32"
            },
            {
              "components": [
                {
                  "internalType": "address",
                  "name": "recipient",
                  "type": "address"
                },
                {
                  "internalType": "uint64",
                  "name": "expirationTime",
                  "type": "uint64"
                },
                {
                  "internalType": "bool",
                  "name": "revocable",
                  "type": "bool"
                },
                {
                  "internalType": "bytes32",
                  "name": "refUUID",
                  "type": "bytes32"
                },
                {
                  "internalType": "bytes",
                  "name": "data",
                  "type": "bytes"
                },
                {
                  "internalType": "uint256",
                  "name": "value",
                  "type": "uint256"
                }
              ],
              "internalType": "struct AttestationRequestData",
              "name": "data",
              "type": "tuple"
            },
            {
              "components": [
                {
                  "internalType": "uint8",
                  "name": "v",
                  "type": "uint8"
                },
                {
                  "internalType": "bytes32",
                  "name": "r",
                  "type": "bytes32"
                },
                {
                  "internalType": "bytes32",
                  "name": "s",
                  "type": "bytes32"
                }
              ],
              "internalType": "struct EIP712Signature",
              "name": "signature",
              "type": "tuple"
            },
            {
              "internalType": "address",
              "name": "attester",
              "type": "address"
            }
          ],
          "internalType": "struct DelegatedAttestationRequest",
          "name": "delegatedRequest",
          "type": "tuple"
        }
      ],
      "name": "attestByDelegation",
      "outputs": [
        {
          "internalType": "bytes32",
          "name": "",
          "type": "bytes32"
        }
      ],
      "stateMutability": "payable",
      "type": "function"
    },
    {
      "inputs": [],
      "name": "getAttestTypeHash",
      "outputs": [
        {
          "internalType": "bytes32",
          "name": "",
          "type": "bytes32"
        }
      ],
      "stateMutability": "pure",
      "type": "function"
    },
    {
      "inputs": [
        {
          "internalType": "bytes32",
          "name": "uuid",
          "type": "bytes32"
        }
      ],
      "name": "getAttestation",
      "outputs": [
        {
          "components": [
            {
              "internalType": "bytes32",
              "name": "uuid",
              "type": "bytes32"
            },
            {
              "internalType": "bytes32",
              "name": "schema",
              "type": "bytes32"
            },
            {
              "internalType": "uint64",
              "name": "time",
              "type": "uint64"
            },
            {
              "internalType": "uint64",
              "name": "expirationTime",
              "type": "uint64"
            },
            {
              "internalType": "uint64",
              "name": "revocationTime",
              "type": "uint64"
            },
            {
              "internalType": "bytes32",
              "name": "refUUID",
              "type": "bytes32"
            },
            {
              "internalType": "address",
              "name": "recipient",
              "type": "address"
            },
            {
              "internalType": "address",
              "name": "attester",
              "type": "address"
            },
            {
              "internalType": "bool",
              "name": "revocable",
              "type": "bool"
            },
            {
              "internalType": "bytes",
              "name": "data",
              "type": "bytes"
            }
          ],
          "internalType": "struct Attestation",
          "name": "",
          "type": "tuple"
        }
      ],
      "stateMutability": "view",
      "type": "function"
    },
    {
      "inputs": [],
      "name": "getDomainSeparator",
      "outputs": [
        {
          "internalType": "bytes32",
          "name": "",
          "type": "bytes32"
        }
      ],
      "stateMutability": "view",
      "type": "function"
    },
    {
      "inputs": [
        {
          "internalType": "address",
          "name": "account",
          "type": "address"
        }
      ],
      "name": "getNonce",
      "outputs": [
        {
          "internalType": "uint256",
          "name": "",
          "type": "uint256"
        }
      ],
      "stateMutability": "view",
      "type": "function"
    },
    {
      "inputs": [],
      "name": "getRevokeTypeHash",
      "outputs": [
        {
          "internalType": "bytes32",
          "name": "",
          "type": "bytes32"
        }
      ],
      "stateMutability": "pure",
      "type": "function"
    },
    {
      "inputs": [],
      "name": "getSchemaRegistry",
      "outputs": [
        {
          "internalType": "contract ISchemaRegistry",
          "name": "",
          "type": "address"
        }
      ],
      "stateMutability": "view",
      "type": "function"
    },
    {
      "inputs": [
        {
          "internalType": "bytes32",
          "name": "data",
          "type": "bytes32"
        }
      ],
      "name": "getTimestamp",
      "outputs": [
        {
          "internalType": "uint64",
          "name": "",
          "type": "uint64"
        }
      ],
      "stateMutability": "view",
      "type": "function"
    },
    {
      "inputs": [
        {
          "internalType": "bytes32",
          "name": "uuid",
          "type": "bytes32"
        }
      ],
      "name": "isAttestationValid",
      "outputs": [
        {
          "internalType": "bool",
          "name": "",
          "type": "bool"
        }
      ],
      "stateMutability": "view",
      "type": "function"
    },
    {
      "inputs": [
        {
          "components": [
            {
              "internalType": "bytes32",
              "name": "schema",
              "type": "bytes32"
            },
            {
              "components": [
                {
                  "internalType": "address",
                  "name": "recipient",
                  "type": "address"
                },
                {
                  "internalType": "uint64",
                  "name": "expirationTime",
                  "type": "uint64"
                },
                {
                  "internalType": "bool",
                  "name": "revocable",
                  "type": "bool"
                },
                {
                  "internalType": "bytes32",
                  "name": "refUUID",
                  "type": "bytes32"
                },
                {
                  "internalType": "bytes",
                  "name": "data",
                  "type": "bytes"
                },
                {
                  "internalType": "uint256",
                  "name": "value",
                  "type": "uint256"
                }
              ],
              "internalType": "struct AttestationRequestData[]",
              "name": "data",
              "type": "tuple[]"
            }
          ],
          "internalType": "struct MultiAttestationRequest[]",
          "name": "multiRequests",
          "type": "tuple[]"
        }
      ],
      "name": "multiAttest",
      "outputs": [
        {
          "internalType": "bytes32[]",
          "name": "",
          "type": "bytes32[]"
        }
      ],
      "stateMutability": "payable",
      "type": "function"
    },
    {
      "inputs": [
        {
          "components": [
            {
              "internalType": "bytes32",
              "name": "schema",
              "type": "bytes32"
            },
            {
              "components": [
                {
                  "internalType": "address",
                  "name": "recipient",
                  "type": "address"
                },
                {
                  "internalType": "uint64",
                  "name": "expirationTime",
                  "type": "uint64"
                },
                {
                  "internalType": "bool",
                  "name": "revocable",
                  "type": "bool"
                },
                {
                  "internalType": "bytes32",
                  "name": "refUUID",
                  "type": "bytes32"
                },
                {
                  "internalType": "bytes",
                  "name": "data",
                  "type": "bytes"
                },
                {
                  "internalType": "uint256",
                  "name": "value",
                  "type": "uint256"
                }
              ],
              "internalType": "struct AttestationRequestData[]",
              "name": "data",
              "type": "tuple[]"
            },
            {
              "components": [
                {
                  "internalType": "uint8",
                  "name": "v",
                  "type": "uint8"
                },
                {
                  "internalType": "bytes32",
                  "name": "r",
                  "type": "bytes32"
                },
                {
                  "internalType": "bytes32",
                  "name": "s",
                  "type": "bytes32"
                }
              ],
              "internalType": "struct EIP712Signature[]",
              "name": "signatures",
              "type": "tuple[]"
            },
            {
              "internalType": "address",
              "name": "attester",
              "type": "address"
            }
          ],
          "internalType": "struct MultiDelegatedAttestationRequest[]",
          "name": "multiDelegatedRequests",
          "type": "tuple[]"
        }
      ],
      "name": "multiAttestByDelegation",
      "outputs": [
        {
          "internalType": "bytes32[]",
          "name": "",
          "type": "bytes32[]"
        }
      ],
      "stateMutability": "payable",
      "type": "function"
    },
    {
      "inputs": [
        {
          "components": [
            {
              "internalType": "bytes32",
              "name": "schema",
              "type": "bytes32"
            },
            {
              "components": [
                {
                  "internalType": "bytes32",
                  "name": "uuid",
                  "type": "bytes32"
                },
                {
                  "internalType": "uint256",
                  "name": "value",
                  "type": "uint256"
                }
              ],
              "internalType": "struct RevocationRequestData[]",
              "name": "data",
              "type": "tuple[]"
            }
          ],
          "internalType": "struct MultiRevocationRequest[]",
          "name": "multiRequests",
          "type": "tuple[]"
        }
      ],
      "name": "multiRevoke",
      "outputs": [],
      "stateMutability": "payable",
      "type": "function"
    },
    {
      "inputs": [
        {
          "components": [
            {
              "internalType": "bytes32",
              "name": "schema",
              "type": "bytes32"
            },
            {
              "components": [
                {
                  "internalType": "bytes32",
                  "name": "uuid",
                  "type": "bytes32"
                },
                {
                  "internalType": "uint256",
                  "name": "value",
                  "type": "uint256"
                }
              ],
              "internalType": "struct RevocationRequestData[]",
              "name": "data",
              "type": "tuple[]"
            },
            {
              "components": [
                {
                  "internalType": "uint8",
                  "name": "v",
                  "type": "uint8"
                },
                {
                  "internalType": "bytes32",
                  "name": "r",
                  "type": "bytes32"
                },
                {
                  "internalType": "bytes32",
                  "name": "s",
                  "type": "bytes32"
                }
              ],
              "internalType": "struct EIP712Signature[]",
              "name": "signatures",
              "type": "tuple[]"
            },
            {
              "internalType": "address",
              "name": "revoker",
              "type": "address"
            }
          ],
          "internalType": "struct MultiDelegatedRevocationRequest[]",
          "name": "multiDelegatedRequests",
          "type": "tuple[]"
        }
      ],
      "name": "multiRevokeByDelegation",
      "outputs": [],
      "stateMutability": "payable",
      "type": "function"
    },
    {
      "inputs": [
        {
          "internalType": "bytes32[]",
          "name": "data",
          "type": "bytes32[]"
        }
      ],
      "name": "multiTimestamp",
      "outputs": [
        {
          "internalType": "uint64",
          "name": "",
          "type": "uint64"
        }
      ],
      "stateMutability": "nonpayable",
      "type": "function"
    },
    {
      "inputs": [
        {
          "components": [
            {
              "internalType": "bytes32",
              "name": "schema",
              "type": "bytes32"
            },
            {
              "components": [
                {
                  "internalType": "bytes32",
                  "name": "uuid",
                  "type": "bytes32"
                },
                {
                  "internalType": "uint256",
                  "name": "value",
                  "type": "uint256"
                }
              ],
              "internalType": "struct RevocationRequestData",
              "name": "data",
              "type": "tuple"
            }
          ],
          "internalType": "struct RevocationRequest",
          "name": "request",
          "type": "tuple"
        }
      ],
      "name": "revoke",
      "outputs": [],
      "stateMutability": "payable",
      "type": "function"
    },
    {
      "inputs": [
        {
          "components": [
            {
              "internalType": "bytes32",
              "name": "schema",
              "type": "bytes32"
            },
            {
              "components": [
                {
                  "internalType": "bytes32",
                  "name": "uuid",
                  "type": "bytes32"
                },
                {
                  "internalType": "uint256",
                  "name": "value",
                  "type": "uint256"
                }
              ],
              "internalType": "struct RevocationRequestData",
              "name": "data",
              "type": "tuple"
            },
            {
              "components": [
                {
                  "internalType": "uint8",
                  "name": "v",
                  "type": "uint8"
                },
                {
                  "internalType": "bytes32",
                  "name": "r",
                  "type": "bytes32"
                },
                {
                  "internalType": "bytes32",
                  "name": "s",
                  "type": "bytes32"
                }
              ],
              "internalType": "struct EIP712Signature",
              "name": "signature",
              "type": "tuple"
            },
            {
              "internalType": "address",
              "name": "revoker",
              "type": "address"
            }
          ],
          "internalType": "struct DelegatedRevocationRequest",
          "name": "delegatedRequest",
          "type": "tuple"
        }
      ],
      "name": "revokeByDelegation",
      "outputs": [],
      "stateMutability": "payable",
      "type": "function"
    },
    {
      "inputs": [
        {
          "internalType": "bytes32",
          "name": "data",
          "type": "bytes32"
        }
      ],
      "name": "timestamp",
      "outputs": [
        {
          "internalType": "uint64",
          "name": "",
          "type": "uint64"
        }
      ],
      "stateMutability": "nonpayable",
      "type": "function"
    }
  ],
  "transactionHash": "0x8009d6e7937984456180188c9eb27f2805d64486d84fc19f5d47424fa75166b0",
  "args": [
    "0x4dd8b988B64A4052B5f142Af845AA49D2B2cD10D"
  ],
  "numDeployments": 1,
  "solcInputHash": "afd9bce5019c7607069b543ee2010766",
  "bytecode": "0x61016034620001b657601f62004d7338819003918201601f19168301926001600160401b0392909183851183861017620001a0578160209284926040978852833981010312620001b657516001600160a01b03811692838203620001b6578051926200006b84620001bb565b600484526020840163302e323560e01b81526003602084516200008e81620001bb565b828152016245415360e81b81522094519020948460e052610100958087524660a052835160208101917f8b73c3c69bb8fe3d512ecc4cf759cc79239f7b179b0ffacaa9a75d522b39400f978884528683015260608201524660808201523060a082015260a0815260c081019381851090851117620001a0578385525190206080523060c052610120948552156200019157506101409182525191614b9b9384620001d885396080518461462a015260a051846146e5015260c051846145fb015260e051846146790152518361469f0152518261465601525181818161026501528181610a9301528181611093015281816129bb015281816130a901526133270152f35b6311a1e69760e01b8152600490fd5b634e487b7160e01b600052604160045260246000fd5b600080fd5b604081019081106001600160401b03821117620001a05760405256fe61010080604052600436101561001457600080fd5b60003560e01c90816312b11a1714611d7c575080632d0335ab14611d1457806344adc90e14611c115780634692626714611bb35780634cb7e9e514611ab15780634d00307014611a69578063831e05a114611843578063a3112a64146117dc578063b83010d314611783578063d45c44351461172f578063e13458fc14610f37578063e30bb56314610ee3578063e45d03f914610c7f578063e57a6b1b14610b7b578063e71ff36514610af8578063ed24911d14610ab7578063f10b5cc814610a48578063f17325e7146101765763ffa1ad74146100f157600080fd5b346101715760007ffffffffffffffffffffffffffffffffffffffffffffffffffffffffffffffffc3601126101715761016d60405161012f81611fb6565b600481527f302e3235000000000000000000000000000000000000000000000000000000006020820152604051918291602083526020830190611e83565b0390f35b600080fd5b7ffffffffffffffffffffffffffffffffffffffffffffffffffffffffffffffffc602081360112610171576004359067ffffffffffffffff821161017157604082600401918336030112610171576101e36101cf612082565b926101de6024369201846120ea565b61213e565b6101ec8361211d565b526101f68261211d565b506101ff61279f565b5081519161020b61279f565b91610215846127b9565b6020840152604051937fa2ea7c6e0000000000000000000000000000000000000000000000000000000085528135600486015260008560248173ffffffffffffffffffffffffffffffffffffffff7f0000000000000000000000000000000000000000000000000000000000000000165afa948515610a3c57600095610a17575b508451156109ed57916102a8836128dc565b916102b2846127b9565b936000925b8184106102e35760206102da81896102d1348b8b8f6135ca565b8152015161211d565b51604051908152f35b6102f58482999496989395979961212a565b519267ffffffffffffffff60208501511680151590816109d8575b506109ae57604081015115806109a1575b6109775760608401519467ffffffffffffffff6020860151169573ffffffffffffffffffffffffffffffffffffffff86511660408701511515906080880151926040519961036e8b611fd2565b60008b528b3560208c015267ffffffffffffffff421660408c015260608b0152600060808b015260a08a015260c08901523360e089015261010088015261012087015260005b602087015160c08801516104bd609d60e08b015160408c01518c60608101519161010082015115159061012060a084015193015193604051988996602088019b8c527fffffffffffffffffffffffffffffffffffffffff000000000000000000000000809260601b16604089015260601b1660548701527fffffffffffffffff000000000000000000000000000000000000000000000000809260c01b16606887015260c01b16607085015260f81b6078840152607983015280516104828160999360208587019101611e60565b8201907fffffffff000000000000000000000000000000000000000000000000000000008860e01b169082015203607d810184520182611fef565b519020806000526001602052604060002054156104e3575060010163ffffffff166103b4565b919690509997919998969492939881815281600052600160205260406000209080518255602081015160018301556105c26002830167ffffffffffffffff6040840151168154907fffffffffffffffffffffffffffffffff000000000000000000000000000000006fffffffffffffffff0000000000000000606087015160401b1692161717815567ffffffffffffffff6080840151167fffffffffffffffff0000000000000000ffffffffffffffffffffffffffffffff77ffffffffffffffff0000000000000000000000000000000083549260801b169116179055565b60a081015160038301556004820173ffffffffffffffffffffffffffffffffffffffff60c0830151167fffffffffffffffffffffffff00000000000000000000000000000000000000008254161790556005820173ffffffffffffffffffffffffffffffffffffffff60e0830151168154907fffffffffffffffffffffff00000000000000000000000000000000000000000074ff0000000000000000000000000000000000000000610100860151151560a01b1692161717905561012081015180519167ffffffffffffffff831161094857838c938c938f9660066106a99101546125ec565b601f81116108d4575b50602090601f83116001146107f75760069291600091836107ec575b50507fffffffffffffffffffffffffffffffffffffffffffffffffffffffffffffffff8260011b9260031b1c1916179101555b606087015180610797575b5085602073ffffffffffffffffffffffffffffffffffffffff9560019995610744848761075c9761073e838e9b61212a565b5261212a565b506107548460a08901519261212a565b52015161212a565b525116906040519081528535917f8bf46bf4cfd674fa735a3d63ec1c9ad4153f033c290341f3a588b75685141b3560203393a40192906102b7565b915092506107b391506000526001602052604060002054151590565b156107c25788888b928e61070c565b60046040517fc5723b51000000000000000000000000000000000000000000000000000000008152fd5b0151905038806106ce565b906006840160005260206000209160005b7fffffffffffffffffffffffffffffffffffffffffffffffffffffffffffffffe0851681106108a95750918391600193837fffffffffffffffffffffffffffffffffffffffffffffffffffffffffffffffe06006971610610872575b505050811b01910155610701565b01517fffffffffffffffffffffffffffffffffffffffffffffffffffffffffffffffff60f88460031b161c19169055388080610864565b9497509295509396506020600181928685015181550194019201928f9693928f9693928f9693610808565b9295509295509250600684016000526020600020601f840160051c810160208510610941575b928f9693928f9693928f96935b601f830160051c8201811061091d5750506106b2565b60019396995080929598506000919497505501928f9693928f9693928f9693610907565b50806108fa565b7f4e487b7100000000000000000000000000000000000000000000000000000000600052604160045260246000fd5b60046040517f157bd4c3000000000000000000000000000000000000000000000000000000008152fd5b5060408401511515610321565b60046040517f08e8b937000000000000000000000000000000000000000000000000000000008152fd5b905067ffffffffffffffff421610158a610310565b60046040517fbf37b20e000000000000000000000000000000000000000000000000000000008152fd5b610a359195503d806000833e610a2d8183611fef565b810190612815565b9385610296565b6040513d6000823e3d90fd5b346101715760007ffffffffffffffffffffffffffffffffffffffffffffffffffffffffffffffffc36011261017157602060405173ffffffffffffffffffffffffffffffffffffffff7f0000000000000000000000000000000000000000000000000000000000000000168152f35b346101715760007ffffffffffffffffffffffffffffffffffffffffffffffffffffffffffffffffc360112610171576020610af06145e4565b604051908152f35b346101715760207ffffffffffffffffffffffffffffffffffffffffffffffffffffffffffffffffc3601126101715767ffffffffffffffff60043581811161017157610b48903690600401611df4565b909142169160005b828110610b6257602084604051908152f35b80610b758560019360051b85013561453e565b01610b50565b60e07ffffffffffffffffffffffffffffffffffffffffffffffffffffffffffffffffc36011261017157604051610bb181611f62565b600435808252610bc0366124e9565b602083015260607fffffffffffffffffffffffffffffffffffffffffffffffffffffffffffffff9c36011261017157604051610bfb81611f9a565b60643560ff81168103610171578152608435602082015260a4356040820152604083015260c43573ffffffffffffffffffffffffffffffffffffffff8116810361017157610c5183826060610c7d960152614ac8565b610c5961249a565b610c62366124e9565b610c6b8261211d565b52610c758161211d565b50349261305c565b005b6020807ffffffffffffffffffffffffffffffffffffffffffffffffffffffffffffffffc3601126101715767ffffffffffffffff60043581811161017157610ccc83913690600401611df4565b909234926000915b838310610cdd57005b610ce8838588612406565b946080863603126101715760405195610d0087611f62565b803587528381013583811161017157810194601f9536878201121561017157610d2f903690878135910161252f565b9285890193845260408301358581116101715783019636908801121561017157863594610d5b8661206a565b97610d69604051998a611fef565b868952878901886060809902830101913683116101715789808a9201925b848410610ecb5750509050610da5915060408c01958a875201611dd3565b94868b01958652519788518015918215610ebf575b5050610e955760005b8851811015610e2b57600190610e258c51610dde838d61212a565b51610dea848a5161212a565b5173ffffffffffffffffffffffffffffffffffffffff8b51169160405193610e1185611f62565b84528d84015260408301528a820152614ac8565b01610dc3565b50986001955081935090610e85929a97610e8b9592519073ffffffffffffffffffffffffffffffffffffffff8d7fffffffffffffffffffffffffffffffffffffffffffffffffffffffffffffffff8d0114945116916132d9565b906123ca565b9501919493610cd4565b60046040517f947d5a84000000000000000000000000000000000000000000000000000000008152fd5b51141590508c80610dba565b610ed53685612200565b815201910190898991610d87565b346101715760207ffffffffffffffffffffffffffffffffffffffffffffffffffffffffffffffffc360112610171576020610f2d6004356000526001602052604060002054151590565b6040519015158152f35b7ffffffffffffffffffffffffffffffffffffffffffffffffffffffffffffffffc6020813601126101715760043567ffffffffffffffff81116101715760c0816004019282360301126101715760405190610f9182611f62565b82358252602481019182359167ffffffffffffffff83116101715760a4610ff191610fc5611021956004369184010161213e565b6020850152610fd73660448301612200565b60408501520191610fe783611dd3565b606082015261470b565b611008610ffc612082565b936101de3691876120ea565b6110118461211d565b5261101b8361211d565b5061223e565b9061102a61279f565b5080519061103661279f565b608052611042826127b9565b602060805101526040517fa2ea7c6e0000000000000000000000000000000000000000000000000000000081528435600482015260008160248173ffffffffffffffffffffffffffffffffffffffff7f0000000000000000000000000000000000000000000000000000000000000000165afa8015610a3c57600060c052611712575b5060c05151156109ed5790916110da836128dc565b60a0526110e6836127b9565b60e0526000915b83831061111a576111063460e05160a05160c0516135ca565b6080515260206102da81608051015161211d565b611124838261212a565b519067ffffffffffffffff60208301511680151590816116fd575b506109ae57604060c051015115806116f0575b6109775760608201519467ffffffffffffffff6020840151169573ffffffffffffffffffffffffffffffffffffffff84511660408501511515906080860151926040519961119f8b611fd2565b60008b528b3560208c015267ffffffffffffffff421660408c015260608b0152600060808b015260a08a015260c089015273ffffffffffffffffffffffffffffffffffffffff861660e089015261010088015261012087015260005b602087015160c08801516112c9609d60e08b015160408c01518c60608101519161010082015115159061012060a084015193015193604051988996602088019b8c527fffffffffffffffffffffffffffffffffffffffff000000000000000000000000809260601b16604089015260601b1660548701527fffffffffffffffff000000000000000000000000000000000000000000000000809260c01b16606887015260c01b16607085015260f81b6078840152607983015280516104828160999360208587019101611e60565b519020806000526001602052604060002054156112ef575060010163ffffffff166111fb565b91959294969050818152816000526001602052604060002081518155602082015160018201556113c66002820167ffffffffffffffff6040850151168154907fffffffffffffffffffffffffffffffff000000000000000000000000000000006fffffffffffffffff0000000000000000606088015160401b1692161717815567ffffffffffffffff6080850151167fffffffffffffffff0000000000000000ffffffffffffffffffffffffffffffff77ffffffffffffffff0000000000000000000000000000000083549260801b169116179055565b60a082015160038201556004810173ffffffffffffffffffffffffffffffffffffffff60c0840151167fffffffffffffffffffffffff00000000000000000000000000000000000000008254161790556005810173ffffffffffffffffffffffffffffffffffffffff60e0840151168154907fffffffffffffffffffffff00000000000000000000000000000000000000000074ff0000000000000000000000000000000000000000610100870151151560a01b1692161717905561012082015180519067ffffffffffffffff8211610948576114a660068401546125ec565b601f81116116a9575b50602090601f83116001146115df5760069291600091836115d4575b50507fffffffffffffffffffffffffffffffffffffffffffffffffffffffffffffffff8260011b9260031b1c1916179101555b6060840151806115b2575b5060019373ffffffffffffffffffffffffffffffffffffffff9161152f8560a05161212a565b5261153c8460a05161212a565b5060a081015161154e8560e05161212a565b5282611560856020608051015161212a565b525116906040519081528735917f8bf46bf4cfd674fa735a3d63ec1c9ad4153f033c290341f3a588b75685141b35602073ffffffffffffffffffffffffffffffffffffffff8a1693a4019192906110ed565b6115c9906000526001602052604060002054151590565b156107c25788611509565b015190508c806114cb565b906006840160005260206000209160005b7fffffffffffffffffffffffffffffffffffffffffffffffffffffffffffffffe0851681106116915750918391600193837fffffffffffffffffffffffffffffffffffffffffffffffffffffffffffffffe0600697161061165a575b505050811b019101556114fe565b01517fffffffffffffffffffffffffffffffffffffffffffffffffffffffffffffffff60f88460031b161c191690558c808061164c565b919260206001819286850151815501940192016115f0565b600684016000526020600020601f840160051c8101602085106116e9575b601f830160051c820181106116dd5750506114af565b600081556001016116c7565b50806116c7565b5060408201511515611152565b905067ffffffffffffffff421610158761113f565b611726903d806000833e610a2d8183611fef565b60c052846110c5565b346101715760207ffffffffffffffffffffffffffffffffffffffffffffffffffffffffffffffffc360112610171576004356000526002602052602067ffffffffffffffff60406000205416604051908152f35b346101715760007ffffffffffffffffffffffffffffffffffffffffffffffffffffffffffffffffc3601126101715760206040517ff4d55e0bcbb226b4aaff947cf2f41ec6d6dcaecd1306fbe6f9b8746ad288b48e8152f35b346101715760207ffffffffffffffffffffffffffffffffffffffffffffffffffffffffffffffffc360112610171576118136125a1565b50600435600052600160205261016d61182f604060002061263f565b604051918291602083526020830190611ec6565b60207ffffffffffffffffffffffffffffffffffffffffffffffffffffffffffffffffc3601126101715760043567ffffffffffffffff81116101715761188d903690600401611df4565b906118978261225f565b9160009134906000925b8084106118c15761016d6118b586886144d1565b60405191829182611e25565b909192936118d0858385612406565b6118dd6020820182612306565b9081158015611a51575b610e9557908691600090898760608701968035945b868110611984575050936119549361194e6001999894611946602099957fffffffffffffffffffffffffffffffffffffffffffffffffffffffffffffffff61195d9a01149661223e565b93369161235a565b90612949565b968751906123ca565b9501805161196b888a61212a565b52611976878961212a565b5051510194019291906118a1565b925092939495505061199b8160051b8401846120ea565b906119a96040840184612446565b821015611a225760019273ffffffffffffffffffffffffffffffffffffffff611a1492611a046119d88c61223e565b916119f3604051956119e987611f62565b8c8752369061213e565b602086015236906060880201612200565b604084015216606082015261470b565b01878a959493928c926118fc565b7f4e487b7100000000000000000000000000000000000000000000000000000000600052603260045260246000fd5b50611a5f6040840184612446565b90508214156118e7565b346101715760207ffffffffffffffffffffffffffffffffffffffffffffffffffffffffffffffffc36011261017157602067ffffffffffffffff4216610af08160043561453e565b6020807ffffffffffffffffffffffffffffffffffffffffffffffffffffffffffffffffc3601126101715767ffffffffffffffff9060043582811161017157611afe903690600401611df4565b929091600090345b858310611b0f57005b611b1a8387876122c6565b828101357fffffffffffffffffffffffffffffffffffffffffffffffffffffffffffffffe18236030181121561017157810191823592868411610171578401928060061b360384136101715760019382610e8592611bab95611ba47fffffffffffffffffffffffffffffffffffffffffffffffffffffffffffffffff8e018b14943393369161252f565b90356132d9565b920191611b06565b60607ffffffffffffffffffffffffffffffffffffffffffffffffffffffffffffffffc36011261017157610c7d611be861249a565b611bf1366124e9565b611bfa8261211d565b52611c048161211d565b503490339060043561305c565b6020807ffffffffffffffffffffffffffffffffffffffffffffffffffffffffffffffffc3601126101715760043567ffffffffffffffff811161017157611c5c903690600401611df4565b611c688193929361225f565b92600092346000937fffffffffffffffffffffffffffffffffffffffffffffffffffffffffffffffff8101905b808610611ca95761016d6118b5888a6144d1565b90919293949560019085611ceb6119548a8888611cc7838a8f6122c6565b611ce4611cd688830183612306565b93909514943393369161235a565b9035612949565b95018051611cf98a8c61212a565b52611d04898b61212a565b5051510196019493929190611c95565b346101715760207ffffffffffffffffffffffffffffffffffffffffffffffffffffffffffffffffc3601126101715760043573ffffffffffffffffffffffffffffffffffffffff81168091036101715760005260006020526020604060002054604051908152f35b346101715760007ffffffffffffffffffffffffffffffffffffffffffffffffffffffffffffffffc36011261017157807f6fddd0d8bc416c66f4749c05d7b3e4dc45adc924f7eaaf3ef86c361f481e27c260209252f35b359073ffffffffffffffffffffffffffffffffffffffff8216820361017157565b9181601f840112156101715782359167ffffffffffffffff8311610171576020808501948460051b01011161017157565b6020908160408183019282815285518094520193019160005b828110611e4c575050505090565b835185529381019392810192600101611e3e565b60005b838110611e735750506000910152565b8181015183820152602001611e63565b907fffffffffffffffffffffffffffffffffffffffffffffffffffffffffffffffe0601f602093611ebf81518092818752878088019101611e60565b0116010190565b90611f5f91805182526020810151602083015267ffffffffffffffff806040830151166040840152806060830151166060840152608082015116608083015260a081015160a083015273ffffffffffffffffffffffffffffffffffffffff8060c08301511660c084015260e08201511660e083015261010080820151151590830152610120809101519161014080928201520190611e83565b90565b6080810190811067ffffffffffffffff82111761094857604052565b60c0810190811067ffffffffffffffff82111761094857604052565b6060810190811067ffffffffffffffff82111761094857604052565b6040810190811067ffffffffffffffff82111761094857604052565b610140810190811067ffffffffffffffff82111761094857604052565b90601f7fffffffffffffffffffffffffffffffffffffffffffffffffffffffffffffffe0910116810190811067ffffffffffffffff82111761094857604052565b67ffffffffffffffff811161094857601f017fffffffffffffffffffffffffffffffffffffffffffffffffffffffffffffffe01660200190565b67ffffffffffffffff81116109485760051b60200190565b60409081519161209183611fb6565b60018352829160005b6020808210156120e2578351602092916120b382611f7e565b6000825260008183015260008683015260606000818401526080830152600060a083015282880101520161209a565b505091925050565b9035907fffffffffffffffffffffffffffffffffffffffffffffffffffffffffffffff4181360301821215610171570190565b805115611a225760200190565b8051821015611a225760209160051b010190565b91909160c081840312610171576040519061215882611f7e565b819361216382611dd3565b835260209167ffffffffffffffff8184013581811681036101715784860152604082013580151581036101715760408601526060820135606086015260808201359081116101715781019180601f84011215610171578235926121c584612030565b916121d36040519384611fef565b84835285858301011161017157848460a09695879660009401838601378301015260808501520135910152565b91908260609103126101715760405161221881611f9a565b8092803560ff811681036101715760409182918452602081013560208501520135910152565b3573ffffffffffffffffffffffffffffffffffffffff811681036101715790565b906122698261206a565b6122766040519182611fef565b8281527fffffffffffffffffffffffffffffffffffffffffffffffffffffffffffffffe06122a4829461206a565b019060005b8281106122b557505050565b8060606020809385010152016122a9565b9190811015611a225760051b810135907fffffffffffffffffffffffffffffffffffffffffffffffffffffffffffffffc181360301821215610171570190565b9035907fffffffffffffffffffffffffffffffffffffffffffffffffffffffffffffffe181360301821215610171570180359067ffffffffffffffff821161017157602001918160051b3603831361017157565b929190926123678461206a565b916123756040519384611fef565b829480845260208094019060051b8301928284116101715780915b84831061239f57505050505050565b823567ffffffffffffffff81116101715786916123bf868493860161213e565b815201920191612390565b919082039182116123d757565b7f4e487b7100000000000000000000000000000000000000000000000000000000600052601160045260246000fd5b9190811015611a225760051b810135907fffffffffffffffffffffffffffffffffffffffffffffffffffffffffffffff8181360301821215610171570190565b9035907fffffffffffffffffffffffffffffffffffffffffffffffffffffffffffffffe181360301821215610171570180359067ffffffffffffffff82116101715760200191606082023603831361017157565b6040908151916124a983611fb6565b600183528291600091825b6020808210156124e0578251602092916124cd82611fb6565b86825286818301528289010152016124b4565b50505091925050565b7fffffffffffffffffffffffffffffffffffffffffffffffffffffffffffffffdc6040910112610171576040519061252082611fb6565b60243582526044356020830152565b92919261253b8261206a565b60409261254a84519283611fef565b819581835260208093019160061b84019381851161017157915b84831061257357505050505050565b858383031261017157838691825161258a81611fb6565b853581528286013583820152815201920191612564565b604051906125ae82611fd2565b606061012083600080825280602083015280604083015280848301528060808301528060a08301528060c08301528060e08301526101008201520152565b90600182811c92168015612635575b602083101461260657565b7f4e487b7100000000000000000000000000000000000000000000000000000000600052602260045260246000fd5b91607f16916125fb565b906040519161264d83611fd2565b828154815260016006818401549360209485850152600281015467ffffffffffffffff908181166040870152818160401c16606087015260801c166080850152600381015460a085015260ff73ffffffffffffffffffffffffffffffffffffffff8060048401541660c0870152600583015490811660e087015260a01c16151561010085015201906040519384926000928154916126ea836125ec565b8087529282811690811561275f5750600114612719575b505050506101209291612715910384611fef565b0152565b60009081528381209695945091905b8183106127475750939450919250908201018161271561012038612701565b86548884018501529586019587945091830191612728565b7fffffffffffffffffffffffffffffffffffffffffffffffffffffffffffffff001685880152505050151560051b83010190508161271561012038612701565b604051906127ac82611fb6565b6060602083600081520152565b906127c38261206a565b6127d06040519182611fef565b8281527fffffffffffffffffffffffffffffffffffffffffffffffffffffffffffffffe06127fe829461206a565b0190602036910137565b5190811515820361017157565b906020808383031261017157825167ffffffffffffffff93848211610171570192608084840312610171576040519361284d85611f62565b805185528281015173ffffffffffffffffffffffffffffffffffffffff81168103610171578386015261288260408201612808565b60408601526060810151918211610171570182601f82011215610171578051906128ab82612030565b936128b96040519586611fef565b82855283838301011161017157826128d49385019101611e60565b606082015290565b906128e68261206a565b6128f36040519182611fef565b8281527fffffffffffffffffffffffffffffffffffffffffffffffffffffffffffffffe0612921829461206a565b019060005b82811061293257505050565b60209061293d6125a1565b82828501015201612926565b929094939161295661279f565b5085519361296261279f565b9461296c816127b9565b6020870152604051907fa2ea7c6e00000000000000000000000000000000000000000000000000000000825282600483015260008260248173ffffffffffffffffffffffffffffffffffffffff7f0000000000000000000000000000000000000000000000000000000000000000165afa918215610a3c5760009261303f575b508151156109ed5792979091612a01846128dc565b98612a0b856127b9565b946000935b818510612a2d57505050505095612a28949596613831565b815290565b91959398949699909297612a418a8461212a565b519a67ffffffffffffffff60208d015116801515908161302a575b506109ae576040890151158061301d575b61097757899860608d01518d602081015167ffffffffffffffff1691815173ffffffffffffffffffffffffffffffffffffffff1690604083015115159260800151936040519e8f90612abe82611fd2565b6000825260208201524267ffffffffffffffff166040820152606001528d608081016000905260a0015260c08d015273ffffffffffffffffffffffffffffffffffffffff8b1660e08d01526101008c01526101208b015260005b60208b01518b612be9609d60c08301519260e08101519060408101519060608101519161010082015115159061012060a084015193015193604051988996602088019b8c527fffffffffffffffffffffffffffffffffffffffff000000000000000000000000809260601b16604089015260601b1660548701527fffffffffffffffff000000000000000000000000000000000000000000000000809260c01b16606887015260c01b16607085015260f81b6078840152607983015280516104828160999360208587019101611e60565b51902080600052600160205260406000205415612c0f575060010163ffffffff16612b18565b90509d979b9199929a949d9c909698939c8084528060005260016020526040600020918451835560208501516001840155612cf16002840167ffffffffffffffff6040880151168154907fffffffffffffffffffffffffffffffff000000000000000000000000000000006fffffffffffffffff000000000000000060608b015160401b1692161717815567ffffffffffffffff6080880151167fffffffffffffffff0000000000000000ffffffffffffffffffffffffffffffff77ffffffffffffffff0000000000000000000000000000000083549260801b169116179055565b60a085015160038401556004830173ffffffffffffffffffffffffffffffffffffffff60c0870151167fffffffffffffffffffffffff00000000000000000000000000000000000000008254161790556005830173ffffffffffffffffffffffffffffffffffffffff60e0870151168154907fffffffffffffffffffffff00000000000000000000000000000000000000000074ff00000000000000000000000000000000000000006101008a0151151560a01b1692161717905561012085015192835167ffffffffffffffff8111610948578894612dd360068401546125ec565b601f8111612fc2575b50602090601f8311600114612ef5576006929160009183612eea575b50507fffffffffffffffffffffffffffffffffffffffffffffffffffffffffffffffff8260011b9260031b1c1916179101555b8d8b8b606084015180612ebd575b5086602073ffffffffffffffffffffffffffffffffffffffff95948794610744848660019e61073e83612e6b9a61212a565b5251166040519182527f8bf46bf4cfd674fa735a3d63ec1c9ad4153f033c290341f3a588b75685141b35602073ffffffffffffffffffffffffffffffffffffffff881693a4019290919293949a612a10565b92505050612eda9193506000526001602052604060002054151590565b156107c25785918d8b8b38612e39565b015190503880612df8565b906006840160005260206000209160005b7fffffffffffffffffffffffffffffffffffffffffffffffffffffffffffffffe085168110612fa75750918391600193837fffffffffffffffffffffffffffffffffffffffffffffffffffffffffffffffe06006971610612f70575b505050811b01910155612e2b565b01517fffffffffffffffffffffffffffffffffffffffffffffffffffffffffffffffff60f88460031b161c19169055388080612f62565b8183015184558c985060019093019260209283019201612f06565b90919293949550600684016000526020600020601f840160051c810160208510613016575b908b979695949392915b601f830160051c82018110613007575050612ddc565b600081558c9850600101612ff1565b5080612fe7565b5060408c01511515612a6d565b905067ffffffffffffffff4216101538612a5c565b6130559192503d806000833e610a2d8183611fef565b90386129ec565b939291936040517fa2ea7c6e00000000000000000000000000000000000000000000000000000000815281600482015260008160248173ffffffffffffffffffffffffffffffffffffffff7f0000000000000000000000000000000000000000000000000000000000000000165afa908115610a3c576000916132be575b508051156109ed5782516130ed816128dc565b926130f7826127b9565b9460005b8381106131115750505050611f5f949550613a12565b61311b818361212a565b5190815160005260016020526040600020918254156107c257846001840154036109ed57600583015473ffffffffffffffffffffffffffffffffffffffff8d1673ffffffffffffffffffffffffffffffffffffffff8216036132945760a01c60ff16156109775767ffffffffffffffff600284015460801c1661326a576002830180547fffffffffffffffff0000000000000000ffffffffffffffffffffffffffffffff164260801b77ffffffffffffffff00000000000000000000000000000000161790556001928c916131ef8261263f565b6131f9858c61212a565b52613204848b61212a565b506020810151613214858d61212a565b527ff930a6e2523c9cc298691873087a740550b8fc85a0680830414c148ed927f615602073ffffffffffffffffffffffffffffffffffffffff87816004870154169451950154956040519586521693a4016130fb565b60046040517f905e7107000000000000000000000000000000000000000000000000000000008152fd5b60046040517f4ca88867000000000000000000000000000000000000000000000000000000008152fd5b6132d391503d806000833e610a2d8183611fef565b386130da565b90949392916040517fa2ea7c6e00000000000000000000000000000000000000000000000000000000815282600482015260008160248173ffffffffffffffffffffffffffffffffffffffff7f0000000000000000000000000000000000000000000000000000000000000000165afa908115610a3c576000916134fb575b508051156109ed57865161336b816128dc565b92613375826127b9565b9460005b83811061338f5750505050611f5f959650613c11565b613399818c61212a565b5190815160005260016020526040600020918254156107c257836001840154036109ed57600583015473ffffffffffffffffffffffffffffffffffffffff861673ffffffffffffffffffffffffffffffffffffffff8216036132945760a01c60ff16156109775767ffffffffffffffff600284015460801c1661326a576002830180547fffffffffffffffff0000000000000000ffffffffffffffffffffffffffffffff164260801b77ffffffffffffffff000000000000000000000000000000001617905560019261346b8161263f565b613475848b61212a565b52613480838a61212a565b506020820151613490848c61212a565b528373ffffffffffffffffffffffffffffffffffffffff6004830154169251910154916040519182527ff930a6e2523c9cc298691873087a740550b8fc85a0680830414c148ed927f615602073ffffffffffffffffffffffffffffffffffffffff891693a401613379565b61351091503d806000833e610a2d8183611fef565b38613358565b60408101906040815282518092526060810160608360051b830101926020809501916000905b82821061357f57505050508281830391015281808451928381520193019160005b82811061356b575050505090565b83518552938101939281019260010161355d565b909192959485806135ba837fffffffffffffffffffffffffffffffffffffffffffffffffffffffffffffffa089600196030186528a51611ec6565b979801949391909101910161353c565b9092918351936001908186146138105773ffffffffffffffffffffffffffffffffffffffff602080950151169182156137e0579560009687915b8083106136d2575050509183929161364d9492876040518097819582947f91db0b7e00000000000000000000000000000000000000000000000000000000845260048401613516565b03925af1908115610a3c5760009161369b575b5090501561367157611f5f906143a2565b60046040517fe8bee839000000000000000000000000000000000000000000000000000000008152fd5b82813d83116136cb575b6136af8183611fef565b810103126136c857506136c190612808565b8038613660565b80fd5b503d6136a5565b909197966136e0898761212a565b518015158061375a575b6137305781811161370657808492039801980190919091613604565b60046040517f11011294000000000000000000000000000000000000000000000000000000008152fd5b60046040517f1574f9f3000000000000000000000000000000000000000000000000000000008152fd5b50604080517fce46e04600000000000000000000000000000000000000000000000000000000815289816004818b5afa9182156137d657506000916137a1575b50156136ea565b908982813d83116137cf575b6137b78183611fef565b810103126136c857506137c990612808565b3861379a565b503d6137ad565b513d6000823e3d90fd5b9594505050905060005b8281106137fa5750505050600090565b613804818361212a565b516137305783016137ea565b611f5f955061382a91506138239061211d565b519161211d565b5191613de9565b9093918451946001908187146139f55773ffffffffffffffffffffffffffffffffffffffff602080950151169182156139c4579660009788915b80831061391457505050918392916138b49492886040518097819582947f91db0b7e00000000000000000000000000000000000000000000000000000000845260048401613516565b03925af1908115610a3c576000916138e0575b50905015613671576138d7575090565b611f5f906143a2565b82813d831161390d575b6138f48183611fef565b810103126136c8575061390690612808565b80386138c7565b503d6138ea565b909198976139228a8761212a565b5180151580613948575b613730578181116137065780849203990199019091909161386b565b50604080517fce46e04600000000000000000000000000000000000000000000000000000000815289816004818b5afa9182156137d6575060009161398f575b501561392c565b908982813d83116139bd575b6139a58183611fef565b810103126136c857506139b790612808565b38613988565b503d61399b565b969550505091505060005b8281106139df5750505050600090565b6139e9818361212a565b516137305783016139cf565b611f5f9650613a0b91506138239095949561211d565b5191613f70565b909291835193600190818614613bf75773ffffffffffffffffffffffffffffffffffffffff60208095015116918215613bc7579560009687915b808310613b175750505091839291613a959492876040518097819582947f88e5b2d900000000000000000000000000000000000000000000000000000000845260048401613516565b03925af1908115610a3c57600091613ae3575b50905015613ab957611f5f906143a2565b60046040517fbf2f3a8b000000000000000000000000000000000000000000000000000000008152fd5b82813d8311613b10575b613af78183611fef565b810103126136c85750613b0990612808565b8038613aa8565b503d613aed565b90919796613b25898761212a565b5180151580613b4b575b6137305781811161370657808492039801980190919091613a4c565b50604080517fce46e04600000000000000000000000000000000000000000000000000000000815289816004818b5afa9182156137d65750600091613b92575b5015613b2f565b908982813d8311613bc0575b613ba88183611fef565b810103126136c85750613bba90612808565b38613b8b565b503d613b9e565b9594505050905060005b828110613be15750505050600090565b613beb818361212a565b51613730578301613bd1565b611f5f9550613c0a91506138239061211d565b51916140d8565b909391845194600190818714613dcc5773ffffffffffffffffffffffffffffffffffffffff60208095015116918215613d9b579660009788915b808310613ceb5750505091839291613c949492886040518097819582947f88e5b2d900000000000000000000000000000000000000000000000000000000845260048401613516565b03925af1908115610a3c57600091613cb7575b50905015613ab9576138d7575090565b82813d8311613ce4575b613ccb8183611fef565b810103126136c85750613cdd90612808565b8038613ca7565b503d613cc1565b90919897613cf98a8761212a565b5180151580613d1f575b6137305781811161370657808492039901990190919091613c4b565b50604080517fce46e04600000000000000000000000000000000000000000000000000000000815289816004818b5afa9182156137d65750600091613d66575b5015613d03565b908982813d8311613d94575b613d7c8183611fef565b810103126136c85750613d8e90612808565b38613d5f565b503d613d72565b969550505091505060005b828110613db65750505050600090565b613dc0818361212a565b51613730578301613da6565b611f5f9650613de291506138239095949561211d565b5191614252565b92919273ffffffffffffffffffffffffffffffffffffffff602080920151168015613f635784151580613ee9575b6137305783851161370657613e65829186946040519586809481937fe60c35050000000000000000000000000000000000000000000000000000000083528760048401526024830190611ec6565b03925af1908115610a3c57600091613eb5575b50905015613e8b5781611f5f91036143a2565b60046040517fbd8ba84d000000000000000000000000000000000000000000000000000000008152fd5b82813d8311613ee2575b613ec98183611fef565b810103126136c85750613edb90612808565b8038613e78565b503d613ebf565b506040517fce46e0460000000000000000000000000000000000000000000000000000000081528281600481855afa908115610a3c57600091613f2e575b5015613e17565b908382813d8311613f5c575b613f448183611fef565b810103126136c85750613f5690612808565b38613f27565b503d613f3a565b5050505061373057600090565b93919373ffffffffffffffffffffffffffffffffffffffff6020809201511680156140ca5785151580614050575b6137305784861161370657613fec829187946040519586809481937fe60c35050000000000000000000000000000000000000000000000000000000083528760048401526024830190611ec6565b03925af1908115610a3c5760009161401c575b50905015613e8b57829061401257505090565b611f5f91036143a2565b82813d8311614049575b6140308183611fef565b810103126136c8575061404290612808565b8038613fff565b503d614026565b506040517fce46e0460000000000000000000000000000000000000000000000000000000081528281600481855afa908115610a3c57600091614095575b5015613f9e565b908382813d83116140c3575b6140ab8183611fef565b810103126136c857506140bd90612808565b3861408e565b503d6140a1565b505050505061373057600090565b92919273ffffffffffffffffffffffffffffffffffffffff602080920151168015613f6357841515806141d8575b6137305783851161370657614154829186946040519586809481937fe49617e10000000000000000000000000000000000000000000000000000000083528760048401526024830190611ec6565b03925af1908115610a3c576000916141a4575b5090501561417a5781611f5f91036143a2565b60046040517fccf3bb27000000000000000000000000000000000000000000000000000000008152fd5b82813d83116141d1575b6141b88183611fef565b810103126136c857506141ca90612808565b8038614167565b503d6141ae565b506040517fce46e0460000000000000000000000000000000000000000000000000000000081528281600481855afa908115610a3c5760009161421d575b5015614106565b908382813d831161424b575b6142338183611fef565b810103126136c8575061424590612808565b38614216565b503d614229565b93919373ffffffffffffffffffffffffffffffffffffffff6020809201511680156140ca5785151580614328575b61373057848611613706576142ce829187946040519586809481937fe49617e10000000000000000000000000000000000000000000000000000000083528760048401526024830190611ec6565b03925af1908115610a3c576000916142f4575b5090501561417a57829061401257505090565b82813d8311614321575b6143088183611fef565b810103126136c8575061431a90612808565b80386142e1565b503d6142fe565b506040517fce46e0460000000000000000000000000000000000000000000000000000000081528281600481855afa908115610a3c5760009161436d575b5015614280565b908382813d831161439b575b6143838183611fef565b810103126136c8575061439590612808565b38614366565b503d614379565b806143aa5750565b80471061447357600080808093335af13d1561446e573d6143ca81612030565b906143d86040519283611fef565b8152600060203d92013e5b156143ea57565b60846040517f08c379a000000000000000000000000000000000000000000000000000000000815260206004820152603a60248201527f416464726573733a20756e61626c6520746f2073656e642076616c75652c207260448201527f6563697069656e74206d617920686176652072657665727465640000000000006064820152fd5b6143e3565b60646040517f08c379a000000000000000000000000000000000000000000000000000000000815260206004820152601d60248201527f416464726573733a20696e73756666696369656e742062616c616e63650000006044820152fd5b906144db906127b9565b60009283925b805184101561453657936144f5848661212a565b519160005b83518110156145255761450d818561212a565b51614518848761212a565b52600192830192016144fa565b5090946001909401939091506144e1565b509250905090565b6000818152600260205267ffffffffffffffff90816040822054166145ba577f5aafceeb1c7ad58e4a84898bdee37c02c0fc46e7d24e6b60e8209449f183459f91838252600260205260408220941693847fffffffffffffffffffffffffffffffffffffffffffffffff000000000000000082541617905580a3565b60046040517f2e267946000000000000000000000000000000000000000000000000000000008152fd5b73ffffffffffffffffffffffffffffffffffffffff7f0000000000000000000000000000000000000000000000000000000000000000163014806146e2575b1561464c577f000000000000000000000000000000000000000000000000000000000000000090565b60405160208101907f000000000000000000000000000000000000000000000000000000000000000082527f000000000000000000000000000000000000000000000000000000000000000060408201527f000000000000000000000000000000000000000000000000000000000000000060608201524660808201523060a082015260a081526146dc81611f7e565b51902090565b507f00000000000000000000000000000000000000000000000000000000000000004614614623565b6020908181015190604080938183015192606081019173ffffffffffffffffffffffffffffffffffffffff948584511660005260008252846000209283549360018501905551928688511667ffffffffffffffff988985820151168882015115159060806060840151930151878151910120938a5198888a019b7f6fddd0d8bc416c66f4749c05d7b3e4dc45adc924f7eaaf3ef86c361f481e27c28d528a01526060890152608088015260a087015260c086015260e08501526101009081850152835261012083019683881090881117610948576147f6869561480a94614812998b52519020614a7c565b918860ff83511691830151920151926149e0565b949094614847565b511691160361481e5750565b600490517f8baa579f000000000000000000000000000000000000000000000000000000008152fd5b60058110156149b157806148585750565b600181036148be5760646040517f08c379a000000000000000000000000000000000000000000000000000000000815260206004820152601860248201527f45434453413a20696e76616c6964207369676e617475726500000000000000006044820152fd5b600281036149245760646040517f08c379a000000000000000000000000000000000000000000000000000000000815260206004820152601f60248201527f45434453413a20696e76616c6964207369676e6174757265206c656e677468006044820152fd5b60031461492d57565b60846040517f08c379a000000000000000000000000000000000000000000000000000000000815260206004820152602260248201527f45434453413a20696e76616c6964207369676e6174757265202773272076616c60448201527f75650000000000000000000000000000000000000000000000000000000000006064820152fd5b7f4e487b7100000000000000000000000000000000000000000000000000000000600052602160045260246000fd5b9291907f7fffffffffffffffffffffffffffffff5d576e7357a4501ddfe92f46681b20a08311614a705791608094939160ff602094604051948552168484015260408301526060820152600093849182805260015afa15614a6357815173ffffffffffffffffffffffffffffffffffffffff811615614a5d579190565b50600190565b50604051903d90823e3d90fd5b50505050600090600390565b614a846145e4565b906040519060208201927f1901000000000000000000000000000000000000000000000000000000000000845260228301526042820152604281526146dc81611f62565b602081015160409182810151916060820173ffffffffffffffffffffffffffffffffffffffff9283825116600052600060205285600020908154916001830190555192519086519160208301947ff4d55e0bcbb226b4aaff947cf2f41ec6d6dcaecd1306fbe6f9b8746ad288b48e865288840152606083015260808201526080815260a081019481861067ffffffffffffffff87111761094857614b79859461480a93614812988a52519020614a7c565b9060ff815116886020830151920151926149e056fea164736f6c6343000812000a",
  "devdoc": {
    "events": {
      "Attested(address,address,bytes32,bytes32)": {
        "details": "Emitted when an attestation has been made.",
        "params": {
          "attester": "The attesting account.",
          "recipient": "The recipient of the attestation.",
          "schema": "The UUID of the schema.",
          "uuid": "The UUID the revoked attestation."
        }
      },
      "Revoked(address,address,bytes32,bytes32)": {
        "details": "Emitted when an attestation has been revoked.",
        "params": {
          "attester": "The attesting account.",
          "recipient": "The recipient of the attestation.",
          "schema": "The UUID of the schema.",
          "uuid": "The UUID the revoked attestation."
        }
      },
      "Timestamped(bytes32,uint64)": {
        "details": "Emitted when a data has been timestamped.",
        "params": {
          "data": "The data.",
          "timestamp": "The timestamp."
        }
      }
    },
    "kind": "dev",
    "methods": {
      "attest((bytes32,(address,uint64,bool,bytes32,bytes,uint256)))": {
        "details": "Attests to a specific schema.",
        "params": {
          "request": "The arguments of the attestation request. Example: attest({     schema: \"0facc36681cbe2456019c1b0d1e7bedd6d1d40f6f324bf3dd3a4cef2999200a0\",     data: {         recipient: \"0xdEADBeAFdeAdbEafdeadbeafDeAdbEAFdeadbeaf\",         expirationTime: 0,         revocable: true,         refUUID: \"0x0000000000000000000000000000000000000000000000000000000000000000\",         data: \"0xF00D\",         value: 0     } })"
        },
        "returns": {
          "_0": "The UUID of the new attestation."
        }
      },
      "attestByDelegation((bytes32,(address,uint64,bool,bytes32,bytes,uint256),(uint8,bytes32,bytes32),address))": {
        "details": "Attests to a specific schema via the provided EIP712 signature.",
        "params": {
          "delegatedRequest": "The arguments of the delegated attestation request. Example: attestByDelegation({     schema: '0x8e72f5bc0a8d4be6aa98360baa889040c50a0e51f32dbf0baa5199bd93472ebc',     data: {         recipient: '0xf39Fd6e51aad88F6F4ce6aB8827279cffFb92266',         expirationTime: 1673891048,         revocable: true,         refUUID: '0x0000000000000000000000000000000000000000000000000000000000000000',         data: '0x1234',         value: 0     },     signature: {         v: 28,         r: '0x148c...b25b',         s: '0x5a72...be22'     },     attester: '0xc5E8740aD971409492b1A63Db8d83025e0Fc427e' })"
        },
        "returns": {
          "_0": "The UUID of the new attestation."
        }
      },
      "constructor": {
        "details": "Creates a new EAS instance.",
        "params": {
          "registry": "The address of the global schema registry."
        }
      },
      "getAttestation(bytes32)": {
        "details": "Returns an existing attestation by UUID.",
        "params": {
          "uuid": "The UUID of the attestation to retrieve."
        },
        "returns": {
          "_0": "The attestation data members."
        }
      },
      "getDomainSeparator()": {
        "details": "Returns the domain separator used in the encoding of the signatures for attest, and revoke."
      },
      "getNonce(address)": {
        "details": "Returns the current nonce per-account.",
        "params": {
          "account": "The requested account."
        },
        "returns": {
          "_0": "The current nonce."
        }
      },
      "getSchemaRegistry()": {
        "details": "Returns the address of the global schema registry.",
        "returns": {
          "_0": "The address of the global schema registry."
        }
      },
      "getTimestamp(bytes32)": {
        "details": "Returns the timestamp that the specified data was timestamped with.",
        "params": {
          "data": "The data to query."
        },
        "returns": {
          "_0": "The timestamp the data was timestamped with."
        }
      },
      "isAttestationValid(bytes32)": {
        "details": "Checks whether an attestation exists.",
        "params": {
          "uuid": "The UUID of the attestation to retrieve."
        },
        "returns": {
          "_0": "Whether an attestation exists."
        }
      },
      "multiAttest((bytes32,(address,uint64,bool,bytes32,bytes,uint256)[])[])": {
        "details": "Attests to multiple schemas.",
        "params": {
          "multiRequests": "The arguments of the multi attestation requests. The requests should be grouped by distinct schema ids to benefit from the best batching optimization. Example: multiAttest([{     schema: '0x33e9094830a5cba5554d1954310e4fbed2ef5f859ec1404619adea4207f391fd',     data: [{         recipient: '0xdEADBeAFdeAdbEafdeadbeafDeAdbEAFdeadbeaf',         expirationTime: 1673891048,         revocable: true,         refUUID: '0x0000000000000000000000000000000000000000000000000000000000000000',         data: '0x1234',         value: 1000     },     {         recipient: '0xf39Fd6e51aad88F6F4ce6aB8827279cffFb92266',         expirationTime: 0,         revocable: false,         refUUID: '0x480df4a039efc31b11bfdf491b383ca138b6bde160988222a2a3509c02cee174',         data: '0x00',         value: 0     }], }, {     schema: '0x5ac273ce41e3c8bfa383efe7c03e54c5f0bff29c9f11ef6ffa930fc84ca32425',     data: [{         recipient: '0xdEADBeAFdeAdbEafdeadbeafDeAdbEAFdeadbeaf',         expirationTime: 0,         revocable: true,         refUUID: '0x75bf2ed8dca25a8190c50c52db136664de25b2449535839008ccfdab469b214f',         data: '0x12345678',         value: 0     }, }])"
        },
        "returns": {
          "_0": "The UUIDs of the new attestations."
        }
      },
      "multiAttestByDelegation((bytes32,(address,uint64,bool,bytes32,bytes,uint256)[],(uint8,bytes32,bytes32)[],address)[])": {
        "details": "Attests to multiple schemas using via provided EIP712 signatures.",
        "params": {
          "multiDelegatedRequests": "The arguments of the delegated multi attestation requests. The requests should be grouped by distinct schema ids to benefit from the best batching optimization. Example: multiAttestByDelegation([{     schema: '0x8e72f5bc0a8d4be6aa98360baa889040c50a0e51f32dbf0baa5199bd93472ebc',     data: [{         recipient: '0xf39Fd6e51aad88F6F4ce6aB8827279cffFb92266',         expirationTime: 1673891048,         revocable: true,         refUUID: '0x0000000000000000000000000000000000000000000000000000000000000000',         data: '0x1234',         value: 0     },     {         recipient: '0xdEADBeAFdeAdbEafdeadbeafDeAdbEAFdeadbeaf',         expirationTime: 0,         revocable: false,         refUUID: '0x0000000000000000000000000000000000000000000000000000000000000000',         data: '0x00',         value: 0     }],     signatures: [{         v: 28,         r: '0x148c...b25b',         s: '0x5a72...be22'     },     {         v: 28,         r: '0x487s...67bb',         s: '0x12ad...2366'     }],     attester: '0x1D86495b2A7B524D747d2839b3C645Bed32e8CF4' }])"
        },
        "returns": {
          "_0": "The UUIDs of the new attestations."
        }
      },
      "multiRevoke((bytes32,(bytes32,uint256)[])[])": {
        "details": "Revokes existing attestations to multiple schemas.",
        "params": {
          "multiRequests": "The arguments of the multi revocation requests. The requests should be grouped by distinct schema ids to benefit from the best batching optimization. Example: multiRevoke([{     schema: '0x8e72f5bc0a8d4be6aa98360baa889040c50a0e51f32dbf0baa5199bd93472ebc',     data: [{         uuid: '0x211296a1ca0d7f9f2cfebf0daaa575bea9b20e968d81aef4e743d699c6ac4b25',         value: 1000     },     {         uuid: '0xe160ac1bd3606a287b4d53d5d1d6da5895f65b4b4bab6d93aaf5046e48167ade',         value: 0     }], }, {     schema: '0x5ac273ce41e3c8bfa383efe7c03e54c5f0bff29c9f11ef6ffa930fc84ca32425',     data: [{         uuid: '0x053d42abce1fd7c8fcddfae21845ad34dae287b2c326220b03ba241bc5a8f019',         value: 0     }, }])"
        }
      },
      "multiRevokeByDelegation((bytes32,(bytes32,uint256)[],(uint8,bytes32,bytes32)[],address)[])": {
        "details": "Revokes existing attestations to multiple schemas via provided EIP712 signatures.",
        "params": {
          "multiDelegatedRequests": "The arguments of the delegated multi revocation attestation requests. The requests should be grouped by distinct schema ids to benefit from the best batching optimization. Example: multiRevokeByDelegation([{     schema: '0x8e72f5bc0a8d4be6aa98360baa889040c50a0e51f32dbf0baa5199bd93472ebc',     data: [{         uuid: '0x211296a1ca0d7f9f2cfebf0daaa575bea9b20e968d81aef4e743d699c6ac4b25',         value: 1000     },     {         uuid: '0xe160ac1bd3606a287b4d53d5d1d6da5895f65b4b4bab6d93aaf5046e48167ade',         value: 0     }],     signatures: [{         v: 28,         r: '0x148c...b25b',         s: '0x5a72...be22'     },     {         v: 28,         r: '0x487s...67bb',         s: '0x12ad...2366'     }],     revoker: '0x244934dd3e31bE2c81f84ECf0b3E6329F5381992' }])"
        }
      },
      "multiTimestamp(bytes32[])": {
        "details": "Timestamps the specified multiple bytes32 data.",
        "params": {
          "data": "The data to timestamp."
        },
        "returns": {
          "_0": "The timestamp the data was timestamped with."
        }
      },
      "revoke((bytes32,(bytes32,uint256)))": {
        "details": "Revokes an existing attestation to a specific schema. Example: revoke({     schema: '0x8e72f5bc0a8d4be6aa98360baa889040c50a0e51f32dbf0baa5199bd93472ebc',     data: {         uuid: '0x101032e487642ee04ee17049f99a70590c735b8614079fc9275f9dd57c00966d',         value: 0     } })",
        "params": {
          "request": "The arguments of the revocation request."
        }
      },
      "revokeByDelegation((bytes32,(bytes32,uint256),(uint8,bytes32,bytes32),address))": {
        "details": "Revokes an existing attestation to a specific schema via the provided EIP712 signature. Example: revokeByDelegation({     schema: '0x8e72f5bc0a8d4be6aa98360baa889040c50a0e51f32dbf0baa5199bd93472ebc',     data: {         uuid: '0xcbbc12102578c642a0f7b34fe7111e41afa25683b6cd7b5a14caf90fa14d24ba',         value: 0     },     signature: {         v: 27,         r: '0xb593...7142',         s: '0x0f5b...2cce'     },     revoker: '0x244934dd3e31bE2c81f84ECf0b3E6329F5381992' })",
        "params": {
          "delegatedRequest": "The arguments of the delegated revocation request."
        }
      },
      "timestamp(bytes32)": {
        "details": "Timestamps the specified bytes32 data.",
        "params": {
          "data": "The data to timestamp."
        },
        "returns": {
          "_0": "The timestamp the data was timestamped with."
        }
      }
    },
    "title": "EAS - Ethereum Attestation Service",
    "version": 1
  },
  "userdoc": {
    "kind": "user",
    "methods": {
      "getAttestTypeHash()": {
        "notice": "Returns the EIP712 type hash for the attest function."
      },
      "getRevokeTypeHash()": {
        "notice": "Returns the EIP712 type hash for the revoke function."
      }
    },
    "version": 1
  },
  "storageLayout": {
    "storage": [
      {
        "astId": 4686,
        "contract": "contracts/EAS.sol:EAS",
        "label": "_nonces",
        "offset": 0,
        "slot": "0",
        "type": "t_mapping(t_address,t_uint256)"
      },
      {
        "astId": 3004,
        "contract": "contracts/EAS.sol:EAS",
        "label": "_db",
        "offset": 0,
        "slot": "1",
        "type": "t_mapping(t_bytes32,t_struct(Attestation)4908_storage)"
      },
      {
        "astId": 3008,
        "contract": "contracts/EAS.sol:EAS",
        "label": "_timestamps",
        "offset": 0,
        "slot": "2",
        "type": "t_mapping(t_bytes32,t_uint64)"
      }
    ],
    "types": {
      "t_address": {
        "encoding": "inplace",
        "label": "address",
        "numberOfBytes": "20"
      },
      "t_bool": {
        "encoding": "inplace",
        "label": "bool",
        "numberOfBytes": "1"
      },
      "t_bytes32": {
        "encoding": "inplace",
        "label": "bytes32",
        "numberOfBytes": "32"
      },
      "t_bytes_storage": {
        "encoding": "bytes",
        "label": "bytes",
        "numberOfBytes": "32"
      },
      "t_mapping(t_address,t_uint256)": {
        "encoding": "mapping",
        "key": "t_address",
        "label": "mapping(address => uint256)",
        "numberOfBytes": "32",
        "value": "t_uint256"
      },
      "t_mapping(t_bytes32,t_struct(Attestation)4908_storage)": {
        "encoding": "mapping",
        "key": "t_bytes32",
        "label": "mapping(bytes32 => struct Attestation)",
        "numberOfBytes": "32",
        "value": "t_struct(Attestation)4908_storage"
      },
      "t_mapping(t_bytes32,t_uint64)": {
        "encoding": "mapping",
        "key": "t_bytes32",
        "label": "mapping(bytes32 => uint64)",
        "numberOfBytes": "32",
        "value": "t_uint64"
      },
      "t_struct(Attestation)4908_storage": {
        "encoding": "inplace",
        "label": "struct Attestation",
        "members": [
          {
            "astId": 4889,
            "contract": "contracts/EAS.sol:EAS",
            "label": "uuid",
            "offset": 0,
            "slot": "0",
            "type": "t_bytes32"
          },
          {
            "astId": 4891,
            "contract": "contracts/EAS.sol:EAS",
            "label": "schema",
            "offset": 0,
            "slot": "1",
            "type": "t_bytes32"
          },
          {
            "astId": 4893,
            "contract": "contracts/EAS.sol:EAS",
            "label": "time",
            "offset": 0,
            "slot": "2",
            "type": "t_uint64"
          },
          {
            "astId": 4895,
            "contract": "contracts/EAS.sol:EAS",
            "label": "expirationTime",
            "offset": 8,
            "slot": "2",
            "type": "t_uint64"
          },
          {
            "astId": 4897,
            "contract": "contracts/EAS.sol:EAS",
            "label": "revocationTime",
            "offset": 16,
            "slot": "2",
            "type": "t_uint64"
          },
          {
            "astId": 4899,
            "contract": "contracts/EAS.sol:EAS",
            "label": "refUUID",
            "offset": 0,
            "slot": "3",
            "type": "t_bytes32"
          },
          {
            "astId": 4901,
            "contract": "contracts/EAS.sol:EAS",
            "label": "recipient",
            "offset": 0,
            "slot": "4",
            "type": "t_address"
          },
          {
            "astId": 4903,
            "contract": "contracts/EAS.sol:EAS",
            "label": "attester",
            "offset": 0,
            "slot": "5",
            "type": "t_address"
          },
          {
            "astId": 4905,
            "contract": "contracts/EAS.sol:EAS",
            "label": "revocable",
            "offset": 20,
            "slot": "5",
            "type": "t_bool"
          },
          {
            "astId": 4907,
            "contract": "contracts/EAS.sol:EAS",
            "label": "data",
            "offset": 0,
            "slot": "6",
            "type": "t_bytes_storage"
          }
        ],
        "numberOfBytes": "224"
      },
      "t_uint256": {
        "encoding": "inplace",
        "label": "uint256",
        "numberOfBytes": "32"
      },
      "t_uint64": {
        "encoding": "inplace",
        "label": "uint64",
        "numberOfBytes": "8"
      }
    }
  }
}