{
  "address": "0x9C9d17bEE150E4eCDf3b99baFA62c08Cb30E82BC",
  "abi": [
    {
      "inputs": [
        {
          "internalType": "contract IEAS",
          "name": "eas",
          "type": "address"
        },
        {
          "internalType": "string",
          "name": "name",
          "type": "string"
        }
      ],
      "stateMutability": "nonpayable",
      "type": "constructor"
    },
    {
      "inputs": [],
      "name": "AccessDenied",
      "type": "error"
    },
    {
      "inputs": [],
      "name": "DeadlineExpired",
      "type": "error"
    },
    {
      "inputs": [],
      "name": "InvalidEAS",
      "type": "error"
    },
    {
      "inputs": [],
      "name": "InvalidLength",
      "type": "error"
    },
    {
      "inputs": [],
      "name": "InvalidShortString",
      "type": "error"
    },
    {
      "inputs": [],
      "name": "InvalidSignature",
      "type": "error"
    },
    {
      "inputs": [],
      "name": "NotFound",
      "type": "error"
    },
    {
      "inputs": [
        {
          "internalType": "string",
          "name": "str",
          "type": "string"
        }
      ],
      "name": "StringTooLong",
      "type": "error"
    },
    {
      "inputs": [],
      "name": "UsedSignature",
      "type": "error"
    },
    {
      "anonymous": false,
      "inputs": [],
      "name": "EIP712DomainChanged",
      "type": "event"
    },
    {
      "inputs": [
        {
          "components": [
            {
              "internalType": "bytes32",
              "name": "schema",
              "type": "bytes32"
            },
            {
              "components": [
                {
                  "internalType": "address",
                  "name": "recipient",
                  "type": "address"
                },
                {
                  "internalType": "uint64",
                  "name": "expirationTime",
                  "type": "uint64"
                },
                {
                  "internalType": "bool",
                  "name": "revocable",
                  "type": "bool"
                },
                {
                  "internalType": "bytes32",
                  "name": "refUID",
                  "type": "bytes32"
                },
                {
                  "internalType": "bytes",
                  "name": "data",
                  "type": "bytes"
                },
                {
                  "internalType": "uint256",
                  "name": "value",
                  "type": "uint256"
                }
              ],
              "internalType": "struct AttestationRequestData",
              "name": "data",
              "type": "tuple"
            },
            {
              "components": [
                {
                  "internalType": "uint8",
                  "name": "v",
                  "type": "uint8"
                },
                {
                  "internalType": "bytes32",
                  "name": "r",
                  "type": "bytes32"
                },
                {
                  "internalType": "bytes32",
                  "name": "s",
                  "type": "bytes32"
                }
              ],
              "internalType": "struct Signature",
              "name": "signature",
              "type": "tuple"
            },
            {
              "internalType": "address",
              "name": "attester",
              "type": "address"
            },
            {
              "internalType": "uint64",
              "name": "deadline",
              "type": "uint64"
            }
          ],
          "internalType": "struct DelegatedProxyAttestationRequest",
          "name": "delegatedRequest",
          "type": "tuple"
        }
      ],
      "name": "attestByDelegation",
      "outputs": [
        {
          "internalType": "bytes32",
          "name": "",
          "type": "bytes32"
        }
      ],
      "stateMutability": "payable",
      "type": "function"
    },
    {
      "inputs": [],
      "name": "eip712Domain",
      "outputs": [
        {
          "internalType": "bytes1",
          "name": "fields",
          "type": "bytes1"
        },
        {
          "internalType": "string",
          "name": "name",
          "type": "string"
        },
        {
          "internalType": "string",
          "name": "version",
          "type": "string"
        },
        {
          "internalType": "uint256",
          "name": "chainId",
          "type": "uint256"
        },
        {
          "internalType": "address",
          "name": "verifyingContract",
          "type": "address"
        },
        {
          "internalType": "bytes32",
          "name": "salt",
          "type": "bytes32"
        },
        {
          "internalType": "uint256[]",
          "name": "extensions",
          "type": "uint256[]"
        }
      ],
      "stateMutability": "view",
      "type": "function"
    },
    {
      "inputs": [],
      "name": "getAttestTypeHash",
      "outputs": [
        {
          "internalType": "bytes32",
          "name": "",
          "type": "bytes32"
        }
      ],
      "stateMutability": "pure",
      "type": "function"
    },
    {
      "inputs": [
        {
          "internalType": "bytes32",
          "name": "uid",
          "type": "bytes32"
        }
      ],
      "name": "getAttester",
      "outputs": [
        {
          "internalType": "address",
          "name": "",
          "type": "address"
        }
      ],
      "stateMutability": "view",
      "type": "function"
    },
    {
      "inputs": [],
      "name": "getDomainSeparator",
      "outputs": [
        {
          "internalType": "bytes32",
          "name": "",
          "type": "bytes32"
        }
      ],
      "stateMutability": "view",
      "type": "function"
    },
    {
      "inputs": [],
      "name": "getEAS",
      "outputs": [
        {
          "internalType": "contract IEAS",
          "name": "",
          "type": "address"
        }
      ],
      "stateMutability": "view",
      "type": "function"
    },
    {
      "inputs": [],
      "name": "getName",
      "outputs": [
        {
          "internalType": "string",
          "name": "",
          "type": "string"
        }
      ],
      "stateMutability": "view",
      "type": "function"
    },
    {
      "inputs": [],
      "name": "getRevokeTypeHash",
      "outputs": [
        {
          "internalType": "bytes32",
          "name": "",
          "type": "bytes32"
        }
      ],
      "stateMutability": "pure",
      "type": "function"
    },
    {
      "inputs": [
        {
          "components": [
            {
              "internalType": "bytes32",
              "name": "schema",
              "type": "bytes32"
            },
            {
              "components": [
                {
                  "internalType": "address",
                  "name": "recipient",
                  "type": "address"
                },
                {
                  "internalType": "uint64",
                  "name": "expirationTime",
                  "type": "uint64"
                },
                {
                  "internalType": "bool",
                  "name": "revocable",
                  "type": "bool"
                },
                {
                  "internalType": "bytes32",
                  "name": "refUID",
                  "type": "bytes32"
                },
                {
                  "internalType": "bytes",
                  "name": "data",
                  "type": "bytes"
                },
                {
                  "internalType": "uint256",
                  "name": "value",
                  "type": "uint256"
                }
              ],
              "internalType": "struct AttestationRequestData[]",
              "name": "data",
              "type": "tuple[]"
            },
            {
              "components": [
                {
                  "internalType": "uint8",
                  "name": "v",
                  "type": "uint8"
                },
                {
                  "internalType": "bytes32",
                  "name": "r",
                  "type": "bytes32"
                },
                {
                  "internalType": "bytes32",
                  "name": "s",
                  "type": "bytes32"
                }
              ],
              "internalType": "struct Signature[]",
              "name": "signatures",
              "type": "tuple[]"
            },
            {
              "internalType": "address",
              "name": "attester",
              "type": "address"
            },
            {
              "internalType": "uint64",
              "name": "deadline",
              "type": "uint64"
            }
          ],
          "internalType": "struct MultiDelegatedProxyAttestationRequest[]",
          "name": "multiDelegatedRequests",
          "type": "tuple[]"
        }
      ],
      "name": "multiAttestByDelegation",
      "outputs": [
        {
          "internalType": "bytes32[]",
          "name": "",
          "type": "bytes32[]"
        }
      ],
      "stateMutability": "payable",
      "type": "function"
    },
    {
      "inputs": [
        {
          "components": [
            {
              "internalType": "bytes32",
              "name": "schema",
              "type": "bytes32"
            },
            {
              "components": [
                {
                  "internalType": "bytes32",
                  "name": "uid",
                  "type": "bytes32"
                },
                {
                  "internalType": "uint256",
                  "name": "value",
                  "type": "uint256"
                }
              ],
              "internalType": "struct RevocationRequestData[]",
              "name": "data",
              "type": "tuple[]"
            },
            {
              "components": [
                {
                  "internalType": "uint8",
                  "name": "v",
                  "type": "uint8"
                },
                {
                  "internalType": "bytes32",
                  "name": "r",
                  "type": "bytes32"
                },
                {
                  "internalType": "bytes32",
                  "name": "s",
                  "type": "bytes32"
                }
              ],
              "internalType": "struct Signature[]",
              "name": "signatures",
              "type": "tuple[]"
            },
            {
              "internalType": "address",
              "name": "revoker",
              "type": "address"
            },
            {
              "internalType": "uint64",
              "name": "deadline",
              "type": "uint64"
            }
          ],
          "internalType": "struct MultiDelegatedProxyRevocationRequest[]",
          "name": "multiDelegatedRequests",
          "type": "tuple[]"
        }
      ],
      "name": "multiRevokeByDelegation",
      "outputs": [],
      "stateMutability": "payable",
      "type": "function"
    },
    {
      "inputs": [
        {
          "components": [
            {
              "internalType": "bytes32",
              "name": "schema",
              "type": "bytes32"
            },
            {
              "components": [
                {
                  "internalType": "bytes32",
                  "name": "uid",
                  "type": "bytes32"
                },
                {
                  "internalType": "uint256",
                  "name": "value",
                  "type": "uint256"
                }
              ],
              "internalType": "struct RevocationRequestData",
              "name": "data",
              "type": "tuple"
            },
            {
              "components": [
                {
                  "internalType": "uint8",
                  "name": "v",
                  "type": "uint8"
                },
                {
                  "internalType": "bytes32",
                  "name": "r",
                  "type": "bytes32"
                },
                {
                  "internalType": "bytes32",
                  "name": "s",
                  "type": "bytes32"
                }
              ],
              "internalType": "struct Signature",
              "name": "signature",
              "type": "tuple"
            },
            {
              "internalType": "address",
              "name": "revoker",
              "type": "address"
            },
            {
              "internalType": "uint64",
              "name": "deadline",
              "type": "uint64"
            }
          ],
          "internalType": "struct DelegatedProxyRevocationRequest",
          "name": "delegatedRequest",
          "type": "tuple"
        }
      ],
      "name": "revokeByDelegation",
      "outputs": [],
      "stateMutability": "payable",
      "type": "function"
    },
    {
      "inputs": [],
      "name": "version",
      "outputs": [
        {
          "internalType": "string",
          "name": "",
          "type": "string"
        }
      ],
      "stateMutability": "view",
      "type": "function"
    }
  ],
  "transactionHash": "0x89ec68408e1af7af85041daf58be8deee89a7b6f4b28aadb9a51ace53a8e477b",
  "args": [
    "0xC2679fBD37d54388Ce493F1DB75320D236e1815e",
    "EIP712Proxy"
  ],
  "numDeployments": 2,
  "solcInputHash": "363c8b5710f335e9a0bfd66216b6038c",
  "bytecode": "0x6101e06040523480156200001257600080fd5b5060405162002d7638038062002d7683398101604081905262000035916200022c565b6040805180820190915260058152640312e322e360dc1b60208201526001608052600260a052600060c0819052829190620000729083906200016b565b61018052620000838160016200016b565b6101a052815160208084019190912061014052815190820120610160524661010052620001146101405161016051604080517f8b73c3c69bb8fe3d512ecc4cf759cc79239f7b179b0ffacaa9a75d522b39400f60208201529081019290925260608201524660808201523060a082015260009060c00160405160208183030381529060405280519060200120905090565b60e052505030610120526001600160a01b03821662000146576040516341bc07ff60e11b815260040160405180910390fd5b6001600160a01b0382166101c052600262000162828262000396565b505050620004bc565b60006020835110156200018b576200018383620001a4565b90506200019e565b8162000198848262000396565b5060ff90505b92915050565b600080829050601f81511115620001db578260405163305a27a960e01b8152600401620001d2919062000462565b60405180910390fd5b8051620001e88262000497565b179392505050565b634e487b7160e01b600052604160045260246000fd5b60005b838110156200022357818101518382015260200162000209565b50506000910152565b600080604083850312156200024057600080fd5b82516001600160a01b03811681146200025857600080fd5b60208401519092506001600160401b03808211156200027657600080fd5b818501915085601f8301126200028b57600080fd5b815181811115620002a057620002a0620001f0565b604051601f8201601f19908116603f01168101908382118183101715620002cb57620002cb620001f0565b81604052828152886020848701011115620002e557600080fd5b620002f883602083016020880162000206565b80955050505050509250929050565b600181811c908216806200031c57607f821691505b6020821081036200033d57634e487b7160e01b600052602260045260246000fd5b50919050565b601f8211156200039157600081815260208120601f850160051c810160208610156200036c5750805b601f850160051c820191505b818110156200038d5782815560010162000378565b5050505b505050565b81516001600160401b03811115620003b257620003b2620001f0565b620003ca81620003c3845462000307565b8462000343565b602080601f831160018114620004025760008415620003e95750858301515b600019600386901b1c1916600185901b1785556200038d565b600085815260208120601f198616915b82811015620004335788860151825594840194600190910190840162000412565b5085821015620004525787850151600019600388901b60f8161c191681555b5050505050600190811b01905550565b60208152600082518060208401526200048381604085016020870162000206565b601f01601f19169190910160400192915050565b805160208083015191908110156200033d5760001960209190910360031b1b16919050565b60805160a05160c05160e05161010051610120516101405161016051610180516101a0516101c0516128176200055f600039600081816101e4015281816104d1015281816105e901528181610a9d0152610c7e015260006107f8015260006107ce015260006113d9015260006113b10152600061130c0152600061133601526000611360015260006107760152600061074d0152600061072401526128176000f3fe6080604052600436106100c75760003560e01c806365c40b9c11610074578063a6d4dbc71161004e578063a6d4dbc714610250578063b83010d314610263578063ed24911d1461029657600080fd5b806365c40b9c146101d557806384b0196e14610208578063954115251461023057600080fd5b806317d7de7c116100a557806317d7de7c1461018b5780633c042715146101ad57806354fd4d50146101c057600080fd5b80630eabf660146100cc57806310d736d5146100e157806312b11a171461014e575b600080fd5b6100df6100da366004611a00565b6102ab565b005b3480156100ed57600080fd5b506101246100fc366004611a42565b60009081526003602052604090205473ffffffffffffffffffffffffffffffffffffffff1690565b60405173ffffffffffffffffffffffffffffffffffffffff90911681526020015b60405180910390f35b34801561015a57600080fd5b507f9d3e80e7032dc16815a5f67aa94e851240ae3b24eed13a7431bdac738f8145675b604051908152602001610145565b34801561019757600080fd5b506101a0610540565b6040516101459190611ac9565b61017d6101bb366004611ae3565b6105d2565b3480156101cc57600080fd5b506101a061071d565b3480156101e157600080fd5b507f0000000000000000000000000000000000000000000000000000000000000000610124565b34801561021457600080fd5b5061021d6107c0565b6040516101459796959493929190611b1e565b61024361023e366004611a00565b610864565b6040516101459190611bdd565b6100df61025e366004611c21565b610c65565b34801561026f57600080fd5b507fd4e76f924411647a916bb4ae4631b3cf45c44e2da56ed1c63edb18ebc97ba5e461017d565b3480156102a257600080fd5b5061017d610d65565b8060008167ffffffffffffffff8111156102c7576102c7611c3a565b60405190808252806020026020018201604052801561030d57816020015b6040805180820190915260008152606060208201528152602001906001900390816102e55790505b50905060005b8281101561049357600085858381811061032f5761032f611c69565b90506020028101906103419190611c98565b61034a90611f05565b602081015180519192509080158061036757508260400151518114155b1561039e576040517f947d5a8400000000000000000000000000000000000000000000000000000000815260040160405180910390fd5b60005b818110156104485760008382815181106103bd576103bd611c69565b6020026020010151905061043f6040518060a0016040528087600001518152602001838152602001876040015185815181106103fb576103fb611c69565b60200260200101518152602001876060015173ffffffffffffffffffffffffffffffffffffffff168152602001876080015167ffffffffffffffff16815250610d74565b506001016103a1565b506040518060400160405280846000015181526020018381525085858151811061047457610474611c69565b602002602001018190525050505061048c8160010190565b9050610313565b506040517f4cb7e9e500000000000000000000000000000000000000000000000000000000815273ffffffffffffffffffffffffffffffffffffffff7f00000000000000000000000000000000000000000000000000000000000000001690634cb7e9e5903490610508908590600401612000565b6000604051808303818588803b15801561052157600080fd5b505af1158015610535573d6000803e3d6000fd5b505050505050505050565b60606002805461054f906120cf565b80601f016020809104026020016040519081016040528092919081815260200182805461057b906120cf565b80156105c85780601f1061059d576101008083540402835291602001916105c8565b820191906000526020600020905b8154815290600101906020018083116105ab57829003601f168201915b5050505050905090565b60006105e56105e083612240565b610fb6565b60007f000000000000000000000000000000000000000000000000000000000000000073ffffffffffffffffffffffffffffffffffffffff1663f17325e73460405180604001604052808760000135815260200187806020019061064991906122b9565b610652906122ed565b8152506040518363ffffffff1660e01b8152600401610671919061236c565b60206040518083038185885af115801561068f573d6000803e3d6000fd5b50505050506040513d601f19601f820116820180604052508101906106b49190612399565b90506106c660c0840160a085016123b2565b600082815260036020526040902080547fffffffffffffffffffffffff00000000000000000000000000000000000000001673ffffffffffffffffffffffffffffffffffffffff9290921691909117905592915050565b60606107487f0000000000000000000000000000000000000000000000000000000000000000611189565b6107717f0000000000000000000000000000000000000000000000000000000000000000611189565b61079a7f0000000000000000000000000000000000000000000000000000000000000000611189565b6040516020016107ac939291906123cd565b604051602081830303815290604052905090565b6000606080828080836107f37f000000000000000000000000000000000000000000000000000000000000000083611247565b61081e7f00000000000000000000000000000000000000000000000000000000000000006001611247565b604080516000808252602082019092527f0f000000000000000000000000000000000000000000000000000000000000009b939a50919850469750309650945092509050565b60608160008167ffffffffffffffff81111561088257610882611c3a565b6040519080825280602002602001820160405280156108c857816020015b6040805180820190915260008152606060208201528152602001906001900390816108a05790505b50905060005b82811015610a9857368686838181106108e9576108e9611c69565b90506020028101906108fb9190611c98565b905036600061090d6020840184612443565b90925090508080158061092e575061092860408501856124ab565b90508114155b15610965576040517f947d5a8400000000000000000000000000000000000000000000000000000000815260040160405180910390fd5b60005b81811015610a4657610a3e6040518060a001604052808760000135815260200186868581811061099a5761099a611c69565b90506020028101906109ac91906122b9565b6109b5906122ed565b81526020016109c760408901896124ab565b858181106109d7576109d7611c69565b9050606002018036038101906109ed9190612512565b8152602001610a026080890160608a016123b2565b73ffffffffffffffffffffffffffffffffffffffff168152602001610a2d60a0890160808a0161252e565b67ffffffffffffffff169052610fb6565b600101610968565b50604080518082019091528435815260208101610a638486612549565b815250868681518110610a7857610a78611c69565b602002602001018190525050505050610a918160010190565b90506108ce565b5060007f000000000000000000000000000000000000000000000000000000000000000073ffffffffffffffffffffffffffffffffffffffff166344adc90e34846040518363ffffffff1660e01b8152600401610af591906125bd565b60006040518083038185885af1158015610b13573d6000803e3d6000fd5b50505050506040513d6000823e601f3d9081017fffffffffffffffffffffffffffffffffffffffffffffffffffffffffffffffe0168201604052610b5a91908101906126b0565b90506000805b84811015610c575736888883818110610b7b57610b7b611c69565b9050602002810190610b8d9190611c98565b9050366000610b9f6020840184612443565b90925090508060005b81811015610c4157610bc060808601606087016123b2565b600360008a8a81518110610bd657610bd6611c69565b6020026020010151815260200190815260200160002060006101000a81548173ffffffffffffffffffffffffffffffffffffffff021916908373ffffffffffffffffffffffffffffffffffffffff160217905550866001019650610c3a8160010190565b9050610ba8565b5050505050610c508160010190565b9050610b60565b509093505050505b92915050565b610c7c610c7736839003830183612741565b610d74565b7f000000000000000000000000000000000000000000000000000000000000000073ffffffffffffffffffffffffffffffffffffffff1663469262673460405180604001604052808560000135815260200185602001803603810190610ce291906127ad565b90526040517fffffffff0000000000000000000000000000000000000000000000000000000060e085901b16815281516004820152602091820151805160248301529091015160448201526064016000604051808303818588803b158015610d4957600080fd5b505af1158015610d5d573d6000803e3d6000fd5b505050505050565b6000610d6f6112f2565b905090565b608081015167ffffffffffffffff1615801590610da857504267ffffffffffffffff16816080015167ffffffffffffffff16105b15610ddf576040517f1ab7da6b00000000000000000000000000000000000000000000000000000000815260040160405180910390fd5b60208082015180516000908152600390925260409091205473ffffffffffffffffffffffffffffffffffffffff1680610e44576040517fc5723b5100000000000000000000000000000000000000000000000000000000815260040160405180910390fd5b73ffffffffffffffffffffffffffffffffffffffff81163314610e93576040517f4ca8886700000000000000000000000000000000000000000000000000000000815260040160405180910390fd5b6040830151610ea18161142a565b835183516020808601516080880151604051600095610f2d95610f12957fd4e76f924411647a916bb4ae4631b3cf45c44e2da56ed1c63edb18ebc97ba5e495929491930194855260208501939093526040840191909152606083015267ffffffffffffffff16608082015260a00190565b60405160208183030381529060405280519060200120611538565b9050846060015173ffffffffffffffffffffffffffffffffffffffff16610f6282846000015185602001518660400151611580565b73ffffffffffffffffffffffffffffffffffffffff1614610faf576040517f8baa579f00000000000000000000000000000000000000000000000000000000815260040160405180910390fd5b5050505050565b608081015167ffffffffffffffff1615801590610fea57504267ffffffffffffffff16816080015167ffffffffffffffff16105b15611021576040517f1ab7da6b00000000000000000000000000000000000000000000000000000000815260040160405180910390fd5b602081015160408201516110348161142a565b60006111017f9d3e80e7032dc16815a5f67aa94e851240ae3b24eed13a7431bdac738f81456760001b856000015185600001518660200151876040015188606001518960800151805190602001208a60a001518c60800151604051602001610f1299989796959493929190988952602089019790975273ffffffffffffffffffffffffffffffffffffffff95909516604088015267ffffffffffffffff9384166060880152911515608087015260a086015260c085015260e0840191909152166101008201526101200190565b9050836060015173ffffffffffffffffffffffffffffffffffffffff1661113682846000015185602001518660400151611580565b73ffffffffffffffffffffffffffffffffffffffff1614611183576040517f8baa579f00000000000000000000000000000000000000000000000000000000815260040160405180910390fd5b50505050565b60606000611196836115a8565b600101905060008167ffffffffffffffff8111156111b6576111b6611c3a565b6040519080825280601f01601f1916602001820160405280156111e0576020820181803683370190505b5090508181016020015b7fffffffffffffffffffffffffffffffffffffffffffffffffffffffffffffffff017f3031323334353637383961626364656600000000000000000000000000000000600a86061a8153600a85049450846111ea57509392505050565b606060ff83146112615761125a8361168a565b9050610c5f565b81805461126d906120cf565b80601f0160208091040260200160405190810160405280929190818152602001828054611299906120cf565b80156112e65780601f106112bb576101008083540402835291602001916112e6565b820191906000526020600020905b8154815290600101906020018083116112c957829003601f168201915b50505050509050610c5f565b60003073ffffffffffffffffffffffffffffffffffffffff7f00000000000000000000000000000000000000000000000000000000000000001614801561135857507f000000000000000000000000000000000000000000000000000000000000000046145b1561138257507f000000000000000000000000000000000000000000000000000000000000000090565b610d6f604080517f8b73c3c69bb8fe3d512ecc4cf759cc79239f7b179b0ffacaa9a75d522b39400f60208201527f0000000000000000000000000000000000000000000000000000000000000000918101919091527f000000000000000000000000000000000000000000000000000000000000000060608201524660808201523060a082015260009060c00160405160208183030381529060405280519060200120905090565b8051602080830151604080850151905160f89490941b7fff00000000000000000000000000000000000000000000000000000000000000169284019290925260218301526041820152600090606101604051602081830303815290604052905060048160405161149a91906127c9565b9081526040519081900360200190205460ff16156114e4576040517fcce9a82400000000000000000000000000000000000000000000000000000000815260040160405180910390fd5b60016004826040516114f691906127c9565b90815260405190819003602001902080549115157fffffffffffffffffffffffffffffffffffffffffffffffffffffffffffffff009092169190911790555050565b6000610c5f6115456112f2565b836040517f19010000000000000000000000000000000000000000000000000000000000008152600281019290925260228201526042902090565b6000806000611591878787876116c9565b9150915061159e816117b8565b5095945050505050565b6000807a184f03e93ff9f4daa797ed6e38ed64bf6a1f01000000000000000083106115f1577a184f03e93ff9f4daa797ed6e38ed64bf6a1f010000000000000000830492506040015b6d04ee2d6d415b85acef8100000000831061161d576d04ee2d6d415b85acef8100000000830492506020015b662386f26fc10000831061163b57662386f26fc10000830492506010015b6305f5e1008310611653576305f5e100830492506008015b612710831061166757612710830492506004015b60648310611679576064830492506002015b600a8310610c5f5760010192915050565b6060600061169783611973565b604080516020808252818301909252919250600091906020820181803683375050509182525060208101929092525090565b6000807f7fffffffffffffffffffffffffffffff5d576e7357a4501ddfe92f46681b20a083111561170057506000905060036117af565b6040805160008082526020820180845289905260ff881692820192909252606081018690526080810185905260019060a0016020604051602081039080840390855afa158015611754573d6000803e3d6000fd5b50506040517fffffffffffffffffffffffffffffffffffffffffffffffffffffffffffffffe0015191505073ffffffffffffffffffffffffffffffffffffffff81166117a8576000600192509250506117af565b9150600090505b94509492505050565b60008160048111156117cc576117cc6127db565b036117d45750565b60018160048111156117e8576117e86127db565b03611854576040517f08c379a000000000000000000000000000000000000000000000000000000000815260206004820152601860248201527f45434453413a20696e76616c6964207369676e6174757265000000000000000060448201526064015b60405180910390fd5b6002816004811115611868576118686127db565b036118cf576040517f08c379a000000000000000000000000000000000000000000000000000000000815260206004820152601f60248201527f45434453413a20696e76616c6964207369676e6174757265206c656e67746800604482015260640161184b565b60038160048111156118e3576118e36127db565b03611970576040517f08c379a000000000000000000000000000000000000000000000000000000000815260206004820152602260248201527f45434453413a20696e76616c6964207369676e6174757265202773272076616c60448201527f7565000000000000000000000000000000000000000000000000000000000000606482015260840161184b565b50565b600060ff8216601f811115610c5f576040517fb3512b0c00000000000000000000000000000000000000000000000000000000815260040160405180910390fd5b60008083601f8401126119c657600080fd5b50813567ffffffffffffffff8111156119de57600080fd5b6020830191508360208260051b85010111156119f957600080fd5b9250929050565b60008060208385031215611a1357600080fd5b823567ffffffffffffffff811115611a2a57600080fd5b611a36858286016119b4565b90969095509350505050565b600060208284031215611a5457600080fd5b5035919050565b60005b83811015611a76578181015183820152602001611a5e565b50506000910152565b60008151808452611a97816020860160208601611a5b565b601f017fffffffffffffffffffffffffffffffffffffffffffffffffffffffffffffffe0169290920160200192915050565b602081526000611adc6020830184611a7f565b9392505050565b600060208284031215611af557600080fd5b813567ffffffffffffffff811115611b0c57600080fd5b820160e08185031215611adc57600080fd5b7fff00000000000000000000000000000000000000000000000000000000000000881681526000602060e081840152611b5a60e084018a611a7f565b8381036040850152611b6c818a611a7f565b6060850189905273ffffffffffffffffffffffffffffffffffffffff8816608086015260a0850187905284810360c0860152855180825283870192509083019060005b81811015611bcb57835183529284019291840191600101611baf565b50909c9b505050505050505050505050565b6020808252825182820181905260009190848201906040850190845b81811015611c1557835183529284019291840191600101611bf9565b50909695505050505050565b60006101008284031215611c3457600080fd5b50919050565b7f4e487b7100000000000000000000000000000000000000000000000000000000600052604160045260246000fd5b7f4e487b7100000000000000000000000000000000000000000000000000000000600052603260045260246000fd5b600082357fffffffffffffffffffffffffffffffffffffffffffffffffffffffffffffff61833603018112611ccc57600080fd5b9190910192915050565b60405160a0810167ffffffffffffffff81118282101715611cf957611cf9611c3a565b60405290565b60405160c0810167ffffffffffffffff81118282101715611cf957611cf9611c3a565b604051601f82017fffffffffffffffffffffffffffffffffffffffffffffffffffffffffffffffe016810167ffffffffffffffff81118282101715611d6957611d69611c3a565b604052919050565b600067ffffffffffffffff821115611d8b57611d8b611c3a565b5060051b60200190565b600060408284031215611da757600080fd5b6040516040810181811067ffffffffffffffff82111715611dca57611dca611c3a565b604052823581526020928301359281019290925250919050565b600060608284031215611df657600080fd5b6040516060810181811067ffffffffffffffff82111715611e1957611e19611c3a565b604052905080823560ff81168114611e3057600080fd5b8082525060208301356020820152604083013560408201525092915050565b600082601f830112611e6057600080fd5b81356020611e75611e7083611d71565b611d22565b82815260609283028501820192828201919087851115611e9457600080fd5b8387015b85811015611eb757611eaa8982611de4565b8452928401928101611e98565b5090979650505050505050565b803573ffffffffffffffffffffffffffffffffffffffff81168114611ee857600080fd5b919050565b803567ffffffffffffffff81168114611ee857600080fd5b600060a08236031215611f1757600080fd5b611f1f611cd6565b8235815260208084013567ffffffffffffffff80821115611f3f57600080fd5b9085019036601f830112611f5257600080fd5b8135611f60611e7082611d71565b81815260069190911b83018401908481019036831115611f7f57600080fd5b938501935b82851015611fa857611f963686611d95565b82528582019150604085019450611f84565b80868801525050506040860135925080831115611fc457600080fd5b5050611fd236828601611e4f565b604083015250611fe460608401611ec4565b6060820152611ff560808401611eed565b608082015292915050565b60006020808301818452808551808352604092508286019150828160051b8701018488016000805b848110156120c0578984037fffffffffffffffffffffffffffffffffffffffffffffffffffffffffffffffc0018652825180518552880151888501889052805188860181905290890190839060608701905b808310156120ab5761209782855180518252602090810151910152565b928b019260019290920191908a019061207a565b50978a01979550505091870191600101612028565b50919998505050505050505050565b600181811c908216806120e357607f821691505b602082108103611c34577f4e487b7100000000000000000000000000000000000000000000000000000000600052602260045260246000fd5b600082601f83011261212d57600080fd5b813567ffffffffffffffff81111561214757612147611c3a565b61217860207fffffffffffffffffffffffffffffffffffffffffffffffffffffffffffffffe0601f84011601611d22565b81815284602083860101111561218d57600080fd5b816020850160208301376000918101602001919091529392505050565b600060c082840312156121bc57600080fd5b6121c4611cff565b90506121cf82611ec4565b81526121dd60208301611eed565b6020820152604082013580151581146121f557600080fd5b604082015260608281013590820152608082013567ffffffffffffffff81111561221e57600080fd5b61222a8482850161211c565b60808301525060a082013560a082015292915050565b600060e0823603121561225257600080fd5b61225a611cd6565b82358152602083013567ffffffffffffffff81111561227857600080fd5b612284368286016121aa565b6020830152506122973660408501611de4565b60408201526122a860a08401611ec4565b6060820152611ff560c08401611eed565b600082357fffffffffffffffffffffffffffffffffffffffffffffffffffffffffffffff41833603018112611ccc57600080fd5b6000610c5f36836121aa565b73ffffffffffffffffffffffffffffffffffffffff815116825267ffffffffffffffff6020820151166020830152604081015115156040830152606081015160608301526000608082015160c0608085015261235860c0850182611a7f565b60a093840151949093019390935250919050565b60208152815160208201526000602083015160408084015261239160608401826122f9565b949350505050565b6000602082840312156123ab57600080fd5b5051919050565b6000602082840312156123c457600080fd5b611adc82611ec4565b600084516123df818460208901611a5b565b80830190507f2e00000000000000000000000000000000000000000000000000000000000000808252855161241b816001850160208a01611a5b565b60019201918201528351612436816002840160208801611a5b565b0160020195945050505050565b60008083357fffffffffffffffffffffffffffffffffffffffffffffffffffffffffffffffe184360301811261247857600080fd5b83018035915067ffffffffffffffff82111561249357600080fd5b6020019150600581901b36038213156119f957600080fd5b60008083357fffffffffffffffffffffffffffffffffffffffffffffffffffffffffffffffe18436030181126124e057600080fd5b83018035915067ffffffffffffffff8211156124fb57600080fd5b60200191506060810236038213156119f957600080fd5b60006060828403121561252457600080fd5b611adc8383611de4565b60006020828403121561254057600080fd5b611adc82611eed565b6000612557611e7084611d71565b80848252602080830192508560051b85013681111561257557600080fd5b855b818110156125b157803567ffffffffffffffff8111156125975760008081fd5b6125a336828a016121aa565b865250938201938201612577565b50919695505050505050565b602080825282518282018190526000919060409081850190600581811b8701840188860187805b858110156126a0577fffffffffffffffffffffffffffffffffffffffffffffffffffffffffffffffc08b85030187528251805185528901518985018990528051898601819052908a0190606081881b870181019190870190855b8181101561268a577fffffffffffffffffffffffffffffffffffffffffffffffffffffffffffffffa08985030183526126788486516122f9565b948e01949350918d019160010161263e565b505050978a0197945050918801916001016125e4565b50919a9950505050505050505050565b600060208083850312156126c357600080fd5b825167ffffffffffffffff8111156126da57600080fd5b8301601f810185136126eb57600080fd5b80516126f9611e7082611d71565b81815260059190911b8201830190838101908783111561271857600080fd5b928401925b828410156127365783518252928401929084019061271d565b979650505050505050565b6000610100828403121561275457600080fd5b61275c611cd6565b8235815261276d8460208501611d95565b602082015261277f8460608501611de4565b604082015261279060c08401611ec4565b60608201526127a160e08401611eed565b60808201529392505050565b6000604082840312156127bf57600080fd5b611adc8383611d95565b60008251611ccc818460208701611a5b565b7f4e487b7100000000000000000000000000000000000000000000000000000000600052602160045260246000fdfea164736f6c6343000813000a",
  "devdoc": {
    "events": {
      "EIP712DomainChanged()": {
        "details": "MAY be emitted to signal that the domain could have changed."
      }
    },
    "kind": "dev",
    "methods": {
      "attestByDelegation((bytes32,(address,uint64,bool,bytes32,bytes,uint256),(uint8,bytes32,bytes32),address,uint64))": {
        "params": {
          "delegatedRequest": "The arguments of the delegated attestation request."
        },
        "returns": {
          "_0": "The UID of the new attestation. Example:     attestByDelegation({         schema: '0x8e72f5bc0a8d4be6aa98360baa889040c50a0e51f32dbf0baa5199bd93472ebc',         data: {             recipient: '0xf39Fd6e51aad88F6F4ce6aB8827279cffFb92266',             expirationTime: 1673891048,             revocable: true,             refUID: '0x0000000000000000000000000000000000000000000000000000000000000000',             data: '0x1234',             value: 0         },         signature: {             v: 28,             r: '0x148c...b25b',             s: '0x5a72...be22'         },         attester: '0xc5E8740aD971409492b1A63Db8d83025e0Fc427e',         deadline: 1673891048     })"
        }
      },
      "constructor": {
        "details": "Creates a new EIP1271Verifier instance.",
        "params": {
          "eas": "The address of the global EAS contract.",
          "name": "The user readable name of the signing domain."
        }
      },
      "eip712Domain()": {
        "details": "See {EIP-5267}. _Available since v4.9._"
      },
      "multiAttestByDelegation((bytes32,(address,uint64,bool,bytes32,bytes,uint256)[],(uint8,bytes32,bytes32)[],address,uint64)[])": {
        "params": {
          "multiDelegatedRequests": "The arguments of the delegated multi attestation requests. The requests should be     grouped by distinct schema ids to benefit from the best batching optimization."
        },
        "returns": {
          "_0": "The UIDs of the new attestations. Example:     multiAttestByDelegation([{         schema: '0x8e72f5bc0a8d4be6aa98360baa889040c50a0e51f32dbf0baa5199bd93472ebc',         data: [{             recipient: '0xf39Fd6e51aad88F6F4ce6aB8827279cffFb92266',             expirationTime: 1673891048,             revocable: true,             refUID: '0x0000000000000000000000000000000000000000000000000000000000000000',             data: '0x1234',             value: 0         },         {             recipient: '0xdEADBeAFdeAdbEafdeadbeafDeAdbEAFdeadbeaf',             expirationTime: 0,             revocable: false,             refUID: '0x0000000000000000000000000000000000000000000000000000000000000000',             data: '0x00',             value: 0         }],         signatures: [{             v: 28,             r: '0x148c...b25b',             s: '0x5a72...be22'         },         {             v: 28,             r: '0x487s...67bb',             s: '0x12ad...2366'         }],         attester: '0x1D86495b2A7B524D747d2839b3C645Bed32e8CF4',         deadline: 1673891048     }])"
        }
      },
      "multiRevokeByDelegation((bytes32,(bytes32,uint256)[],(uint8,bytes32,bytes32)[],address,uint64)[])": {
        "params": {
          "multiDelegatedRequests": "The arguments of the delegated multi revocation attestation requests. The requests     should be grouped by distinct schema ids to benefit from the best batching optimization. Example:     multiRevokeByDelegation([{         schema: '0x8e72f5bc0a8d4be6aa98360baa889040c50a0e51f32dbf0baa5199bd93472ebc',         data: [{             uid: '0x211296a1ca0d7f9f2cfebf0daaa575bea9b20e968d81aef4e743d699c6ac4b25',             value: 1000         },         {             uid: '0xe160ac1bd3606a287b4d53d5d1d6da5895f65b4b4bab6d93aaf5046e48167ade',             value: 0         }],         signatures: [{             v: 28,             r: '0x148c...b25b',             s: '0x5a72...be22'         },         {             v: 28,             r: '0x487s...67bb',             s: '0x12ad...2366'         }],         revoker: '0x244934dd3e31bE2c81f84ECf0b3E6329F5381992',         deadline: 1673891048     }])"
        }
      },
      "revokeByDelegation((bytes32,(bytes32,uint256),(uint8,bytes32,bytes32),address,uint64))": {
        "params": {
          "delegatedRequest": "The arguments of the delegated revocation request. Example:     revokeByDelegation({         schema: '0x8e72f5bc0a8d4be6aa98360baa889040c50a0e51f32dbf0baa5199bd93472ebc',         data: {             uid: '0xcbbc12102578c642a0f7b34fe7111e41afa25683b6cd7b5a14caf90fa14d24ba',             value: 0         },         signature: {             v: 27,             r: '0xb593...7142',             s: '0x0f5b...2cce'         },         revoker: '0x244934dd3e31bE2c81f84ECf0b3E6329F5381992',         deadline: 1673891048     })"
        }
      },
      "version()": {
        "returns": {
          "_0": "Semver contract version as a string."
        }
      }
    },
    "title": "EIP712Proxy",
    "version": 1
  },
  "userdoc": {
    "kind": "user",
    "methods": {
      "attestByDelegation((bytes32,(address,uint64,bool,bytes32,bytes,uint256),(uint8,bytes32,bytes32),address,uint64))": {
        "notice": "Attests to a specific schema via the provided EIP712 signature."
      },
      "getAttestTypeHash()": {
        "notice": "Returns the EIP712 type hash for the attest function."
      },
      "getAttester(bytes32)": {
        "notice": "Returns the attester for a given uid."
      },
      "getDomainSeparator()": {
        "notice": "Returns the domain separator used in the encoding of the signatures for attest, and revoke."
      },
      "getEAS()": {
        "notice": "Returns the EAS."
      },
      "getName()": {
        "notice": "Returns the EIP712 name."
      },
      "getRevokeTypeHash()": {
        "notice": "Returns the EIP712 type hash for the revoke function."
      },
      "multiAttestByDelegation((bytes32,(address,uint64,bool,bytes32,bytes,uint256)[],(uint8,bytes32,bytes32)[],address,uint64)[])": {
        "notice": "Attests to multiple schemas using via provided EIP712 signatures."
      },
      "multiRevokeByDelegation((bytes32,(bytes32,uint256)[],(uint8,bytes32,bytes32)[],address,uint64)[])": {
        "notice": "Revokes existing attestations to multiple schemas via provided EIP712 signatures."
      },
      "revokeByDelegation((bytes32,(bytes32,uint256),(uint8,bytes32,bytes32),address,uint64))": {
        "notice": "Revokes an existing attestation to a specific schema via the provided EIP712 signature."
      },
      "version()": {
        "notice": "Returns the full semver contract version."
      }
    },
    "notice": "This utility contract an be used to aggregate delegated attestations without requiring a specific order via     nonces. The contract doesn't request nonces and implements replay protection by storing ***immalleable***     signatures.",
    "version": 1
  },
  "storageLayout": {
    "storage": [
      {
        "astId": 2559,
        "contract": "contracts/eip712/proxy/EIP712Proxy.sol:EIP712Proxy",
        "label": "_nameFallback",
        "offset": 0,
        "slot": "0",
        "type": "t_string_storage"
      },
      {
        "astId": 2561,
        "contract": "contracts/eip712/proxy/EIP712Proxy.sol:EIP712Proxy",
        "label": "_versionFallback",
        "offset": 0,
        "slot": "1",
        "type": "t_string_storage"
      },
      {
        "astId": 7337,
        "contract": "contracts/eip712/proxy/EIP712Proxy.sol:EIP712Proxy",
        "label": "_name",
        "offset": 0,
        "slot": "2",
        "type": "t_string_storage"
      },
      {
        "astId": 7341,
        "contract": "contracts/eip712/proxy/EIP712Proxy.sol:EIP712Proxy",
        "label": "_attesters",
        "offset": 0,
        "slot": "3",
        "type": "t_mapping(t_bytes32,t_address)"
      },
      {
        "astId": 7345,
        "contract": "contracts/eip712/proxy/EIP712Proxy.sol:EIP712Proxy",
        "label": "_signatures",
        "offset": 0,
        "slot": "4",
        "type": "t_mapping(t_bytes_memory_ptr,t_bool)"
      }
    ],
    "types": {
      "t_address": {
        "encoding": "inplace",
        "label": "address",
        "numberOfBytes": "20"
      },
      "t_bool": {
        "encoding": "inplace",
        "label": "bool",
        "numberOfBytes": "1"
      },
      "t_bytes32": {
        "encoding": "inplace",
        "label": "bytes32",
        "numberOfBytes": "32"
      },
      "t_bytes_memory_ptr": {
        "encoding": "bytes",
        "label": "bytes",
        "numberOfBytes": "32"
      },
      "t_mapping(t_bytes32,t_address)": {
        "encoding": "mapping",
        "key": "t_bytes32",
        "label": "mapping(bytes32 => address)",
        "numberOfBytes": "32",
        "value": "t_address"
      },
      "t_mapping(t_bytes_memory_ptr,t_bool)": {
        "encoding": "mapping",
        "key": "t_bytes_memory_ptr",
        "label": "mapping(bytes => bool)",
        "numberOfBytes": "32",
        "value": "t_bool"
      },
      "t_string_storage": {
        "encoding": "bytes",
        "label": "string",
        "numberOfBytes": "32"
      }
    }
  }
}