{
  "address": "0x1a5650D0EcbCa349DD84bAFa85790E3e6955eb84",
  "abi": [
    {
      "inputs": [
        {
          "internalType": "contract ISchemaRegistry",
          "name": "registry",
          "type": "address"
        }
      ],
      "stateMutability": "nonpayable",
      "type": "constructor"
    },
    {
      "inputs": [],
      "name": "AccessDenied",
      "type": "error"
    },
    {
      "inputs": [],
      "name": "AlreadyRevoked",
      "type": "error"
    },
    {
      "inputs": [],
      "name": "AlreadyRevokedOffchain",
      "type": "error"
    },
    {
      "inputs": [],
      "name": "AlreadyTimestamped",
      "type": "error"
    },
    {
      "inputs": [],
      "name": "InsufficientValue",
      "type": "error"
    },
    {
      "inputs": [],
      "name": "InvalidAttestation",
      "type": "error"
    },
    {
      "inputs": [],
      "name": "InvalidAttestations",
      "type": "error"
    },
    {
      "inputs": [],
      "name": "InvalidExpirationTime",
      "type": "error"
    },
    {
      "inputs": [],
      "name": "InvalidLength",
      "type": "error"
    },
    {
      "inputs": [],
      "name": "InvalidOffset",
      "type": "error"
    },
    {
      "inputs": [],
      "name": "InvalidRegistry",
      "type": "error"
    },
    {
      "inputs": [],
      "name": "InvalidRevocation",
      "type": "error"
    },
    {
      "inputs": [],
      "name": "InvalidRevocations",
      "type": "error"
    },
    {
      "inputs": [],
      "name": "InvalidSchema",
      "type": "error"
    },
    {
      "inputs": [],
      "name": "InvalidSignature",
      "type": "error"
    },
    {
      "inputs": [],
      "name": "InvalidVerifier",
      "type": "error"
    },
    {
      "inputs": [],
      "name": "Irrevocable",
      "type": "error"
    },
    {
      "inputs": [],
      "name": "NotFound",
      "type": "error"
    },
    {
      "inputs": [],
      "name": "NotPayable",
      "type": "error"
    },
    {
      "inputs": [],
      "name": "WrongSchema",
      "type": "error"
    },
    {
      "anonymous": false,
      "inputs": [
        {
          "indexed": true,
          "internalType": "address",
          "name": "recipient",
          "type": "address"
        },
        {
          "indexed": true,
          "internalType": "address",
          "name": "attester",
          "type": "address"
        },
        {
          "indexed": false,
          "internalType": "bytes32",
          "name": "uid",
          "type": "bytes32"
        },
        {
          "indexed": true,
          "internalType": "bytes32",
          "name": "schema",
          "type": "bytes32"
        }
      ],
      "name": "Attested",
      "type": "event"
    },
    {
      "anonymous": false,
      "inputs": [
        {
          "indexed": true,
          "internalType": "address",
          "name": "recipient",
          "type": "address"
        },
        {
          "indexed": true,
          "internalType": "address",
          "name": "attester",
          "type": "address"
        },
        {
          "indexed": false,
          "internalType": "bytes32",
          "name": "uid",
          "type": "bytes32"
        },
        {
          "indexed": true,
          "internalType": "bytes32",
          "name": "schema",
          "type": "bytes32"
        }
      ],
      "name": "Revoked",
      "type": "event"
    },
    {
      "anonymous": false,
      "inputs": [
        {
          "indexed": true,
          "internalType": "address",
          "name": "revoker",
          "type": "address"
        },
        {
          "indexed": true,
          "internalType": "bytes32",
          "name": "data",
          "type": "bytes32"
        },
        {
          "indexed": true,
          "internalType": "uint64",
          "name": "timestamp",
          "type": "uint64"
        }
      ],
      "name": "RevokedOffchain",
      "type": "event"
    },
    {
      "anonymous": false,
      "inputs": [
        {
          "indexed": true,
          "internalType": "bytes32",
          "name": "data",
          "type": "bytes32"
        },
        {
          "indexed": true,
          "internalType": "uint64",
          "name": "timestamp",
          "type": "uint64"
        }
      ],
      "name": "Timestamped",
      "type": "event"
    },
    {
      "inputs": [],
      "name": "VERSION",
      "outputs": [
        {
          "internalType": "string",
          "name": "",
          "type": "string"
        }
      ],
      "stateMutability": "view",
      "type": "function"
    },
    {
      "inputs": [
        {
          "components": [
            {
              "internalType": "bytes32",
              "name": "schema",
              "type": "bytes32"
            },
            {
              "components": [
                {
                  "internalType": "address",
                  "name": "recipient",
                  "type": "address"
                },
                {
                  "internalType": "uint64",
                  "name": "expirationTime",
                  "type": "uint64"
                },
                {
                  "internalType": "bool",
                  "name": "revocable",
                  "type": "bool"
                },
                {
                  "internalType": "bytes32",
                  "name": "refUID",
                  "type": "bytes32"
                },
                {
                  "internalType": "bytes",
                  "name": "data",
                  "type": "bytes"
                },
                {
                  "internalType": "uint256",
                  "name": "value",
                  "type": "uint256"
                }
              ],
              "internalType": "struct AttestationRequestData",
              "name": "data",
              "type": "tuple"
            }
          ],
          "internalType": "struct AttestationRequest",
          "name": "request",
          "type": "tuple"
        }
      ],
      "name": "attest",
      "outputs": [
        {
          "internalType": "bytes32",
          "name": "",
          "type": "bytes32"
        }
      ],
      "stateMutability": "payable",
      "type": "function"
    },
    {
      "inputs": [
        {
          "components": [
            {
              "internalType": "bytes32",
              "name": "schema",
              "type": "bytes32"
            },
            {
              "components": [
                {
                  "internalType": "address",
                  "name": "recipient",
                  "type": "address"
                },
                {
                  "internalType": "uint64",
                  "name": "expirationTime",
                  "type": "uint64"
                },
                {
                  "internalType": "bool",
                  "name": "revocable",
                  "type": "bool"
                },
                {
                  "internalType": "bytes32",
                  "name": "refUID",
                  "type": "bytes32"
                },
                {
                  "internalType": "bytes",
                  "name": "data",
                  "type": "bytes"
                },
                {
                  "internalType": "uint256",
                  "name": "value",
                  "type": "uint256"
                }
              ],
              "internalType": "struct AttestationRequestData",
              "name": "data",
              "type": "tuple"
            },
            {
              "components": [
                {
                  "internalType": "uint8",
                  "name": "v",
                  "type": "uint8"
                },
                {
                  "internalType": "bytes32",
                  "name": "r",
                  "type": "bytes32"
                },
                {
                  "internalType": "bytes32",
                  "name": "s",
                  "type": "bytes32"
                }
              ],
              "internalType": "struct EIP712Signature",
              "name": "signature",
              "type": "tuple"
            },
            {
              "internalType": "address",
              "name": "attester",
              "type": "address"
            }
          ],
          "internalType": "struct DelegatedAttestationRequest",
          "name": "delegatedRequest",
          "type": "tuple"
        }
      ],
      "name": "attestByDelegation",
      "outputs": [
        {
          "internalType": "bytes32",
          "name": "",
          "type": "bytes32"
        }
      ],
      "stateMutability": "payable",
      "type": "function"
    },
    {
      "inputs": [],
      "name": "getAttestTypeHash",
      "outputs": [
        {
          "internalType": "bytes32",
          "name": "",
          "type": "bytes32"
        }
      ],
      "stateMutability": "pure",
      "type": "function"
    },
    {
      "inputs": [
        {
          "internalType": "bytes32",
          "name": "uid",
          "type": "bytes32"
        }
      ],
      "name": "getAttestation",
      "outputs": [
        {
          "components": [
            {
              "internalType": "bytes32",
              "name": "uid",
              "type": "bytes32"
            },
            {
              "internalType": "bytes32",
              "name": "schema",
              "type": "bytes32"
            },
            {
              "internalType": "uint64",
              "name": "time",
              "type": "uint64"
            },
            {
              "internalType": "uint64",
              "name": "expirationTime",
              "type": "uint64"
            },
            {
              "internalType": "uint64",
              "name": "revocationTime",
              "type": "uint64"
            },
            {
              "internalType": "bytes32",
              "name": "refUID",
              "type": "bytes32"
            },
            {
              "internalType": "address",
              "name": "recipient",
              "type": "address"
            },
            {
              "internalType": "address",
              "name": "attester",
              "type": "address"
            },
            {
              "internalType": "bool",
              "name": "revocable",
              "type": "bool"
            },
            {
              "internalType": "bytes",
              "name": "data",
              "type": "bytes"
            }
          ],
          "internalType": "struct Attestation",
          "name": "",
          "type": "tuple"
        }
      ],
      "stateMutability": "view",
      "type": "function"
    },
    {
      "inputs": [],
      "name": "getDomainSeparator",
      "outputs": [
        {
          "internalType": "bytes32",
          "name": "",
          "type": "bytes32"
        }
      ],
      "stateMutability": "view",
      "type": "function"
    },
    {
      "inputs": [],
      "name": "getName",
      "outputs": [
        {
          "internalType": "string",
          "name": "",
          "type": "string"
        }
      ],
      "stateMutability": "view",
      "type": "function"
    },
    {
      "inputs": [
        {
          "internalType": "address",
          "name": "account",
          "type": "address"
        }
      ],
      "name": "getNonce",
      "outputs": [
        {
          "internalType": "uint256",
          "name": "",
          "type": "uint256"
        }
      ],
      "stateMutability": "view",
      "type": "function"
    },
    {
      "inputs": [
        {
          "internalType": "address",
          "name": "revoker",
          "type": "address"
        },
        {
          "internalType": "bytes32",
          "name": "data",
          "type": "bytes32"
        }
      ],
      "name": "getRevokeOffchain",
      "outputs": [
        {
          "internalType": "uint64",
          "name": "",
          "type": "uint64"
        }
      ],
      "stateMutability": "view",
      "type": "function"
    },
    {
      "inputs": [],
      "name": "getRevokeTypeHash",
      "outputs": [
        {
          "internalType": "bytes32",
          "name": "",
          "type": "bytes32"
        }
      ],
      "stateMutability": "pure",
      "type": "function"
    },
    {
      "inputs": [],
      "name": "getSchemaRegistry",
      "outputs": [
        {
          "internalType": "contract ISchemaRegistry",
          "name": "",
          "type": "address"
        }
      ],
      "stateMutability": "view",
      "type": "function"
    },
    {
      "inputs": [
        {
          "internalType": "bytes32",
          "name": "data",
          "type": "bytes32"
        }
      ],
      "name": "getTimestamp",
      "outputs": [
        {
          "internalType": "uint64",
          "name": "",
          "type": "uint64"
        }
      ],
      "stateMutability": "view",
      "type": "function"
    },
    {
      "inputs": [
        {
          "internalType": "bytes32",
          "name": "uid",
          "type": "bytes32"
        }
      ],
      "name": "isAttestationValid",
      "outputs": [
        {
          "internalType": "bool",
          "name": "",
          "type": "bool"
        }
      ],
      "stateMutability": "view",
      "type": "function"
    },
    {
      "inputs": [
        {
          "components": [
            {
              "internalType": "bytes32",
              "name": "schema",
              "type": "bytes32"
            },
            {
              "components": [
                {
                  "internalType": "address",
                  "name": "recipient",
                  "type": "address"
                },
                {
                  "internalType": "uint64",
                  "name": "expirationTime",
                  "type": "uint64"
                },
                {
                  "internalType": "bool",
                  "name": "revocable",
                  "type": "bool"
                },
                {
                  "internalType": "bytes32",
                  "name": "refUID",
                  "type": "bytes32"
                },
                {
                  "internalType": "bytes",
                  "name": "data",
                  "type": "bytes"
                },
                {
                  "internalType": "uint256",
                  "name": "value",
                  "type": "uint256"
                }
              ],
              "internalType": "struct AttestationRequestData[]",
              "name": "data",
              "type": "tuple[]"
            }
          ],
          "internalType": "struct MultiAttestationRequest[]",
          "name": "multiRequests",
          "type": "tuple[]"
        }
      ],
      "name": "multiAttest",
      "outputs": [
        {
          "internalType": "bytes32[]",
          "name": "",
          "type": "bytes32[]"
        }
      ],
      "stateMutability": "payable",
      "type": "function"
    },
    {
      "inputs": [
        {
          "components": [
            {
              "internalType": "bytes32",
              "name": "schema",
              "type": "bytes32"
            },
            {
              "components": [
                {
                  "internalType": "address",
                  "name": "recipient",
                  "type": "address"
                },
                {
                  "internalType": "uint64",
                  "name": "expirationTime",
                  "type": "uint64"
                },
                {
                  "internalType": "bool",
                  "name": "revocable",
                  "type": "bool"
                },
                {
                  "internalType": "bytes32",
                  "name": "refUID",
                  "type": "bytes32"
                },
                {
                  "internalType": "bytes",
                  "name": "data",
                  "type": "bytes"
                },
                {
                  "internalType": "uint256",
                  "name": "value",
                  "type": "uint256"
                }
              ],
              "internalType": "struct AttestationRequestData[]",
              "name": "data",
              "type": "tuple[]"
            },
            {
              "components": [
                {
                  "internalType": "uint8",
                  "name": "v",
                  "type": "uint8"
                },
                {
                  "internalType": "bytes32",
                  "name": "r",
                  "type": "bytes32"
                },
                {
                  "internalType": "bytes32",
                  "name": "s",
                  "type": "bytes32"
                }
              ],
              "internalType": "struct EIP712Signature[]",
              "name": "signatures",
              "type": "tuple[]"
            },
            {
              "internalType": "address",
              "name": "attester",
              "type": "address"
            }
          ],
          "internalType": "struct MultiDelegatedAttestationRequest[]",
          "name": "multiDelegatedRequests",
          "type": "tuple[]"
        }
      ],
      "name": "multiAttestByDelegation",
      "outputs": [
        {
          "internalType": "bytes32[]",
          "name": "",
          "type": "bytes32[]"
        }
      ],
      "stateMutability": "payable",
      "type": "function"
    },
    {
      "inputs": [
        {
          "components": [
            {
              "internalType": "bytes32",
              "name": "schema",
              "type": "bytes32"
            },
            {
              "components": [
                {
                  "internalType": "bytes32",
                  "name": "uid",
                  "type": "bytes32"
                },
                {
                  "internalType": "uint256",
                  "name": "value",
                  "type": "uint256"
                }
              ],
              "internalType": "struct RevocationRequestData[]",
              "name": "data",
              "type": "tuple[]"
            }
          ],
          "internalType": "struct MultiRevocationRequest[]",
          "name": "multiRequests",
          "type": "tuple[]"
        }
      ],
      "name": "multiRevoke",
      "outputs": [],
      "stateMutability": "payable",
      "type": "function"
    },
    {
      "inputs": [
        {
          "components": [
            {
              "internalType": "bytes32",
              "name": "schema",
              "type": "bytes32"
            },
            {
              "components": [
                {
                  "internalType": "bytes32",
                  "name": "uid",
                  "type": "bytes32"
                },
                {
                  "internalType": "uint256",
                  "name": "value",
                  "type": "uint256"
                }
              ],
              "internalType": "struct RevocationRequestData[]",
              "name": "data",
              "type": "tuple[]"
            },
            {
              "components": [
                {
                  "internalType": "uint8",
                  "name": "v",
                  "type": "uint8"
                },
                {
                  "internalType": "bytes32",
                  "name": "r",
                  "type": "bytes32"
                },
                {
                  "internalType": "bytes32",
                  "name": "s",
                  "type": "bytes32"
                }
              ],
              "internalType": "struct EIP712Signature[]",
              "name": "signatures",
              "type": "tuple[]"
            },
            {
              "internalType": "address",
              "name": "revoker",
              "type": "address"
            }
          ],
          "internalType": "struct MultiDelegatedRevocationRequest[]",
          "name": "multiDelegatedRequests",
          "type": "tuple[]"
        }
      ],
      "name": "multiRevokeByDelegation",
      "outputs": [],
      "stateMutability": "payable",
      "type": "function"
    },
    {
      "inputs": [
        {
          "internalType": "bytes32[]",
          "name": "data",
          "type": "bytes32[]"
        }
      ],
      "name": "multiRevokeOffchain",
      "outputs": [
        {
          "internalType": "uint64",
          "name": "",
          "type": "uint64"
        }
      ],
      "stateMutability": "nonpayable",
      "type": "function"
    },
    {
      "inputs": [
        {
          "internalType": "bytes32[]",
          "name": "data",
          "type": "bytes32[]"
        }
      ],
      "name": "multiTimestamp",
      "outputs": [
        {
          "internalType": "uint64",
          "name": "",
          "type": "uint64"
        }
      ],
      "stateMutability": "nonpayable",
      "type": "function"
    },
    {
      "inputs": [
        {
          "components": [
            {
              "internalType": "bytes32",
              "name": "schema",
              "type": "bytes32"
            },
            {
              "components": [
                {
                  "internalType": "bytes32",
                  "name": "uid",
                  "type": "bytes32"
                },
                {
                  "internalType": "uint256",
                  "name": "value",
                  "type": "uint256"
                }
              ],
              "internalType": "struct RevocationRequestData",
              "name": "data",
              "type": "tuple"
            }
          ],
          "internalType": "struct RevocationRequest",
          "name": "request",
          "type": "tuple"
        }
      ],
      "name": "revoke",
      "outputs": [],
      "stateMutability": "payable",
      "type": "function"
    },
    {
      "inputs": [
        {
          "components": [
            {
              "internalType": "bytes32",
              "name": "schema",
              "type": "bytes32"
            },
            {
              "components": [
                {
                  "internalType": "bytes32",
                  "name": "uid",
                  "type": "bytes32"
                },
                {
                  "internalType": "uint256",
                  "name": "value",
                  "type": "uint256"
                }
              ],
              "internalType": "struct RevocationRequestData",
              "name": "data",
              "type": "tuple"
            },
            {
              "components": [
                {
                  "internalType": "uint8",
                  "name": "v",
                  "type": "uint8"
                },
                {
                  "internalType": "bytes32",
                  "name": "r",
                  "type": "bytes32"
                },
                {
                  "internalType": "bytes32",
                  "name": "s",
                  "type": "bytes32"
                }
              ],
              "internalType": "struct EIP712Signature",
              "name": "signature",
              "type": "tuple"
            },
            {
              "internalType": "address",
              "name": "revoker",
              "type": "address"
            }
          ],
          "internalType": "struct DelegatedRevocationRequest",
          "name": "delegatedRequest",
          "type": "tuple"
        }
      ],
      "name": "revokeByDelegation",
      "outputs": [],
      "stateMutability": "payable",
      "type": "function"
    },
    {
      "inputs": [
        {
          "internalType": "bytes32",
          "name": "data",
          "type": "bytes32"
        }
      ],
      "name": "revokeOffchain",
      "outputs": [
        {
          "internalType": "uint64",
          "name": "",
          "type": "uint64"
        }
      ],
      "stateMutability": "nonpayable",
      "type": "function"
    },
    {
      "inputs": [
        {
          "internalType": "bytes32",
          "name": "data",
          "type": "bytes32"
        }
      ],
      "name": "timestamp",
      "outputs": [
        {
          "internalType": "uint64",
          "name": "",
          "type": "uint64"
        }
      ],
      "stateMutability": "nonpayable",
      "type": "function"
    }
  ],
  "transactionHash": "0x87ca42e1b79ec0cab4fe7cc7fbae4eecca8f6cafdaa7812628ce18da0a614d0a",
  "args": [
    "0x7b24C7f8AF365B4E308b6acb0A7dfc85d034Cb3f"
  ],
  "numDeployments": 1,
  "solcInputHash": "6435d68790b7df6a6fe362a9781d3487",
  "bytecode": "0x610160346200030457601f19906001600160401b0390601f62004c8b38819003918201851683019184831184841017620003095780849260409485528339602093849181010312620003045751916001600160a01b0383168084036200030457818351966200006e886200031f565b60038852818801966245415360e81b885285516200008c816200031f565b6004958187809352019863302e323760e01b8a528a5190209820988860e05261010099808b524660a0528751858101917f8b73c3c69bb8fe3d512ecc4cf759cc79239f7b179b0ffacaa9a75d522b39400f9b8c84528a83015260608201524660808201523060a082015260a0815260c0810181811085821117620002ef5789525190206080523060c0526101209889528051918211620002da576000938454916001928381811c91168015620002cf575b83821014620002bc57601f811162000271575b5081601f85116001146200020b5750839450908392918694620001ff575b50501b916000199060031b1c19161790555b15620001f15750610140918252519161494f93846200033c8539608051846143de015260a05184614499015260c051846143af015260e0518461442d015251836144530152518261440a0152518181816102a901528181611e660152818161269001528181612d9c015261301a0152f35b90516311a1e69760e01b8152fd5b0151925038806200016e565b9294849081168780528488209488905b888383106200025657505050106200023c575b505050811b01905562000180565b015160001960f88460031b161c191690553880806200022e565b8587015188559096019594850194879350908101906200021b565b868052828720601f860160051c810191848710620002b1575b601f0160051c019084905b828110620002a557505062000150565b88815501849062000295565b90915081906200028a565b634e487b7160e01b875260228952602487fd5b90607f16906200013d565b604186634e487b7160e01b6000525260246000fd5b604189634e487b7160e01b6000525260246000fd5b600080fd5b634e487b7160e01b600052604160045260246000fd5b604081019081106001600160401b03821117620003095760405256fe61016060406101405280610140515260048036101561001d57600080fd5b600091823560e01c90816312b11a171461118d5750806313893f611461110557806317d7de7c14610fe25780632d0335ab14610f7a57806344adc90e14610e715780634692626714610e125780634cb7e9e514610d095780634d00307014610cc0578063831e05a114610a71578063a3112a6414610a07578063b469318d14610987578063b83010d31461092c578063cf190f34146108e2578063d45c44351461088c578063e13458fc14610790578063e30bb56314610739578063e45d03f9146104b1578063e57a6b1b1461039b578063e71ff36514610310578063ed24911d146102cd578063f10b5cc81461025c578063f17325e7146101ae5763ffa1ad741461012857600080fd5b346101aa57817ffffffffffffffffffffffffffffffffffffffffffffffffffffffffffffffffc3601126101aa5761014051516101a6916101688261141f565b81527f302e3237000000000000000000000000000000000000000000000000000000006020820152610140515191829160208352602083019061123e565b0390f35b5080fd5b50907ffffffffffffffffffffffffffffffffffffffffffffffffffffffffffffffffc906020823601126102595782359267ffffffffffffffff84116101aa578301916101405190843603011261025957602061024e8161024786866102296102156114eb565b92610224602436920184611553565b6115d6565b61023283611586565b5261023c82611586565b503491339135611df1565b0151611586565b516101405151908152f35b80fd5b823461025957807ffffffffffffffffffffffffffffffffffffffffffffffffffffffffffffffffc360112610259576020610140515173ffffffffffffffffffffffffffffffffffffffff7f0000000000000000000000000000000000000000000000000000000000000000168152f35b823461025957807ffffffffffffffffffffffffffffffffffffffffffffffffffffffffffffffffc360112610259576020610306614398565b6101405151908152f35b50346101aa5760207ffffffffffffffffffffffffffffffffffffffffffffffffffffffffffffffffc3601126101aa57803567ffffffffffffffff918282116103975761035f913691016111e5565b90914216925b818110610379576020846101405151908152f35b806103918561038b6001948688611a39565b356141c0565b01610365565b8380fd5b5060e07ffffffffffffffffffffffffffffffffffffffffffffffffffffffffffffffffc3601126101aa576101405151906103d58261139c565b358082526103e236611981565b602083015260607fffffffffffffffffffffffffffffffffffffffffffffffffffffffffffffff9c3601126104ad57610140515161041f81611403565b60643560ff811681036104a9578152608435602082015260a435610140518201526101405183015260c43573ffffffffffffffffffffffffffffffffffffffff8116810361039757610479838260606104a596015261487c565b610481611932565b61048a36611981565b61049382611586565b5261049d81611586565b503492612d4f565b5080f35b8480fd5b8280fd5b506020807ffffffffffffffffffffffffffffffffffffffffffffffffffffffffffffffffc3601126104ad5767ffffffffffffffff82358181116104a95784926104ff8592369084016111e5565b91903493865b848110610510578780f35b6105208186859a9798999a61189e565b906080823603126107315761014051519761053a8961139c565b82358952858301358a811161073557830196601f973689820112156101aa5761056990369089813591016119c7565b94878b01958652610140518501358c81116104ad5785019836908a0112156101aa57883596610597886114d3565b996105a761014051519b8c611458565b888b52898b018a6060809b0283010191368311610731578b808c9201925b84841061071957505090506105e591508d6101405101978c8952016112a4565b96888d0197885251998a51801591821561070d575b50506106e257825b8a51811015610673578061066d8c8f8b8b8f926106448761063c60019a73ffffffffffffffffffffffffffffffffffffffff9451986115c2565b5193516115c2565b51925116926101405151946106588661139c565b8552840152610140518301528c82015261487c565b01610602565b5099986106d6949897506001955083906106d0939d97929c519073ffffffffffffffffffffffffffffffffffffffff7fffffffffffffffffffffffffffffffffffffffffffffffffffffffffffffffff8d018c1494511691612fcc565b90611862565b91969195929301610505565b5061014051517f947d5a84000000000000000000000000000000000000000000000000000000008152fd5b51141590508e806105fa565b6107233685611698565b8152019101908b8b916105c5565b8580fd5b8780fd5b5090346102595760207ffffffffffffffffffffffffffffffffffffffffffffffffffffffffffffffffc36011261025957602061078483356000526002602052604060002054151590565b61014051519015158152f35b507ffffffffffffffffffffffffffffffffffffffffffffffffffffffffffffffffc916020833601126102595767ffffffffffffffff9282358481116104ad5760c08185019282360301126104ad576101405151946107ee8661139c565b82359485875260248301948535928311610259575060209661086b6102479561085860a461024e9a9761082b8d9b986108849836918401016115d6565b8b87015261083c3660448301611698565b61014051870152019361084e856112a4565b60608201526144bf565b6102246108636114eb565b953692611553565b61087484611586565b5261087e83611586565b506116d6565b903492611df1565b50346101aa5760207ffffffffffffffffffffffffffffffffffffffffffffffffffffffffffffffffc3601126101aa5760209167ffffffffffffffff913581526003835261014051902054166101405151908152f35b50346101aa5760207ffffffffffffffffffffffffffffffffffffffffffffffffffffffffffffffffc3601126101aa5760209061030667ffffffffffffffff421680923533614266565b823461025957807ffffffffffffffffffffffffffffffffffffffffffffffffffffffffffffffffc36011261025957602061014051517fa98d02348410c9c76735e0d0bb1396f4015ac2bb9615f9c2611d19d7a8a996508152f35b50346101aa57610140517ffffffffffffffffffffffffffffffffffffffffffffffffffffffffffffffffc3601126101aa5760209167ffffffffffffffff9173ffffffffffffffffffffffffffffffffffffffff6109e3611281565b16825283526101405181206024358252835261014051902054166101405151908152f35b50346101aa5760207ffffffffffffffffffffffffffffffffffffffffffffffffffffffffffffffffc3601126101aa576101a691610a5b91610a47611a49565b503581526002602052610140519020611ae7565b6101405151918291602083526020830190611300565b5060207ffffffffffffffffffffffffffffffffffffffffffffffffffffffffffffffffc3601126101aa57803567ffffffffffffffff81116104ad57610abb8391369084016111e5565b9092610ac6826116f7565b9383346101205280935b808510610af2576101a6610ae4878961432b565b6101405151918291826112c5565b9091929394610b0286838661189e565b610b0f602082018261179e565b80929192158015610ca6575b610c7b578560608301928035915b838110610bbb57505092602092610b829260019695610b7c8d7fffffffffffffffffffffffffffffffffffffffffffffffffffffffffffffffff8b011494610b7461012051956116d6565b9336916117f2565b9061261e565b610b90815161012051611862565b61012052018051610ba1898b6115c2565b52610bac888a6115c2565b50515101950193929190610ad0565b610bca8160051b870187611553565b610bd9610140518401846118de565b831015610c4f576001929173ffffffffffffffffffffffffffffffffffffffff610c4992610c37610c098b6116d6565b91610c26610140515195610c1c8761139c565b8b875236906115d6565b602086015236906060880201611698565b610140518401521660608201526144bf565b01610b29565b60248b60328f7f4e487b7100000000000000000000000000000000000000000000000000000000835252fd5b8761014051517f947d5a84000000000000000000000000000000000000000000000000000000008152fd5b50610cb6610140518301836118de565b9050811415610b1b565b50346101aa5760207ffffffffffffffffffffffffffffffffffffffffffffffffffffffffffffffffc3601126101aa5760209061030667ffffffffffffffff42168092356141c0565b506020807ffffffffffffffffffffffffffffffffffffffffffffffffffffffffffffffffc3601126104ad57813567ffffffffffffffff928382116104a957610d54913691016111e5565b8493919290345b818610610d66578680f35b610d7186838761175e565b838101357fffffffffffffffffffffffffffffffffffffffffffffffffffffffffffffffe182360301811215610e0e57810191823592868411610e0a578501928060061b36038413610e0a57600193826106d092610e0295610dfb8d7fffffffffffffffffffffffffffffffffffffffffffffffffffffffffffffffff8b011494339336916119c7565b9035612fcc565b950194610d5b565b8980fd5b8880fd5b5060607ffffffffffffffffffffffffffffffffffffffffffffffffffffffffffffffffc3601126101aa576104a590610e49611932565b90610e5336611981565b610e5c83611586565b52610e6682611586565b503491339135612d4f565b50602090817ffffffffffffffffffffffffffffffffffffffffffffffffffffffffffffffffc3601126104ad5780359067ffffffffffffffff821161039757610ebe9084923691016111e5565b90610ec8826116f7565b93833490937fffffffffffffffffffffffffffffffffffffffffffffffffffffffffffffffff8101905b808610610f06576101a6610ae4888a61432b565b90919293949560019085610f51610f488a8888610f24838a8f61175e565b610f41610f338883018361179e565b9390951494339336916117f2565b903561261e565b96875190611862565b95018051610f5f8a8c6115c2565b52610f6a898b6115c2565b5051510196019493929190610ef2565b82346102595760207ffffffffffffffffffffffffffffffffffffffffffffffffffffffffffffffffc3601126102595760209073ffffffffffffffffffffffffffffffffffffffff610fca611281565b16815260018252610140519020546101405151908152f35b823461025957807ffffffffffffffffffffffffffffffffffffffffffffffffffffffffffffffffc3601126102595761014051519080805461102381611a94565b808552916001918083169081156110bd5750600114611063575b6101a68561104d81870382611458565b610140515191829160208352602083019061123e565b80809450527f290decd9548b62a8d60345a988386fc84ba6bc95484008f6362f93160ef3e5635b8284106110a557505050810160200161104d826101a661103d565b8054602085870181019190915290930192810161108a565b8695506101a69693506020925061104d9491507fffffffffffffffffffffffffffffffffffffffffffffffffffffffffffffff001682840152151560051b820101929361103d565b50346101aa5760207ffffffffffffffffffffffffffffffffffffffffffffffffffffffffffffffffc3601126101aa57803567ffffffffffffffff9182821161039757611154913691016111e5565b90914216925b81811061116e576020846101405151908152f35b80611187856111806001948688611a39565b3533614266565b0161115a565b8390346101aa57817ffffffffffffffffffffffffffffffffffffffffffffffffffffffffffffffffc3601126101aa57807fdbfdf8dc2b135c26253e00d5b6cbe6f20457e003fd526d97cea183883570de6160209252f35b9181601f840112156112165782359167ffffffffffffffff8311611216576020808501948460051b01011161121657565b600080fd5b60005b83811061122e5750506000910152565b818101518382015260200161121e565b907fffffffffffffffffffffffffffffffffffffffffffffffffffffffffffffffe0601f60209361127a8151809281875287808801910161121b565b0116010190565b6004359073ffffffffffffffffffffffffffffffffffffffff8216820361121657565b359073ffffffffffffffffffffffffffffffffffffffff8216820361121657565b6020908160408183019282815285518094520193019160005b8281106112ec575050505090565b8351855293810193928101926001016112de565b9061139991805182526020810151602083015267ffffffffffffffff806040830151166040840152806060830151166060840152608082015116608083015260a081015160a083015273ffffffffffffffffffffffffffffffffffffffff8060c08301511660c084015260e08201511660e08301526101008082015115159083015261012080910151916101408092820152019061123e565b90565b6080810190811067ffffffffffffffff8211176113b857604052565b7f4e487b7100000000000000000000000000000000000000000000000000000000600052604160045260246000fd5b60c0810190811067ffffffffffffffff8211176113b857604052565b6060810190811067ffffffffffffffff8211176113b857604052565b6040810190811067ffffffffffffffff8211176113b857604052565b610140810190811067ffffffffffffffff8211176113b857604052565b90601f7fffffffffffffffffffffffffffffffffffffffffffffffffffffffffffffffe0910116810190811067ffffffffffffffff8211176113b857604052565b67ffffffffffffffff81116113b857601f017fffffffffffffffffffffffffffffffffffffffffffffffffffffffffffffffe01660200190565b67ffffffffffffffff81116113b85760051b60200190565b6040908151916114fa8361141f565b60018352829160005b60208082101561154b5783516020929161151c826113e7565b6000825260008183015260008683015260606000818401526080830152600060a0830152828801015201611503565b505091925050565b9035907fffffffffffffffffffffffffffffffffffffffffffffffffffffffffffffff4181360301821215611216570190565b8051156115935760200190565b7f4e487b7100000000000000000000000000000000000000000000000000000000600052603260045260246000fd5b80518210156115935760209160051b010190565b91909160c08184031261121657604051906115f0826113e7565b81936115fb826112a4565b835260209167ffffffffffffffff8184013581811681036112165784860152604082013580151581036112165760408601526060820135606086015260808201359081116112165781019180601f840112156112165782359261165d84611499565b9161166b6040519384611458565b84835285858301011161121657848460a09695879660009401838601378301015260808501520135910152565b9190826060910312611216576040516116b081611403565b8092803560ff811681036112165760409182918452602081013560208501520135910152565b3573ffffffffffffffffffffffffffffffffffffffff811681036112165790565b90611701826114d3565b61170e6040519182611458565b8281527fffffffffffffffffffffffffffffffffffffffffffffffffffffffffffffffe061173c82946114d3565b019060005b82811061174d57505050565b806060602080938501015201611741565b91908110156115935760051b810135907fffffffffffffffffffffffffffffffffffffffffffffffffffffffffffffffc181360301821215611216570190565b9035907fffffffffffffffffffffffffffffffffffffffffffffffffffffffffffffffe181360301821215611216570180359067ffffffffffffffff821161121657602001918160051b3603831361121657565b929190926117ff846114d3565b9161180d6040519384611458565b829480845260208094019060051b8301928284116112165780915b84831061183757505050505050565b823567ffffffffffffffff811161121657869161185786849386016115d6565b815201920191611828565b9190820391821161186f57565b7f4e487b7100000000000000000000000000000000000000000000000000000000600052601160045260246000fd5b91908110156115935760051b810135907fffffffffffffffffffffffffffffffffffffffffffffffffffffffffffffff8181360301821215611216570190565b9035907fffffffffffffffffffffffffffffffffffffffffffffffffffffffffffffffe181360301821215611216570180359067ffffffffffffffff82116112165760200191606082023603831361121657565b6040908151916119418361141f565b600183528291600091825b602080821015611978578251602092916119658261141f565b868252868183015282890101520161194c565b50505091925050565b7fffffffffffffffffffffffffffffffffffffffffffffffffffffffffffffffdc604091011261121657604051906119b88261141f565b60243582526044356020830152565b9291926119d3826114d3565b6040926119e284519283611458565b819581835260208093019160061b84019381851161121657915b848310611a0b57505050505050565b8583830312611216578386918251611a228161141f565b8535815282860135838201528152019201916119fc565b91908110156115935760051b0190565b60405190611a568261143b565b606061012083600080825280602083015280604083015280848301528060808301528060a08301528060c08301528060e08301526101008201520152565b90600182811c92168015611add575b6020831014611aae57565b7f4e487b7100000000000000000000000000000000000000000000000000000000600052602260045260246000fd5b91607f1691611aa3565b9060405191611af58361143b565b828154815260016006818401549360209485850152600281015467ffffffffffffffff908181166040870152818160401c16606087015260801c166080850152600381015460a085015260ff73ffffffffffffffffffffffffffffffffffffffff8060048401541660c0870152600583015490811660e087015260a01c1615156101008501520190604051938492600092815491611b9283611a94565b80875292828116908115611c075750600114611bc1575b505050506101209291611bbd910384611458565b0152565b60009081528381209695945091905b818310611bef57509394509192509082010181611bbd61012038611ba9565b86548884018501529586019587945091830191611bd0565b7fffffffffffffffffffffffffffffffffffffffffffffffffffffffffffffff001685880152505050151560051b830101905081611bbd61012038611ba9565b60405190611c548261141f565b6060602083600081520152565b90611c6b826114d3565b611c786040519182611458565b8281527fffffffffffffffffffffffffffffffffffffffffffffffffffffffffffffffe0611ca682946114d3565b0190602036910137565b5190811515820361121657565b906020808383031261121657825167ffffffffffffffff938482116112165701926080848403126112165760405193611cf58561139c565b805185528281015173ffffffffffffffffffffffffffffffffffffffff811681036112165783860152611d2a60408201611cb0565b60408601526060810151918211611216570182601f8201121561121657805190611d5382611499565b93611d616040519586611458565b8285528383830101116112165782611d7c938501910161121b565b606082015290565b90611d8e826114d3565b611d9b6040519182611458565b8281527fffffffffffffffffffffffffffffffffffffffffffffffffffffffffffffffe0611dc982946114d3565b019060005b828110611dda57505050565b602090611de5611a49565b82828501015201611dce565b9192608052611dfe611c47565b50805190611e0a611c47565b60a052611e1682611c61565b602060a05101526040517fa2ea7c6e00000000000000000000000000000000000000000000000000000000815283600482015260008160248173ffffffffffffffffffffffffffffffffffffffff7f0000000000000000000000000000000000000000000000000000000000000000165afa8015612612576000610100526125ec575b506101005151156125c2579091611eaf83611d84565b60e052611ebb83611c61565b60c0526000915b838310611eed575050505050611ee360805160c05160e051610100516132bc565b60a0515260a05190565b611efd83829793949596976115c2565b519167ffffffffffffffff60208401511680151590816125ad575b506125835760406101005101511580612576575b61254c5760608301519567ffffffffffffffff6020850151169673ffffffffffffffffffffffffffffffffffffffff85511660408601511515906080870151926040519a611f798c61143b565b60008c528960208d015267ffffffffffffffff421660408d015260608c0152600060808c015260a08b015260c08a015273ffffffffffffffffffffffffffffffffffffffff8a1660e08a015261010089015261012088015260005b602088015160c08901516120dd609d60e08c015160408d01518d60608101519161010082015115159061012060a084015193015193604051988996602088019b8c527fffffffffffffffffffffffffffffffffffffffff000000000000000000000000809260601b16604089015260601b1660548701527fffffffffffffffff000000000000000000000000000000000000000000000000809260c01b16606887015260c01b16607085015260f81b6078840152607983015280516120a2816099936020858701910161121b565b8201907fffffffff000000000000000000000000000000000000000000000000000000008860e01b169082015203607d810184520182611458565b51902080600052600260205260406000205415612103575060010163ffffffff16611fd4565b905097969293909495919780845280600052600260205260406000209184518355602085015160018401556121df6002840167ffffffffffffffff6040880151168154907fffffffffffffffffffffffffffffffff000000000000000000000000000000006fffffffffffffffff000000000000000060608b015160401b1692161717815567ffffffffffffffff6080880151167fffffffffffffffff0000000000000000ffffffffffffffffffffffffffffffff77ffffffffffffffff0000000000000000000000000000000083549260801b169116179055565b60a085015160038401556004830173ffffffffffffffffffffffffffffffffffffffff60c0870151167fffffffffffffffffffffffff00000000000000000000000000000000000000008254161790556005830173ffffffffffffffffffffffffffffffffffffffff60e0870151168154907fffffffffffffffffffffff00000000000000000000000000000000000000000074ff00000000000000000000000000000000000000006101008a0151151560a01b1692161717905561012085015192835167ffffffffffffffff81116113b85789946122c16006840154611a94565b601f81116124f1575b50602090601f8311600114612424576006929160009183612419575b50507fffffffffffffffffffffffffffffffffffffffffffffffffffffffffffffffff8260011b9260031b1c1916179101555b6060810151806123c9575b5073ffffffffffffffffffffffffffffffffffffffff9060019561234a8660e0516115c2565b526123578560e0516115c2565b5060a08101516123698660c0516115c2565b528261237b86602060a05101516115c2565b5251166040519182527f8bf46bf4cfd674fa735a3d63ec1c9ad4153f033c290341f3a588b75685141b35602073ffffffffffffffffffffffffffffffffffffffff8b1693a401919290611ec2565b6123e29193506000526002602052604060002054151590565b156123ef57869138612324565b60046040517fc5723b51000000000000000000000000000000000000000000000000000000008152fd5b0151905038806122e6565b906006840160005260206000209160005b7fffffffffffffffffffffffffffffffffffffffffffffffffffffffffffffffe0851681106124d65750918391600193837fffffffffffffffffffffffffffffffffffffffffffffffffffffffffffffffe0600697161061249f575b505050811b01910155612319565b01517fffffffffffffffffffffffffffffffffffffffffffffffffffffffffffffffff60f88460031b161c19169055388080612491565b8183015184558d985060019093019260209283019201612435565b90919293949550600684016000526020600020601f840160051c810160208510612545575b908c979695949392915b601f830160051c820181106125365750506122ca565b600081558d9850600101612520565b5080612516565b60046040517f157bd4c3000000000000000000000000000000000000000000000000000000008152fd5b5060408301511515611f2c565b60046040517f08e8b937000000000000000000000000000000000000000000000000000000008152fd5b905067ffffffffffffffff4216101538611f18565b60046040517fbf37b20e000000000000000000000000000000000000000000000000000000008152fd5b612608903d806000833e6126008183611458565b810190611cbd565b6101005238611e99565b6040513d6000823e3d90fd5b929094939161262b611c47565b50855193612637611c47565b9461264181611c61565b6020870152604051907fa2ea7c6e00000000000000000000000000000000000000000000000000000000825282600483015260008260248173ffffffffffffffffffffffffffffffffffffffff7f0000000000000000000000000000000000000000000000000000000000000000165afa91821561261257600092612d32575b508151156125c257929790916126d684611d84565b986126e085611c61565b946000935b818510612702575050505050956126fd949596613520565b815290565b919593989496999092976127168a846115c2565b519a67ffffffffffffffff60208d0151168015159081612d1d575b506125835760408901511580612d10575b61254c57899860608d01518d602081015167ffffffffffffffff1691815173ffffffffffffffffffffffffffffffffffffffff1690604083015115159260800151936040519e8f906127938261143b565b6000825260208201524267ffffffffffffffff166040820152606001528d608081016000905260a0015260c08d015273ffffffffffffffffffffffffffffffffffffffff8b1660e08d01526101008c01526101208b015260005b60208b01518b6128be609d60c08301519260e08101519060408101519060608101519161010082015115159061012060a084015193015193604051988996602088019b8c527fffffffffffffffffffffffffffffffffffffffff000000000000000000000000809260601b16604089015260601b1660548701527fffffffffffffffff000000000000000000000000000000000000000000000000809260c01b16606887015260c01b16607085015260f81b6078840152607983015280516120a2816099936020858701910161121b565b519020806000526002602052604060002054156128e4575060010163ffffffff166127ed565b90509d979b9199929a949d9c909698939c80845280600052600260205260406000209184518355602085015160018401556129c66002840167ffffffffffffffff6040880151168154907fffffffffffffffffffffffffffffffff000000000000000000000000000000006fffffffffffffffff000000000000000060608b015160401b1692161717815567ffffffffffffffff6080880151167fffffffffffffffff0000000000000000ffffffffffffffffffffffffffffffff77ffffffffffffffff0000000000000000000000000000000083549260801b169116179055565b60a085015160038401556004830173ffffffffffffffffffffffffffffffffffffffff60c0870151167fffffffffffffffffffffffff00000000000000000000000000000000000000008254161790556005830173ffffffffffffffffffffffffffffffffffffffff60e0870151168154907fffffffffffffffffffffff00000000000000000000000000000000000000000074ff00000000000000000000000000000000000000006101008a0151151560a01b1692161717905561012085015192835167ffffffffffffffff81116113b8578894612aa86006840154611a94565b601f8111612cb5575b50602090601f8311600114612be8576006929160009183612bdd575b50507fffffffffffffffffffffffffffffffffffffffffffffffffffffffffffffffff8260011b9260031b1c1916179101555b8d8b8b606084015180612bb0575b5086602073ffffffffffffffffffffffffffffffffffffffff95948794612b46848660019e612b4083612b5e9a6115c2565b526115c2565b50612b568460a0890151926115c2565b5201516115c2565b5251166040519182527f8bf46bf4cfd674fa735a3d63ec1c9ad4153f033c290341f3a588b75685141b35602073ffffffffffffffffffffffffffffffffffffffff881693a4019290919293949a6126e5565b92505050612bcd9193506000526002602052604060002054151590565b156123ef5785918d8b8b38612b0e565b015190503880612acd565b906006840160005260206000209160005b7fffffffffffffffffffffffffffffffffffffffffffffffffffffffffffffffe085168110612c9a5750918391600193837fffffffffffffffffffffffffffffffffffffffffffffffffffffffffffffffe06006971610612c63575b505050811b01910155612b00565b01517fffffffffffffffffffffffffffffffffffffffffffffffffffffffffffffffff60f88460031b161c19169055388080612c55565b8183015184558c985060019093019260209283019201612bf9565b90919293949550600684016000526020600020601f840160051c810160208510612d09575b908b979695949392915b601f830160051c82018110612cfa575050612ab1565b600081558c9850600101612ce4565b5080612cda565b5060408c01511515612742565b905067ffffffffffffffff4216101538612731565b612d489192503d806000833e6126008183611458565b90386126c1565b939291936040517fa2ea7c6e00000000000000000000000000000000000000000000000000000000815281600482015260008160248173ffffffffffffffffffffffffffffffffffffffff7f0000000000000000000000000000000000000000000000000000000000000000165afa90811561261257600091612fb1575b508051156125c2578251612de081611d84565b92612dea82611c61565b9460005b838110612e045750505050611399949550613701565b612e0e81836115c2565b5190815160005260028060205260406000208054156123ef57856001820154036125c2578c73ffffffffffffffffffffffffffffffffffffffff6005830154911673ffffffffffffffffffffffffffffffffffffffff821603612f875760a01c60ff161561254c5767ffffffffffffffff8282015460801c16612f5d5790810180547fffffffffffffffff0000000000000000ffffffffffffffffffffffffffffffff164260801b77ffffffffffffffff00000000000000000000000000000000161790556001928c9190612ee282611ae7565b612eec858c6115c2565b52612ef7848b6115c2565b506020810151612f07858d6115c2565b527ff930a6e2523c9cc298691873087a740550b8fc85a0680830414c148ed927f615602073ffffffffffffffffffffffffffffffffffffffff87816004870154169451950154956040519586521693a401612dee565b60046040517f905e7107000000000000000000000000000000000000000000000000000000008152fd5b60046040517f4ca88867000000000000000000000000000000000000000000000000000000008152fd5b612fc691503d806000833e6126008183611458565b38612dcd565b90949392916040517fa2ea7c6e00000000000000000000000000000000000000000000000000000000815282600482015260008160248173ffffffffffffffffffffffffffffffffffffffff7f0000000000000000000000000000000000000000000000000000000000000000165afa908115612612576000916131ed575b508051156125c257865161305e81611d84565b9261306882611c61565b9460005b8381106130825750505050611399959650613900565b61308c818c6115c2565b519081516000526002918260205260406000208054156123ef57846001820154036125c257600581015473ffffffffffffffffffffffffffffffffffffffff871673ffffffffffffffffffffffffffffffffffffffff821603612f875760a01c60ff161561254c5767ffffffffffffffff8482015460801c16612f5d5792830180547fffffffffffffffff0000000000000000ffffffffffffffffffffffffffffffff164260801b77ffffffffffffffff000000000000000000000000000000001617905560019261315d81611ae7565b613167848b6115c2565b52613172838a6115c2565b506020820151613182848c6115c2565b528373ffffffffffffffffffffffffffffffffffffffff6004830154169251910154916040519182527ff930a6e2523c9cc298691873087a740550b8fc85a0680830414c148ed927f615602073ffffffffffffffffffffffffffffffffffffffff891693a40161306c565b61320291503d806000833e6126008183611458565b3861304b565b60408101906040815282518092526060810160608360051b830101926020809501916000905b82821061327157505050508281830391015281808451928381520193019160005b82811061325d575050505090565b83518552938101939281019260010161324f565b909192959485806132ac837fffffffffffffffffffffffffffffffffffffffffffffffffffffffffffffffa089600196030186528a51611300565b979801949391909101910161322e565b9092918351936001908186146134ff5773ffffffffffffffffffffffffffffffffffffffff602080950151169182156134cf579560009687915b8083106133c1575050509183929161333f9492876040518097819582947f91db0b7e00000000000000000000000000000000000000000000000000000000845260048401613208565b03925af19081156126125760009161338d575b509050156133635761139990614091565b60046040517fe8bee839000000000000000000000000000000000000000000000000000000008152fd5b82813d83116133ba575b6133a18183611458565b8101031261025957506133b390611cb0565b8038613352565b503d613397565b909197966133cf89876115c2565b5180151580613449575b61341f578181116133f5578084920398019801909190916132f6565b60046040517f11011294000000000000000000000000000000000000000000000000000000008152fd5b60046040517f1574f9f3000000000000000000000000000000000000000000000000000000008152fd5b50604080517fce46e04600000000000000000000000000000000000000000000000000000000815289816004818b5afa9182156134c55750600091613490575b50156133d9565b908982813d83116134be575b6134a68183611458565b8101031261025957506134b890611cb0565b38613489565b503d61349c565b513d6000823e3d90fd5b9594505050905060005b8281106134e95750505050600090565b6134f381836115c2565b5161341f5783016134d9565b6113999550613519915061351290611586565b5191611586565b5191613ad8565b9093918451946001908187146136e45773ffffffffffffffffffffffffffffffffffffffff602080950151169182156136b3579660009788915b80831061360357505050918392916135a39492886040518097819582947f91db0b7e00000000000000000000000000000000000000000000000000000000845260048401613208565b03925af1908115612612576000916135cf575b50905015613363576135c6575090565b61139990614091565b82813d83116135fc575b6135e38183611458565b8101031261025957506135f590611cb0565b80386135b6565b503d6135d9565b909198976136118a876115c2565b5180151580613637575b61341f578181116133f55780849203990199019091909161355a565b50604080517fce46e04600000000000000000000000000000000000000000000000000000000815289816004818b5afa9182156134c5575060009161367e575b501561361b565b908982813d83116136ac575b6136948183611458565b8101031261025957506136a690611cb0565b38613677565b503d61368a565b969550505091505060005b8281106136ce5750505050600090565b6136d881836115c2565b5161341f5783016136be565b61139996506136fa915061351290959495611586565b5191613c5f565b9092918351936001908186146138e65773ffffffffffffffffffffffffffffffffffffffff602080950151169182156138b6579560009687915b80831061380657505050918392916137849492876040518097819582947f88e5b2d900000000000000000000000000000000000000000000000000000000845260048401613208565b03925af1908115612612576000916137d2575b509050156137a85761139990614091565b60046040517fbf2f3a8b000000000000000000000000000000000000000000000000000000008152fd5b82813d83116137ff575b6137e68183611458565b8101031261025957506137f890611cb0565b8038613797565b503d6137dc565b9091979661381489876115c2565b518015158061383a575b61341f578181116133f55780849203980198019091909161373b565b50604080517fce46e04600000000000000000000000000000000000000000000000000000000815289816004818b5afa9182156134c55750600091613881575b501561381e565b908982813d83116138af575b6138978183611458565b8101031261025957506138a990611cb0565b3861387a565b503d61388d565b9594505050905060005b8281106138d05750505050600090565b6138da81836115c2565b5161341f5783016138c0565b61139995506138f9915061351290611586565b5191613dc7565b909391845194600190818714613abb5773ffffffffffffffffffffffffffffffffffffffff60208095015116918215613a8a579660009788915b8083106139da57505050918392916139839492886040518097819582947f88e5b2d900000000000000000000000000000000000000000000000000000000845260048401613208565b03925af1908115612612576000916139a6575b509050156137a8576135c6575090565b82813d83116139d3575b6139ba8183611458565b8101031261025957506139cc90611cb0565b8038613996565b503d6139b0565b909198976139e88a876115c2565b5180151580613a0e575b61341f578181116133f55780849203990199019091909161393a565b50604080517fce46e04600000000000000000000000000000000000000000000000000000000815289816004818b5afa9182156134c55750600091613a55575b50156139f2565b908982813d8311613a83575b613a6b8183611458565b810103126102595750613a7d90611cb0565b38613a4e565b503d613a61565b969550505091505060005b828110613aa55750505050600090565b613aaf81836115c2565b5161341f578301613a95565b6113999650613ad1915061351290959495611586565b5191613f41565b92919273ffffffffffffffffffffffffffffffffffffffff602080920151168015613c525784151580613bd8575b61341f578385116133f557613b54829186946040519586809481937fe60c35050000000000000000000000000000000000000000000000000000000083528760048401526024830190611300565b03925af190811561261257600091613ba4575b50905015613b7a57816113999103614091565b60046040517fbd8ba84d000000000000000000000000000000000000000000000000000000008152fd5b82813d8311613bd1575b613bb88183611458565b810103126102595750613bca90611cb0565b8038613b67565b503d613bae565b506040517fce46e0460000000000000000000000000000000000000000000000000000000081528281600481855afa90811561261257600091613c1d575b5015613b06565b908382813d8311613c4b575b613c338183611458565b810103126102595750613c4590611cb0565b38613c16565b503d613c29565b5050505061341f57600090565b93919373ffffffffffffffffffffffffffffffffffffffff602080920151168015613db95785151580613d3f575b61341f578486116133f557613cdb829187946040519586809481937fe60c35050000000000000000000000000000000000000000000000000000000083528760048401526024830190611300565b03925af190811561261257600091613d0b575b50905015613b7a578290613d0157505090565b6113999103614091565b82813d8311613d38575b613d1f8183611458565b810103126102595750613d3190611cb0565b8038613cee565b503d613d15565b506040517fce46e0460000000000000000000000000000000000000000000000000000000081528281600481855afa90811561261257600091613d84575b5015613c8d565b908382813d8311613db2575b613d9a8183611458565b810103126102595750613dac90611cb0565b38613d7d565b503d613d90565b505050505061341f57600090565b92919273ffffffffffffffffffffffffffffffffffffffff602080920151168015613c525784151580613ec7575b61341f578385116133f557613e43829186946040519586809481937fe49617e10000000000000000000000000000000000000000000000000000000083528760048401526024830190611300565b03925af190811561261257600091613e93575b50905015613e6957816113999103614091565b60046040517fccf3bb27000000000000000000000000000000000000000000000000000000008152fd5b82813d8311613ec0575b613ea78183611458565b810103126102595750613eb990611cb0565b8038613e56565b503d613e9d565b506040517fce46e0460000000000000000000000000000000000000000000000000000000081528281600481855afa90811561261257600091613f0c575b5015613df5565b908382813d8311613f3a575b613f228183611458565b810103126102595750613f3490611cb0565b38613f05565b503d613f18565b93919373ffffffffffffffffffffffffffffffffffffffff602080920151168015613db95785151580614017575b61341f578486116133f557613fbd829187946040519586809481937fe49617e10000000000000000000000000000000000000000000000000000000083528760048401526024830190611300565b03925af190811561261257600091613fe3575b50905015613e69578290613d0157505090565b82813d8311614010575b613ff78183611458565b81010312610259575061400990611cb0565b8038613fd0565b503d613fed565b506040517fce46e0460000000000000000000000000000000000000000000000000000000081528281600481855afa9081156126125760009161405c575b5015613f6f565b908382813d831161408a575b6140728183611458565b81010312610259575061408490611cb0565b38614055565b503d614068565b806140995750565b80471061416257600080808093335af13d1561415d573d6140b981611499565b906140c76040519283611458565b8152600060203d92013e5b156140d957565b60846040517f08c379a000000000000000000000000000000000000000000000000000000000815260206004820152603a60248201527f416464726573733a20756e61626c6520746f2073656e642076616c75652c207260448201527f6563697069656e74206d617920686176652072657665727465640000000000006064820152fd5b6140d2565b60646040517f08c379a000000000000000000000000000000000000000000000000000000000815260206004820152601d60248201527f416464726573733a20696e73756666696369656e742062616c616e63650000006044820152fd5b6000818152600360205267ffffffffffffffff908160408220541661423c577f5aafceeb1c7ad58e4a84898bdee37c02c0fc46e7d24e6b60e8209449f183459f91838252600360205260408220941693847fffffffffffffffffffffffffffffffffffffffffffffffff000000000000000082541617905580a3565b60046040517f2e267946000000000000000000000000000000000000000000000000000000008152fd5b73ffffffffffffffffffffffffffffffffffffffff166000818152600460205260408120908381528160205267ffffffffffffffff80604083205416614301577f92a1f7a41a7c585a8b09e25b195e225b1d43248daca46b0faf9e0792777a22299285835260205260408220951694857fffffffffffffffffffffffffffffffffffffffffffffffff000000000000000082541617905580a4565b60046040517fec9d6eeb000000000000000000000000000000000000000000000000000000008152fd5b9061433590611c61565b60009283925b8051841015614390579361434f84866115c2565b519160005b835181101561437f5761436781856115c2565b5161437284876115c2565b5260019283019201614354565b50909460019094019390915061433b565b509250905090565b73ffffffffffffffffffffffffffffffffffffffff7f000000000000000000000000000000000000000000000000000000000000000016301480614496575b15614400577f000000000000000000000000000000000000000000000000000000000000000090565b60405160208101907f000000000000000000000000000000000000000000000000000000000000000082527f000000000000000000000000000000000000000000000000000000000000000060408201527f000000000000000000000000000000000000000000000000000000000000000060608201524660808201523060a082015260a08152614490816113e7565b51902090565b507f000000000000000000000000000000000000000000000000000000000000000046146143d7565b6020908181015190604080938183015192606081019173ffffffffffffffffffffffffffffffffffffffff948584511660005260018252846000209283549360018501905551928688511667ffffffffffffffff988985820151168882015115159060806060840151930151878151910120938a5198888a019b7fdbfdf8dc2b135c26253e00d5b6cbe6f20457e003fd526d97cea183883570de618d528a01526060890152608088015260a087015260c086015260e085015261010090818501528352610120830196838810908811176113b8576145aa86956145be946145c6998b52519020614830565b918860ff8351169183015192015192614794565b9490946145fb565b51169116036145d25750565b600490517f8baa579f000000000000000000000000000000000000000000000000000000008152fd5b6005811015614765578061460c5750565b600181036146725760646040517f08c379a000000000000000000000000000000000000000000000000000000000815260206004820152601860248201527f45434453413a20696e76616c6964207369676e617475726500000000000000006044820152fd5b600281036146d85760646040517f08c379a000000000000000000000000000000000000000000000000000000000815260206004820152601f60248201527f45434453413a20696e76616c6964207369676e6174757265206c656e677468006044820152fd5b6003146146e157565b60846040517f08c379a000000000000000000000000000000000000000000000000000000000815260206004820152602260248201527f45434453413a20696e76616c6964207369676e6174757265202773272076616c60448201527f75650000000000000000000000000000000000000000000000000000000000006064820152fd5b7f4e487b7100000000000000000000000000000000000000000000000000000000600052602160045260246000fd5b9291907f7fffffffffffffffffffffffffffffff5d576e7357a4501ddfe92f46681b20a083116148245791608094939160ff602094604051948552168484015260408301526060820152600093849182805260015afa1561481757815173ffffffffffffffffffffffffffffffffffffffff811615614811579190565b50600190565b50604051903d90823e3d90fd5b50505050600090600390565b614838614398565b906040519060208201927f1901000000000000000000000000000000000000000000000000000000000000845260228301526042820152604281526144908161139c565b602081015160409182810151916060820173ffffffffffffffffffffffffffffffffffffffff9283825116600052600160205285600020908154916001830190555192519086519160208301947fa98d02348410c9c76735e0d0bb1396f4015ac2bb9615f9c2611d19d7a8a99650865288840152606083015260808201526080815260a081019481861067ffffffffffffffff8711176113b85761492d85946145be936145c6988a52519020614830565b9060ff8151168860208301519201519261479456fea164736f6c6343000813000a",
  "devdoc": {
    "events": {
      "Attested(address,address,bytes32,bytes32)": {
        "details": "Emitted when an attestation has been made.",
        "params": {
          "attester": "The attesting account.",
          "recipient": "The recipient of the attestation.",
          "schema": "The UID of the schema.",
          "uid": "The UID the revoked attestation."
        }
      },
      "Revoked(address,address,bytes32,bytes32)": {
        "details": "Emitted when an attestation has been revoked.",
        "params": {
          "attester": "The attesting account.",
          "recipient": "The recipient of the attestation.",
          "schema": "The UID of the schema.",
          "uid": "The UID the revoked attestation."
        }
      },
      "RevokedOffchain(address,bytes32,uint64)": {
        "details": "Emitted when a data has been revoked.",
        "params": {
          "data": "The data.",
          "revoker": "The address of the revoker.",
          "timestamp": "The timestamp."
        }
      },
      "Timestamped(bytes32,uint64)": {
        "details": "Emitted when a data has been timestamped.",
        "params": {
          "data": "The data.",
          "timestamp": "The timestamp."
        }
      }
    },
    "kind": "dev",
    "methods": {
      "attest((bytes32,(address,uint64,bool,bytes32,bytes,uint256)))": {
        "details": "Attests to a specific schema.",
        "params": {
          "request": "The arguments of the attestation request. Example: attest({     schema: \"0facc36681cbe2456019c1b0d1e7bedd6d1d40f6f324bf3dd3a4cef2999200a0\",     data: {         recipient: \"0xdEADBeAFdeAdbEafdeadbeafDeAdbEAFdeadbeaf\",         expirationTime: 0,         revocable: true,         refUID: \"0x0000000000000000000000000000000000000000000000000000000000000000\",         data: \"0xF00D\",         value: 0     } })"
        },
        "returns": {
          "_0": "The UID of the new attestation."
        }
      },
      "attestByDelegation((bytes32,(address,uint64,bool,bytes32,bytes,uint256),(uint8,bytes32,bytes32),address))": {
        "details": "Attests to a specific schema via the provided EIP712 signature.",
        "params": {
          "delegatedRequest": "The arguments of the delegated attestation request. Example: attestByDelegation({     schema: '0x8e72f5bc0a8d4be6aa98360baa889040c50a0e51f32dbf0baa5199bd93472ebc',     data: {         recipient: '0xf39Fd6e51aad88F6F4ce6aB8827279cffFb92266',         expirationTime: 1673891048,         revocable: true,         refUID: '0x0000000000000000000000000000000000000000000000000000000000000000',         data: '0x1234',         value: 0     },     signature: {         v: 28,         r: '0x148c...b25b',         s: '0x5a72...be22'     },     attester: '0xc5E8740aD971409492b1A63Db8d83025e0Fc427e' })"
        },
        "returns": {
          "_0": "The UID of the new attestation."
        }
      },
      "constructor": {
        "details": "Creates a new EAS instance.",
        "params": {
          "registry": "The address of the global schema registry."
        }
      },
      "getAttestation(bytes32)": {
        "details": "Returns an existing attestation by UID.",
        "params": {
          "uid": "The UID of the attestation to retrieve."
        },
        "returns": {
          "_0": "The attestation data members."
        }
      },
      "getDomainSeparator()": {
        "details": "Returns the domain separator used in the encoding of the signatures for attest, and revoke."
      },
      "getNonce(address)": {
        "details": "Returns the current nonce per-account.",
        "params": {
          "account": "The requested account."
        },
        "returns": {
          "_0": "The current nonce."
        }
      },
      "getRevokeOffchain(address,bytes32)": {
        "details": "Returns the timestamp that the specified data was timestamped with.",
        "params": {
          "data": "The data to query."
        },
        "returns": {
          "_0": "The timestamp the data was timestamped with."
        }
      },
      "getSchemaRegistry()": {
        "details": "Returns the address of the global schema registry.",
        "returns": {
          "_0": "The address of the global schema registry."
        }
      },
      "getTimestamp(bytes32)": {
        "details": "Returns the timestamp that the specified data was timestamped with.",
        "params": {
          "data": "The data to query."
        },
        "returns": {
          "_0": "The timestamp the data was timestamped with."
        }
      },
      "isAttestationValid(bytes32)": {
        "details": "Checks whether an attestation exists.",
        "params": {
          "uid": "The UID of the attestation to retrieve."
        },
        "returns": {
          "_0": "Whether an attestation exists."
        }
      },
      "multiAttest((bytes32,(address,uint64,bool,bytes32,bytes,uint256)[])[])": {
        "details": "Attests to multiple schemas.",
        "params": {
          "multiRequests": "The arguments of the multi attestation requests. The requests should be grouped by distinct schema ids to benefit from the best batching optimization. Example: multiAttest([{     schema: '0x33e9094830a5cba5554d1954310e4fbed2ef5f859ec1404619adea4207f391fd',     data: [{         recipient: '0xdEADBeAFdeAdbEafdeadbeafDeAdbEAFdeadbeaf',         expirationTime: 1673891048,         revocable: true,         refUID: '0x0000000000000000000000000000000000000000000000000000000000000000',         data: '0x1234',         value: 1000     },     {         recipient: '0xf39Fd6e51aad88F6F4ce6aB8827279cffFb92266',         expirationTime: 0,         revocable: false,         refUID: '0x480df4a039efc31b11bfdf491b383ca138b6bde160988222a2a3509c02cee174',         data: '0x00',         value: 0     }], }, {     schema: '0x5ac273ce41e3c8bfa383efe7c03e54c5f0bff29c9f11ef6ffa930fc84ca32425',     data: [{         recipient: '0xdEADBeAFdeAdbEafdeadbeafDeAdbEAFdeadbeaf',         expirationTime: 0,         revocable: true,         refUID: '0x75bf2ed8dca25a8190c50c52db136664de25b2449535839008ccfdab469b214f',         data: '0x12345678',         value: 0     }, }])"
        },
        "returns": {
          "_0": "The UIDs of the new attestations."
        }
      },
      "multiAttestByDelegation((bytes32,(address,uint64,bool,bytes32,bytes,uint256)[],(uint8,bytes32,bytes32)[],address)[])": {
        "details": "Attests to multiple schemas using via provided EIP712 signatures.",
        "params": {
          "multiDelegatedRequests": "The arguments of the delegated multi attestation requests. The requests should be grouped by distinct schema ids to benefit from the best batching optimization. Example: multiAttestByDelegation([{     schema: '0x8e72f5bc0a8d4be6aa98360baa889040c50a0e51f32dbf0baa5199bd93472ebc',     data: [{         recipient: '0xf39Fd6e51aad88F6F4ce6aB8827279cffFb92266',         expirationTime: 1673891048,         revocable: true,         refUID: '0x0000000000000000000000000000000000000000000000000000000000000000',         data: '0x1234',         value: 0     },     {         recipient: '0xdEADBeAFdeAdbEafdeadbeafDeAdbEAFdeadbeaf',         expirationTime: 0,         revocable: false,         refUID: '0x0000000000000000000000000000000000000000000000000000000000000000',         data: '0x00',         value: 0     }],     signatures: [{         v: 28,         r: '0x148c...b25b',         s: '0x5a72...be22'     },     {         v: 28,         r: '0x487s...67bb',         s: '0x12ad...2366'     }],     attester: '0x1D86495b2A7B524D747d2839b3C645Bed32e8CF4' }])"
        },
        "returns": {
          "_0": "The UIDs of the new attestations."
        }
      },
      "multiRevoke((bytes32,(bytes32,uint256)[])[])": {
        "details": "Revokes existing attestations to multiple schemas.",
        "params": {
          "multiRequests": "The arguments of the multi revocation requests. The requests should be grouped by distinct schema ids to benefit from the best batching optimization. Example: multiRevoke([{     schema: '0x8e72f5bc0a8d4be6aa98360baa889040c50a0e51f32dbf0baa5199bd93472ebc',     data: [{         uid: '0x211296a1ca0d7f9f2cfebf0daaa575bea9b20e968d81aef4e743d699c6ac4b25',         value: 1000     },     {         uid: '0xe160ac1bd3606a287b4d53d5d1d6da5895f65b4b4bab6d93aaf5046e48167ade',         value: 0     }], }, {     schema: '0x5ac273ce41e3c8bfa383efe7c03e54c5f0bff29c9f11ef6ffa930fc84ca32425',     data: [{         uid: '0x053d42abce1fd7c8fcddfae21845ad34dae287b2c326220b03ba241bc5a8f019',         value: 0     }, }])"
        }
      },
      "multiRevokeByDelegation((bytes32,(bytes32,uint256)[],(uint8,bytes32,bytes32)[],address)[])": {
        "details": "Revokes existing attestations to multiple schemas via provided EIP712 signatures.",
        "params": {
          "multiDelegatedRequests": "The arguments of the delegated multi revocation attestation requests. The requests should be grouped by distinct schema ids to benefit from the best batching optimization. Example: multiRevokeByDelegation([{     schema: '0x8e72f5bc0a8d4be6aa98360baa889040c50a0e51f32dbf0baa5199bd93472ebc',     data: [{         uid: '0x211296a1ca0d7f9f2cfebf0daaa575bea9b20e968d81aef4e743d699c6ac4b25',         value: 1000     },     {         uid: '0xe160ac1bd3606a287b4d53d5d1d6da5895f65b4b4bab6d93aaf5046e48167ade',         value: 0     }],     signatures: [{         v: 28,         r: '0x148c...b25b',         s: '0x5a72...be22'     },     {         v: 28,         r: '0x487s...67bb',         s: '0x12ad...2366'     }],     revoker: '0x244934dd3e31bE2c81f84ECf0b3E6329F5381992' }])"
        }
      },
      "multiRevokeOffchain(bytes32[])": {
        "details": "Revokes the specified multiple bytes32 data.",
        "params": {
          "data": "The data to timestamp."
        },
        "returns": {
          "_0": "The timestamp the data was revoked with."
        }
      },
      "multiTimestamp(bytes32[])": {
        "details": "Timestamps the specified multiple bytes32 data.",
        "params": {
          "data": "The data to timestamp."
        },
        "returns": {
          "_0": "The timestamp the data was timestamped with."
        }
      },
      "revoke((bytes32,(bytes32,uint256)))": {
        "details": "Revokes an existing attestation to a specific schema. Example: revoke({     schema: '0x8e72f5bc0a8d4be6aa98360baa889040c50a0e51f32dbf0baa5199bd93472ebc',     data: {         uid: '0x101032e487642ee04ee17049f99a70590c735b8614079fc9275f9dd57c00966d',         value: 0     } })",
        "params": {
          "request": "The arguments of the revocation request."
        }
      },
      "revokeByDelegation((bytes32,(bytes32,uint256),(uint8,bytes32,bytes32),address))": {
        "details": "Revokes an existing attestation to a specific schema via the provided EIP712 signature. Example: revokeByDelegation({     schema: '0x8e72f5bc0a8d4be6aa98360baa889040c50a0e51f32dbf0baa5199bd93472ebc',     data: {         uid: '0xcbbc12102578c642a0f7b34fe7111e41afa25683b6cd7b5a14caf90fa14d24ba',         value: 0     },     signature: {         v: 27,         r: '0xb593...7142',         s: '0x0f5b...2cce'     },     revoker: '0x244934dd3e31bE2c81f84ECf0b3E6329F5381992' })",
        "params": {
          "delegatedRequest": "The arguments of the delegated revocation request."
        }
      },
      "revokeOffchain(bytes32)": {
        "details": "Revokes the specified bytes32 data.",
        "params": {
          "data": "The data to timestamp."
        },
        "returns": {
          "_0": "The timestamp the data was revoked with."
        }
      },
      "timestamp(bytes32)": {
        "details": "Timestamps the specified bytes32 data.",
        "params": {
          "data": "The data to timestamp."
        },
        "returns": {
          "_0": "The timestamp the data was timestamped with."
        }
      }
    },
    "title": "EAS - Ethereum Attestation Service",
    "version": 1
  },
  "userdoc": {
    "kind": "user",
    "methods": {
      "getAttestTypeHash()": {
        "notice": "Returns the EIP712 type hash for the attest function."
      },
      "getName()": {
        "notice": "Returns the EIP712 name."
      },
      "getRevokeTypeHash()": {
        "notice": "Returns the EIP712 type hash for the revoke function."
      }
    },
    "version": 1
  },
  "storageLayout": {
    "storage": [
      {
        "astId": 5421,
        "contract": "contracts/EAS.sol:EAS",
        "label": "_name",
        "offset": 0,
        "slot": "0",
        "type": "t_string_storage"
      },
      {
        "astId": 5425,
        "contract": "contracts/EAS.sol:EAS",
        "label": "_nonces",
        "offset": 0,
        "slot": "1",
        "type": "t_mapping(t_address,t_uint256)"
      },
      {
        "astId": 3160,
        "contract": "contracts/EAS.sol:EAS",
        "label": "_db",
        "offset": 0,
        "slot": "2",
        "type": "t_mapping(t_bytes32,t_struct(Attestation)3072_storage)"
      },
      {
        "astId": 3164,
        "contract": "contracts/EAS.sol:EAS",
        "label": "_timestamps",
        "offset": 0,
        "slot": "3",
        "type": "t_mapping(t_bytes32,t_uint64)"
      },
      {
        "astId": 3170,
        "contract": "contracts/EAS.sol:EAS",
        "label": "_revocationsOffchain",
        "offset": 0,
        "slot": "4",
        "type": "t_mapping(t_address,t_mapping(t_bytes32,t_uint64))"
      }
    ],
    "types": {
      "t_address": {
        "encoding": "inplace",
        "label": "address",
        "numberOfBytes": "20"
      },
      "t_bool": {
        "encoding": "inplace",
        "label": "bool",
        "numberOfBytes": "1"
      },
      "t_bytes32": {
        "encoding": "inplace",
        "label": "bytes32",
        "numberOfBytes": "32"
      },
      "t_bytes_storage": {
        "encoding": "bytes",
        "label": "bytes",
        "numberOfBytes": "32"
      },
      "t_mapping(t_address,t_mapping(t_bytes32,t_uint64))": {
        "encoding": "mapping",
        "key": "t_address",
        "label": "mapping(address => mapping(bytes32 => uint64))",
        "numberOfBytes": "32",
        "value": "t_mapping(t_bytes32,t_uint64)"
      },
      "t_mapping(t_address,t_uint256)": {
        "encoding": "mapping",
        "key": "t_address",
        "label": "mapping(address => uint256)",
        "numberOfBytes": "32",
        "value": "t_uint256"
      },
      "t_mapping(t_bytes32,t_struct(Attestation)3072_storage)": {
        "encoding": "mapping",
        "key": "t_bytes32",
        "label": "mapping(bytes32 => struct Attestation)",
        "numberOfBytes": "32",
        "value": "t_struct(Attestation)3072_storage"
      },
      "t_mapping(t_bytes32,t_uint64)": {
        "encoding": "mapping",
        "key": "t_bytes32",
        "label": "mapping(bytes32 => uint64)",
        "numberOfBytes": "32",
        "value": "t_uint64"
      },
      "t_string_storage": {
        "encoding": "bytes",
        "label": "string",
        "numberOfBytes": "32"
      },
      "t_struct(Attestation)3072_storage": {
        "encoding": "inplace",
        "label": "struct Attestation",
        "members": [
          {
            "astId": 3053,
            "contract": "contracts/EAS.sol:EAS",
            "label": "uid",
            "offset": 0,
            "slot": "0",
            "type": "t_bytes32"
          },
          {
            "astId": 3055,
            "contract": "contracts/EAS.sol:EAS",
            "label": "schema",
            "offset": 0,
            "slot": "1",
            "type": "t_bytes32"
          },
          {
            "astId": 3057,
            "contract": "contracts/EAS.sol:EAS",
            "label": "time",
            "offset": 0,
            "slot": "2",
            "type": "t_uint64"
          },
          {
            "astId": 3059,
            "contract": "contracts/EAS.sol:EAS",
            "label": "expirationTime",
            "offset": 8,
            "slot": "2",
            "type": "t_uint64"
          },
          {
            "astId": 3061,
            "contract": "contracts/EAS.sol:EAS",
            "label": "revocationTime",
            "offset": 16,
            "slot": "2",
            "type": "t_uint64"
          },
          {
            "astId": 3063,
            "contract": "contracts/EAS.sol:EAS",
            "label": "refUID",
            "offset": 0,
            "slot": "3",
            "type": "t_bytes32"
          },
          {
            "astId": 3065,
            "contract": "contracts/EAS.sol:EAS",
            "label": "recipient",
            "offset": 0,
            "slot": "4",
            "type": "t_address"
          },
          {
            "astId": 3067,
            "contract": "contracts/EAS.sol:EAS",
            "label": "attester",
            "offset": 0,
            "slot": "5",
            "type": "t_address"
          },
          {
            "astId": 3069,
            "contract": "contracts/EAS.sol:EAS",
            "label": "revocable",
            "offset": 20,
            "slot": "5",
            "type": "t_bool"
          },
          {
            "astId": 3071,
            "contract": "contracts/EAS.sol:EAS",
            "label": "data",
            "offset": 0,
            "slot": "6",
            "type": "t_bytes_storage"
          }
        ],
        "numberOfBytes": "224"
      },
      "t_uint256": {
        "encoding": "inplace",
        "label": "uint256",
        "numberOfBytes": "32"
      },
      "t_uint64": {
        "encoding": "inplace",
        "label": "uint64",
        "numberOfBytes": "8"
      }
    }
  }
}