{
  "address": "0x97e6822A36E38D4d93C0c810CC2be1C6Fd492b64",
  "abi": [
    {
      "inputs": [
        {
          "internalType": "contract IEAS",
          "name": "eas",
          "type": "address"
        },
        {
          "internalType": "string",
          "name": "name",
          "type": "string"
        }
      ],
      "stateMutability": "nonpayable",
      "type": "constructor"
    },
    {
      "inputs": [],
      "name": "AccessDenied",
      "type": "error"
    },
    {
      "inputs": [],
      "name": "DeadlineExpired",
      "type": "error"
    },
    {
      "inputs": [],
      "name": "InvalidEAS",
      "type": "error"
    },
    {
      "inputs": [],
      "name": "InvalidLength",
      "type": "error"
    },
    {
      "inputs": [],
      "name": "InvalidSignature",
      "type": "error"
    },
    {
      "inputs": [],
      "name": "NotFound",
      "type": "error"
    },
    {
      "inputs": [],
      "name": "UsedSignature",
      "type": "error"
    },
    {
      "inputs": [
        {
          "components": [
            {
              "internalType": "bytes32",
              "name": "schema",
              "type": "bytes32"
            },
            {
              "components": [
                {
                  "internalType": "address",
                  "name": "recipient",
                  "type": "address"
                },
                {
                  "internalType": "uint64",
                  "name": "expirationTime",
                  "type": "uint64"
                },
                {
                  "internalType": "bool",
                  "name": "revocable",
                  "type": "bool"
                },
                {
                  "internalType": "bytes32",
                  "name": "refUID",
                  "type": "bytes32"
                },
                {
                  "internalType": "bytes",
                  "name": "data",
                  "type": "bytes"
                },
                {
                  "internalType": "uint256",
                  "name": "value",
                  "type": "uint256"
                }
              ],
              "internalType": "struct AttestationRequestData",
              "name": "data",
              "type": "tuple"
            },
            {
              "components": [
                {
                  "internalType": "uint8",
                  "name": "v",
                  "type": "uint8"
                },
                {
                  "internalType": "bytes32",
                  "name": "r",
                  "type": "bytes32"
                },
                {
                  "internalType": "bytes32",
                  "name": "s",
                  "type": "bytes32"
                }
              ],
              "internalType": "struct EIP712Signature",
              "name": "signature",
              "type": "tuple"
            },
            {
              "internalType": "address",
              "name": "attester",
              "type": "address"
            },
            {
              "internalType": "uint64",
              "name": "deadline",
              "type": "uint64"
            }
          ],
          "internalType": "struct DelegatedProxyAttestationRequest",
          "name": "delegatedRequest",
          "type": "tuple"
        }
      ],
      "name": "attestByDelegation",
      "outputs": [
        {
          "internalType": "bytes32",
          "name": "",
          "type": "bytes32"
        }
      ],
      "stateMutability": "payable",
      "type": "function"
    },
    {
      "inputs": [],
      "name": "getAttestTypeHash",
      "outputs": [
        {
          "internalType": "bytes32",
          "name": "",
          "type": "bytes32"
        }
      ],
      "stateMutability": "pure",
      "type": "function"
    },
    {
      "inputs": [
        {
          "internalType": "bytes32",
          "name": "uid",
          "type": "bytes32"
        }
      ],
      "name": "getAttester",
      "outputs": [
        {
          "internalType": "address",
          "name": "",
          "type": "address"
        }
      ],
      "stateMutability": "view",
      "type": "function"
    },
    {
      "inputs": [],
      "name": "getDomainSeparator",
      "outputs": [
        {
          "internalType": "bytes32",
          "name": "",
          "type": "bytes32"
        }
      ],
      "stateMutability": "view",
      "type": "function"
    },
    {
      "inputs": [],
      "name": "getEAS",
      "outputs": [
        {
          "internalType": "contract IEAS",
          "name": "",
          "type": "address"
        }
      ],
      "stateMutability": "view",
      "type": "function"
    },
    {
      "inputs": [],
      "name": "getName",
      "outputs": [
        {
          "internalType": "string",
          "name": "",
          "type": "string"
        }
      ],
      "stateMutability": "view",
      "type": "function"
    },
    {
      "inputs": [],
      "name": "getRevokeTypeHash",
      "outputs": [
        {
          "internalType": "bytes32",
          "name": "",
          "type": "bytes32"
        }
      ],
      "stateMutability": "pure",
      "type": "function"
    },
    {
      "inputs": [
        {
          "components": [
            {
              "internalType": "bytes32",
              "name": "schema",
              "type": "bytes32"
            },
            {
              "components": [
                {
                  "internalType": "address",
                  "name": "recipient",
                  "type": "address"
                },
                {
                  "internalType": "uint64",
                  "name": "expirationTime",
                  "type": "uint64"
                },
                {
                  "internalType": "bool",
                  "name": "revocable",
                  "type": "bool"
                },
                {
                  "internalType": "bytes32",
                  "name": "refUID",
                  "type": "bytes32"
                },
                {
                  "internalType": "bytes",
                  "name": "data",
                  "type": "bytes"
                },
                {
                  "internalType": "uint256",
                  "name": "value",
                  "type": "uint256"
                }
              ],
              "internalType": "struct AttestationRequestData[]",
              "name": "data",
              "type": "tuple[]"
            },
            {
              "components": [
                {
                  "internalType": "uint8",
                  "name": "v",
                  "type": "uint8"
                },
                {
                  "internalType": "bytes32",
                  "name": "r",
                  "type": "bytes32"
                },
                {
                  "internalType": "bytes32",
                  "name": "s",
                  "type": "bytes32"
                }
              ],
              "internalType": "struct EIP712Signature[]",
              "name": "signatures",
              "type": "tuple[]"
            },
            {
              "internalType": "address",
              "name": "attester",
              "type": "address"
            },
            {
              "internalType": "uint64",
              "name": "deadline",
              "type": "uint64"
            }
          ],
          "internalType": "struct MultiDelegatedProxyAttestationRequest[]",
          "name": "multiDelegatedRequests",
          "type": "tuple[]"
        }
      ],
      "name": "multiAttestByDelegation",
      "outputs": [
        {
          "internalType": "bytes32[]",
          "name": "",
          "type": "bytes32[]"
        }
      ],
      "stateMutability": "payable",
      "type": "function"
    },
    {
      "inputs": [
        {
          "components": [
            {
              "internalType": "bytes32",
              "name": "schema",
              "type": "bytes32"
            },
            {
              "components": [
                {
                  "internalType": "bytes32",
                  "name": "uid",
                  "type": "bytes32"
                },
                {
                  "internalType": "uint256",
                  "name": "value",
                  "type": "uint256"
                }
              ],
              "internalType": "struct RevocationRequestData[]",
              "name": "data",
              "type": "tuple[]"
            },
            {
              "components": [
                {
                  "internalType": "uint8",
                  "name": "v",
                  "type": "uint8"
                },
                {
                  "internalType": "bytes32",
                  "name": "r",
                  "type": "bytes32"
                },
                {
                  "internalType": "bytes32",
                  "name": "s",
                  "type": "bytes32"
                }
              ],
              "internalType": "struct EIP712Signature[]",
              "name": "signatures",
              "type": "tuple[]"
            },
            {
              "internalType": "address",
              "name": "revoker",
              "type": "address"
            },
            {
              "internalType": "uint64",
              "name": "deadline",
              "type": "uint64"
            }
          ],
          "internalType": "struct MultiDelegatedProxyRevocationRequest[]",
          "name": "multiDelegatedRequests",
          "type": "tuple[]"
        }
      ],
      "name": "multiRevokeByDelegation",
      "outputs": [],
      "stateMutability": "payable",
      "type": "function"
    },
    {
      "inputs": [
        {
          "components": [
            {
              "internalType": "bytes32",
              "name": "schema",
              "type": "bytes32"
            },
            {
              "components": [
                {
                  "internalType": "bytes32",
                  "name": "uid",
                  "type": "bytes32"
                },
                {
                  "internalType": "uint256",
                  "name": "value",
                  "type": "uint256"
                }
              ],
              "internalType": "struct RevocationRequestData",
              "name": "data",
              "type": "tuple"
            },
            {
              "components": [
                {
                  "internalType": "uint8",
                  "name": "v",
                  "type": "uint8"
                },
                {
                  "internalType": "bytes32",
                  "name": "r",
                  "type": "bytes32"
                },
                {
                  "internalType": "bytes32",
                  "name": "s",
                  "type": "bytes32"
                }
              ],
              "internalType": "struct EIP712Signature",
              "name": "signature",
              "type": "tuple"
            },
            {
              "internalType": "address",
              "name": "revoker",
              "type": "address"
            },
            {
              "internalType": "uint64",
              "name": "deadline",
              "type": "uint64"
            }
          ],
          "internalType": "struct DelegatedProxyRevocationRequest",
          "name": "delegatedRequest",
          "type": "tuple"
        }
      ],
      "name": "revokeByDelegation",
      "outputs": [],
      "stateMutability": "payable",
      "type": "function"
    },
    {
      "inputs": [],
      "name": "version",
      "outputs": [
        {
          "internalType": "string",
          "name": "",
          "type": "string"
        }
      ],
      "stateMutability": "view",
      "type": "function"
    }
  ],
  "transactionHash": "0x437f299cae28bf23884266ebe19ccef607a7d5cd02a5605ae75435a3ba833fbd",
  "args": [
    "0x4200000000000000000000000000000000000021",
    "EIP712Proxy"
  ],
  "numDeployments": 1,
  "solcInputHash": "376e8a8e9af970518b1773d5bb44ccc8",
  "bytecode": "0x6101c06040523480156200001257600080fd5b50604051620029a5380380620029a5833981016040819052620000359162000168565b6040805180820190915260058152640302e312e360dc1b602080830191825260006080819052600160a05260c05283519084012082519091206101408290526101608190524661010052839291907f8b73c3c69bb8fe3d512ecc4cf759cc79239f7b179b0ffacaa9a75d522b39400f620000f48184846040805160208101859052908101839052606081018290524660808201523060a082015260009060c0016040516020818303038152906040528051906020012090509392505050565b60e0523061012052610180525050506001600160a01b03831690506200012d576040516341bc07ff60e11b815260040160405180910390fd5b6001600160a01b0382166101a0526000620001498282620002ed565b505050620003b9565b634e487b7160e01b600052604160045260246000fd5b600080604083850312156200017c57600080fd5b82516001600160a01b03811681146200019457600080fd5b602084810151919350906001600160401b0380821115620001b457600080fd5b818601915086601f830112620001c957600080fd5b815181811115620001de57620001de62000152565b604051601f8201601f19908116603f0116810190838211818310171562000209576200020962000152565b8160405282815289868487010111156200022257600080fd5b600093505b8284101562000246578484018601518185018701529285019262000227565b60008684830101528096505050505050509250929050565b600181811c908216806200027357607f821691505b6020821081036200029457634e487b7160e01b600052602260045260246000fd5b50919050565b601f821115620002e857600081815260208120601f850160051c81016020861015620002c35750805b601f850160051c820191505b81811015620002e457828155600101620002cf565b5050505b505050565b81516001600160401b0381111562000309576200030962000152565b62000321816200031a84546200025e565b846200029a565b602080601f831160018114620003595760008415620003405750858301515b600019600386901b1c1916600185901b178555620002e4565b600085815260208120601f198616915b828110156200038a5788860151825594840194600190910190840162000369565b5085821015620003a95787850151600019600388901b60f8161c191681555b5050505050600190811b01905550565b60805160a05160c05160e05161010051610120516101405161016051610180516101a05161255462000451600039600081816101d90152818161049d015281816105b4015281816109c10152610b9c015260006111e2015260006112310152600061120c015260006111650152600061118f015260006111b90152600061074101526000610718015260006106ef01526125546000f3fe6080604052600436106100bc5760003560e01c806354fd4d5011610074578063a6d4dbc71161004e578063a6d4dbc71461021d578063b83010d314610230578063ed24911d1461026357600080fd5b806354fd4d50146101b557806365c40b9c146101ca57806395411525146101fd57600080fd5b806312b11a17116100a557806312b11a171461014357806317d7de7c146101805780633c042715146101a257600080fd5b80630eabf660146100c157806310d736d5146100d6575b600080fd5b6100d46100cf3660046117fc565b610278565b005b3480156100e257600080fd5b506101196100f136600461183e565b60009081526001602052604090205473ffffffffffffffffffffffffffffffffffffffff1690565b60405173ffffffffffffffffffffffffffffffffffffffff90911681526020015b60405180910390f35b34801561014f57600080fd5b507f4120d3b28306666b714826ad7cb70744d9658ad3e6cd873411bedadcf55afda75b60405190815260200161013a565b34801561018c57600080fd5b5061019561050b565b60405161013a91906118c5565b6101726101b03660046118df565b61059d565b3480156101c157600080fd5b506101956106e8565b3480156101d657600080fd5b507f0000000000000000000000000000000000000000000000000000000000000000610119565b61021061020b3660046117fc565b61078b565b60405161013a919061191a565b6100d461022b36600461195e565b610b83565b34801561023c57600080fd5b507f96bdbea8fa280f8a0d0835587e1fbb1470e81d05c44514158443340cea40a05d610172565b34801561026f57600080fd5b50610172610c83565b60008167ffffffffffffffff81111561029357610293611977565b6040519080825280602002602001820160405280156102d957816020015b6040805180820190915260008152606060208201528152602001906001900390816102b15790505b50905060005b8281101561045f5760008484838181106102fb576102fb6119a6565b905060200281019061030d91906119d5565b61031690611c42565b602081015180519192509015806103335750816040015151815114155b1561036a576040517f947d5a8400000000000000000000000000000000000000000000000000000000815260040160405180910390fd5b60005b815181101561041557600082828151811061038a5761038a6119a6565b6020026020010151905061040c6040518060a0016040528086600001518152602001838152602001866040015185815181106103c8576103c86119a6565b60200260200101518152602001866060015173ffffffffffffffffffffffffffffffffffffffff168152602001866080015167ffffffffffffffff16815250610c92565b5060010161036d565b5060405180604001604052808360000151815260200182815250848481518110610441576104416119a6565b602002602001018190525050506104588160010190565b90506102df565b506040517f4cb7e9e500000000000000000000000000000000000000000000000000000000815273ffffffffffffffffffffffffffffffffffffffff7f00000000000000000000000000000000000000000000000000000000000000001690634cb7e9e59034906104d4908590600401611d3d565b6000604051808303818588803b1580156104ed57600080fd5b505af1158015610501573d6000803e3d6000fd5b5050505050505050565b60606000805461051a90611e0c565b80601f016020809104026020016040519081016040528092919081815260200182805461054690611e0c565b80156105935780601f1061056857610100808354040283529160200191610593565b820191906000526020600020905b81548152906001019060200180831161057657829003601f168201915b5050505050905090565b60006105b06105ab83611f7d565b610ec5565b60007f000000000000000000000000000000000000000000000000000000000000000073ffffffffffffffffffffffffffffffffffffffff1663f17325e7346040518060400160405280876000013581526020018780602001906106149190611ff6565b61061d9061202a565b8152506040518363ffffffff1660e01b815260040161063c91906120a9565b60206040518083038185885af115801561065a573d6000803e3d6000fd5b50505050506040513d601f19601f8201168201806040525081019061067f91906120d6565b905061069160c0840160a085016120ef565b600082815260016020526040902080547fffffffffffffffffffffffff00000000000000000000000000000000000000001673ffffffffffffffffffffffffffffffffffffffff9290921691909117905592915050565b60606107137f000000000000000000000000000000000000000000000000000000000000000061108d565b61073c7f000000000000000000000000000000000000000000000000000000000000000061108d565b6107657f000000000000000000000000000000000000000000000000000000000000000061108d565b6040516020016107779392919061210a565b604051602081830303815290604052905090565b606060008267ffffffffffffffff8111156107a8576107a8611977565b6040519080825280602002602001820160405280156107ee57816020015b6040805180820190915260008152606060208201528152602001906001900390816107c65790505b50905060005b838110156109bc573685858381811061080f5761080f6119a6565b905060200281019061082191906119d5565b90503660006108336020840184612180565b9092509050801580610853575061084d60408401846121e8565b82141590505b1561088a576040517f947d5a8400000000000000000000000000000000000000000000000000000000815260040160405180910390fd5b60005b8181101561096b576109636040518060a00160405280866000013581526020018585858181106108bf576108bf6119a6565b90506020028101906108d19190611ff6565b6108da9061202a565b81526020016108ec60408801886121e8565b858181106108fc576108fc6119a6565b905060600201803603810190610912919061224f565b815260200161092760808801606089016120ef565b73ffffffffffffffffffffffffffffffffffffffff16815260200161095260a088016080890161226b565b67ffffffffffffffff169052610ec5565b60010161088d565b506040805180820190915283358152602081016109888385612286565b81525085858151811061099d5761099d6119a6565b60200260200101819052505050506109b58160010190565b90506107f4565b5060007f000000000000000000000000000000000000000000000000000000000000000073ffffffffffffffffffffffffffffffffffffffff166344adc90e34846040518363ffffffff1660e01b8152600401610a1991906122fa565b60006040518083038185885af1158015610a37573d6000803e3d6000fd5b50505050506040513d6000823e601f3d9081017fffffffffffffffffffffffffffffffffffffffffffffffffffffffffffffffe0168201604052610a7e91908101906123ed565b90506000805b85811015610b785736878783818110610a9f57610a9f6119a6565b9050602002810190610ab191906119d5565b9050366000610ac36020840184612180565b9150915060005b81811015610b6357610ae260808501606086016120ef565b60016000898981518110610af857610af86119a6565b6020026020010151815260200190815260200160002060006101000a81548173ffffffffffffffffffffffffffffffffffffffff021916908373ffffffffffffffffffffffffffffffffffffffff160217905550856001019550610b5c8160010190565b9050610aca565b50505050610b718160010190565b9050610a84565b509095945050505050565b610b9a610b953683900383018361247e565b610c92565b7f000000000000000000000000000000000000000000000000000000000000000073ffffffffffffffffffffffffffffffffffffffff1663469262673460405180604001604052808560000135815260200185602001803603810190610c0091906124ea565b90526040517fffffffff0000000000000000000000000000000000000000000000000000000060e085901b16815281516004820152602091820151805160248301529091015160448201526064016000604051808303818588803b158015610c6757600080fd5b505af1158015610c7b573d6000803e3d6000fd5b505050505050565b6000610c8d61114b565b905090565b608081015167ffffffffffffffff1615801590610cc757504267ffffffffffffffff16816080015167ffffffffffffffff1611155b15610cfe576040517f1ab7da6b00000000000000000000000000000000000000000000000000000000815260040160405180910390fd5b60208082015180516000908152600190925260409091205473ffffffffffffffffffffffffffffffffffffffff1680610d63576040517fc5723b5100000000000000000000000000000000000000000000000000000000815260040160405180910390fd5b73ffffffffffffffffffffffffffffffffffffffff81163314610db2576040517f4ca8886700000000000000000000000000000000000000000000000000000000815260040160405180910390fd5b6040830151610dc08161127f565b835183516080860151604051600093610e3c93610e21937f96bdbea8fa280f8a0d0835587e1fbb1470e81d05c44514158443340cea40a05d936020019384526020840192909252604083015267ffffffffffffffff16606082015260800190565b6040516020818303038152906040528051906020012061138d565b9050846060015173ffffffffffffffffffffffffffffffffffffffff16610e71828460000151856020015186604001516113fc565b73ffffffffffffffffffffffffffffffffffffffff1614610ebe576040517f8baa579f00000000000000000000000000000000000000000000000000000000815260040160405180910390fd5b5050505050565b608081015167ffffffffffffffff1615801590610efa57504267ffffffffffffffff16816080015167ffffffffffffffff1611155b15610f31576040517f1ab7da6b00000000000000000000000000000000000000000000000000000000815260040160405180910390fd5b60208101516040820151610f448161127f565b60006110057f4120d3b28306666b714826ad7cb70744d9658ad3e6cd873411bedadcf55afda760001b856000015185600001518660200151876040015188606001518960800151805190602001208b60800151604051602001610e21989796959493929190978852602088019690965273ffffffffffffffffffffffffffffffffffffffff94909416604087015267ffffffffffffffff9283166060870152901515608086015260a085015260c08401919091521660e08201526101000190565b9050836060015173ffffffffffffffffffffffffffffffffffffffff1661103a828460000151856020015186604001516113fc565b73ffffffffffffffffffffffffffffffffffffffff1614611087576040517f8baa579f00000000000000000000000000000000000000000000000000000000815260040160405180910390fd5b50505050565b6060600061109a83611424565b600101905060008167ffffffffffffffff8111156110ba576110ba611977565b6040519080825280601f01601f1916602001820160405280156110e4576020820181803683370190505b5090508181016020015b7fffffffffffffffffffffffffffffffffffffffffffffffffffffffffffffffff017f3031323334353637383961626364656600000000000000000000000000000000600a86061a8153600a85049450846110ee57509392505050565b60003073ffffffffffffffffffffffffffffffffffffffff7f0000000000000000000000000000000000000000000000000000000000000000161480156111b157507f000000000000000000000000000000000000000000000000000000000000000046145b156111db57507f000000000000000000000000000000000000000000000000000000000000000090565b50604080517f00000000000000000000000000000000000000000000000000000000000000006020808301919091527f0000000000000000000000000000000000000000000000000000000000000000828401527f000000000000000000000000000000000000000000000000000000000000000060608301524660808301523060a0808401919091528351808403909101815260c0909201909252805191012090565b8051602080830151604080850151905160f89490941b7fff0000000000000000000000000000000000000000000000000000000000000016928401929092526021830152604182015260009060610160405160208183030381529060405290506002816040516112ef9190612506565b9081526040519081900360200190205460ff1615611339576040517fcce9a82400000000000000000000000000000000000000000000000000000000815260040160405180910390fd5b600160028260405161134b9190612506565b90815260405190819003602001902080549115157fffffffffffffffffffffffffffffffffffffffffffffffffffffffffffffff009092169190911790555050565b60006113f661139a61114b565b836040517f19010000000000000000000000000000000000000000000000000000000000006020820152602281018390526042810182905260009060620160405160208183030381529060405280519060200120905092915050565b92915050565b600080600061140d87878787611506565b9150915061141a816115f5565b5095945050505050565b6000807a184f03e93ff9f4daa797ed6e38ed64bf6a1f010000000000000000831061146d577a184f03e93ff9f4daa797ed6e38ed64bf6a1f010000000000000000830492506040015b6d04ee2d6d415b85acef81000000008310611499576d04ee2d6d415b85acef8100000000830492506020015b662386f26fc1000083106114b757662386f26fc10000830492506010015b6305f5e10083106114cf576305f5e100830492506008015b61271083106114e357612710830492506004015b606483106114f5576064830492506002015b600a83106113f65760010192915050565b6000807f7fffffffffffffffffffffffffffffff5d576e7357a4501ddfe92f46681b20a083111561153d57506000905060036115ec565b6040805160008082526020820180845289905260ff881692820192909252606081018690526080810185905260019060a0016020604051602081039080840390855afa158015611591573d6000803e3d6000fd5b50506040517fffffffffffffffffffffffffffffffffffffffffffffffffffffffffffffffe0015191505073ffffffffffffffffffffffffffffffffffffffff81166115e5576000600192509250506115ec565b9150600090505b94509492505050565b600081600481111561160957611609612518565b036116115750565b600181600481111561162557611625612518565b03611691576040517f08c379a000000000000000000000000000000000000000000000000000000000815260206004820152601860248201527f45434453413a20696e76616c6964207369676e6174757265000000000000000060448201526064015b60405180910390fd5b60028160048111156116a5576116a5612518565b0361170c576040517f08c379a000000000000000000000000000000000000000000000000000000000815260206004820152601f60248201527f45434453413a20696e76616c6964207369676e6174757265206c656e677468006044820152606401611688565b600381600481111561172057611720612518565b036117ad576040517f08c379a000000000000000000000000000000000000000000000000000000000815260206004820152602260248201527f45434453413a20696e76616c6964207369676e6174757265202773272076616c60448201527f75650000000000000000000000000000000000000000000000000000000000006064820152608401611688565b50565b60008083601f8401126117c257600080fd5b50813567ffffffffffffffff8111156117da57600080fd5b6020830191508360208260051b85010111156117f557600080fd5b9250929050565b6000806020838503121561180f57600080fd5b823567ffffffffffffffff81111561182657600080fd5b611832858286016117b0565b90969095509350505050565b60006020828403121561185057600080fd5b5035919050565b60005b8381101561187257818101518382015260200161185a565b50506000910152565b60008151808452611893816020860160208601611857565b601f017fffffffffffffffffffffffffffffffffffffffffffffffffffffffffffffffe0169290920160200192915050565b6020815260006118d8602083018461187b565b9392505050565b6000602082840312156118f157600080fd5b813567ffffffffffffffff81111561190857600080fd5b820160e081850312156118d857600080fd5b6020808252825182820181905260009190848201906040850190845b8181101561195257835183529284019291840191600101611936565b50909695505050505050565b6000610100828403121561197157600080fd5b50919050565b7f4e487b7100000000000000000000000000000000000000000000000000000000600052604160045260246000fd5b7f4e487b7100000000000000000000000000000000000000000000000000000000600052603260045260246000fd5b600082357fffffffffffffffffffffffffffffffffffffffffffffffffffffffffffffff61833603018112611a0957600080fd5b9190910192915050565b60405160a0810167ffffffffffffffff81118282101715611a3657611a36611977565b60405290565b60405160c0810167ffffffffffffffff81118282101715611a3657611a36611977565b604051601f82017fffffffffffffffffffffffffffffffffffffffffffffffffffffffffffffffe016810167ffffffffffffffff81118282101715611aa657611aa6611977565b604052919050565b600067ffffffffffffffff821115611ac857611ac8611977565b5060051b60200190565b600060408284031215611ae457600080fd5b6040516040810181811067ffffffffffffffff82111715611b0757611b07611977565b604052823581526020928301359281019290925250919050565b600060608284031215611b3357600080fd5b6040516060810181811067ffffffffffffffff82111715611b5657611b56611977565b604052905080823560ff81168114611b6d57600080fd5b8082525060208301356020820152604083013560408201525092915050565b600082601f830112611b9d57600080fd5b81356020611bb2611bad83611aae565b611a5f565b82815260609283028501820192828201919087851115611bd157600080fd5b8387015b85811015611bf457611be78982611b21565b8452928401928101611bd5565b5090979650505050505050565b803573ffffffffffffffffffffffffffffffffffffffff81168114611c2557600080fd5b919050565b803567ffffffffffffffff81168114611c2557600080fd5b600060a08236031215611c5457600080fd5b611c5c611a13565b8235815260208084013567ffffffffffffffff80821115611c7c57600080fd5b9085019036601f830112611c8f57600080fd5b8135611c9d611bad82611aae565b81815260069190911b83018401908481019036831115611cbc57600080fd5b938501935b82851015611ce557611cd33686611ad2565b82528582019150604085019450611cc1565b80868801525050506040860135925080831115611d0157600080fd5b5050611d0f36828601611b8c565b604083015250611d2160608401611c01565b6060820152611d3260808401611c2a565b608082015292915050565b60006020808301818452808551808352604092508286019150828160051b8701018488016000805b84811015611dfd578984037fffffffffffffffffffffffffffffffffffffffffffffffffffffffffffffffc0018652825180518552880151888501889052805188860181905290890190839060608701905b80831015611de857611dd482855180518252602090810151910152565b928b019260019290920191908a0190611db7565b50978a01979550505091870191600101611d65565b50919998505050505050505050565b600181811c90821680611e2057607f821691505b602082108103611971577f4e487b7100000000000000000000000000000000000000000000000000000000600052602260045260246000fd5b600082601f830112611e6a57600080fd5b813567ffffffffffffffff811115611e8457611e84611977565b611eb560207fffffffffffffffffffffffffffffffffffffffffffffffffffffffffffffffe0601f84011601611a5f565b818152846020838601011115611eca57600080fd5b816020850160208301376000918101602001919091529392505050565b600060c08284031215611ef957600080fd5b611f01611a3c565b9050611f0c82611c01565b8152611f1a60208301611c2a565b602082015260408201358015158114611f3257600080fd5b604082015260608281013590820152608082013567ffffffffffffffff811115611f5b57600080fd5b611f6784828501611e59565b60808301525060a082013560a082015292915050565b600060e08236031215611f8f57600080fd5b611f97611a13565b82358152602083013567ffffffffffffffff811115611fb557600080fd5b611fc136828601611ee7565b602083015250611fd43660408501611b21565b6040820152611fe560a08401611c01565b6060820152611d3260c08401611c2a565b600082357fffffffffffffffffffffffffffffffffffffffffffffffffffffffffffffff41833603018112611a0957600080fd5b60006113f63683611ee7565b73ffffffffffffffffffffffffffffffffffffffff815116825267ffffffffffffffff6020820151166020830152604081015115156040830152606081015160608301526000608082015160c0608085015261209560c085018261187b565b60a093840151949093019390935250919050565b6020815281516020820152600060208301516040808401526120ce6060840182612036565b949350505050565b6000602082840312156120e857600080fd5b5051919050565b60006020828403121561210157600080fd5b6118d882611c01565b6000845161211c818460208901611857565b80830190507f2e000000000000000000000000000000000000000000000000000000000000008082528551612158816001850160208a01611857565b60019201918201528351612173816002840160208801611857565b0160020195945050505050565b60008083357fffffffffffffffffffffffffffffffffffffffffffffffffffffffffffffffe18436030181126121b557600080fd5b83018035915067ffffffffffffffff8211156121d057600080fd5b6020019150600581901b36038213156117f557600080fd5b60008083357fffffffffffffffffffffffffffffffffffffffffffffffffffffffffffffffe184360301811261221d57600080fd5b83018035915067ffffffffffffffff82111561223857600080fd5b60200191506060810236038213156117f557600080fd5b60006060828403121561226157600080fd5b6118d88383611b21565b60006020828403121561227d57600080fd5b6118d882611c2a565b6000612294611bad84611aae565b80848252602080830192508560051b8501368111156122b257600080fd5b855b818110156122ee57803567ffffffffffffffff8111156122d45760008081fd5b6122e036828a01611ee7565b8652509382019382016122b4565b50919695505050505050565b602080825282518282018190526000919060409081850190600581811b8701840188860187805b858110156123dd577fffffffffffffffffffffffffffffffffffffffffffffffffffffffffffffffc08b85030187528251805185528901518985018990528051898601819052908a0190606081881b870181019190870190855b818110156123c7577fffffffffffffffffffffffffffffffffffffffffffffffffffffffffffffffa08985030183526123b5848651612036565b948e01949350918d019160010161237b565b505050978a019794505091880191600101612321565b50919a9950505050505050505050565b6000602080838503121561240057600080fd5b825167ffffffffffffffff81111561241757600080fd5b8301601f8101851361242857600080fd5b8051612436611bad82611aae565b81815260059190911b8201830190838101908783111561245557600080fd5b928401925b828410156124735783518252928401929084019061245a565b979650505050505050565b6000610100828403121561249157600080fd5b612499611a13565b823581526124aa8460208501611ad2565b60208201526124bc8460608501611b21565b60408201526124cd60c08401611c01565b60608201526124de60e08401611c2a565b60808201529392505050565b6000604082840312156124fc57600080fd5b6118d88383611ad2565b60008251611a09818460208701611857565b7f4e487b7100000000000000000000000000000000000000000000000000000000600052602160045260246000fdfea164736f6c6343000813000a",
  "devdoc": {
    "kind": "dev",
    "methods": {
      "attestByDelegation((bytes32,(address,uint64,bool,bytes32,bytes,uint256),(uint8,bytes32,bytes32),address,uint64))": {
        "details": "Attests to a specific schema via the provided EIP712 signature.",
        "params": {
          "delegatedRequest": "The arguments of the delegated attestation request. Example: attestByDelegation({     schema: '0x8e72f5bc0a8d4be6aa98360baa889040c50a0e51f32dbf0baa5199bd93472ebc',     data: {         recipient: '0xf39Fd6e51aad88F6F4ce6aB8827279cffFb92266',         expirationTime: 1673891048,         revocable: true,         refUID: '0x0000000000000000000000000000000000000000000000000000000000000000',         data: '0x1234',         value: 0     },     signature: {         v: 28,         r: '0x148c...b25b',         s: '0x5a72...be22'     },     attester: '0xc5E8740aD971409492b1A63Db8d83025e0Fc427e' })"
        },
        "returns": {
          "_0": "The UID of the new attestation."
        }
      },
      "constructor": {
        "details": "Creates a new EIP712Verifier instance.",
        "params": {
          "eas": "The address of the global EAS contract.",
          "name": "The user readable name of the signing domain."
        }
      },
      "getDomainSeparator()": {
        "details": "Returns the domain separator used in the encoding of the signatures for attest, and revoke."
      },
      "getEAS()": {
        "details": "Returns the EAS."
      },
      "multiAttestByDelegation((bytes32,(address,uint64,bool,bytes32,bytes,uint256)[],(uint8,bytes32,bytes32)[],address,uint64)[])": {
        "details": "Attests to multiple schemas using via provided EIP712 signatures.",
        "params": {
          "multiDelegatedRequests": "The arguments of the delegated multi attestation requests. The requests should be grouped by distinct schema ids to benefit from the best batching optimization. Example: multiAttestByDelegation([{     schema: '0x8e72f5bc0a8d4be6aa98360baa889040c50a0e51f32dbf0baa5199bd93472ebc',     data: [{         recipient: '0xf39Fd6e51aad88F6F4ce6aB8827279cffFb92266',         expirationTime: 1673891048,         revocable: true,         refUID: '0x0000000000000000000000000000000000000000000000000000000000000000',         data: '0x1234',         value: 0     },     {         recipient: '0xdEADBeAFdeAdbEafdeadbeafDeAdbEAFdeadbeaf',         expirationTime: 0,         revocable: false,         refUID: '0x0000000000000000000000000000000000000000000000000000000000000000',         data: '0x00',         value: 0     }],     signatures: [{         v: 28,         r: '0x148c...b25b',         s: '0x5a72...be22'     },     {         v: 28,         r: '0x487s...67bb',         s: '0x12ad...2366'     }],     attester: '0x1D86495b2A7B524D747d2839b3C645Bed32e8CF4' }])"
        },
        "returns": {
          "_0": "The UIDs of the new attestations."
        }
      },
      "multiRevokeByDelegation((bytes32,(bytes32,uint256)[],(uint8,bytes32,bytes32)[],address,uint64)[])": {
        "details": "Revokes existing attestations to multiple schemas via provided EIP712 signatures.",
        "params": {
          "multiDelegatedRequests": "The arguments of the delegated multi revocation attestation requests. The requests should be grouped by distinct schema ids to benefit from the best batching optimization. Example: multiRevokeByDelegation([{     schema: '0x8e72f5bc0a8d4be6aa98360baa889040c50a0e51f32dbf0baa5199bd93472ebc',     data: [{         uid: '0x211296a1ca0d7f9f2cfebf0daaa575bea9b20e968d81aef4e743d699c6ac4b25',         value: 1000     },     {         uid: '0xe160ac1bd3606a287b4d53d5d1d6da5895f65b4b4bab6d93aaf5046e48167ade',         value: 0     }],     signatures: [{         v: 28,         r: '0x148c...b25b',         s: '0x5a72...be22'     },     {         v: 28,         r: '0x487s...67bb',         s: '0x12ad...2366'     }],     revoker: '0x244934dd3e31bE2c81f84ECf0b3E6329F5381992' }])"
        }
      },
      "revokeByDelegation((bytes32,(bytes32,uint256),(uint8,bytes32,bytes32),address,uint64))": {
        "details": "Revokes an existing attestation to a specific schema via the provided EIP712 signature. Example: revokeByDelegation({     schema: '0x8e72f5bc0a8d4be6aa98360baa889040c50a0e51f32dbf0baa5199bd93472ebc',     data: {         uid: '0xcbbc12102578c642a0f7b34fe7111e41afa25683b6cd7b5a14caf90fa14d24ba',         value: 0     },     signature: {         v: 27,         r: '0xb593...7142',         s: '0x0f5b...2cce'     },     revoker: '0x244934dd3e31bE2c81f84ECf0b3E6329F5381992' })",
        "params": {
          "delegatedRequest": "The arguments of the delegated revocation request."
        }
      },
      "version()": {
        "returns": {
          "_0": "Semver contract version as a string."
        }
      }
    },
    "title": "This utility contract an be used to aggregate delegated attestations without requiring a specific order via nonces. The contract doesn't request nonces and implements replay protection by storing ***immalleable*** signatures.",
    "version": 1
  },
  "userdoc": {
    "kind": "user",
    "methods": {
      "getAttestTypeHash()": {
        "notice": "Returns the EIP712 type hash for the attest function."
      },
      "getAttester(bytes32)": {
        "notice": "Returns the attester for a given uid."
      },
      "getName()": {
        "notice": "Returns the EIP712 name."
      },
      "getRevokeTypeHash()": {
        "notice": "Returns the EIP712 type hash for the revoke function."
      },
      "version()": {
        "notice": "Returns the full semver contract version."
      }
    },
    "version": 1
  },
  "storageLayout": {
    "storage": [
      {
        "astId": 5867,
        "contract": "contracts/eip712/proxy/EIP712Proxy.sol:EIP712Proxy",
        "label": "_name",
        "offset": 0,
        "slot": "0",
        "type": "t_string_storage"
      },
      {
        "astId": 5871,
        "contract": "contracts/eip712/proxy/EIP712Proxy.sol:EIP712Proxy",
        "label": "_attesters",
        "offset": 0,
        "slot": "1",
        "type": "t_mapping(t_bytes32,t_address)"
      },
      {
        "astId": 5875,
        "contract": "contracts/eip712/proxy/EIP712Proxy.sol:EIP712Proxy",
        "label": "_signatures",
        "offset": 0,
        "slot": "2",
        "type": "t_mapping(t_bytes_memory_ptr,t_bool)"
      }
    ],
    "types": {
      "t_address": {
        "encoding": "inplace",
        "label": "address",
        "numberOfBytes": "20"
      },
      "t_bool": {
        "encoding": "inplace",
        "label": "bool",
        "numberOfBytes": "1"
      },
      "t_bytes32": {
        "encoding": "inplace",
        "label": "bytes32",
        "numberOfBytes": "32"
      },
      "t_bytes_memory_ptr": {
        "encoding": "bytes",
        "label": "bytes",
        "numberOfBytes": "32"
      },
      "t_mapping(t_bytes32,t_address)": {
        "encoding": "mapping",
        "key": "t_bytes32",
        "label": "mapping(bytes32 => address)",
        "numberOfBytes": "32",
        "value": "t_address"
      },
      "t_mapping(t_bytes_memory_ptr,t_bool)": {
        "encoding": "mapping",
        "key": "t_bytes_memory_ptr",
        "label": "mapping(bytes => bool)",
        "numberOfBytes": "32",
        "value": "t_bool"
      },
      "t_string_storage": {
        "encoding": "bytes",
        "label": "string",
        "numberOfBytes": "32"
      }
    }
  }
}