{
  "address": "0xbD75f629A22Dc1ceD33dDA0b68c546A1c035c458",
  "abi": [
    {
      "inputs": [
        {
          "internalType": "contract ISchemaRegistry",
          "name": "registry",
          "type": "address"
        }
      ],
      "stateMutability": "nonpayable",
      "type": "constructor"
    },
    {
      "inputs": [],
      "name": "AccessDenied",
      "type": "error"
    },
    {
      "inputs": [],
      "name": "AlreadyRevoked",
      "type": "error"
    },
    {
      "inputs": [],
      "name": "AlreadyRevokedOffchain",
      "type": "error"
    },
    {
      "inputs": [],
      "name": "AlreadyTimestamped",
      "type": "error"
    },
    {
      "inputs": [],
      "name": "InsufficientValue",
      "type": "error"
    },
    {
      "inputs": [],
      "name": "InvalidAttestation",
      "type": "error"
    },
    {
      "inputs": [],
      "name": "InvalidAttestations",
      "type": "error"
    },
    {
      "inputs": [],
      "name": "InvalidExpirationTime",
      "type": "error"
    },
    {
      "inputs": [],
      "name": "InvalidLength",
      "type": "error"
    },
    {
      "inputs": [],
      "name": "InvalidOffset",
      "type": "error"
    },
    {
      "inputs": [],
      "name": "InvalidRegistry",
      "type": "error"
    },
    {
      "inputs": [],
      "name": "InvalidRevocation",
      "type": "error"
    },
    {
      "inputs": [],
      "name": "InvalidRevocations",
      "type": "error"
    },
    {
      "inputs": [],
      "name": "InvalidSchema",
      "type": "error"
    },
    {
      "inputs": [],
      "name": "InvalidSignature",
      "type": "error"
    },
    {
      "inputs": [],
      "name": "InvalidVerifier",
      "type": "error"
    },
    {
      "inputs": [],
      "name": "Irrevocable",
      "type": "error"
    },
    {
      "inputs": [],
      "name": "NotFound",
      "type": "error"
    },
    {
      "inputs": [],
      "name": "NotPayable",
      "type": "error"
    },
    {
      "inputs": [],
      "name": "WrongSchema",
      "type": "error"
    },
    {
      "anonymous": false,
      "inputs": [
        {
          "indexed": true,
          "internalType": "address",
          "name": "recipient",
          "type": "address"
        },
        {
          "indexed": true,
          "internalType": "address",
          "name": "attester",
          "type": "address"
        },
        {
          "indexed": false,
          "internalType": "bytes32",
          "name": "uid",
          "type": "bytes32"
        },
        {
          "indexed": true,
          "internalType": "bytes32",
          "name": "schema",
          "type": "bytes32"
        }
      ],
      "name": "Attested",
      "type": "event"
    },
    {
      "anonymous": false,
      "inputs": [
        {
          "indexed": true,
          "internalType": "address",
          "name": "recipient",
          "type": "address"
        },
        {
          "indexed": true,
          "internalType": "address",
          "name": "attester",
          "type": "address"
        },
        {
          "indexed": false,
          "internalType": "bytes32",
          "name": "uid",
          "type": "bytes32"
        },
        {
          "indexed": true,
          "internalType": "bytes32",
          "name": "schema",
          "type": "bytes32"
        }
      ],
      "name": "Revoked",
      "type": "event"
    },
    {
      "anonymous": false,
      "inputs": [
        {
          "indexed": true,
          "internalType": "address",
          "name": "revoker",
          "type": "address"
        },
        {
          "indexed": true,
          "internalType": "bytes32",
          "name": "data",
          "type": "bytes32"
        },
        {
          "indexed": true,
          "internalType": "uint64",
          "name": "timestamp",
          "type": "uint64"
        }
      ],
      "name": "RevokedOffchain",
      "type": "event"
    },
    {
      "anonymous": false,
      "inputs": [
        {
          "indexed": true,
          "internalType": "bytes32",
          "name": "data",
          "type": "bytes32"
        },
        {
          "indexed": true,
          "internalType": "uint64",
          "name": "timestamp",
          "type": "uint64"
        }
      ],
      "name": "Timestamped",
      "type": "event"
    },
    {
      "inputs": [],
      "name": "VERSION",
      "outputs": [
        {
          "internalType": "string",
          "name": "",
          "type": "string"
        }
      ],
      "stateMutability": "view",
      "type": "function"
    },
    {
      "inputs": [
        {
          "components": [
            {
              "internalType": "bytes32",
              "name": "schema",
              "type": "bytes32"
            },
            {
              "components": [
                {
                  "internalType": "address",
                  "name": "recipient",
                  "type": "address"
                },
                {
                  "internalType": "uint64",
                  "name": "expirationTime",
                  "type": "uint64"
                },
                {
                  "internalType": "bool",
                  "name": "revocable",
                  "type": "bool"
                },
                {
                  "internalType": "bytes32",
                  "name": "refUID",
                  "type": "bytes32"
                },
                {
                  "internalType": "bytes",
                  "name": "data",
                  "type": "bytes"
                },
                {
                  "internalType": "uint256",
                  "name": "value",
                  "type": "uint256"
                }
              ],
              "internalType": "struct AttestationRequestData",
              "name": "data",
              "type": "tuple"
            }
          ],
          "internalType": "struct AttestationRequest",
          "name": "request",
          "type": "tuple"
        }
      ],
      "name": "attest",
      "outputs": [
        {
          "internalType": "bytes32",
          "name": "",
          "type": "bytes32"
        }
      ],
      "stateMutability": "payable",
      "type": "function"
    },
    {
      "inputs": [
        {
          "components": [
            {
              "internalType": "bytes32",
              "name": "schema",
              "type": "bytes32"
            },
            {
              "components": [
                {
                  "internalType": "address",
                  "name": "recipient",
                  "type": "address"
                },
                {
                  "internalType": "uint64",
                  "name": "expirationTime",
                  "type": "uint64"
                },
                {
                  "internalType": "bool",
                  "name": "revocable",
                  "type": "bool"
                },
                {
                  "internalType": "bytes32",
                  "name": "refUID",
                  "type": "bytes32"
                },
                {
                  "internalType": "bytes",
                  "name": "data",
                  "type": "bytes"
                },
                {
                  "internalType": "uint256",
                  "name": "value",
                  "type": "uint256"
                }
              ],
              "internalType": "struct AttestationRequestData",
              "name": "data",
              "type": "tuple"
            },
            {
              "components": [
                {
                  "internalType": "uint8",
                  "name": "v",
                  "type": "uint8"
                },
                {
                  "internalType": "bytes32",
                  "name": "r",
                  "type": "bytes32"
                },
                {
                  "internalType": "bytes32",
                  "name": "s",
                  "type": "bytes32"
                }
              ],
              "internalType": "struct EIP712Signature",
              "name": "signature",
              "type": "tuple"
            },
            {
              "internalType": "address",
              "name": "attester",
              "type": "address"
            }
          ],
          "internalType": "struct DelegatedAttestationRequest",
          "name": "delegatedRequest",
          "type": "tuple"
        }
      ],
      "name": "attestByDelegation",
      "outputs": [
        {
          "internalType": "bytes32",
          "name": "",
          "type": "bytes32"
        }
      ],
      "stateMutability": "payable",
      "type": "function"
    },
    {
      "inputs": [],
      "name": "getAttestTypeHash",
      "outputs": [
        {
          "internalType": "bytes32",
          "name": "",
          "type": "bytes32"
        }
      ],
      "stateMutability": "pure",
      "type": "function"
    },
    {
      "inputs": [
        {
          "internalType": "bytes32",
          "name": "uid",
          "type": "bytes32"
        }
      ],
      "name": "getAttestation",
      "outputs": [
        {
          "components": [
            {
              "internalType": "bytes32",
              "name": "uid",
              "type": "bytes32"
            },
            {
              "internalType": "bytes32",
              "name": "schema",
              "type": "bytes32"
            },
            {
              "internalType": "uint64",
              "name": "time",
              "type": "uint64"
            },
            {
              "internalType": "uint64",
              "name": "expirationTime",
              "type": "uint64"
            },
            {
              "internalType": "uint64",
              "name": "revocationTime",
              "type": "uint64"
            },
            {
              "internalType": "bytes32",
              "name": "refUID",
              "type": "bytes32"
            },
            {
              "internalType": "address",
              "name": "recipient",
              "type": "address"
            },
            {
              "internalType": "address",
              "name": "attester",
              "type": "address"
            },
            {
              "internalType": "bool",
              "name": "revocable",
              "type": "bool"
            },
            {
              "internalType": "bytes",
              "name": "data",
              "type": "bytes"
            }
          ],
          "internalType": "struct Attestation",
          "name": "",
          "type": "tuple"
        }
      ],
      "stateMutability": "view",
      "type": "function"
    },
    {
      "inputs": [],
      "name": "getDomainSeparator",
      "outputs": [
        {
          "internalType": "bytes32",
          "name": "",
          "type": "bytes32"
        }
      ],
      "stateMutability": "view",
      "type": "function"
    },
    {
      "inputs": [
        {
          "internalType": "address",
          "name": "account",
          "type": "address"
        }
      ],
      "name": "getNonce",
      "outputs": [
        {
          "internalType": "uint256",
          "name": "",
          "type": "uint256"
        }
      ],
      "stateMutability": "view",
      "type": "function"
    },
    {
      "inputs": [
        {
          "internalType": "address",
          "name": "revoker",
          "type": "address"
        },
        {
          "internalType": "bytes32",
          "name": "data",
          "type": "bytes32"
        }
      ],
      "name": "getRevokeOffchain",
      "outputs": [
        {
          "internalType": "uint64",
          "name": "",
          "type": "uint64"
        }
      ],
      "stateMutability": "view",
      "type": "function"
    },
    {
      "inputs": [],
      "name": "getRevokeTypeHash",
      "outputs": [
        {
          "internalType": "bytes32",
          "name": "",
          "type": "bytes32"
        }
      ],
      "stateMutability": "pure",
      "type": "function"
    },
    {
      "inputs": [],
      "name": "getSchemaRegistry",
      "outputs": [
        {
          "internalType": "contract ISchemaRegistry",
          "name": "",
          "type": "address"
        }
      ],
      "stateMutability": "view",
      "type": "function"
    },
    {
      "inputs": [
        {
          "internalType": "bytes32",
          "name": "data",
          "type": "bytes32"
        }
      ],
      "name": "getTimestamp",
      "outputs": [
        {
          "internalType": "uint64",
          "name": "",
          "type": "uint64"
        }
      ],
      "stateMutability": "view",
      "type": "function"
    },
    {
      "inputs": [
        {
          "internalType": "bytes32",
          "name": "uid",
          "type": "bytes32"
        }
      ],
      "name": "isAttestationValid",
      "outputs": [
        {
          "internalType": "bool",
          "name": "",
          "type": "bool"
        }
      ],
      "stateMutability": "view",
      "type": "function"
    },
    {
      "inputs": [
        {
          "components": [
            {
              "internalType": "bytes32",
              "name": "schema",
              "type": "bytes32"
            },
            {
              "components": [
                {
                  "internalType": "address",
                  "name": "recipient",
                  "type": "address"
                },
                {
                  "internalType": "uint64",
                  "name": "expirationTime",
                  "type": "uint64"
                },
                {
                  "internalType": "bool",
                  "name": "revocable",
                  "type": "bool"
                },
                {
                  "internalType": "bytes32",
                  "name": "refUID",
                  "type": "bytes32"
                },
                {
                  "internalType": "bytes",
                  "name": "data",
                  "type": "bytes"
                },
                {
                  "internalType": "uint256",
                  "name": "value",
                  "type": "uint256"
                }
              ],
              "internalType": "struct AttestationRequestData[]",
              "name": "data",
              "type": "tuple[]"
            }
          ],
          "internalType": "struct MultiAttestationRequest[]",
          "name": "multiRequests",
          "type": "tuple[]"
        }
      ],
      "name": "multiAttest",
      "outputs": [
        {
          "internalType": "bytes32[]",
          "name": "",
          "type": "bytes32[]"
        }
      ],
      "stateMutability": "payable",
      "type": "function"
    },
    {
      "inputs": [
        {
          "components": [
            {
              "internalType": "bytes32",
              "name": "schema",
              "type": "bytes32"
            },
            {
              "components": [
                {
                  "internalType": "address",
                  "name": "recipient",
                  "type": "address"
                },
                {
                  "internalType": "uint64",
                  "name": "expirationTime",
                  "type": "uint64"
                },
                {
                  "internalType": "bool",
                  "name": "revocable",
                  "type": "bool"
                },
                {
                  "internalType": "bytes32",
                  "name": "refUID",
                  "type": "bytes32"
                },
                {
                  "internalType": "bytes",
                  "name": "data",
                  "type": "bytes"
                },
                {
                  "internalType": "uint256",
                  "name": "value",
                  "type": "uint256"
                }
              ],
              "internalType": "struct AttestationRequestData[]",
              "name": "data",
              "type": "tuple[]"
            },
            {
              "components": [
                {
                  "internalType": "uint8",
                  "name": "v",
                  "type": "uint8"
                },
                {
                  "internalType": "bytes32",
                  "name": "r",
                  "type": "bytes32"
                },
                {
                  "internalType": "bytes32",
                  "name": "s",
                  "type": "bytes32"
                }
              ],
              "internalType": "struct EIP712Signature[]",
              "name": "signatures",
              "type": "tuple[]"
            },
            {
              "internalType": "address",
              "name": "attester",
              "type": "address"
            }
          ],
          "internalType": "struct MultiDelegatedAttestationRequest[]",
          "name": "multiDelegatedRequests",
          "type": "tuple[]"
        }
      ],
      "name": "multiAttestByDelegation",
      "outputs": [
        {
          "internalType": "bytes32[]",
          "name": "",
          "type": "bytes32[]"
        }
      ],
      "stateMutability": "payable",
      "type": "function"
    },
    {
      "inputs": [
        {
          "components": [
            {
              "internalType": "bytes32",
              "name": "schema",
              "type": "bytes32"
            },
            {
              "components": [
                {
                  "internalType": "bytes32",
                  "name": "uid",
                  "type": "bytes32"
                },
                {
                  "internalType": "uint256",
                  "name": "value",
                  "type": "uint256"
                }
              ],
              "internalType": "struct RevocationRequestData[]",
              "name": "data",
              "type": "tuple[]"
            }
          ],
          "internalType": "struct MultiRevocationRequest[]",
          "name": "multiRequests",
          "type": "tuple[]"
        }
      ],
      "name": "multiRevoke",
      "outputs": [],
      "stateMutability": "payable",
      "type": "function"
    },
    {
      "inputs": [
        {
          "components": [
            {
              "internalType": "bytes32",
              "name": "schema",
              "type": "bytes32"
            },
            {
              "components": [
                {
                  "internalType": "bytes32",
                  "name": "uid",
                  "type": "bytes32"
                },
                {
                  "internalType": "uint256",
                  "name": "value",
                  "type": "uint256"
                }
              ],
              "internalType": "struct RevocationRequestData[]",
              "name": "data",
              "type": "tuple[]"
            },
            {
              "components": [
                {
                  "internalType": "uint8",
                  "name": "v",
                  "type": "uint8"
                },
                {
                  "internalType": "bytes32",
                  "name": "r",
                  "type": "bytes32"
                },
                {
                  "internalType": "bytes32",
                  "name": "s",
                  "type": "bytes32"
                }
              ],
              "internalType": "struct EIP712Signature[]",
              "name": "signatures",
              "type": "tuple[]"
            },
            {
              "internalType": "address",
              "name": "revoker",
              "type": "address"
            }
          ],
          "internalType": "struct MultiDelegatedRevocationRequest[]",
          "name": "multiDelegatedRequests",
          "type": "tuple[]"
        }
      ],
      "name": "multiRevokeByDelegation",
      "outputs": [],
      "stateMutability": "payable",
      "type": "function"
    },
    {
      "inputs": [
        {
          "internalType": "bytes32[]",
          "name": "data",
          "type": "bytes32[]"
        }
      ],
      "name": "multiRevokeOffchain",
      "outputs": [
        {
          "internalType": "uint64",
          "name": "",
          "type": "uint64"
        }
      ],
      "stateMutability": "nonpayable",
      "type": "function"
    },
    {
      "inputs": [
        {
          "internalType": "bytes32[]",
          "name": "data",
          "type": "bytes32[]"
        }
      ],
      "name": "multiTimestamp",
      "outputs": [
        {
          "internalType": "uint64",
          "name": "",
          "type": "uint64"
        }
      ],
      "stateMutability": "nonpayable",
      "type": "function"
    },
    {
      "inputs": [
        {
          "components": [
            {
              "internalType": "bytes32",
              "name": "schema",
              "type": "bytes32"
            },
            {
              "components": [
                {
                  "internalType": "bytes32",
                  "name": "uid",
                  "type": "bytes32"
                },
                {
                  "internalType": "uint256",
                  "name": "value",
                  "type": "uint256"
                }
              ],
              "internalType": "struct RevocationRequestData",
              "name": "data",
              "type": "tuple"
            }
          ],
          "internalType": "struct RevocationRequest",
          "name": "request",
          "type": "tuple"
        }
      ],
      "name": "revoke",
      "outputs": [],
      "stateMutability": "payable",
      "type": "function"
    },
    {
      "inputs": [
        {
          "components": [
            {
              "internalType": "bytes32",
              "name": "schema",
              "type": "bytes32"
            },
            {
              "components": [
                {
                  "internalType": "bytes32",
                  "name": "uid",
                  "type": "bytes32"
                },
                {
                  "internalType": "uint256",
                  "name": "value",
                  "type": "uint256"
                }
              ],
              "internalType": "struct RevocationRequestData",
              "name": "data",
              "type": "tuple"
            },
            {
              "components": [
                {
                  "internalType": "uint8",
                  "name": "v",
                  "type": "uint8"
                },
                {
                  "internalType": "bytes32",
                  "name": "r",
                  "type": "bytes32"
                },
                {
                  "internalType": "bytes32",
                  "name": "s",
                  "type": "bytes32"
                }
              ],
              "internalType": "struct EIP712Signature",
              "name": "signature",
              "type": "tuple"
            },
            {
              "internalType": "address",
              "name": "revoker",
              "type": "address"
            }
          ],
          "internalType": "struct DelegatedRevocationRequest",
          "name": "delegatedRequest",
          "type": "tuple"
        }
      ],
      "name": "revokeByDelegation",
      "outputs": [],
      "stateMutability": "payable",
      "type": "function"
    },
    {
      "inputs": [
        {
          "internalType": "bytes32",
          "name": "data",
          "type": "bytes32"
        }
      ],
      "name": "revokeOffchain",
      "outputs": [
        {
          "internalType": "uint64",
          "name": "",
          "type": "uint64"
        }
      ],
      "stateMutability": "nonpayable",
      "type": "function"
    },
    {
      "inputs": [
        {
          "internalType": "bytes32",
          "name": "data",
          "type": "bytes32"
        }
      ],
      "name": "timestamp",
      "outputs": [
        {
          "internalType": "uint64",
          "name": "",
          "type": "uint64"
        }
      ],
      "stateMutability": "nonpayable",
      "type": "function"
    }
  ],
  "transactionHash": "0x4e6a5342968b8bed34fe4b32e68a6a858991acd79b7c186ec847ab74e6a4893e",
  "args": [
    "0xA310da9c5B885E7fb3fbA9D66E9Ba6Df512b78eB"
  ],
  "numDeployments": 1,
  "solcInputHash": "a71fe784ec2ddd03c0373182f6192f42",
  "bytecode": "0x61016034620001b657601f62004fdb38819003918201601f19168301926001600160401b0392909183851183861017620001a0578160209284926040978852833981010312620001b657516001600160a01b03811692838203620001b6578051926200006b84620001bb565b6004845260208401631817191b60e11b81526003602084516200008e81620001bb565b828152016245415360e81b81522094519020948460e052610100958087524660a052835160208101917f8b73c3c69bb8fe3d512ecc4cf759cc79239f7b179b0ffacaa9a75d522b39400f978884528683015260608201524660808201523060a082015260a0815260c081019381851090851117620001a0578385525190206080523060c052610120948552156200019157506101409182525191614e039384620001d8853960805184614892015260a0518461494d015260c05184614863015260e051846148e101525183614907015251826148be01525181818161028601528181610ab4015281816110b801528181612b5e0152818161324c01526134ca0152f35b6311a1e69760e01b8152600490fd5b634e487b7160e01b600052604160045260246000fd5b600080fd5b604081019081106001600160401b03821117620001a05760405256fe61010080604052600436101561001457600080fd5b60003560e01c90816312b11a1714611eec5750806313893f6114611e645780632d0335ab14611dff57806344adc90e14611cfc5780634692626714611c9e5780634cb7e9e514611b9c5780634d00307014611b54578063831e05a11461192e578063a3112a64146118c7578063b469318d1461184a578063b83010d3146117f1578063cf190f34146117a8578063d45c443514611754578063e13458fc14610f5c578063e30bb56314610f08578063e45d03f914610ca4578063e57a6b1b14610ba0578063e71ff36514610b19578063ed24911d14610ad8578063f10b5cc814610a69578063f17325e7146101975763ffa1ad741461011257600080fd5b346101925760007ffffffffffffffffffffffffffffffffffffffffffffffffffffffffffffffffc3601126101925761018e60405161015081612149565b600481527f302e3236000000000000000000000000000000000000000000000000000000006020820152604051918291602083526020830190612016565b0390f35b600080fd5b7ffffffffffffffffffffffffffffffffffffffffffffffffffffffffffffffffc602081360112610192576004359067ffffffffffffffff821161019257604082600401918336030112610192576102046101f0612215565b926101ff60243692018461227d565b6122d1565b61020d836122b0565b52610217826122b0565b50610220612942565b5081519161022c612942565b916102368461295c565b6020840152604051937fa2ea7c6e0000000000000000000000000000000000000000000000000000000085528135600486015260008560248173ffffffffffffffffffffffffffffffffffffffff7f0000000000000000000000000000000000000000000000000000000000000000165afa948515610a5d57600095610a38575b50845115610a0e57916102c983612a7f565b916102d38461295c565b936000925b8184106103045760206102fb81896102f2348b8b8f61376d565b815201516122b0565b51604051908152f35b610316848299949698939597996122bd565b519267ffffffffffffffff60208501511680151590816109f9575b506109cf57604081015115806109c2575b6109985760608401519467ffffffffffffffff6020860151169573ffffffffffffffffffffffffffffffffffffffff86511660408701511515906080880151926040519961038f8b612165565b60008b528b3560208c015267ffffffffffffffff421660408c015260608b0152600060808b015260a08a015260c08901523360e089015261010088015261012087015260005b602087015160c08801516104de609d60e08b015160408c01518c60608101519161010082015115159061012060a084015193015193604051988996602088019b8c527fffffffffffffffffffffffffffffffffffffffff000000000000000000000000809260601b16604089015260601b1660548701527fffffffffffffffff000000000000000000000000000000000000000000000000809260c01b16606887015260c01b16607085015260f81b6078840152607983015280516104a38160999360208587019101611ff3565b8201907fffffffff000000000000000000000000000000000000000000000000000000008860e01b169082015203607d810184520182612182565b51902080600052600160205260406000205415610504575060010163ffffffff166103d5565b919690509997919998969492939881815281600052600160205260406000209080518255602081015160018301556105e36002830167ffffffffffffffff6040840151168154907fffffffffffffffffffffffffffffffff000000000000000000000000000000006fffffffffffffffff0000000000000000606087015160401b1692161717815567ffffffffffffffff6080840151167fffffffffffffffff0000000000000000ffffffffffffffffffffffffffffffff77ffffffffffffffff0000000000000000000000000000000083549260801b169116179055565b60a081015160038301556004820173ffffffffffffffffffffffffffffffffffffffff60c0830151167fffffffffffffffffffffffff00000000000000000000000000000000000000008254161790556005820173ffffffffffffffffffffffffffffffffffffffff60e0830151168154907fffffffffffffffffffffff00000000000000000000000000000000000000000074ff0000000000000000000000000000000000000000610100860151151560a01b1692161717905561012081015180519167ffffffffffffffff831161096957838c938c938f9660066106ca91015461278f565b601f81116108f5575b50602090601f831160011461081857600692916000918361080d575b50507fffffffffffffffffffffffffffffffffffffffffffffffffffffffffffffffff8260011b9260031b1c1916179101555b6060870151806107b8575b5085602073ffffffffffffffffffffffffffffffffffffffff9560019995610765848761077d9761075f838e9b6122bd565b526122bd565b506107758460a0890151926122bd565b5201516122bd565b525116906040519081528535917f8bf46bf4cfd674fa735a3d63ec1c9ad4153f033c290341f3a588b75685141b3560203393a40192906102d8565b915092506107d491506000526001602052604060002054151590565b156107e35788888b928e61072d565b60046040517fc5723b51000000000000000000000000000000000000000000000000000000008152fd5b0151905038806106ef565b906006840160005260206000209160005b7fffffffffffffffffffffffffffffffffffffffffffffffffffffffffffffffe0851681106108ca5750918391600193837fffffffffffffffffffffffffffffffffffffffffffffffffffffffffffffffe06006971610610893575b505050811b01910155610722565b01517fffffffffffffffffffffffffffffffffffffffffffffffffffffffffffffffff60f88460031b161c19169055388080610885565b9497509295509396506020600181928685015181550194019201928f9693928f9693928f9693610829565b9295509295509250600684016000526020600020601f840160051c810160208510610962575b928f9693928f9693928f96935b601f830160051c8201811061093e5750506106d3565b60019396995080929598506000919497505501928f9693928f9693928f9693610928565b508061091b565b7f4e487b7100000000000000000000000000000000000000000000000000000000600052604160045260246000fd5b60046040517f157bd4c3000000000000000000000000000000000000000000000000000000008152fd5b5060408401511515610342565b60046040517f08e8b937000000000000000000000000000000000000000000000000000000008152fd5b905067ffffffffffffffff421610158a610331565b60046040517fbf37b20e000000000000000000000000000000000000000000000000000000008152fd5b610a569195503d806000833e610a4e8183612182565b8101906129b8565b93856102b7565b6040513d6000823e3d90fd5b346101925760007ffffffffffffffffffffffffffffffffffffffffffffffffffffffffffffffffc36011261019257602060405173ffffffffffffffffffffffffffffffffffffffff7f0000000000000000000000000000000000000000000000000000000000000000168152f35b346101925760007ffffffffffffffffffffffffffffffffffffffffffffffffffffffffffffffffc360112610192576020610b1161484c565b604051908152f35b346101925760207ffffffffffffffffffffffffffffffffffffffffffffffffffffffffffffffffc3601126101925767ffffffffffffffff60043581811161019257610b69903690600401611f43565b9142169160005b818110610b8257602084604051908152f35b80610b9a85610b946001948688612734565b356146e1565b01610b70565b60e07ffffffffffffffffffffffffffffffffffffffffffffffffffffffffffffffffc36011261019257604051610bd6816120f5565b600435808252610be53661267c565b602083015260607fffffffffffffffffffffffffffffffffffffffffffffffffffffffffffffff9c36011261019257604051610c208161212d565b60643560ff81168103610192578152608435602082015260a4356040820152604083015260c43573ffffffffffffffffffffffffffffffffffffffff8116810361019257610c7683826060610ca2960152614d30565b610c7e61262d565b610c873661267c565b610c90826122b0565b52610c9a816122b0565b5034926131ff565b005b6020807ffffffffffffffffffffffffffffffffffffffffffffffffffffffffffffffffc3601126101925767ffffffffffffffff60043581811161019257610cf183913690600401611f43565b909234926000915b838310610d0257005b610d0d838588612599565b946080863603126101925760405195610d25876120f5565b803587528381013583811161019257810194601f9536878201121561019257610d5490369087813591016126c2565b9285890193845260408301358581116101925783019636908801121561019257863594610d80866121fd565b97610d8e604051998a612182565b868952878901886060809902830101913683116101925789808a9201925b848410610ef05750509050610dca915060408c01958a875201611f97565b94868b01958652519788518015918215610ee4575b5050610eba5760005b8851811015610e5057600190610e4a8c51610e03838d6122bd565b51610e0f848a516122bd565b5173ffffffffffffffffffffffffffffffffffffffff8b51169160405193610e36856120f5565b84528d84015260408301528a820152614d30565b01610de8565b50986001955081935090610eaa929a97610eb09592519073ffffffffffffffffffffffffffffffffffffffff8d7fffffffffffffffffffffffffffffffffffffffffffffffffffffffffffffffff8d01149451169161347c565b9061255d565b9501919493610cf9565b60046040517f947d5a84000000000000000000000000000000000000000000000000000000008152fd5b51141590508c80610ddf565b610efa3685612393565b815201910190898991610dac565b346101925760207ffffffffffffffffffffffffffffffffffffffffffffffffffffffffffffffffc360112610192576020610f526004356000526001602052604060002054151590565b6040519015158152f35b7ffffffffffffffffffffffffffffffffffffffffffffffffffffffffffffffffc6020813601126101925760043567ffffffffffffffff81116101925760c0816004019282360301126101925760405190610fb6826120f5565b82358252602481019182359167ffffffffffffffff83116101925760a461101691610fea61104695600436918401016122d1565b6020850152610ffc3660448301612393565b6040850152019161100c83611f97565b6060820152614973565b61102d611021612215565b936101ff36918761227d565b611036846122b0565b52611040836122b0565b506123d1565b9061104f612942565b5080519061105b612942565b60e0526110678261295c565b602060e05101526040517fa2ea7c6e0000000000000000000000000000000000000000000000000000000081528435600482015260008160248173ffffffffffffffffffffffffffffffffffffffff7f0000000000000000000000000000000000000000000000000000000000000000165afa8015610a5d576000608052611737575b506080515115610a0e5790916110ff83612a7f565b60a05261110b8361295c565b60c0526000915b83831061113f5761112b3460c05160a05160805161376d565b60e0515260206102fb8160e05101516122b0565b61114983826122bd565b519067ffffffffffffffff6020830151168015159081611722575b506109cf57604060805101511580611715575b6109985760608201519467ffffffffffffffff6020840151169573ffffffffffffffffffffffffffffffffffffffff8451166040850151151590608086015192604051996111c48b612165565b60008b528b3560208c015267ffffffffffffffff421660408c015260608b0152600060808b015260a08a015260c089015273ffffffffffffffffffffffffffffffffffffffff861660e089015261010088015261012087015260005b602087015160c08801516112ee609d60e08b015160408c01518c60608101519161010082015115159061012060a084015193015193604051988996602088019b8c527fffffffffffffffffffffffffffffffffffffffff000000000000000000000000809260601b16604089015260601b1660548701527fffffffffffffffff000000000000000000000000000000000000000000000000809260c01b16606887015260c01b16607085015260f81b6078840152607983015280516104a38160999360208587019101611ff3565b51902080600052600160205260406000205415611314575060010163ffffffff16611220565b91959294969050818152816000526001602052604060002081518155602082015160018201556113eb6002820167ffffffffffffffff6040850151168154907fffffffffffffffffffffffffffffffff000000000000000000000000000000006fffffffffffffffff0000000000000000606088015160401b1692161717815567ffffffffffffffff6080850151167fffffffffffffffff0000000000000000ffffffffffffffffffffffffffffffff77ffffffffffffffff0000000000000000000000000000000083549260801b169116179055565b60a082015160038201556004810173ffffffffffffffffffffffffffffffffffffffff60c0840151167fffffffffffffffffffffffff00000000000000000000000000000000000000008254161790556005810173ffffffffffffffffffffffffffffffffffffffff60e0840151168154907fffffffffffffffffffffff00000000000000000000000000000000000000000074ff0000000000000000000000000000000000000000610100870151151560a01b1692161717905561012082015180519067ffffffffffffffff8211610969576114cb600684015461278f565b601f81116116ce575b50602090601f83116001146116045760069291600091836115f9575b50507fffffffffffffffffffffffffffffffffffffffffffffffffffffffffffffffff8260011b9260031b1c1916179101555b6060840151806115d7575b5060019373ffffffffffffffffffffffffffffffffffffffff916115548560a0516122bd565b526115618460a0516122bd565b5060a08101516115738560c0516122bd565b528261158585602060e05101516122bd565b525116906040519081528735917f8bf46bf4cfd674fa735a3d63ec1c9ad4153f033c290341f3a588b75685141b35602073ffffffffffffffffffffffffffffffffffffffff8a1693a401919290611112565b6115ee906000526001602052604060002054151590565b156107e3578861152e565b015190508c806114f0565b906006840160005260206000209160005b7fffffffffffffffffffffffffffffffffffffffffffffffffffffffffffffffe0851681106116b65750918391600193837fffffffffffffffffffffffffffffffffffffffffffffffffffffffffffffffe0600697161061167f575b505050811b01910155611523565b01517fffffffffffffffffffffffffffffffffffffffffffffffffffffffffffffffff60f88460031b161c191690558c8080611671565b91926020600181928685015181550194019201611615565b600684016000526020600020601f840160051c81016020851061170e575b601f830160051c820181106117025750506114d4565b600081556001016116ec565b50806116ec565b5060408201511515611177565b905067ffffffffffffffff4216101587611164565b61174b903d806000833e610a4e8183612182565b608052846110ea565b346101925760207ffffffffffffffffffffffffffffffffffffffffffffffffffffffffffffffffc360112610192576004356000526002602052602067ffffffffffffffff60406000205416604051908152f35b346101925760207ffffffffffffffffffffffffffffffffffffffffffffffffffffffffffffffffc36011261019257602067ffffffffffffffff4216610b118160043533614787565b346101925760007ffffffffffffffffffffffffffffffffffffffffffffffffffffffffffffffffc3601126101925760206040517fa98d02348410c9c76735e0d0bb1396f4015ac2bb9615f9c2611d19d7a8a996508152f35b346101925760407ffffffffffffffffffffffffffffffffffffffffffffffffffffffffffffffffc3601126101925773ffffffffffffffffffffffffffffffffffffffff611896611f74565b1660005260036020526040600020602435600052602052602067ffffffffffffffff60406000205416604051908152f35b346101925760207ffffffffffffffffffffffffffffffffffffffffffffffffffffffffffffffffc360112610192576118fe612744565b50600435600052600160205261018e61191a60406000206127e2565b604051918291602083526020830190612059565b60207ffffffffffffffffffffffffffffffffffffffffffffffffffffffffffffffffc3601126101925760043567ffffffffffffffff811161019257611978903690600401611f43565b90611982826123f2565b9160009134906000925b8084106119ac5761018e6119a08688614674565b60405191829182611fb8565b909192936119bb858385612599565b6119c86020820182612499565b9081158015611b3c575b610eba57908691600090898760608701968035945b868110611a6f57505093611a3f93611a396001999894611a31602099957fffffffffffffffffffffffffffffffffffffffffffffffffffffffffffffffff611a489a0114966123d1565b9336916124ed565b90612aec565b9687519061255d565b95018051611a56888a6122bd565b52611a6187896122bd565b50515101940192919061198c565b9250929394955050611a868160051b84018461227d565b90611a9460408401846125d9565b821015611b0d5760019273ffffffffffffffffffffffffffffffffffffffff611aff92611aef611ac38c6123d1565b91611ade60405195611ad4876120f5565b8c875236906122d1565b602086015236906060880201612393565b6040840152166060820152614973565b01878a959493928c926119e7565b7f4e487b7100000000000000000000000000000000000000000000000000000000600052603260045260246000fd5b50611b4a60408401846125d9565b90508214156119d2565b346101925760207ffffffffffffffffffffffffffffffffffffffffffffffffffffffffffffffffc36011261019257602067ffffffffffffffff4216610b11816004356146e1565b6020807ffffffffffffffffffffffffffffffffffffffffffffffffffffffffffffffffc3601126101925767ffffffffffffffff9060043582811161019257611be9903690600401611f43565b929091600090345b858310611bfa57005b611c05838787612459565b828101357fffffffffffffffffffffffffffffffffffffffffffffffffffffffffffffffe18236030181121561019257810191823592868411610192578401928060061b360384136101925760019382610eaa92611c9695611c8f7fffffffffffffffffffffffffffffffffffffffffffffffffffffffffffffffff8e018b1494339336916126c2565b903561347c565b920191611bf1565b60607ffffffffffffffffffffffffffffffffffffffffffffffffffffffffffffffffc36011261019257610ca2611cd361262d565b611cdc3661267c565b611ce5826122b0565b52611cef816122b0565b50349033906004356131ff565b6020807ffffffffffffffffffffffffffffffffffffffffffffffffffffffffffffffffc3601126101925760043567ffffffffffffffff811161019257611d47903690600401611f43565b611d53819392936123f2565b92600092346000937fffffffffffffffffffffffffffffffffffffffffffffffffffffffffffffffff8101905b808610611d945761018e6119a0888a614674565b90919293949560019085611dd6611a3f8a8888611db2838a8f612459565b611dcf611dc188830183612499565b9390951494339336916124ed565b9035612aec565b95018051611de48a8c6122bd565b52611def898b6122bd565b5051510196019493929190611d80565b346101925760207ffffffffffffffffffffffffffffffffffffffffffffffffffffffffffffffffc3601126101925773ffffffffffffffffffffffffffffffffffffffff611e4b611f74565b1660005260006020526020604060002054604051908152f35b346101925760207ffffffffffffffffffffffffffffffffffffffffffffffffffffffffffffffffc3601126101925767ffffffffffffffff60043581811161019257611eb4903690600401611f43565b9142169160005b818110611ecd57602084604051908152f35b80611ee685611edf6001948688612734565b3533614787565b01611ebb565b346101925760007ffffffffffffffffffffffffffffffffffffffffffffffffffffffffffffffffc36011261019257807fdbfdf8dc2b135c26253e00d5b6cbe6f20457e003fd526d97cea183883570de6160209252f35b9181601f840112156101925782359167ffffffffffffffff8311610192576020808501948460051b01011161019257565b6004359073ffffffffffffffffffffffffffffffffffffffff8216820361019257565b359073ffffffffffffffffffffffffffffffffffffffff8216820361019257565b6020908160408183019282815285518094520193019160005b828110611fdf575050505090565b835185529381019392810192600101611fd1565b60005b8381106120065750506000910152565b8181015183820152602001611ff6565b907fffffffffffffffffffffffffffffffffffffffffffffffffffffffffffffffe0601f60209361205281518092818752878088019101611ff3565b0116010190565b906120f291805182526020810151602083015267ffffffffffffffff806040830151166040840152806060830151166060840152608082015116608083015260a081015160a083015273ffffffffffffffffffffffffffffffffffffffff8060c08301511660c084015260e08201511660e083015261010080820151151590830152610120809101519161014080928201520190612016565b90565b6080810190811067ffffffffffffffff82111761096957604052565b60c0810190811067ffffffffffffffff82111761096957604052565b6060810190811067ffffffffffffffff82111761096957604052565b6040810190811067ffffffffffffffff82111761096957604052565b610140810190811067ffffffffffffffff82111761096957604052565b90601f7fffffffffffffffffffffffffffffffffffffffffffffffffffffffffffffffe0910116810190811067ffffffffffffffff82111761096957604052565b67ffffffffffffffff811161096957601f017fffffffffffffffffffffffffffffffffffffffffffffffffffffffffffffffe01660200190565b67ffffffffffffffff81116109695760051b60200190565b60409081519161222483612149565b60018352829160005b6020808210156122755783516020929161224682612111565b6000825260008183015260008683015260606000818401526080830152600060a083015282880101520161222d565b505091925050565b9035907fffffffffffffffffffffffffffffffffffffffffffffffffffffffffffffff4181360301821215610192570190565b805115611b0d5760200190565b8051821015611b0d5760209160051b010190565b91909160c08184031261019257604051906122eb82612111565b81936122f682611f97565b835260209167ffffffffffffffff8184013581811681036101925784860152604082013580151581036101925760408601526060820135606086015260808201359081116101925781019180601f8401121561019257823592612358846121c3565b916123666040519384612182565b84835285858301011161019257848460a09695879660009401838601378301015260808501520135910152565b9190826060910312610192576040516123ab8161212d565b8092803560ff811681036101925760409182918452602081013560208501520135910152565b3573ffffffffffffffffffffffffffffffffffffffff811681036101925790565b906123fc826121fd565b6124096040519182612182565b8281527fffffffffffffffffffffffffffffffffffffffffffffffffffffffffffffffe061243782946121fd565b019060005b82811061244857505050565b80606060208093850101520161243c565b9190811015611b0d5760051b810135907fffffffffffffffffffffffffffffffffffffffffffffffffffffffffffffffc181360301821215610192570190565b9035907fffffffffffffffffffffffffffffffffffffffffffffffffffffffffffffffe181360301821215610192570180359067ffffffffffffffff821161019257602001918160051b3603831361019257565b929190926124fa846121fd565b916125086040519384612182565b829480845260208094019060051b8301928284116101925780915b84831061253257505050505050565b823567ffffffffffffffff811161019257869161255286849386016122d1565b815201920191612523565b9190820391821161256a57565b7f4e487b7100000000000000000000000000000000000000000000000000000000600052601160045260246000fd5b9190811015611b0d5760051b810135907fffffffffffffffffffffffffffffffffffffffffffffffffffffffffffffff8181360301821215610192570190565b9035907fffffffffffffffffffffffffffffffffffffffffffffffffffffffffffffffe181360301821215610192570180359067ffffffffffffffff82116101925760200191606082023603831361019257565b60409081519161263c83612149565b600183528291600091825b6020808210156126735782516020929161266082612149565b8682528681830152828901015201612647565b50505091925050565b7fffffffffffffffffffffffffffffffffffffffffffffffffffffffffffffffdc604091011261019257604051906126b382612149565b60243582526044356020830152565b9291926126ce826121fd565b6040926126dd84519283612182565b819581835260208093019160061b84019381851161019257915b84831061270657505050505050565b858383031261019257838691825161271d81612149565b8535815282860135838201528152019201916126f7565b9190811015611b0d5760051b0190565b6040519061275182612165565b606061012083600080825280602083015280604083015280848301528060808301528060a08301528060c08301528060e08301526101008201520152565b90600182811c921680156127d8575b60208310146127a957565b7f4e487b7100000000000000000000000000000000000000000000000000000000600052602260045260246000fd5b91607f169161279e565b90604051916127f083612165565b828154815260016006818401549360209485850152600281015467ffffffffffffffff908181166040870152818160401c16606087015260801c166080850152600381015460a085015260ff73ffffffffffffffffffffffffffffffffffffffff8060048401541660c0870152600583015490811660e087015260a01c161515610100850152019060405193849260009281549161288d8361278f565b8087529282811690811561290257506001146128bc575b5050505061012092916128b8910384612182565b0152565b60009081528381209695945091905b8183106128ea575093945091925090820101816128b8610120386128a4565b865488840185015295860195879450918301916128cb565b7fffffffffffffffffffffffffffffffffffffffffffffffffffffffffffffff001685880152505050151560051b8301019050816128b8610120386128a4565b6040519061294f82612149565b6060602083600081520152565b90612966826121fd565b6129736040519182612182565b8281527fffffffffffffffffffffffffffffffffffffffffffffffffffffffffffffffe06129a182946121fd565b0190602036910137565b5190811515820361019257565b906020808383031261019257825167ffffffffffffffff9384821161019257019260808484031261019257604051936129f0856120f5565b805185528281015173ffffffffffffffffffffffffffffffffffffffff811681036101925783860152612a25604082016129ab565b60408601526060810151918211610192570182601f8201121561019257805190612a4e826121c3565b93612a5c6040519586612182565b8285528383830101116101925782612a779385019101611ff3565b606082015290565b90612a89826121fd565b612a966040519182612182565b8281527fffffffffffffffffffffffffffffffffffffffffffffffffffffffffffffffe0612ac482946121fd565b019060005b828110612ad557505050565b602090612ae0612744565b82828501015201612ac9565b9290949391612af9612942565b50855193612b05612942565b94612b0f8161295c565b6020870152604051907fa2ea7c6e00000000000000000000000000000000000000000000000000000000825282600483015260008260248173ffffffffffffffffffffffffffffffffffffffff7f0000000000000000000000000000000000000000000000000000000000000000165afa918215610a5d576000926131e2575b50815115610a0e5792979091612ba484612a7f565b98612bae8561295c565b946000935b818510612bd057505050505095612bcb9495966139d4565b815290565b91959398949699909297612be48a846122bd565b519a67ffffffffffffffff60208d01511680151590816131cd575b506109cf57604089015115806131c0575b61099857899860608d01518d602081015167ffffffffffffffff1691815173ffffffffffffffffffffffffffffffffffffffff1690604083015115159260800151936040519e8f90612c6182612165565b6000825260208201524267ffffffffffffffff166040820152606001528d608081016000905260a0015260c08d015273ffffffffffffffffffffffffffffffffffffffff8b1660e08d01526101008c01526101208b015260005b60208b01518b612d8c609d60c08301519260e08101519060408101519060608101519161010082015115159061012060a084015193015193604051988996602088019b8c527fffffffffffffffffffffffffffffffffffffffff000000000000000000000000809260601b16604089015260601b1660548701527fffffffffffffffff000000000000000000000000000000000000000000000000809260c01b16606887015260c01b16607085015260f81b6078840152607983015280516104a38160999360208587019101611ff3565b51902080600052600160205260406000205415612db2575060010163ffffffff16612cbb565b90509d979b9199929a949d9c909698939c8084528060005260016020526040600020918451835560208501516001840155612e946002840167ffffffffffffffff6040880151168154907fffffffffffffffffffffffffffffffff000000000000000000000000000000006fffffffffffffffff000000000000000060608b015160401b1692161717815567ffffffffffffffff6080880151167fffffffffffffffff0000000000000000ffffffffffffffffffffffffffffffff77ffffffffffffffff0000000000000000000000000000000083549260801b169116179055565b60a085015160038401556004830173ffffffffffffffffffffffffffffffffffffffff60c0870151167fffffffffffffffffffffffff00000000000000000000000000000000000000008254161790556005830173ffffffffffffffffffffffffffffffffffffffff60e0870151168154907fffffffffffffffffffffff00000000000000000000000000000000000000000074ff00000000000000000000000000000000000000006101008a0151151560a01b1692161717905561012085015192835167ffffffffffffffff8111610969578894612f76600684015461278f565b601f8111613165575b50602090601f831160011461309857600692916000918361308d575b50507fffffffffffffffffffffffffffffffffffffffffffffffffffffffffffffffff8260011b9260031b1c1916179101555b8d8b8b606084015180613060575b5086602073ffffffffffffffffffffffffffffffffffffffff95948794610765848660019e61075f8361300e9a6122bd565b5251166040519182527f8bf46bf4cfd674fa735a3d63ec1c9ad4153f033c290341f3a588b75685141b35602073ffffffffffffffffffffffffffffffffffffffff881693a4019290919293949a612bb3565b9250505061307d9193506000526001602052604060002054151590565b156107e35785918d8b8b38612fdc565b015190503880612f9b565b906006840160005260206000209160005b7fffffffffffffffffffffffffffffffffffffffffffffffffffffffffffffffe08516811061314a5750918391600193837fffffffffffffffffffffffffffffffffffffffffffffffffffffffffffffffe06006971610613113575b505050811b01910155612fce565b01517fffffffffffffffffffffffffffffffffffffffffffffffffffffffffffffffff60f88460031b161c19169055388080613105565b8183015184558c9850600190930192602092830192016130a9565b90919293949550600684016000526020600020601f840160051c8101602085106131b9575b908b979695949392915b601f830160051c820181106131aa575050612f7f565b600081558c9850600101613194565b508061318a565b5060408c01511515612c10565b905067ffffffffffffffff4216101538612bff565b6131f89192503d806000833e610a4e8183612182565b9038612b8f565b939291936040517fa2ea7c6e00000000000000000000000000000000000000000000000000000000815281600482015260008160248173ffffffffffffffffffffffffffffffffffffffff7f0000000000000000000000000000000000000000000000000000000000000000165afa908115610a5d57600091613461575b50805115610a0e57825161329081612a7f565b9261329a8261295c565b9460005b8381106132b457505050506120f2949550613bb5565b6132be81836122bd565b5190815160005260016020526040600020918254156107e35784600184015403610a0e57600583015473ffffffffffffffffffffffffffffffffffffffff8d1673ffffffffffffffffffffffffffffffffffffffff8216036134375760a01c60ff16156109985767ffffffffffffffff600284015460801c1661340d576002830180547fffffffffffffffff0000000000000000ffffffffffffffffffffffffffffffff164260801b77ffffffffffffffff00000000000000000000000000000000161790556001928c91613392826127e2565b61339c858c6122bd565b526133a7848b6122bd565b5060208101516133b7858d6122bd565b527ff930a6e2523c9cc298691873087a740550b8fc85a0680830414c148ed927f615602073ffffffffffffffffffffffffffffffffffffffff87816004870154169451950154956040519586521693a40161329e565b60046040517f905e7107000000000000000000000000000000000000000000000000000000008152fd5b60046040517f4ca88867000000000000000000000000000000000000000000000000000000008152fd5b61347691503d806000833e610a4e8183612182565b3861327d565b90949392916040517fa2ea7c6e00000000000000000000000000000000000000000000000000000000815282600482015260008160248173ffffffffffffffffffffffffffffffffffffffff7f0000000000000000000000000000000000000000000000000000000000000000165afa908115610a5d5760009161369e575b50805115610a0e57865161350e81612a7f565b926135188261295c565b9460005b83811061353257505050506120f2959650613db4565b61353c818c6122bd565b5190815160005260016020526040600020918254156107e35783600184015403610a0e57600583015473ffffffffffffffffffffffffffffffffffffffff861673ffffffffffffffffffffffffffffffffffffffff8216036134375760a01c60ff16156109985767ffffffffffffffff600284015460801c1661340d576002830180547fffffffffffffffff0000000000000000ffffffffffffffffffffffffffffffff164260801b77ffffffffffffffff000000000000000000000000000000001617905560019261360e816127e2565b613618848b6122bd565b52613623838a6122bd565b506020820151613633848c6122bd565b528373ffffffffffffffffffffffffffffffffffffffff6004830154169251910154916040519182527ff930a6e2523c9cc298691873087a740550b8fc85a0680830414c148ed927f615602073ffffffffffffffffffffffffffffffffffffffff891693a40161351c565b6136b391503d806000833e610a4e8183612182565b386134fb565b60408101906040815282518092526060810160608360051b830101926020809501916000905b82821061372257505050508281830391015281808451928381520193019160005b82811061370e575050505090565b835185529381019392810192600101613700565b9091929594858061375d837fffffffffffffffffffffffffffffffffffffffffffffffffffffffffffffffa089600196030186528a51612059565b97980194939190910191016136df565b9092918351936001908186146139b35773ffffffffffffffffffffffffffffffffffffffff60208095015116918215613983579560009687915b80831061387557505050918392916137f09492876040518097819582947f91db0b7e000000000000000000000000000000000000000000000000000000008452600484016136b9565b03925af1908115610a5d5760009161383e575b50905015613814576120f290614545565b60046040517fe8bee839000000000000000000000000000000000000000000000000000000008152fd5b82813d831161386e575b6138528183612182565b8101031261386b5750613864906129ab565b8038613803565b80fd5b503d613848565b9091979661388389876122bd565b51801515806138fd575b6138d3578181116138a9578084920398019801909190916137a7565b60046040517f11011294000000000000000000000000000000000000000000000000000000008152fd5b60046040517f1574f9f3000000000000000000000000000000000000000000000000000000008152fd5b50604080517fce46e04600000000000000000000000000000000000000000000000000000000815289816004818b5afa9182156139795750600091613944575b501561388d565b908982813d8311613972575b61395a8183612182565b8101031261386b575061396c906129ab565b3861393d565b503d613950565b513d6000823e3d90fd5b9594505050905060005b82811061399d5750505050600090565b6139a781836122bd565b516138d357830161398d565b6120f295506139cd91506139c6906122b0565b51916122b0565b5191613f8c565b909391845194600190818714613b985773ffffffffffffffffffffffffffffffffffffffff60208095015116918215613b67579660009788915b808310613ab75750505091839291613a579492886040518097819582947f91db0b7e000000000000000000000000000000000000000000000000000000008452600484016136b9565b03925af1908115610a5d57600091613a83575b5090501561381457613a7a575090565b6120f290614545565b82813d8311613ab0575b613a978183612182565b8101031261386b5750613aa9906129ab565b8038613a6a565b503d613a8d565b90919897613ac58a876122bd565b5180151580613aeb575b6138d3578181116138a957808492039901990190919091613a0e565b50604080517fce46e04600000000000000000000000000000000000000000000000000000000815289816004818b5afa9182156139795750600091613b32575b5015613acf565b908982813d8311613b60575b613b488183612182565b8101031261386b5750613b5a906129ab565b38613b2b565b503d613b3e565b969550505091505060005b828110613b825750505050600090565b613b8c81836122bd565b516138d3578301613b72565b6120f29650613bae91506139c6909594956122b0565b5191614113565b909291835193600190818614613d9a5773ffffffffffffffffffffffffffffffffffffffff60208095015116918215613d6a579560009687915b808310613cba5750505091839291613c389492876040518097819582947f88e5b2d9000000000000000000000000000000000000000000000000000000008452600484016136b9565b03925af1908115610a5d57600091613c86575b50905015613c5c576120f290614545565b60046040517fbf2f3a8b000000000000000000000000000000000000000000000000000000008152fd5b82813d8311613cb3575b613c9a8183612182565b8101031261386b5750613cac906129ab565b8038613c4b565b503d613c90565b90919796613cc889876122bd565b5180151580613cee575b6138d3578181116138a957808492039801980190919091613bef565b50604080517fce46e04600000000000000000000000000000000000000000000000000000000815289816004818b5afa9182156139795750600091613d35575b5015613cd2565b908982813d8311613d63575b613d4b8183612182565b8101031261386b5750613d5d906129ab565b38613d2e565b503d613d41565b9594505050905060005b828110613d845750505050600090565b613d8e81836122bd565b516138d3578301613d74565b6120f29550613dad91506139c6906122b0565b519161427b565b909391845194600190818714613f6f5773ffffffffffffffffffffffffffffffffffffffff60208095015116918215613f3e579660009788915b808310613e8e5750505091839291613e379492886040518097819582947f88e5b2d9000000000000000000000000000000000000000000000000000000008452600484016136b9565b03925af1908115610a5d57600091613e5a575b50905015613c5c57613a7a575090565b82813d8311613e87575b613e6e8183612182565b8101031261386b5750613e80906129ab565b8038613e4a565b503d613e64565b90919897613e9c8a876122bd565b5180151580613ec2575b6138d3578181116138a957808492039901990190919091613dee565b50604080517fce46e04600000000000000000000000000000000000000000000000000000000815289816004818b5afa9182156139795750600091613f09575b5015613ea6565b908982813d8311613f37575b613f1f8183612182565b8101031261386b5750613f31906129ab565b38613f02565b503d613f15565b969550505091505060005b828110613f595750505050600090565b613f6381836122bd565b516138d3578301613f49565b6120f29650613f8591506139c6909594956122b0565b51916143f5565b92919273ffffffffffffffffffffffffffffffffffffffff602080920151168015614106578415158061408c575b6138d3578385116138a957614008829186946040519586809481937fe60c35050000000000000000000000000000000000000000000000000000000083528760048401526024830190612059565b03925af1908115610a5d57600091614058575b5090501561402e57816120f29103614545565b60046040517fbd8ba84d000000000000000000000000000000000000000000000000000000008152fd5b82813d8311614085575b61406c8183612182565b8101031261386b575061407e906129ab565b803861401b565b503d614062565b506040517fce46e0460000000000000000000000000000000000000000000000000000000081528281600481855afa908115610a5d576000916140d1575b5015613fba565b908382813d83116140ff575b6140e78183612182565b8101031261386b57506140f9906129ab565b386140ca565b503d6140dd565b505050506138d357600090565b93919373ffffffffffffffffffffffffffffffffffffffff60208092015116801561426d57851515806141f3575b6138d3578486116138a95761418f829187946040519586809481937fe60c35050000000000000000000000000000000000000000000000000000000083528760048401526024830190612059565b03925af1908115610a5d576000916141bf575b5090501561402e5782906141b557505090565b6120f29103614545565b82813d83116141ec575b6141d38183612182565b8101031261386b57506141e5906129ab565b80386141a2565b503d6141c9565b506040517fce46e0460000000000000000000000000000000000000000000000000000000081528281600481855afa908115610a5d57600091614238575b5015614141565b908382813d8311614266575b61424e8183612182565b8101031261386b5750614260906129ab565b38614231565b503d614244565b50505050506138d357600090565b92919273ffffffffffffffffffffffffffffffffffffffff602080920151168015614106578415158061437b575b6138d3578385116138a9576142f7829186946040519586809481937fe49617e10000000000000000000000000000000000000000000000000000000083528760048401526024830190612059565b03925af1908115610a5d57600091614347575b5090501561431d57816120f29103614545565b60046040517fccf3bb27000000000000000000000000000000000000000000000000000000008152fd5b82813d8311614374575b61435b8183612182565b8101031261386b575061436d906129ab565b803861430a565b503d614351565b506040517fce46e0460000000000000000000000000000000000000000000000000000000081528281600481855afa908115610a5d576000916143c0575b50156142a9565b908382813d83116143ee575b6143d68183612182565b8101031261386b57506143e8906129ab565b386143b9565b503d6143cc565b93919373ffffffffffffffffffffffffffffffffffffffff60208092015116801561426d57851515806144cb575b6138d3578486116138a957614471829187946040519586809481937fe49617e10000000000000000000000000000000000000000000000000000000083528760048401526024830190612059565b03925af1908115610a5d57600091614497575b5090501561431d5782906141b557505090565b82813d83116144c4575b6144ab8183612182565b8101031261386b57506144bd906129ab565b8038614484565b503d6144a1565b506040517fce46e0460000000000000000000000000000000000000000000000000000000081528281600481855afa908115610a5d57600091614510575b5015614423565b908382813d831161453e575b6145268183612182565b8101031261386b5750614538906129ab565b38614509565b503d61451c565b8061454d5750565b80471061461657600080808093335af13d15614611573d61456d816121c3565b9061457b6040519283612182565b8152600060203d92013e5b1561458d57565b60846040517f08c379a000000000000000000000000000000000000000000000000000000000815260206004820152603a60248201527f416464726573733a20756e61626c6520746f2073656e642076616c75652c207260448201527f6563697069656e74206d617920686176652072657665727465640000000000006064820152fd5b614586565b60646040517f08c379a000000000000000000000000000000000000000000000000000000000815260206004820152601d60248201527f416464726573733a20696e73756666696369656e742062616c616e63650000006044820152fd5b9061467e9061295c565b60009283925b80518410156146d9579361469884866122bd565b519160005b83518110156146c8576146b081856122bd565b516146bb84876122bd565b526001928301920161469d565b509094600190940193909150614684565b509250905090565b6000818152600260205267ffffffffffffffff908160408220541661475d577f5aafceeb1c7ad58e4a84898bdee37c02c0fc46e7d24e6b60e8209449f183459f91838252600260205260408220941693847fffffffffffffffffffffffffffffffffffffffffffffffff000000000000000082541617905580a3565b60046040517f2e267946000000000000000000000000000000000000000000000000000000008152fd5b73ffffffffffffffffffffffffffffffffffffffff166000818152600360205260408120908381528160205267ffffffffffffffff80604083205416614822577f92a1f7a41a7c585a8b09e25b195e225b1d43248daca46b0faf9e0792777a22299285835260205260408220951694857fffffffffffffffffffffffffffffffffffffffffffffffff000000000000000082541617905580a4565b60046040517fec9d6eeb000000000000000000000000000000000000000000000000000000008152fd5b73ffffffffffffffffffffffffffffffffffffffff7f00000000000000000000000000000000000000000000000000000000000000001630148061494a575b156148b4577f000000000000000000000000000000000000000000000000000000000000000090565b60405160208101907f000000000000000000000000000000000000000000000000000000000000000082527f000000000000000000000000000000000000000000000000000000000000000060408201527f000000000000000000000000000000000000000000000000000000000000000060608201524660808201523060a082015260a0815261494481612111565b51902090565b507f0000000000000000000000000000000000000000000000000000000000000000461461488b565b6020908181015190604080938183015192606081019173ffffffffffffffffffffffffffffffffffffffff948584511660005260008252846000209283549360018501905551928688511667ffffffffffffffff988985820151168882015115159060806060840151930151878151910120938a5198888a019b7fdbfdf8dc2b135c26253e00d5b6cbe6f20457e003fd526d97cea183883570de618d528a01526060890152608088015260a087015260c086015260e0850152610100908185015283526101208301968388109088111761096957614a5e8695614a7294614a7a998b52519020614ce4565b918860ff8351169183015192015192614c48565b949094614aaf565b5116911603614a865750565b600490517f8baa579f000000000000000000000000000000000000000000000000000000008152fd5b6005811015614c195780614ac05750565b60018103614b265760646040517f08c379a000000000000000000000000000000000000000000000000000000000815260206004820152601860248201527f45434453413a20696e76616c6964207369676e617475726500000000000000006044820152fd5b60028103614b8c5760646040517f08c379a000000000000000000000000000000000000000000000000000000000815260206004820152601f60248201527f45434453413a20696e76616c6964207369676e6174757265206c656e677468006044820152fd5b600314614b9557565b60846040517f08c379a000000000000000000000000000000000000000000000000000000000815260206004820152602260248201527f45434453413a20696e76616c6964207369676e6174757265202773272076616c60448201527f75650000000000000000000000000000000000000000000000000000000000006064820152fd5b7f4e487b7100000000000000000000000000000000000000000000000000000000600052602160045260246000fd5b9291907f7fffffffffffffffffffffffffffffff5d576e7357a4501ddfe92f46681b20a08311614cd85791608094939160ff602094604051948552168484015260408301526060820152600093849182805260015afa15614ccb57815173ffffffffffffffffffffffffffffffffffffffff811615614cc5579190565b50600190565b50604051903d90823e3d90fd5b50505050600090600390565b614cec61484c565b906040519060208201927f190100000000000000000000000000000000000000000000000000000000000084526022830152604282015260428152614944816120f5565b602081015160409182810151916060820173ffffffffffffffffffffffffffffffffffffffff9283825116600052600060205285600020908154916001830190555192519086519160208301947fa98d02348410c9c76735e0d0bb1396f4015ac2bb9615f9c2611d19d7a8a99650865288840152606083015260808201526080815260a081019481861067ffffffffffffffff87111761096957614de18594614a7293614a7a988a52519020614ce4565b9060ff81511688602083015192015192614c4856fea164736f6c6343000812000a",
  "devdoc": {
    "events": {
      "Attested(address,address,bytes32,bytes32)": {
        "details": "Emitted when an attestation has been made.",
        "params": {
          "attester": "The attesting account.",
          "recipient": "The recipient of the attestation.",
          "schema": "The UID of the schema.",
          "uid": "The UID the revoked attestation."
        }
      },
      "Revoked(address,address,bytes32,bytes32)": {
        "details": "Emitted when an attestation has been revoked.",
        "params": {
          "attester": "The attesting account.",
          "recipient": "The recipient of the attestation.",
          "schema": "The UID of the schema.",
          "uid": "The UID the revoked attestation."
        }
      },
      "RevokedOffchain(address,bytes32,uint64)": {
        "details": "Emitted when a data has been revoked.",
        "params": {
          "data": "The data.",
          "revoker": "The address of the revoker.",
          "timestamp": "The timestamp."
        }
      },
      "Timestamped(bytes32,uint64)": {
        "details": "Emitted when a data has been timestamped.",
        "params": {
          "data": "The data.",
          "timestamp": "The timestamp."
        }
      }
    },
    "kind": "dev",
    "methods": {
      "attest((bytes32,(address,uint64,bool,bytes32,bytes,uint256)))": {
        "details": "Attests to a specific schema.",
        "params": {
          "request": "The arguments of the attestation request. Example: attest({     schema: \"0facc36681cbe2456019c1b0d1e7bedd6d1d40f6f324bf3dd3a4cef2999200a0\",     data: {         recipient: \"0xdEADBeAFdeAdbEafdeadbeafDeAdbEAFdeadbeaf\",         expirationTime: 0,         revocable: true,         refUID: \"0x0000000000000000000000000000000000000000000000000000000000000000\",         data: \"0xF00D\",         value: 0     } })"
        },
        "returns": {
          "_0": "The UID of the new attestation."
        }
      },
      "attestByDelegation((bytes32,(address,uint64,bool,bytes32,bytes,uint256),(uint8,bytes32,bytes32),address))": {
        "details": "Attests to a specific schema via the provided EIP712 signature.",
        "params": {
          "delegatedRequest": "The arguments of the delegated attestation request. Example: attestByDelegation({     schema: '0x8e72f5bc0a8d4be6aa98360baa889040c50a0e51f32dbf0baa5199bd93472ebc',     data: {         recipient: '0xf39Fd6e51aad88F6F4ce6aB8827279cffFb92266',         expirationTime: 1673891048,         revocable: true,         refUID: '0x0000000000000000000000000000000000000000000000000000000000000000',         data: '0x1234',         value: 0     },     signature: {         v: 28,         r: '0x148c...b25b',         s: '0x5a72...be22'     },     attester: '0xc5E8740aD971409492b1A63Db8d83025e0Fc427e' })"
        },
        "returns": {
          "_0": "The UID of the new attestation."
        }
      },
      "constructor": {
        "details": "Creates a new EAS instance.",
        "params": {
          "registry": "The address of the global schema registry."
        }
      },
      "getAttestation(bytes32)": {
        "details": "Returns an existing attestation by UID.",
        "params": {
          "uid": "The UID of the attestation to retrieve."
        },
        "returns": {
          "_0": "The attestation data members."
        }
      },
      "getDomainSeparator()": {
        "details": "Returns the domain separator used in the encoding of the signatures for attest, and revoke."
      },
      "getNonce(address)": {
        "details": "Returns the current nonce per-account.",
        "params": {
          "account": "The requested account."
        },
        "returns": {
          "_0": "The current nonce."
        }
      },
      "getRevokeOffchain(address,bytes32)": {
        "details": "Returns the timestamp that the specified data was timestamped with.",
        "params": {
          "data": "The data to query."
        },
        "returns": {
          "_0": "The timestamp the data was timestamped with."
        }
      },
      "getSchemaRegistry()": {
        "details": "Returns the address of the global schema registry.",
        "returns": {
          "_0": "The address of the global schema registry."
        }
      },
      "getTimestamp(bytes32)": {
        "details": "Returns the timestamp that the specified data was timestamped with.",
        "params": {
          "data": "The data to query."
        },
        "returns": {
          "_0": "The timestamp the data was timestamped with."
        }
      },
      "isAttestationValid(bytes32)": {
        "details": "Checks whether an attestation exists.",
        "params": {
          "uid": "The UID of the attestation to retrieve."
        },
        "returns": {
          "_0": "Whether an attestation exists."
        }
      },
      "multiAttest((bytes32,(address,uint64,bool,bytes32,bytes,uint256)[])[])": {
        "details": "Attests to multiple schemas.",
        "params": {
          "multiRequests": "The arguments of the multi attestation requests. The requests should be grouped by distinct schema ids to benefit from the best batching optimization. Example: multiAttest([{     schema: '0x33e9094830a5cba5554d1954310e4fbed2ef5f859ec1404619adea4207f391fd',     data: [{         recipient: '0xdEADBeAFdeAdbEafdeadbeafDeAdbEAFdeadbeaf',         expirationTime: 1673891048,         revocable: true,         refUID: '0x0000000000000000000000000000000000000000000000000000000000000000',         data: '0x1234',         value: 1000     },     {         recipient: '0xf39Fd6e51aad88F6F4ce6aB8827279cffFb92266',         expirationTime: 0,         revocable: false,         refUID: '0x480df4a039efc31b11bfdf491b383ca138b6bde160988222a2a3509c02cee174',         data: '0x00',         value: 0     }], }, {     schema: '0x5ac273ce41e3c8bfa383efe7c03e54c5f0bff29c9f11ef6ffa930fc84ca32425',     data: [{         recipient: '0xdEADBeAFdeAdbEafdeadbeafDeAdbEAFdeadbeaf',         expirationTime: 0,         revocable: true,         refUID: '0x75bf2ed8dca25a8190c50c52db136664de25b2449535839008ccfdab469b214f',         data: '0x12345678',         value: 0     }, }])"
        },
        "returns": {
          "_0": "The UIDs of the new attestations."
        }
      },
      "multiAttestByDelegation((bytes32,(address,uint64,bool,bytes32,bytes,uint256)[],(uint8,bytes32,bytes32)[],address)[])": {
        "details": "Attests to multiple schemas using via provided EIP712 signatures.",
        "params": {
          "multiDelegatedRequests": "The arguments of the delegated multi attestation requests. The requests should be grouped by distinct schema ids to benefit from the best batching optimization. Example: multiAttestByDelegation([{     schema: '0x8e72f5bc0a8d4be6aa98360baa889040c50a0e51f32dbf0baa5199bd93472ebc',     data: [{         recipient: '0xf39Fd6e51aad88F6F4ce6aB8827279cffFb92266',         expirationTime: 1673891048,         revocable: true,         refUID: '0x0000000000000000000000000000000000000000000000000000000000000000',         data: '0x1234',         value: 0     },     {         recipient: '0xdEADBeAFdeAdbEafdeadbeafDeAdbEAFdeadbeaf',         expirationTime: 0,         revocable: false,         refUID: '0x0000000000000000000000000000000000000000000000000000000000000000',         data: '0x00',         value: 0     }],     signatures: [{         v: 28,         r: '0x148c...b25b',         s: '0x5a72...be22'     },     {         v: 28,         r: '0x487s...67bb',         s: '0x12ad...2366'     }],     attester: '0x1D86495b2A7B524D747d2839b3C645Bed32e8CF4' }])"
        },
        "returns": {
          "_0": "The UIDs of the new attestations."
        }
      },
      "multiRevoke((bytes32,(bytes32,uint256)[])[])": {
        "details": "Revokes existing attestations to multiple schemas.",
        "params": {
          "multiRequests": "The arguments of the multi revocation requests. The requests should be grouped by distinct schema ids to benefit from the best batching optimization. Example: multiRevoke([{     schema: '0x8e72f5bc0a8d4be6aa98360baa889040c50a0e51f32dbf0baa5199bd93472ebc',     data: [{         uid: '0x211296a1ca0d7f9f2cfebf0daaa575bea9b20e968d81aef4e743d699c6ac4b25',         value: 1000     },     {         uid: '0xe160ac1bd3606a287b4d53d5d1d6da5895f65b4b4bab6d93aaf5046e48167ade',         value: 0     }], }, {     schema: '0x5ac273ce41e3c8bfa383efe7c03e54c5f0bff29c9f11ef6ffa930fc84ca32425',     data: [{         uid: '0x053d42abce1fd7c8fcddfae21845ad34dae287b2c326220b03ba241bc5a8f019',         value: 0     }, }])"
        }
      },
      "multiRevokeByDelegation((bytes32,(bytes32,uint256)[],(uint8,bytes32,bytes32)[],address)[])": {
        "details": "Revokes existing attestations to multiple schemas via provided EIP712 signatures.",
        "params": {
          "multiDelegatedRequests": "The arguments of the delegated multi revocation attestation requests. The requests should be grouped by distinct schema ids to benefit from the best batching optimization. Example: multiRevokeByDelegation([{     schema: '0x8e72f5bc0a8d4be6aa98360baa889040c50a0e51f32dbf0baa5199bd93472ebc',     data: [{         uid: '0x211296a1ca0d7f9f2cfebf0daaa575bea9b20e968d81aef4e743d699c6ac4b25',         value: 1000     },     {         uid: '0xe160ac1bd3606a287b4d53d5d1d6da5895f65b4b4bab6d93aaf5046e48167ade',         value: 0     }],     signatures: [{         v: 28,         r: '0x148c...b25b',         s: '0x5a72...be22'     },     {         v: 28,         r: '0x487s...67bb',         s: '0x12ad...2366'     }],     revoker: '0x244934dd3e31bE2c81f84ECf0b3E6329F5381992' }])"
        }
      },
      "multiRevokeOffchain(bytes32[])": {
        "details": "Revokes the specified multiple bytes32 data.",
        "params": {
          "data": "The data to timestamp."
        },
        "returns": {
          "_0": "The timestamp the data was revoked with."
        }
      },
      "multiTimestamp(bytes32[])": {
        "details": "Timestamps the specified multiple bytes32 data.",
        "params": {
          "data": "The data to timestamp."
        },
        "returns": {
          "_0": "The timestamp the data was timestamped with."
        }
      },
      "revoke((bytes32,(bytes32,uint256)))": {
        "details": "Revokes an existing attestation to a specific schema. Example: revoke({     schema: '0x8e72f5bc0a8d4be6aa98360baa889040c50a0e51f32dbf0baa5199bd93472ebc',     data: {         uid: '0x101032e487642ee04ee17049f99a70590c735b8614079fc9275f9dd57c00966d',         value: 0     } })",
        "params": {
          "request": "The arguments of the revocation request."
        }
      },
      "revokeByDelegation((bytes32,(bytes32,uint256),(uint8,bytes32,bytes32),address))": {
        "details": "Revokes an existing attestation to a specific schema via the provided EIP712 signature. Example: revokeByDelegation({     schema: '0x8e72f5bc0a8d4be6aa98360baa889040c50a0e51f32dbf0baa5199bd93472ebc',     data: {         uid: '0xcbbc12102578c642a0f7b34fe7111e41afa25683b6cd7b5a14caf90fa14d24ba',         value: 0     },     signature: {         v: 27,         r: '0xb593...7142',         s: '0x0f5b...2cce'     },     revoker: '0x244934dd3e31bE2c81f84ECf0b3E6329F5381992' })",
        "params": {
          "delegatedRequest": "The arguments of the delegated revocation request."
        }
      },
      "revokeOffchain(bytes32)": {
        "details": "Revokes the specified bytes32 data.",
        "params": {
          "data": "The data to timestamp."
        },
        "returns": {
          "_0": "The timestamp the data was revoked with."
        }
      },
      "timestamp(bytes32)": {
        "details": "Timestamps the specified bytes32 data.",
        "params": {
          "data": "The data to timestamp."
        },
        "returns": {
          "_0": "The timestamp the data was timestamped with."
        }
      }
    },
    "title": "EAS - Ethereum Attestation Service",
    "version": 1
  },
  "userdoc": {
    "kind": "user",
    "methods": {
      "getAttestTypeHash()": {
        "notice": "Returns the EIP712 type hash for the attest function."
      },
      "getRevokeTypeHash()": {
        "notice": "Returns the EIP712 type hash for the revoke function."
      }
    },
    "version": 1
  },
  "storageLayout": {
    "storage": [
      {
        "astId": 3790,
        "contract": "contracts/EAS.sol:EAS",
        "label": "_nonces",
        "offset": 0,
        "slot": "0",
        "type": "t_mapping(t_address,t_uint256)"
      },
      {
        "astId": 1977,
        "contract": "contracts/EAS.sol:EAS",
        "label": "_db",
        "offset": 0,
        "slot": "1",
        "type": "t_mapping(t_bytes32,t_struct(Attestation)4348_storage)"
      },
      {
        "astId": 1981,
        "contract": "contracts/EAS.sol:EAS",
        "label": "_timestamps",
        "offset": 0,
        "slot": "2",
        "type": "t_mapping(t_bytes32,t_uint64)"
      },
      {
        "astId": 1987,
        "contract": "contracts/EAS.sol:EAS",
        "label": "_revocationsOffchain",
        "offset": 0,
        "slot": "3",
        "type": "t_mapping(t_address,t_mapping(t_bytes32,t_uint64))"
      }
    ],
    "types": {
      "t_address": {
        "encoding": "inplace",
        "label": "address",
        "numberOfBytes": "20"
      },
      "t_bool": {
        "encoding": "inplace",
        "label": "bool",
        "numberOfBytes": "1"
      },
      "t_bytes32": {
        "encoding": "inplace",
        "label": "bytes32",
        "numberOfBytes": "32"
      },
      "t_bytes_storage": {
        "encoding": "bytes",
        "label": "bytes",
        "numberOfBytes": "32"
      },
      "t_mapping(t_address,t_mapping(t_bytes32,t_uint64))": {
        "encoding": "mapping",
        "key": "t_address",
        "label": "mapping(address => mapping(bytes32 => uint64))",
        "numberOfBytes": "32",
        "value": "t_mapping(t_bytes32,t_uint64)"
      },
      "t_mapping(t_address,t_uint256)": {
        "encoding": "mapping",
        "key": "t_address",
        "label": "mapping(address => uint256)",
        "numberOfBytes": "32",
        "value": "t_uint256"
      },
      "t_mapping(t_bytes32,t_struct(Attestation)4348_storage)": {
        "encoding": "mapping",
        "key": "t_bytes32",
        "label": "mapping(bytes32 => struct Attestation)",
        "numberOfBytes": "32",
        "value": "t_struct(Attestation)4348_storage"
      },
      "t_mapping(t_bytes32,t_uint64)": {
        "encoding": "mapping",
        "key": "t_bytes32",
        "label": "mapping(bytes32 => uint64)",
        "numberOfBytes": "32",
        "value": "t_uint64"
      },
      "t_struct(Attestation)4348_storage": {
        "encoding": "inplace",
        "label": "struct Attestation",
        "members": [
          {
            "astId": 4329,
            "contract": "contracts/EAS.sol:EAS",
            "label": "uid",
            "offset": 0,
            "slot": "0",
            "type": "t_bytes32"
          },
          {
            "astId": 4331,
            "contract": "contracts/EAS.sol:EAS",
            "label": "schema",
            "offset": 0,
            "slot": "1",
            "type": "t_bytes32"
          },
          {
            "astId": 4333,
            "contract": "contracts/EAS.sol:EAS",
            "label": "time",
            "offset": 0,
            "slot": "2",
            "type": "t_uint64"
          },
          {
            "astId": 4335,
            "contract": "contracts/EAS.sol:EAS",
            "label": "expirationTime",
            "offset": 8,
            "slot": "2",
            "type": "t_uint64"
          },
          {
            "astId": 4337,
            "contract": "contracts/EAS.sol:EAS",
            "label": "revocationTime",
            "offset": 16,
            "slot": "2",
            "type": "t_uint64"
          },
          {
            "astId": 4339,
            "contract": "contracts/EAS.sol:EAS",
            "label": "refUID",
            "offset": 0,
            "slot": "3",
            "type": "t_bytes32"
          },
          {
            "astId": 4341,
            "contract": "contracts/EAS.sol:EAS",
            "label": "recipient",
            "offset": 0,
            "slot": "4",
            "type": "t_address"
          },
          {
            "astId": 4343,
            "contract": "contracts/EAS.sol:EAS",
            "label": "attester",
            "offset": 0,
            "slot": "5",
            "type": "t_address"
          },
          {
            "astId": 4345,
            "contract": "contracts/EAS.sol:EAS",
            "label": "revocable",
            "offset": 20,
            "slot": "5",
            "type": "t_bool"
          },
          {
            "astId": 4347,
            "contract": "contracts/EAS.sol:EAS",
            "label": "data",
            "offset": 0,
            "slot": "6",
            "type": "t_bytes_storage"
          }
        ],
        "numberOfBytes": "224"
      },
      "t_uint256": {
        "encoding": "inplace",
        "label": "uint256",
        "numberOfBytes": "32"
      },
      "t_uint64": {
        "encoding": "inplace",
        "label": "uint64",
        "numberOfBytes": "8"
      }
    }
  }
}