{
  "address": "0x6979890518713840f44FCb33A0935847EB9621dc",
  "abi": [
    {
      "inputs": [
        {
          "internalType": "contract ISchemaRegistry",
          "name": "registry",
          "type": "address"
        }
      ],
      "stateMutability": "nonpayable",
      "type": "constructor"
    },
    {
      "inputs": [],
      "name": "AccessDenied",
      "type": "error"
    },
    {
      "inputs": [
        {
          "internalType": "address",
          "name": "account",
          "type": "address"
        }
      ],
      "name": "AddressInsufficientBalance",
      "type": "error"
    },
    {
      "inputs": [],
      "name": "AlreadyRevoked",
      "type": "error"
    },
    {
      "inputs": [],
      "name": "AlreadyRevokedOffchain",
      "type": "error"
    },
    {
      "inputs": [],
      "name": "AlreadyTimestamped",
      "type": "error"
    },
    {
      "inputs": [],
      "name": "DeadlineExpired",
      "type": "error"
    },
    {
      "inputs": [],
      "name": "FailedInnerCall",
      "type": "error"
    },
    {
      "inputs": [],
      "name": "InsufficientValue",
      "type": "error"
    },
    {
      "inputs": [],
      "name": "InvalidAttestation",
      "type": "error"
    },
    {
      "inputs": [],
      "name": "InvalidAttestations",
      "type": "error"
    },
    {
      "inputs": [],
      "name": "InvalidExpirationTime",
      "type": "error"
    },
    {
      "inputs": [],
      "name": "InvalidLength",
      "type": "error"
    },
    {
      "inputs": [],
      "name": "InvalidNonce",
      "type": "error"
    },
    {
      "inputs": [],
      "name": "InvalidOffset",
      "type": "error"
    },
    {
      "inputs": [],
      "name": "InvalidRegistry",
      "type": "error"
    },
    {
      "inputs": [],
      "name": "InvalidRevocation",
      "type": "error"
    },
    {
      "inputs": [],
      "name": "InvalidRevocations",
      "type": "error"
    },
    {
      "inputs": [],
      "name": "InvalidSchema",
      "type": "error"
    },
    {
      "inputs": [],
      "name": "InvalidShortString",
      "type": "error"
    },
    {
      "inputs": [],
      "name": "InvalidSignature",
      "type": "error"
    },
    {
      "inputs": [],
      "name": "InvalidVerifier",
      "type": "error"
    },
    {
      "inputs": [],
      "name": "Irrevocable",
      "type": "error"
    },
    {
      "inputs": [],
      "name": "NotFound",
      "type": "error"
    },
    {
      "inputs": [],
      "name": "NotPayable",
      "type": "error"
    },
    {
      "inputs": [
        {
          "internalType": "string",
          "name": "str",
          "type": "string"
        }
      ],
      "name": "StringTooLong",
      "type": "error"
    },
    {
      "inputs": [],
      "name": "WrongSchema",
      "type": "error"
    },
    {
      "anonymous": false,
      "inputs": [
        {
          "indexed": true,
          "internalType": "address",
          "name": "recipient",
          "type": "address"
        },
        {
          "indexed": true,
          "internalType": "address",
          "name": "attester",
          "type": "address"
        },
        {
          "indexed": false,
          "internalType": "bytes32",
          "name": "uid",
          "type": "bytes32"
        },
        {
          "indexed": true,
          "internalType": "bytes32",
          "name": "schemaUID",
          "type": "bytes32"
        }
      ],
      "name": "Attested",
      "type": "event"
    },
    {
      "anonymous": false,
      "inputs": [],
      "name": "EIP712DomainChanged",
      "type": "event"
    },
    {
      "anonymous": false,
      "inputs": [
        {
          "indexed": false,
          "internalType": "uint256",
          "name": "oldNonce",
          "type": "uint256"
        },
        {
          "indexed": false,
          "internalType": "uint256",
          "name": "newNonce",
          "type": "uint256"
        }
      ],
      "name": "NonceIncreased",
      "type": "event"
    },
    {
      "anonymous": false,
      "inputs": [
        {
          "indexed": true,
          "internalType": "address",
          "name": "recipient",
          "type": "address"
        },
        {
          "indexed": true,
          "internalType": "address",
          "name": "attester",
          "type": "address"
        },
        {
          "indexed": false,
          "internalType": "bytes32",
          "name": "uid",
          "type": "bytes32"
        },
        {
          "indexed": true,
          "internalType": "bytes32",
          "name": "schemaUID",
          "type": "bytes32"
        }
      ],
      "name": "Revoked",
      "type": "event"
    },
    {
      "anonymous": false,
      "inputs": [
        {
          "indexed": true,
          "internalType": "address",
          "name": "revoker",
          "type": "address"
        },
        {
          "indexed": true,
          "internalType": "bytes32",
          "name": "data",
          "type": "bytes32"
        },
        {
          "indexed": true,
          "internalType": "uint64",
          "name": "timestamp",
          "type": "uint64"
        }
      ],
      "name": "RevokedOffchain",
      "type": "event"
    },
    {
      "anonymous": false,
      "inputs": [
        {
          "indexed": true,
          "internalType": "bytes32",
          "name": "data",
          "type": "bytes32"
        },
        {
          "indexed": true,
          "internalType": "uint64",
          "name": "timestamp",
          "type": "uint64"
        }
      ],
      "name": "Timestamped",
      "type": "event"
    },
    {
      "inputs": [
        {
          "components": [
            {
              "internalType": "bytes32",
              "name": "schema",
              "type": "bytes32"
            },
            {
              "components": [
                {
                  "internalType": "address",
                  "name": "recipient",
                  "type": "address"
                },
                {
                  "internalType": "uint64",
                  "name": "expirationTime",
                  "type": "uint64"
                },
                {
                  "internalType": "bool",
                  "name": "revocable",
                  "type": "bool"
                },
                {
                  "internalType": "bytes32",
                  "name": "refUID",
                  "type": "bytes32"
                },
                {
                  "internalType": "bytes",
                  "name": "data",
                  "type": "bytes"
                },
                {
                  "internalType": "uint256",
                  "name": "value",
                  "type": "uint256"
                }
              ],
              "internalType": "struct AttestationRequestData",
              "name": "data",
              "type": "tuple"
            }
          ],
          "internalType": "struct AttestationRequest",
          "name": "request",
          "type": "tuple"
        }
      ],
      "name": "attest",
      "outputs": [
        {
          "internalType": "bytes32",
          "name": "",
          "type": "bytes32"
        }
      ],
      "stateMutability": "payable",
      "type": "function"
    },
    {
      "inputs": [
        {
          "components": [
            {
              "internalType": "bytes32",
              "name": "schema",
              "type": "bytes32"
            },
            {
              "components": [
                {
                  "internalType": "address",
                  "name": "recipient",
                  "type": "address"
                },
                {
                  "internalType": "uint64",
                  "name": "expirationTime",
                  "type": "uint64"
                },
                {
                  "internalType": "bool",
                  "name": "revocable",
                  "type": "bool"
                },
                {
                  "internalType": "bytes32",
                  "name": "refUID",
                  "type": "bytes32"
                },
                {
                  "internalType": "bytes",
                  "name": "data",
                  "type": "bytes"
                },
                {
                  "internalType": "uint256",
                  "name": "value",
                  "type": "uint256"
                }
              ],
              "internalType": "struct AttestationRequestData",
              "name": "data",
              "type": "tuple"
            },
            {
              "components": [
                {
                  "internalType": "uint8",
                  "name": "v",
                  "type": "uint8"
                },
                {
                  "internalType": "bytes32",
                  "name": "r",
                  "type": "bytes32"
                },
                {
                  "internalType": "bytes32",
                  "name": "s",
                  "type": "bytes32"
                }
              ],
              "internalType": "struct Signature",
              "name": "signature",
              "type": "tuple"
            },
            {
              "internalType": "address",
              "name": "attester",
              "type": "address"
            },
            {
              "internalType": "uint64",
              "name": "deadline",
              "type": "uint64"
            }
          ],
          "internalType": "struct DelegatedAttestationRequest",
          "name": "delegatedRequest",
          "type": "tuple"
        }
      ],
      "name": "attestByDelegation",
      "outputs": [
        {
          "internalType": "bytes32",
          "name": "",
          "type": "bytes32"
        }
      ],
      "stateMutability": "payable",
      "type": "function"
    },
    {
      "inputs": [],
      "name": "eip712Domain",
      "outputs": [
        {
          "internalType": "bytes1",
          "name": "fields",
          "type": "bytes1"
        },
        {
          "internalType": "string",
          "name": "name",
          "type": "string"
        },
        {
          "internalType": "string",
          "name": "version",
          "type": "string"
        },
        {
          "internalType": "uint256",
          "name": "chainId",
          "type": "uint256"
        },
        {
          "internalType": "address",
          "name": "verifyingContract",
          "type": "address"
        },
        {
          "internalType": "bytes32",
          "name": "salt",
          "type": "bytes32"
        },
        {
          "internalType": "uint256[]",
          "name": "extensions",
          "type": "uint256[]"
        }
      ],
      "stateMutability": "view",
      "type": "function"
    },
    {
      "inputs": [],
      "name": "getAttestTypeHash",
      "outputs": [
        {
          "internalType": "bytes32",
          "name": "",
          "type": "bytes32"
        }
      ],
      "stateMutability": "pure",
      "type": "function"
    },
    {
      "inputs": [
        {
          "internalType": "bytes32",
          "name": "uid",
          "type": "bytes32"
        }
      ],
      "name": "getAttestation",
      "outputs": [
        {
          "components": [
            {
              "internalType": "bytes32",
              "name": "uid",
              "type": "bytes32"
            },
            {
              "internalType": "bytes32",
              "name": "schema",
              "type": "bytes32"
            },
            {
              "internalType": "uint64",
              "name": "time",
              "type": "uint64"
            },
            {
              "internalType": "uint64",
              "name": "expirationTime",
              "type": "uint64"
            },
            {
              "internalType": "uint64",
              "name": "revocationTime",
              "type": "uint64"
            },
            {
              "internalType": "bytes32",
              "name": "refUID",
              "type": "bytes32"
            },
            {
              "internalType": "address",
              "name": "recipient",
              "type": "address"
            },
            {
              "internalType": "address",
              "name": "attester",
              "type": "address"
            },
            {
              "internalType": "bool",
              "name": "revocable",
              "type": "bool"
            },
            {
              "internalType": "bytes",
              "name": "data",
              "type": "bytes"
            }
          ],
          "internalType": "struct Attestation",
          "name": "",
          "type": "tuple"
        }
      ],
      "stateMutability": "view",
      "type": "function"
    },
    {
      "inputs": [],
      "name": "getDomainSeparator",
      "outputs": [
        {
          "internalType": "bytes32",
          "name": "",
          "type": "bytes32"
        }
      ],
      "stateMutability": "view",
      "type": "function"
    },
    {
      "inputs": [],
      "name": "getName",
      "outputs": [
        {
          "internalType": "string",
          "name": "",
          "type": "string"
        }
      ],
      "stateMutability": "view",
      "type": "function"
    },
    {
      "inputs": [
        {
          "internalType": "address",
          "name": "account",
          "type": "address"
        }
      ],
      "name": "getNonce",
      "outputs": [
        {
          "internalType": "uint256",
          "name": "",
          "type": "uint256"
        }
      ],
      "stateMutability": "view",
      "type": "function"
    },
    {
      "inputs": [
        {
          "internalType": "address",
          "name": "revoker",
          "type": "address"
        },
        {
          "internalType": "bytes32",
          "name": "data",
          "type": "bytes32"
        }
      ],
      "name": "getRevokeOffchain",
      "outputs": [
        {
          "internalType": "uint64",
          "name": "",
          "type": "uint64"
        }
      ],
      "stateMutability": "view",
      "type": "function"
    },
    {
      "inputs": [],
      "name": "getRevokeTypeHash",
      "outputs": [
        {
          "internalType": "bytes32",
          "name": "",
          "type": "bytes32"
        }
      ],
      "stateMutability": "pure",
      "type": "function"
    },
    {
      "inputs": [],
      "name": "getSchemaRegistry",
      "outputs": [
        {
          "internalType": "contract ISchemaRegistry",
          "name": "",
          "type": "address"
        }
      ],
      "stateMutability": "view",
      "type": "function"
    },
    {
      "inputs": [
        {
          "internalType": "bytes32",
          "name": "data",
          "type": "bytes32"
        }
      ],
      "name": "getTimestamp",
      "outputs": [
        {
          "internalType": "uint64",
          "name": "",
          "type": "uint64"
        }
      ],
      "stateMutability": "view",
      "type": "function"
    },
    {
      "inputs": [
        {
          "internalType": "uint256",
          "name": "newNonce",
          "type": "uint256"
        }
      ],
      "name": "increaseNonce",
      "outputs": [],
      "stateMutability": "nonpayable",
      "type": "function"
    },
    {
      "inputs": [
        {
          "internalType": "bytes32",
          "name": "uid",
          "type": "bytes32"
        }
      ],
      "name": "isAttestationValid",
      "outputs": [
        {
          "internalType": "bool",
          "name": "",
          "type": "bool"
        }
      ],
      "stateMutability": "view",
      "type": "function"
    },
    {
      "inputs": [
        {
          "components": [
            {
              "internalType": "bytes32",
              "name": "schema",
              "type": "bytes32"
            },
            {
              "components": [
                {
                  "internalType": "address",
                  "name": "recipient",
                  "type": "address"
                },
                {
                  "internalType": "uint64",
                  "name": "expirationTime",
                  "type": "uint64"
                },
                {
                  "internalType": "bool",
                  "name": "revocable",
                  "type": "bool"
                },
                {
                  "internalType": "bytes32",
                  "name": "refUID",
                  "type": "bytes32"
                },
                {
                  "internalType": "bytes",
                  "name": "data",
                  "type": "bytes"
                },
                {
                  "internalType": "uint256",
                  "name": "value",
                  "type": "uint256"
                }
              ],
              "internalType": "struct AttestationRequestData[]",
              "name": "data",
              "type": "tuple[]"
            }
          ],
          "internalType": "struct MultiAttestationRequest[]",
          "name": "multiRequests",
          "type": "tuple[]"
        }
      ],
      "name": "multiAttest",
      "outputs": [
        {
          "internalType": "bytes32[]",
          "name": "",
          "type": "bytes32[]"
        }
      ],
      "stateMutability": "payable",
      "type": "function"
    },
    {
      "inputs": [
        {
          "components": [
            {
              "internalType": "bytes32",
              "name": "schema",
              "type": "bytes32"
            },
            {
              "components": [
                {
                  "internalType": "address",
                  "name": "recipient",
                  "type": "address"
                },
                {
                  "internalType": "uint64",
                  "name": "expirationTime",
                  "type": "uint64"
                },
                {
                  "internalType": "bool",
                  "name": "revocable",
                  "type": "bool"
                },
                {
                  "internalType": "bytes32",
                  "name": "refUID",
                  "type": "bytes32"
                },
                {
                  "internalType": "bytes",
                  "name": "data",
                  "type": "bytes"
                },
                {
                  "internalType": "uint256",
                  "name": "value",
                  "type": "uint256"
                }
              ],
              "internalType": "struct AttestationRequestData[]",
              "name": "data",
              "type": "tuple[]"
            },
            {
              "components": [
                {
                  "internalType": "uint8",
                  "name": "v",
                  "type": "uint8"
                },
                {
                  "internalType": "bytes32",
                  "name": "r",
                  "type": "bytes32"
                },
                {
                  "internalType": "bytes32",
                  "name": "s",
                  "type": "bytes32"
                }
              ],
              "internalType": "struct Signature[]",
              "name": "signatures",
              "type": "tuple[]"
            },
            {
              "internalType": "address",
              "name": "attester",
              "type": "address"
            },
            {
              "internalType": "uint64",
              "name": "deadline",
              "type": "uint64"
            }
          ],
          "internalType": "struct MultiDelegatedAttestationRequest[]",
          "name": "multiDelegatedRequests",
          "type": "tuple[]"
        }
      ],
      "name": "multiAttestByDelegation",
      "outputs": [
        {
          "internalType": "bytes32[]",
          "name": "",
          "type": "bytes32[]"
        }
      ],
      "stateMutability": "payable",
      "type": "function"
    },
    {
      "inputs": [
        {
          "components": [
            {
              "internalType": "bytes32",
              "name": "schema",
              "type": "bytes32"
            },
            {
              "components": [
                {
                  "internalType": "bytes32",
                  "name": "uid",
                  "type": "bytes32"
                },
                {
                  "internalType": "uint256",
                  "name": "value",
                  "type": "uint256"
                }
              ],
              "internalType": "struct RevocationRequestData[]",
              "name": "data",
              "type": "tuple[]"
            }
          ],
          "internalType": "struct MultiRevocationRequest[]",
          "name": "multiRequests",
          "type": "tuple[]"
        }
      ],
      "name": "multiRevoke",
      "outputs": [],
      "stateMutability": "payable",
      "type": "function"
    },
    {
      "inputs": [
        {
          "components": [
            {
              "internalType": "bytes32",
              "name": "schema",
              "type": "bytes32"
            },
            {
              "components": [
                {
                  "internalType": "bytes32",
                  "name": "uid",
                  "type": "bytes32"
                },
                {
                  "internalType": "uint256",
                  "name": "value",
                  "type": "uint256"
                }
              ],
              "internalType": "struct RevocationRequestData[]",
              "name": "data",
              "type": "tuple[]"
            },
            {
              "components": [
                {
                  "internalType": "uint8",
                  "name": "v",
                  "type": "uint8"
                },
                {
                  "internalType": "bytes32",
                  "name": "r",
                  "type": "bytes32"
                },
                {
                  "internalType": "bytes32",
                  "name": "s",
                  "type": "bytes32"
                }
              ],
              "internalType": "struct Signature[]",
              "name": "signatures",
              "type": "tuple[]"
            },
            {
              "internalType": "address",
              "name": "revoker",
              "type": "address"
            },
            {
              "internalType": "uint64",
              "name": "deadline",
              "type": "uint64"
            }
          ],
          "internalType": "struct MultiDelegatedRevocationRequest[]",
          "name": "multiDelegatedRequests",
          "type": "tuple[]"
        }
      ],
      "name": "multiRevokeByDelegation",
      "outputs": [],
      "stateMutability": "payable",
      "type": "function"
    },
    {
      "inputs": [
        {
          "internalType": "bytes32[]",
          "name": "data",
          "type": "bytes32[]"
        }
      ],
      "name": "multiRevokeOffchain",
      "outputs": [
        {
          "internalType": "uint64",
          "name": "",
          "type": "uint64"
        }
      ],
      "stateMutability": "nonpayable",
      "type": "function"
    },
    {
      "inputs": [
        {
          "internalType": "bytes32[]",
          "name": "data",
          "type": "bytes32[]"
        }
      ],
      "name": "multiTimestamp",
      "outputs": [
        {
          "internalType": "uint64",
          "name": "",
          "type": "uint64"
        }
      ],
      "stateMutability": "nonpayable",
      "type": "function"
    },
    {
      "inputs": [
        {
          "components": [
            {
              "internalType": "bytes32",
              "name": "schema",
              "type": "bytes32"
            },
            {
              "components": [
                {
                  "internalType": "bytes32",
                  "name": "uid",
                  "type": "bytes32"
                },
                {
                  "internalType": "uint256",
                  "name": "value",
                  "type": "uint256"
                }
              ],
              "internalType": "struct RevocationRequestData",
              "name": "data",
              "type": "tuple"
            }
          ],
          "internalType": "struct RevocationRequest",
          "name": "request",
          "type": "tuple"
        }
      ],
      "name": "revoke",
      "outputs": [],
      "stateMutability": "payable",
      "type": "function"
    },
    {
      "inputs": [
        {
          "components": [
            {
              "internalType": "bytes32",
              "name": "schema",
              "type": "bytes32"
            },
            {
              "components": [
                {
                  "internalType": "bytes32",
                  "name": "uid",
                  "type": "bytes32"
                },
                {
                  "internalType": "uint256",
                  "name": "value",
                  "type": "uint256"
                }
              ],
              "internalType": "struct RevocationRequestData",
              "name": "data",
              "type": "tuple"
            },
            {
              "components": [
                {
                  "internalType": "uint8",
                  "name": "v",
                  "type": "uint8"
                },
                {
                  "internalType": "bytes32",
                  "name": "r",
                  "type": "bytes32"
                },
                {
                  "internalType": "bytes32",
                  "name": "s",
                  "type": "bytes32"
                }
              ],
              "internalType": "struct Signature",
              "name": "signature",
              "type": "tuple"
            },
            {
              "internalType": "address",
              "name": "revoker",
              "type": "address"
            },
            {
              "internalType": "uint64",
              "name": "deadline",
              "type": "uint64"
            }
          ],
          "internalType": "struct DelegatedRevocationRequest",
          "name": "delegatedRequest",
          "type": "tuple"
        }
      ],
      "name": "revokeByDelegation",
      "outputs": [],
      "stateMutability": "payable",
      "type": "function"
    },
    {
      "inputs": [
        {
          "internalType": "bytes32",
          "name": "data",
          "type": "bytes32"
        }
      ],
      "name": "revokeOffchain",
      "outputs": [
        {
          "internalType": "uint64",
          "name": "",
          "type": "uint64"
        }
      ],
      "stateMutability": "nonpayable",
      "type": "function"
    },
    {
      "inputs": [
        {
          "internalType": "bytes32",
          "name": "data",
          "type": "bytes32"
        }
      ],
      "name": "timestamp",
      "outputs": [
        {
          "internalType": "uint64",
          "name": "",
          "type": "uint64"
        }
      ],
      "stateMutability": "nonpayable",
      "type": "function"
    },
    {
      "inputs": [],
      "name": "version",
      "outputs": [
        {
          "internalType": "string",
          "name": "",
          "type": "string"
        }
      ],
      "stateMutability": "view",
      "type": "function"
    }
  ],
  "transactionHash": "0x40c1c0e0130d47483a376882cc7b9e336c116e04ba6ce7b2844ead1e0a3c27a6",
  "args": [
    "0xe8Effc1542443742d5F2c68EB97280b36C6d247F"
  ],
  "numDeployments": 1,
  "solcInputHash": "30da4b5f1673b138ef3b8de5cc5fc197",
  "bytecode": "0x6101e060405234801561001157600080fd5b50604051614e35380380614e35833981016040819052610030916101f4565b604080518082018252600381526245415360e81b602080830191909152825180840190935260058352640312e342e360dc1b908301526001608052600460a052600060c08190529091908290829061008990839061017a565b6101805261009881600161017a565b6101a0528151602080840191909120610140528151908201206101605246610100526101286101405161016051604080517f8b73c3c69bb8fe3d512ecc4cf759cc79239f7b179b0ffacaa9a75d522b39400f60208201529081019290925260608201524660808201523060a082015260009060c00160405160208183030381529060405280519060200120905090565b60e05250503061012052600261013e83826102c3565b5050506001600160a01b038116610168576040516311a1e69760e01b815260040160405180910390fd5b6001600160a01b03166101c0526103f3565b60006020835110156101965761018f836101ad565b90506101a7565b816101a184826102c3565b5060ff90505b92915050565b600080829050601f815111156101e1578260405163305a27a960e01b81526004016101d89190610381565b60405180910390fd5b80516101ec826103cf565b179392505050565b60006020828403121561020657600080fd5b81516001600160a01b038116811461021d57600080fd5b9392505050565b634e487b7160e01b600052604160045260246000fd5b600181811c9082168061024e57607f821691505b60208210810361026e57634e487b7160e01b600052602260045260246000fd5b50919050565b601f8211156102be57806000526020600020601f840160051c8101602085101561029b5750805b601f840160051c820191505b818110156102bb57600081556001016102a7565b50505b505050565b81516001600160401b038111156102dc576102dc610224565b6102f0816102ea845461023a565b84610274565b6020601f821160018114610324576000831561030c5750848201515b600019600385901b1c1916600184901b1784556102bb565b600084815260208120601f198516915b828110156103545787850151825560209485019460019092019101610334565b50848210156103725786840151600019600387901b60f8161c191681555b50505050600190811b01905550565b602081526000825180602084015260005b818110156103af5760208186018101516040868401015201610392565b506000604082850101526040601f19601f83011684010191505092915050565b8051602080830151919081101561026e5760001960209190910360031b1b16919050565b60805160a05160c05160e05161010051610120516101405161016051610180516101a0516101c0516149ae61048760003960008181610538015281816115a90152611ee101526000612800015260006127d30152600061290d015260006128e5015260006128400152600061286a0152600061289401526000610c2201526000610bf901526000610bd001526149ae6000f3fe6080604052600436106101965760003560e01c806384b0196e116100e1578063cf190f341161008a578063e71ff36511610064578063e71ff365146104dc578063ed24911d146104fc578063f10b5cc814610511578063f17325e71461056257600080fd5b8063cf190f3414610446578063d45c443514610466578063e30bb5631461049d57600080fd5b8063a6d4dbc7116100bb578063a6d4dbc7146103a6578063b469318d146103b9578063b83010d31461041357600080fd5b806384b0196e1461033e5780639541152514610366578063a3112a641461037957600080fd5b806344adc90e116101435780634d0030701161011d5780634d003070146102e957806354fd4d501461030957806379f7573a1461031e57600080fd5b806344adc90e146102a357806346926267146102c35780634cb7e9e5146102d657600080fd5b806317d7de7c1161017457806317d7de7c1461022b5780632d0335ab1461024d5780633c0427151461029057600080fd5b80630eabf6601461019b57806312b11a17146101b057806313893f61146101f2575b600080fd5b6101ae6101a9366004613769565b610575565b005b3480156101bc57600080fd5b507ffeb2925a02bae3dae48d424a0437a2b6ac939aa9230ddc55a1a76f065d9880765b6040519081526020015b60405180910390f35b3480156101fe57600080fd5b5061021261020d366004613769565b610706565b60405167ffffffffffffffff90911681526020016101e9565b34801561023757600080fd5b5061024061074b565b6040516101e99190613819565b34801561025957600080fd5b506101df610268366004613865565b73ffffffffffffffffffffffffffffffffffffffff1660009081526003602052604090205490565b6101df61029e366004613882565b6107dd565b6102b66102b1366004613769565b6108e0565b6040516101e991906138bd565b6101ae6102d1366004613900565b610a5b565b6101ae6102e4366004613769565b610adf565b3480156102f557600080fd5b5061021261030436600461391b565b610bbc565b34801561031557600080fd5b50610240610bc9565b34801561032a57600080fd5b506101ae61033936600461391b565b610c6c565b34801561034a57600080fd5b50610353610d05565b6040516101e99796959493929190613970565b6102b6610374366004613769565b610d67565b34801561038557600080fd5b5061039961039436600461391b565b610fd4565b6040516101e99190613af2565b6101ae6103b4366004613b05565b611196565b3480156103c557600080fd5b506102126103d4366004613b19565b73ffffffffffffffffffffffffffffffffffffffff919091166000908152600660209081526040808320938352929052205467ffffffffffffffff1690565b34801561041f57600080fd5b507fb5d556f07587ec0f08cf386545cc4362c702a001650c2058002615ee5c9d1e756101df565b34801561045257600080fd5b5061021261046136600461391b565b61123b565b34801561047257600080fd5b5061021261048136600461391b565b60009081526005602052604090205467ffffffffffffffff1690565b3480156104a957600080fd5b506104cc6104b836600461391b565b600090815260046020526040902054151590565b60405190151581526020016101e9565b3480156104e857600080fd5b506102126104f7366004613769565b611249565b34801561050857600080fd5b506101df611281565b34801561051d57600080fd5b5060405173ffffffffffffffffffffffffffffffffffffffff7f00000000000000000000000000000000000000000000000000000000000000001681526020016101e9565b6101df610570366004613b45565b611290565b348160005b818110156106ff577fffffffffffffffffffffffffffffffffffffffffffffffffffffffffffffffff8201811460008686848181106105bb576105bb613b80565b90506020028101906105cd9190613baf565b6105d690613e45565b60208101518051919250908015806105f357508260400151518114155b1561062a576040517f947d5a8400000000000000000000000000000000000000000000000000000000815260040160405180910390fd5b60005b818110156106ce576106c66040518060a001604052808660000151815260200185848151811061065f5761065f613b80565b602002602001015181526020018660400151848151811061068257610682613b80565b60200260200101518152602001866060015173ffffffffffffffffffffffffffffffffffffffff168152602001866080015167ffffffffffffffff1681525061134e565b60010161062d565b506106e483600001518385606001518a88611560565b6106ee9088613f75565b96505050505080600101905061057a565b5050505050565b60004282825b8181101561073f576107373387878481811061072a5761072a613b80565b9050602002013585611bb1565b60010161070c565b50909150505b92915050565b60606002805461075a90613f88565b80601f016020809104026020016040519081016040528092919081815260200182805461078690613f88565b80156107d35780601f106107a8576101008083540402835291602001916107d3565b820191906000526020600020905b8154815290600101906020018083116107b657829003601f168201915b5050505050905090565b60006107f06107eb83614102565b611cb0565b604080516001808252818301909252600091816020015b6040805160c081018252600080825260208083018290529282018190526060808301829052608083015260a082015282527fffffffffffffffffffffffffffffffffffffffffffffffffffffffffffffffff909201910181610807579050509050610875602084018461417d565b61087e906141b1565b8160008151811061089157610891613b80565b60209081029190910101526108ba8335826108b260c0870160a08801613865565b346001611e3b565b602001516000815181106108d0576108d0613b80565b6020026020010151915050919050565b60608160008167ffffffffffffffff8111156108fe576108fe613bed565b60405190808252806020026020018201604052801561093157816020015b606081526020019060019003908161091c5790505b509050600034815b84811015610a45577fffffffffffffffffffffffffffffffffffffffffffffffffffffffffffffffff850181143689898481811061097957610979613b80565b905060200281019061098b91906141bd565b905061099a60208201826141f1565b90506000036109d5576040517f947d5a8400000000000000000000000000000000000000000000000000000000815260040160405180910390fd5b60006109fa82356109e960208501856141f1565b6109f291614259565b338887611e3b565b8051909150610a099086613f75565b94508060200151878581518110610a2257610a22613b80565b602002602001018190525080602001515186019550505050806001019050610939565b50610a508383612568565b979650505050505050565b604080516001808252818301909252600091816020015b6040805180820190915260008082526020820152815260200190600190039081610a72579050509050610aad368390038301602084016142bf565b81600081518110610ac057610ac0613b80565b6020908102919091010152610ada82358233346001611560565b505050565b348160005b818110156106ff577fffffffffffffffffffffffffffffffffffffffffffffffffffffffffffffffff8201811436868684818110610b2457610b24613b80565b9050602002810190610b3691906141bd565b9050610ba38135610b4a60208401846142db565b808060200260200160405190810160405280939291908181526020016000905b82821015610b9657610b87604083028601368190038101906142bf565b81526020019060010190610b6a565b5050505050338886611560565b610bad9086613f75565b94505050806001019050610ae4565b600042610745838261264c565b6060610bf47f000000000000000000000000000000000000000000000000000000000000000061270e565b610c1d7f000000000000000000000000000000000000000000000000000000000000000061270e565b610c467f000000000000000000000000000000000000000000000000000000000000000061270e565b604051602001610c5893929190614343565b604051602081830303815290604052905090565b33600090815260036020526040902054808211610cb5576040517f756688fe00000000000000000000000000000000000000000000000000000000815260040160405180910390fd5b3360009081526003602090815260409182902084905581518381529081018490527f57b09af877df9068fd60a69d7b21f5576b8b38955812d6ae4ac52942f1e38fb7910160405180910390a15050565b600060608060008060006060610d196127cc565b610d216127f9565b604080516000808252602082019092527f0f000000000000000000000000000000000000000000000000000000000000009b939a50919850469750309650945092509050565b60608160008167ffffffffffffffff811115610d8557610d85613bed565b604051908082528060200260200182016040528015610db857816020015b6060815260200190600190039081610da35790505b509050600034815b84811015610a45577fffffffffffffffffffffffffffffffffffffffffffffffffffffffffffffffff8501811436898984818110610e0057610e00613b80565b9050602002810190610e129190613baf565b9050366000610e2460208401846141f1565b909250905080801580610e455750610e3f60408501856143da565b90508114155b15610e7c576040517f947d5a8400000000000000000000000000000000000000000000000000000000815260040160405180910390fd5b60005b81811015610f5d57610f556040518060a0016040528087600001358152602001868685818110610eb157610eb1613b80565b9050602002810190610ec3919061417d565b610ecc906141b1565b8152602001610ede60408901896143da565b85818110610eee57610eee613b80565b905060600201803603810190610f049190614441565b8152602001610f196080890160608a01613865565b73ffffffffffffffffffffffffffffffffffffffff168152602001610f4460a0890160808a0161445d565b67ffffffffffffffff169052611cb0565b600101610e7f565b506000610f868535610f6f8587614259565b610f7f6080890160608a01613865565b8b8a611e3b565b8051909150610f959089613f75565b975080602001518a8881518110610fae57610fae613b80565b602002602001018190525080602001515189019850505050505050806001019050610dc0565b604080516101408101825260008082526020820181905291810182905260608082018390526080820183905260a0820183905260c0820183905260e0820183905261010082019290925261012081019190915260008281526004602081815260409283902083516101408101855281548152600182015492810192909252600281015467ffffffffffffffff808216958401959095526801000000000000000081048516606084015270010000000000000000000000000000000090049093166080820152600383015460a08201529082015473ffffffffffffffffffffffffffffffffffffffff90811660c0830152600583015490811660e083015274010000000000000000000000000000000000000000900460ff1615156101008201526006820180549192916101208401919061110d90613f88565b80601f016020809104026020016040519081016040528092919081815260200182805461113990613f88565b80156111865780601f1061115b57610100808354040283529160200191611186565b820191906000526020600020905b81548152906001019060200180831161116957829003601f168201915b5050505050815250509050919050565b6111ad6111a836839003830183614478565b61134e565b604080516001808252818301909252600091816020015b60408051808201909152600080825260208201528152602001906001900390816111c45790505090506111ff368390038301602084016142bf565b8160008151811061121257611212613b80565b6020908102919091010152610ada82358261123360e0860160c08701613865565b346001611560565b600042610745338483611bb1565b60004282825b8181101561073f5761127986868381811061126c5761126c613b80565b905060200201358461264c565b60010161124f565b600061128b612826565b905090565b604080516001808252818301909252600091829190816020015b6040805160c081018252600080825260208083018290529282018190526060808301829052608083015260a082015282527fffffffffffffffffffffffffffffffffffffffffffffffffffffffffffffffff9092019101816112aa579050509050611318602084018461417d565b611321906141b1565b8160008151811061133457611334613b80565b60209081029190910101526108ba83358233346001611e3b565b608081015167ffffffffffffffff161580159061138257504267ffffffffffffffff16816080015167ffffffffffffffff16105b156113b9576040517f1ab7da6b00000000000000000000000000000000000000000000000000000000815260040160405180910390fd5b6020808201516040808401516060850151855184518587015173ffffffffffffffffffffffffffffffffffffffff84166000908152600390985294872080549697949694956114ae957fb5d556f07587ec0f08cf386545cc4362c702a001650c2058002615ee5c9d1e759594939288611431836144e8565b909155506080808c015160408051602081019990995273ffffffffffffffffffffffffffffffffffffffff9097169688019690965260608701949094529285019190915260a084015260c083015267ffffffffffffffff1660e0820152610100015b6040516020818303038152906040528051906020012061295e565b905061152484606001518284602001518560400151866000015160405160200161151093929190928352602083019190915260f81b7fff0000000000000000000000000000000000000000000000000000000000000016604082015260410190565b6040516020818303038152906040526129a6565b61155a576040517f8baa579f00000000000000000000000000000000000000000000000000000000815260040160405180910390fd5b50505050565b6040517fa2ea7c6e00000000000000000000000000000000000000000000000000000000815260048101869052600090819073ffffffffffffffffffffffffffffffffffffffff7f0000000000000000000000000000000000000000000000000000000000000000169063a2ea7c6e90602401600060405180830381865afa1580156115f0573d6000803e3d6000fd5b505050506040513d6000823e601f3d9081017fffffffffffffffffffffffffffffffffffffffffffffffffffffffffffffffe01682016040526116369190810190614520565b8051909150611671576040517fbf37b20e00000000000000000000000000000000000000000000000000000000815260040160405180910390fd5b855160008167ffffffffffffffff81111561168e5761168e613bed565b60405190808252806020026020018201604052801561172d57816020015b60408051610140810182526000808252602080830182905292820181905260608083018290526080830182905260a0830182905260c0830182905260e0830182905261010083019190915261012082015282527fffffffffffffffffffffffffffffffffffffffffffffffffffffffffffffffff9092019101816116ac5790505b50905060008267ffffffffffffffff81111561174b5761174b613bed565b604051908082528060200260200182016040528015611774578160200160208202803683370190505b50905060005b83811015611b935760008a828151811061179657611796613b80565b60209081029190910181015180516000908152600490925260409091208054919250906117ef576040517fc5723b5100000000000000000000000000000000000000000000000000000000815260040160405180910390fd5b8c81600101541461182c576040517fbf37b20e00000000000000000000000000000000000000000000000000000000815260040160405180910390fd5b600581015473ffffffffffffffffffffffffffffffffffffffff8c8116911614611882576040517f4ca8886700000000000000000000000000000000000000000000000000000000815260040160405180910390fd5b600581015474010000000000000000000000000000000000000000900460ff166118d8576040517f157bd4c300000000000000000000000000000000000000000000000000000000815260040160405180910390fd5b6002810154700100000000000000000000000000000000900467ffffffffffffffff1615611932576040517f905e710700000000000000000000000000000000000000000000000000000000815260040160405180910390fd5b426002820180547fffffffffffffffff0000000000000000ffffffffffffffffffffffffffffffff811670010000000000000000000000000000000067ffffffffffffffff948516810291821793849055604080516101408101825287548152600188015460208201529386169286169290921791830191909152680100000000000000008304841660608301529091049091166080820152600382015460a0820152600482015473ffffffffffffffffffffffffffffffffffffffff90811660c0830152600583015490811660e083015274010000000000000000000000000000000000000000900460ff1615156101008201526006820180548391610120840191611a3e90613f88565b80601f0160208091040260200160405190810160405280929190818152602001828054611a6a90613f88565b8015611ab75780601f10611a8c57610100808354040283529160200191611ab7565b820191906000526020600020905b815481529060010190602001808311611a9a57829003601f168201915b505050505081525050858481518110611ad257611ad2613b80565b60200260200101819052508160200151848481518110611af457611af4613b80565b6020026020010181815250508c8b73ffffffffffffffffffffffffffffffffffffffff16868581518110611b2a57611b2a613b80565b602002602001015160c0015173ffffffffffffffffffffffffffffffffffffffff167ff930a6e2523c9cc298691873087a740550b8fc85a0680830414c148ed927f6158560000151604051611b8191815260200190565b60405180910390a4505060010161177a565b50611ba384838360018b8b612a22565b9a9950505050505050505050565b73ffffffffffffffffffffffffffffffffffffffff83166000908152600660209081526040808320858452918290529091205467ffffffffffffffff1615611c25576040517fec9d6eeb00000000000000000000000000000000000000000000000000000000815260040160405180910390fd5b60008381526020829052604080822080547fffffffffffffffffffffffffffffffffffffffffffffffff00000000000000001667ffffffffffffffff861690811790915590519091859173ffffffffffffffffffffffffffffffffffffffff8816917f92a1f7a41a7c585a8b09e25b195e225b1d43248daca46b0faf9e0792777a222991a450505050565b608081015167ffffffffffffffff1615801590611ce457504267ffffffffffffffff16816080015167ffffffffffffffff16105b15611d1b576040517f1ab7da6b00000000000000000000000000000000000000000000000000000000815260040160405180910390fd5b6020808201516040808401516060808601518651855186880151868801519488015160808901518051908b012060a08a015173ffffffffffffffffffffffffffffffffffffffff871660009081526003909c52988b2080549a9b989a98996114ae997ffeb2925a02bae3dae48d424a0437a2b6ac939aa9230ddc55a1a76f065d988076999493928c611dac836144e8565b919050558e608001516040516020016114939b9a999897969594939291909a8b5273ffffffffffffffffffffffffffffffffffffffff998a1660208c015260408b019890985295909716606089015267ffffffffffffffff938416608089015291151560a088015260c087015260e0860152610100850193909352610120840152166101408201526101600190565b60408051808201909152600081526060602082015284516040805180820190915260008152606060208201528167ffffffffffffffff811115611e8057611e80613bed565b604051908082528060200260200182016040528015611ea9578160200160208202803683370190505b5060208201526040517fa2ea7c6e000000000000000000000000000000000000000000000000000000008152600481018990526000907f000000000000000000000000000000000000000000000000000000000000000073ffffffffffffffffffffffffffffffffffffffff169063a2ea7c6e90602401600060405180830381865afa158015611f3d573d6000803e3d6000fd5b505050506040513d6000823e601f3d9081017fffffffffffffffffffffffffffffffffffffffffffffffffffffffffffffffe0168201604052611f839190810190614520565b8051909150611fbe576040517fbf37b20e00000000000000000000000000000000000000000000000000000000815260040160405180910390fd5b60008367ffffffffffffffff811115611fd957611fd9613bed565b60405190808252806020026020018201604052801561207857816020015b60408051610140810182526000808252602080830182905292820181905260608083018290526080830182905260a0830182905260c0830182905260e0830182905261010083019190915261012082015282527fffffffffffffffffffffffffffffffffffffffffffffffffffffffffffffffff909201910181611ff75790505b50905060008467ffffffffffffffff81111561209657612096613bed565b6040519080825280602002602001820160405280156120bf578160200160208202803683370190505b50905060005b858110156125475760008b82815181106120e1576120e1613b80565b60200260200101519050600067ffffffffffffffff16816020015167ffffffffffffffff161415801561212c57504267ffffffffffffffff16816020015167ffffffffffffffff1611155b15612163576040517f08e8b93700000000000000000000000000000000000000000000000000000000815260040160405180910390fd5b8460400151158015612176575080604001515b156121ad576040517f157bd4c300000000000000000000000000000000000000000000000000000000815260040160405180910390fd5b60006040518061014001604052806000801b81526020018f81526020016121d14290565b67ffffffffffffffff168152602001836020015167ffffffffffffffff168152602001600067ffffffffffffffff16815260200183606001518152602001836000015173ffffffffffffffffffffffffffffffffffffffff1681526020018d73ffffffffffffffffffffffffffffffffffffffff16815260200183604001511515815260200183608001518152509050600080600090505b6122738382612e11565b6000818152600460205260409020549092501561229257600101612269565b81835260008281526004602081815260409283902086518155908601516001820155918501516002830180546060880151608089015167ffffffffffffffff908116700100000000000000000000000000000000027fffffffffffffffff0000000000000000ffffffffffffffffffffffffffffffff92821668010000000000000000027fffffffffffffffffffffffffffffffff000000000000000000000000000000009094169190951617919091171691909117905560a0850151600383015560c0850151908201805473ffffffffffffffffffffffffffffffffffffffff9283167fffffffffffffffffffffffff000000000000000000000000000000000000000090911617905560e0850151600583018054610100880151151574010000000000000000000000000000000000000000027fffffffffffffffffffffff000000000000000000000000000000000000000000909116929093169190911791909117905561012084015184919060068201906124119082614645565b505050606084015115612468576060840151600090815260046020526040902054612468576040517fc5723b5100000000000000000000000000000000000000000000000000000000815260040160405180910390fd5b8287868151811061247b5761247b613b80565b60200260200101819052508360a0015186868151811061249d5761249d613b80565b60200260200101818152505081896020015186815181106124c0576124c0613b80565b6020026020010181815250508f8e73ffffffffffffffffffffffffffffffffffffffff16856000015173ffffffffffffffffffffffffffffffffffffffff167f8bf46bf4cfd674fa735a3d63ec1c9ad4153f033c290341f3a588b75685141b358560405161253091815260200190565b60405180910390a4505050508060010190506120c5565b5061255783838360008c8c612a22565b845250919998505050505050505050565b606060008267ffffffffffffffff81111561258557612585613bed565b6040519080825280602002602001820160405280156125ae578160200160208202803683370190505b508451909150600090815b818110156126415760008782815181106125d5576125d5613b80565b6020026020010151905060008151905060005b818110156126335782818151811061260257612602613b80565b602002602001015187878151811061261c5761261c613b80565b6020908102919091010152600195860195016125e8565b5050508060010190506125b9565b509195945050505050565b60008281526005602052604090205467ffffffffffffffff161561269c576040517f2e26794600000000000000000000000000000000000000000000000000000000815260040160405180910390fd5b60008281526005602052604080822080547fffffffffffffffffffffffffffffffffffffffffffffffff00000000000000001667ffffffffffffffff85169081179091559051909184917f5aafceeb1c7ad58e4a84898bdee37c02c0fc46e7d24e6b60e8209449f183459f9190a35050565b6060600061271b83612e70565b600101905060008167ffffffffffffffff81111561273b5761273b613bed565b6040519080825280601f01601f191660200182016040528015612765576020820181803683370190505b5090508181016020015b7fffffffffffffffffffffffffffffffffffffffffffffffffffffffffffffffff017f3031323334353637383961626364656600000000000000000000000000000000600a86061a8153600a850494508461276f57509392505050565b606061128b7f00000000000000000000000000000000000000000000000000000000000000006000612f52565b606061128b7f00000000000000000000000000000000000000000000000000000000000000006001612f52565b60003073ffffffffffffffffffffffffffffffffffffffff7f00000000000000000000000000000000000000000000000000000000000000001614801561288c57507f000000000000000000000000000000000000000000000000000000000000000046145b156128b657507f000000000000000000000000000000000000000000000000000000000000000090565b61128b604080517f8b73c3c69bb8fe3d512ecc4cf759cc79239f7b179b0ffacaa9a75d522b39400f60208201527f0000000000000000000000000000000000000000000000000000000000000000918101919091527f000000000000000000000000000000000000000000000000000000000000000060608201524660808201523060a082015260009060c00160405160208183030381529060405280519060200120905090565b600061074561296b612826565b836040517f19010000000000000000000000000000000000000000000000000000000000008152600281019290925260228201526042902090565b60008060006129b58585612ffd565b50909250905060008160038111156129cf576129cf61475e565b148015612a0757508573ffffffffffffffffffffffffffffffffffffffff168273ffffffffffffffffffffffffffffffffffffffff16145b80612a185750612a1886868661304a565b9695505050505050565b84516000906001819003612a7a57612a728888600081518110612a4757612a47613b80565b602002602001015188600081518110612a6257612a62613b80565b6020026020010151888888613197565b915050612a18565b602088015173ffffffffffffffffffffffffffffffffffffffff8116612b1b5760005b82811015612b0057878181518110612ab757612ab7613b80565b6020026020010151600014612af8576040517f1574f9f300000000000000000000000000000000000000000000000000000000815260040160405180910390fd5b600101612a9d565b508315612b1057612b10856134b6565b600092505050612a18565b6000808273ffffffffffffffffffffffffffffffffffffffff1663ce46e0466040518163ffffffff1660e01b8152600401602060405180830381865afa158015612b69573d6000803e3d6000fd5b505050506040513d601f19601f82011682018060405250810190612b8d919061478d565b905060005b84811015612c4a5760008a8281518110612bae57612bae613b80565b6020026020010151905080600003612bc65750612c42565b82612bfd576040517f1574f9f300000000000000000000000000000000000000000000000000000000815260040160405180910390fd5b88811115612c37576040517f1101129400000000000000000000000000000000000000000000000000000000815260040160405180910390fd5b978890039792909201915b600101612b92565b508715612d25576040517f88e5b2d900000000000000000000000000000000000000000000000000000000815273ffffffffffffffffffffffffffffffffffffffff8416906388e5b2d9908490612ca7908e908e906004016147aa565b60206040518083038185885af1158015612cc5573d6000803e3d6000fd5b50505050506040513d601f19601f82011682018060405250810190612cea919061478d565b612d20576040517fbf2f3a8b00000000000000000000000000000000000000000000000000000000815260040160405180910390fd5b612df4565b6040517f91db0b7e00000000000000000000000000000000000000000000000000000000815273ffffffffffffffffffffffffffffffffffffffff8416906391db0b7e908490612d7b908e908e906004016147aa565b60206040518083038185885af1158015612d99573d6000803e3d6000fd5b50505050506040513d601f19601f82011682018060405250810190612dbe919061478d565b612df4576040517fe8bee83900000000000000000000000000000000000000000000000000000000815260040160405180910390fd5b8515612e0357612e03876134b6565b509998505050505050505050565b60208083015160c084015160e0850151604080870151606088015161010089015160a08a01516101208b01519451600099612e5299989796918c9101614840565b60405160208183030381529060405280519060200120905092915050565b6000807a184f03e93ff9f4daa797ed6e38ed64bf6a1f0100000000000000008310612eb9577a184f03e93ff9f4daa797ed6e38ed64bf6a1f010000000000000000830492506040015b6d04ee2d6d415b85acef81000000008310612ee5576d04ee2d6d415b85acef8100000000830492506020015b662386f26fc100008310612f0357662386f26fc10000830492506010015b6305f5e1008310612f1b576305f5e100830492506008015b6127108310612f2f57612710830492506004015b60648310612f41576064830492506002015b600a83106107455760010192915050565b606060ff8314612f6c57612f65836134c9565b9050610745565b818054612f7890613f88565b80601f0160208091040260200160405190810160405280929190818152602001828054612fa490613f88565b8015612ff15780601f10612fc657610100808354040283529160200191612ff1565b820191906000526020600020905b815481529060010190602001808311612fd457829003601f168201915b50505050509050610745565b600080600083516041036130375760208401516040850151606086015160001a61302988828585613508565b955095509550505050613043565b50508151600091506002905b9250925092565b60008060008573ffffffffffffffffffffffffffffffffffffffff16858560405160240161307992919061495d565b604080517fffffffffffffffffffffffffffffffffffffffffffffffffffffffffffffffe08184030181529181526020820180517bffffffffffffffffffffffffffffffffffffffffffffffffffffffff167f1626ba7e00000000000000000000000000000000000000000000000000000000179052516130fa9190614976565b600060405180830381855afa9150503d8060008114613135576040519150601f19603f3d011682016040523d82523d6000602084013e61313a565b606091505b509150915081801561314e57506020815110155b8015612a18575080517f1626ba7e000000000000000000000000000000000000000000000000000000009061318c9083016020908101908401614988565b149695505050505050565b602086015160009073ffffffffffffffffffffffffffffffffffffffff811661320b5785156131f2576040517f1574f9f300000000000000000000000000000000000000000000000000000000815260040160405180910390fd5b821561320157613201846134b6565b6000915050612a18565b85156132f6578073ffffffffffffffffffffffffffffffffffffffff1663ce46e0466040518163ffffffff1660e01b8152600401602060405180830381865afa15801561325c573d6000803e3d6000fd5b505050506040513d601f19601f82011682018060405250810190613280919061478d565b6132b6576040517f1574f9f300000000000000000000000000000000000000000000000000000000815260040160405180910390fd5b838611156132f0576040517f1101129400000000000000000000000000000000000000000000000000000000815260040160405180910390fd5b85840393505b84156133ce576040517fe49617e100000000000000000000000000000000000000000000000000000000815273ffffffffffffffffffffffffffffffffffffffff82169063e49617e1908890613350908b90600401613af2565b60206040518083038185885af115801561336e573d6000803e3d6000fd5b50505050506040513d601f19601f82011682018060405250810190613393919061478d565b6133c9576040517fccf3bb2700000000000000000000000000000000000000000000000000000000815260040160405180910390fd5b61349b565b6040517fe60c350500000000000000000000000000000000000000000000000000000000815273ffffffffffffffffffffffffffffffffffffffff82169063e60c3505908890613422908b90600401613af2565b60206040518083038185885af1158015613440573d6000803e3d6000fd5b50505050506040513d601f19601f82011682018060405250810190613465919061478d565b61349b576040517fbd8ba84d00000000000000000000000000000000000000000000000000000000815260040160405180910390fd5b82156134aa576134aa846134b6565b50939695505050505050565b80156134c6576134c63382613602565b50565b606060006134d6836136dc565b604080516020808252818301909252919250600091906020820181803683375050509182525060208101929092525090565b600080807f7fffffffffffffffffffffffffffffff5d576e7357a4501ddfe92f46681b20a084111561354357506000915060039050826135f8565b604080516000808252602082018084528a905260ff891692820192909252606081018790526080810186905260019060a0016020604051602081039080840390855afa158015613597573d6000803e3d6000fd5b50506040517fffffffffffffffffffffffffffffffffffffffffffffffffffffffffffffffe0015191505073ffffffffffffffffffffffffffffffffffffffff81166135ee575060009250600191508290506135f8565b9250600091508190505b9450945094915050565b80471015613642576040517fcd78605900000000000000000000000000000000000000000000000000000000815230600482015260240160405180910390fd5b60008273ffffffffffffffffffffffffffffffffffffffff168260405160006040518083038185875af1925050503d806000811461369c576040519150601f19603f3d011682016040523d82523d6000602084013e6136a1565b606091505b5050905080610ada576040517f1425ea4200000000000000000000000000000000000000000000000000000000815260040160405180910390fd5b600060ff8216601f811115610745576040517fb3512b0c00000000000000000000000000000000000000000000000000000000815260040160405180910390fd5b60008083601f84011261372f57600080fd5b50813567ffffffffffffffff81111561374757600080fd5b6020830191508360208260051b850101111561376257600080fd5b9250929050565b6000806020838503121561377c57600080fd5b823567ffffffffffffffff81111561379357600080fd5b61379f8582860161371d565b90969095509350505050565b60005b838110156137c65781810151838201526020016137ae565b50506000910152565b600081518084526137e78160208601602086016137ab565b601f017fffffffffffffffffffffffffffffffffffffffffffffffffffffffffffffffe0169290920160200192915050565b60208152600061382c60208301846137cf565b9392505050565b73ffffffffffffffffffffffffffffffffffffffff811681146134c657600080fd5b803561386081613833565b919050565b60006020828403121561387757600080fd5b813561382c81613833565b60006020828403121561389457600080fd5b813567ffffffffffffffff8111156138ab57600080fd5b820160e0818503121561382c57600080fd5b602080825282518282018190526000918401906040840190835b818110156138f55783518352602093840193909201916001016138d7565b509095945050505050565b6000606082840312801561391357600080fd5b509092915050565b60006020828403121561392d57600080fd5b5035919050565b600081518084526020840193506020830160005b82811015613966578151865260209586019590910190600101613948565b5093949350505050565b7fff000000000000000000000000000000000000000000000000000000000000008816815260e0602082015260006139ab60e08301896137cf565b82810360408401526139bd81896137cf565b905086606084015273ffffffffffffffffffffffffffffffffffffffff861660808401528460a084015282810360c0840152611ba38185613934565b805182526020810151602083015260006040820151613a24604085018267ffffffffffffffff169052565b506060820151613a40606085018267ffffffffffffffff169052565b506080820151613a5c608085018267ffffffffffffffff169052565b5060a082015160a084015260c0820151613a8e60c085018273ffffffffffffffffffffffffffffffffffffffff169052565b5060e0820151613ab660e085018273ffffffffffffffffffffffffffffffffffffffff169052565b50610100820151613acc61010085018215159052565b50610120820151610140610120850152613aea6101408501826137cf565b949350505050565b60208152600061382c60208301846139f9565b600061010082840312801561391357600080fd5b60008060408385031215613b2c57600080fd5b8235613b3781613833565b946020939093013593505050565b600060208284031215613b5757600080fd5b813567ffffffffffffffff811115613b6e57600080fd5b82016040818503121561382c57600080fd5b7f4e487b7100000000000000000000000000000000000000000000000000000000600052603260045260246000fd5b600082357fffffffffffffffffffffffffffffffffffffffffffffffffffffffffffffff61833603018112613be357600080fd5b9190910192915050565b7f4e487b7100000000000000000000000000000000000000000000000000000000600052604160045260246000fd5b60405160a0810167ffffffffffffffff81118282101715613c3f57613c3f613bed565b60405290565b60405160c0810167ffffffffffffffff81118282101715613c3f57613c3f613bed565b6040516080810167ffffffffffffffff81118282101715613c3f57613c3f613bed565b604051601f82017fffffffffffffffffffffffffffffffffffffffffffffffffffffffffffffffe016810167ffffffffffffffff81118282101715613cd257613cd2613bed565b604052919050565b600067ffffffffffffffff821115613cf457613cf4613bed565b5060051b60200190565b600060408284031215613d1057600080fd5b6040805190810167ffffffffffffffff81118282101715613d3357613d33613bed565b604052823581526020928301359281019290925250919050565b600060608284031215613d5f57600080fd5b6040516060810167ffffffffffffffff81118282101715613d8257613d82613bed565b604052905080823560ff81168114613d9957600080fd5b815260208381013590820152604092830135920191909152919050565b600082601f830112613dc757600080fd5b8135613dda613dd582613cda565b613c8b565b80828252602082019150602060608402860101925085831115613dfc57600080fd5b602085015b83811015613e2357613e138782613d4d565b8352602090920191606001613e01565b5095945050505050565b803567ffffffffffffffff8116811461386057600080fd5b600060a08236031215613e5757600080fd5b613e5f613c1c565b82358152602083013567ffffffffffffffff811115613e7d57600080fd5b830136601f820112613e8e57600080fd5b8035613e9c613dd582613cda565b8082825260208201915060208360061b850101925036831115613ebe57600080fd5b6020840193505b82841015613eea57613ed73685613cfe565b8252602082019150604084019350613ec5565b6020850152505050604083013567ffffffffffffffff811115613f0c57600080fd5b613f1836828601613db6565b604083015250613f2a60608401613855565b6060820152613f3b60808401613e2d565b608082015292915050565b7f4e487b7100000000000000000000000000000000000000000000000000000000600052601160045260246000fd5b8181038181111561074557610745613f46565b600181811c90821680613f9c57607f821691505b602082108103613fd5577f4e487b7100000000000000000000000000000000000000000000000000000000600052602260045260246000fd5b50919050565b80151581146134c657600080fd5b600067ffffffffffffffff82111561400357614003613bed565b50601f017fffffffffffffffffffffffffffffffffffffffffffffffffffffffffffffffe01660200190565b600060c0828403121561404157600080fd5b614049613c45565b9050813561405681613833565b815261406460208301613e2d565b6020820152604082013561407781613fdb565b604082015260608281013590820152608082013567ffffffffffffffff8111156140a057600080fd5b8201601f810184136140b157600080fd5b80356140bf613dd582613fe9565b8181528560208385010111156140d457600080fd5b8160208401602083013760009181016020019190915260808301525060a09182013591810191909152919050565b600060e0823603121561411457600080fd5b61411c613c1c565b82358152602083013567ffffffffffffffff81111561413a57600080fd5b6141463682860161402f565b6020830152506141593660408501613d4d565b604082015260a083013561416c81613833565b6060820152613f3b60c08401613e2d565b600082357fffffffffffffffffffffffffffffffffffffffffffffffffffffffffffffff41833603018112613be357600080fd5b6000610745368361402f565b600082357fffffffffffffffffffffffffffffffffffffffffffffffffffffffffffffffc1833603018112613be357600080fd5b60008083357fffffffffffffffffffffffffffffffffffffffffffffffffffffffffffffffe184360301811261422657600080fd5b83018035915067ffffffffffffffff82111561424157600080fd5b6020019150600581901b360382131561376257600080fd5b6000614267613dd584613cda565b8381526020810190600585901b84013681111561428357600080fd5b845b818110156138f557803567ffffffffffffffff8111156142a457600080fd5b6142b03682890161402f565b85525060209384019301614285565b6000604082840312156142d157600080fd5b61382c8383613cfe565b60008083357fffffffffffffffffffffffffffffffffffffffffffffffffffffffffffffffe184360301811261431057600080fd5b83018035915067ffffffffffffffff82111561432b57600080fd5b6020019150600681901b360382131561376257600080fd5b600084516143558184602089016137ab565b7f2e00000000000000000000000000000000000000000000000000000000000000908301908152845161438f8160018401602089016137ab565b7f2e000000000000000000000000000000000000000000000000000000000000006001929091019182015283516143cd8160028401602088016137ab565b0160020195945050505050565b60008083357fffffffffffffffffffffffffffffffffffffffffffffffffffffffffffffffe184360301811261440f57600080fd5b83018035915067ffffffffffffffff82111561442a57600080fd5b602001915060608102360382131561376257600080fd5b60006060828403121561445357600080fd5b61382c8383613d4d565b60006020828403121561446f57600080fd5b61382c82613e2d565b600061010082840312801561448c57600080fd5b50614495613c1c565b823581526144a68460208501613cfe565b60208201526144b88460608501613d4d565b604082015260c08301356144cb81613833565b60608201526144dc60e08401613e2d565b60808201529392505050565b60007fffffffffffffffffffffffffffffffffffffffffffffffffffffffffffffffff820361451957614519613f46565b5060010190565b60006020828403121561453257600080fd5b815167ffffffffffffffff81111561454957600080fd5b82016080818503121561455b57600080fd5b614563613c68565b81518152602082015161457581613833565b6020820152604082015161458881613fdb565b6040820152606082015167ffffffffffffffff8111156145a757600080fd5b80830192505084601f8301126145bc57600080fd5b81516145ca613dd582613fe9565b8181528660208386010111156145df57600080fd5b6145f08260208301602087016137ab565b606083015250949350505050565b601f821115610ada57806000526020600020601f840160051c810160208510156146255750805b601f840160051c820191505b818110156106ff5760008155600101614631565b815167ffffffffffffffff81111561465f5761465f613bed565b6146738161466d8454613f88565b846145fe565b6020601f8211600181146146c5576000831561468f5750848201515b7fffffffffffffffffffffffffffffffffffffffffffffffffffffffffffffffff600385901b1c1916600184901b1784556106ff565b6000848152602081207fffffffffffffffffffffffffffffffffffffffffffffffffffffffffffffffe08516915b8281101561471357878501518255602094850194600190920191016146f3565b508482101561474f57868401517fffffffffffffffffffffffffffffffffffffffffffffffffffffffffffffffff600387901b60f8161c191681555b50505050600190811b01905550565b7f4e487b7100000000000000000000000000000000000000000000000000000000600052602160045260246000fd5b60006020828403121561479f57600080fd5b815161382c81613fdb565b6000604082016040835280855180835260608501915060608160051b86010192506020870160005b82811015614821577fffffffffffffffffffffffffffffffffffffffffffffffffffffffffffffffa087860301845261480c8583516139f9565b945060209384019391909101906001016147d2565b5050505082810360208401526148378185613934565b95945050505050565b8981527fffffffffffffffffffffffffffffffffffffffff0000000000000000000000008960601b1660208201527fffffffffffffffffffffffffffffffffffffffff0000000000000000000000008860601b1660348201527fffffffffffffffff0000000000000000000000000000000000000000000000008760c01b1660488201527fffffffffffffffff0000000000000000000000000000000000000000000000008660c01b16605082015284151560f81b605882015283605982015260006079820160008551614918818460208a016137ab565b8201905061494a818660e01b7fffffffff00000000000000000000000000000000000000000000000000000000169052565b6004019c9b505050505050505050505050565b828152604060208201526000613aea60408301846137cf565b60008251613be38184602087016137ab565b60006020828403121561499a57600080fd5b505191905056fea164736f6c634300081d000a",
  "devdoc": {
    "errors": {
      "AddressInsufficientBalance(address)": [
        {
          "details": "The ETH balance of the account is not enough to perform the operation."
        }
      ],
      "FailedInnerCall()": [
        {
          "details": "A call to an address target failed. The target may have reverted."
        }
      ]
    },
    "events": {
      "Attested(address,address,bytes32,bytes32)": {
        "params": {
          "attester": "The attesting account.",
          "recipient": "The recipient of the attestation.",
          "schemaUID": "The UID of the schema.",
          "uid": "The UID of the new attestation."
        }
      },
      "EIP712DomainChanged()": {
        "details": "MAY be emitted to signal that the domain could have changed."
      },
      "NonceIncreased(uint256,uint256)": {
        "params": {
          "newNonce": "The new value.",
          "oldNonce": "The previous nonce."
        }
      },
      "Revoked(address,address,bytes32,bytes32)": {
        "params": {
          "attester": "The attesting account.",
          "recipient": "The recipient of the attestation.",
          "schemaUID": "The UID of the schema.",
          "uid": "The UID the revoked attestation."
        }
      },
      "RevokedOffchain(address,bytes32,uint64)": {
        "params": {
          "data": "The data.",
          "revoker": "The address of the revoker.",
          "timestamp": "The timestamp."
        }
      },
      "Timestamped(bytes32,uint64)": {
        "params": {
          "data": "The data.",
          "timestamp": "The timestamp."
        }
      }
    },
    "kind": "dev",
    "methods": {
      "attest((bytes32,(address,uint64,bool,bytes32,bytes,uint256)))": {
        "params": {
          "request": "The arguments of the attestation request."
        },
        "returns": {
          "_0": "The UID of the new attestation. Example:     attest({         schema: \"0facc36681cbe2456019c1b0d1e7bedd6d1d40f6f324bf3dd3a4cef2999200a0\",         data: {             recipient: \"0xdEADBeAFdeAdbEafdeadbeafDeAdbEAFdeadbeaf\",             expirationTime: 0,             revocable: true,             refUID: \"0x0000000000000000000000000000000000000000000000000000000000000000\",             data: \"0xF00D\",             value: 0         }     })"
        }
      },
      "attestByDelegation((bytes32,(address,uint64,bool,bytes32,bytes,uint256),(uint8,bytes32,bytes32),address,uint64))": {
        "params": {
          "delegatedRequest": "The arguments of the delegated attestation request."
        },
        "returns": {
          "_0": "The UID of the new attestation. Example:     attestByDelegation({         schema: '0x8e72f5bc0a8d4be6aa98360baa889040c50a0e51f32dbf0baa5199bd93472ebc',         data: {             recipient: '0xf39Fd6e51aad88F6F4ce6aB8827279cffFb92266',             expirationTime: 1673891048,             revocable: true,             refUID: '0x0000000000000000000000000000000000000000000000000000000000000000',             data: '0x1234',             value: 0         },         signature: {             v: 28,             r: '0x148c...b25b',             s: '0x5a72...be22'         },         attester: '0xc5E8740aD971409492b1A63Db8d83025e0Fc427e',         deadline: 1673891048     })"
        }
      },
      "constructor": {
        "details": "Creates a new EAS instance.",
        "params": {
          "registry": "The address of the global schema registry."
        }
      },
      "eip712Domain()": {
        "details": "See {IERC-5267}."
      },
      "getAttestTypeHash()": {
        "returns": {
          "_0": "The EIP712 type hash for the attest function."
        }
      },
      "getAttestation(bytes32)": {
        "params": {
          "uid": "The UID of the attestation to retrieve."
        },
        "returns": {
          "_0": "The attestation data members."
        }
      },
      "getDomainSeparator()": {
        "returns": {
          "_0": "The domain separator used in the encoding of the signatures for attest, and revoke."
        }
      },
      "getName()": {
        "returns": {
          "_0": "The EIP712 name."
        }
      },
      "getNonce(address)": {
        "params": {
          "account": "The requested account."
        },
        "returns": {
          "_0": "The current nonce."
        }
      },
      "getRevokeOffchain(address,bytes32)": {
        "params": {
          "data": "The data to query."
        },
        "returns": {
          "_0": "The timestamp the data was timestamped with."
        }
      },
      "getRevokeTypeHash()": {
        "returns": {
          "_0": "The EIP712 type hash for the revoke function."
        }
      },
      "getSchemaRegistry()": {
        "returns": {
          "_0": "The address of the global schema registry."
        }
      },
      "getTimestamp(bytes32)": {
        "params": {
          "data": "The data to query."
        },
        "returns": {
          "_0": "The timestamp the data was timestamped with."
        }
      },
      "increaseNonce(uint256)": {
        "params": {
          "newNonce": "The (higher) new value."
        }
      },
      "isAttestationValid(bytes32)": {
        "params": {
          "uid": "The UID of the attestation to retrieve."
        },
        "returns": {
          "_0": "Whether an attestation exists."
        }
      },
      "multiAttest((bytes32,(address,uint64,bool,bytes32,bytes,uint256)[])[])": {
        "params": {
          "multiRequests": "The arguments of the multi attestation requests. The requests should be grouped by distinct     schema ids to benefit from the best batching optimization."
        },
        "returns": {
          "_0": "The UIDs of the new attestations. Example:     multiAttest([{         schema: '0x33e9094830a5cba5554d1954310e4fbed2ef5f859ec1404619adea4207f391fd',         data: [{             recipient: '0xdEADBeAFdeAdbEafdeadbeafDeAdbEAFdeadbeaf',             expirationTime: 1673891048,             revocable: true,             refUID: '0x0000000000000000000000000000000000000000000000000000000000000000',             data: '0x1234',             value: 1000         },         {             recipient: '0xf39Fd6e51aad88F6F4ce6aB8827279cffFb92266',             expirationTime: 0,             revocable: false,             refUID: '0x480df4a039efc31b11bfdf491b383ca138b6bde160988222a2a3509c02cee174',             data: '0x00',             value: 0         }],     },     {         schema: '0x5ac273ce41e3c8bfa383efe7c03e54c5f0bff29c9f11ef6ffa930fc84ca32425',         data: [{             recipient: '0xdEADBeAFdeAdbEafdeadbeafDeAdbEAFdeadbeaf',             expirationTime: 0,             revocable: true,             refUID: '0x75bf2ed8dca25a8190c50c52db136664de25b2449535839008ccfdab469b214f',             data: '0x12345678',             value: 0         },     }])"
        }
      },
      "multiAttestByDelegation((bytes32,(address,uint64,bool,bytes32,bytes,uint256)[],(uint8,bytes32,bytes32)[],address,uint64)[])": {
        "params": {
          "multiDelegatedRequests": "The arguments of the delegated multi attestation requests. The requests should be     grouped by distinct schema ids to benefit from the best batching optimization."
        },
        "returns": {
          "_0": "The UIDs of the new attestations. Example:     multiAttestByDelegation([{         schema: '0x8e72f5bc0a8d4be6aa98360baa889040c50a0e51f32dbf0baa5199bd93472ebc',         data: [{             recipient: '0xf39Fd6e51aad88F6F4ce6aB8827279cffFb92266',             expirationTime: 1673891048,             revocable: true,             refUID: '0x0000000000000000000000000000000000000000000000000000000000000000',             data: '0x1234',             value: 0         },         {             recipient: '0xdEADBeAFdeAdbEafdeadbeafDeAdbEAFdeadbeaf',             expirationTime: 0,             revocable: false,             refUID: '0x0000000000000000000000000000000000000000000000000000000000000000',             data: '0x00',             value: 0         }],         signatures: [{             v: 28,             r: '0x148c...b25b',             s: '0x5a72...be22'         },         {             v: 28,             r: '0x487s...67bb',             s: '0x12ad...2366'         }],         attester: '0x1D86495b2A7B524D747d2839b3C645Bed32e8CF4',         deadline: 1673891048     }])"
        }
      },
      "multiRevoke((bytes32,(bytes32,uint256)[])[])": {
        "params": {
          "multiRequests": "The arguments of the multi revocation requests. The requests should be grouped by distinct     schema ids to benefit from the best batching optimization. Example:     multiRevoke([{         schema: '0x8e72f5bc0a8d4be6aa98360baa889040c50a0e51f32dbf0baa5199bd93472ebc',         data: [{             uid: '0x211296a1ca0d7f9f2cfebf0daaa575bea9b20e968d81aef4e743d699c6ac4b25',             value: 1000         },         {             uid: '0xe160ac1bd3606a287b4d53d5d1d6da5895f65b4b4bab6d93aaf5046e48167ade',             value: 0         }],     },     {         schema: '0x5ac273ce41e3c8bfa383efe7c03e54c5f0bff29c9f11ef6ffa930fc84ca32425',         data: [{             uid: '0x053d42abce1fd7c8fcddfae21845ad34dae287b2c326220b03ba241bc5a8f019',             value: 0         },     }])"
        }
      },
      "multiRevokeByDelegation((bytes32,(bytes32,uint256)[],(uint8,bytes32,bytes32)[],address,uint64)[])": {
        "params": {
          "multiDelegatedRequests": "The arguments of the delegated multi revocation attestation requests. The requests     should be grouped by distinct schema ids to benefit from the best batching optimization. Example:     multiRevokeByDelegation([{         schema: '0x8e72f5bc0a8d4be6aa98360baa889040c50a0e51f32dbf0baa5199bd93472ebc',         data: [{             uid: '0x211296a1ca0d7f9f2cfebf0daaa575bea9b20e968d81aef4e743d699c6ac4b25',             value: 1000         },         {             uid: '0xe160ac1bd3606a287b4d53d5d1d6da5895f65b4b4bab6d93aaf5046e48167ade',             value: 0         }],         signatures: [{             v: 28,             r: '0x148c...b25b',             s: '0x5a72...be22'         },         {             v: 28,             r: '0x487s...67bb',             s: '0x12ad...2366'         }],         revoker: '0x244934dd3e31bE2c81f84ECf0b3E6329F5381992',         deadline: 1673891048     }])"
        }
      },
      "multiRevokeOffchain(bytes32[])": {
        "params": {
          "data": "The data to timestamp."
        },
        "returns": {
          "_0": "The timestamp the data was revoked with."
        }
      },
      "multiTimestamp(bytes32[])": {
        "params": {
          "data": "The data to timestamp."
        },
        "returns": {
          "_0": "The timestamp the data was timestamped with."
        }
      },
      "revoke((bytes32,(bytes32,uint256)))": {
        "params": {
          "request": "The arguments of the revocation request. Example:     revoke({         schema: '0x8e72f5bc0a8d4be6aa98360baa889040c50a0e51f32dbf0baa5199bd93472ebc',         data: {             uid: '0x101032e487642ee04ee17049f99a70590c735b8614079fc9275f9dd57c00966d',             value: 0         }     })"
        }
      },
      "revokeByDelegation((bytes32,(bytes32,uint256),(uint8,bytes32,bytes32),address,uint64))": {
        "params": {
          "delegatedRequest": "The arguments of the delegated revocation request. Example:     revokeByDelegation({         schema: '0x8e72f5bc0a8d4be6aa98360baa889040c50a0e51f32dbf0baa5199bd93472ebc',         data: {             uid: '0xcbbc12102578c642a0f7b34fe7111e41afa25683b6cd7b5a14caf90fa14d24ba',             value: 0         },         signature: {             v: 27,             r: '0xb593...7142',             s: '0x0f5b...2cce'         },         revoker: '0x244934dd3e31bE2c81f84ECf0b3E6329F5381992',         deadline: 1673891048     })"
        }
      },
      "revokeOffchain(bytes32)": {
        "params": {
          "data": "The data to timestamp."
        },
        "returns": {
          "_0": "The timestamp the data was revoked with."
        }
      },
      "timestamp(bytes32)": {
        "params": {
          "data": "The data to timestamp."
        },
        "returns": {
          "_0": "The timestamp the data was timestamped with."
        }
      },
      "version()": {
        "returns": {
          "_0": "Semver contract version as a string."
        }
      }
    },
    "title": "EAS",
    "version": 1
  },
  "userdoc": {
    "events": {
      "Attested(address,address,bytes32,bytes32)": {
        "notice": "Emitted when an attestation has been made."
      },
      "NonceIncreased(uint256,uint256)": {
        "notice": "Emitted when users invalidate nonces by increasing their nonces to (higher) new values."
      },
      "Revoked(address,address,bytes32,bytes32)": {
        "notice": "Emitted when an attestation has been revoked."
      },
      "RevokedOffchain(address,bytes32,uint64)": {
        "notice": "Emitted when a data has been revoked."
      },
      "Timestamped(bytes32,uint64)": {
        "notice": "Emitted when a data has been timestamped."
      }
    },
    "kind": "user",
    "methods": {
      "attest((bytes32,(address,uint64,bool,bytes32,bytes,uint256)))": {
        "notice": "Attests to a specific schema."
      },
      "attestByDelegation((bytes32,(address,uint64,bool,bytes32,bytes,uint256),(uint8,bytes32,bytes32),address,uint64))": {
        "notice": "Attests to a specific schema via the provided ECDSA signature."
      },
      "getAttestTypeHash()": {
        "notice": "Returns the EIP712 type hash for the attest function."
      },
      "getAttestation(bytes32)": {
        "notice": "Returns an existing attestation by UID."
      },
      "getDomainSeparator()": {
        "notice": "Returns the domain separator used in the encoding of the signatures for attest, and revoke."
      },
      "getName()": {
        "notice": "Returns the EIP712 name."
      },
      "getNonce(address)": {
        "notice": "Returns the current nonce per-account."
      },
      "getRevokeOffchain(address,bytes32)": {
        "notice": "Returns the timestamp that the specified data was timestamped with."
      },
      "getRevokeTypeHash()": {
        "notice": "Returns the EIP712 type hash for the revoke function."
      },
      "getSchemaRegistry()": {
        "notice": "Returns the address of the global schema registry."
      },
      "getTimestamp(bytes32)": {
        "notice": "Returns the timestamp that the specified data was timestamped with."
      },
      "increaseNonce(uint256)": {
        "notice": "Provides users an option to invalidate nonces by increasing their nonces to (higher) new values."
      },
      "isAttestationValid(bytes32)": {
        "notice": "Checks whether an attestation exists."
      },
      "multiAttest((bytes32,(address,uint64,bool,bytes32,bytes,uint256)[])[])": {
        "notice": "Attests to multiple schemas."
      },
      "multiAttestByDelegation((bytes32,(address,uint64,bool,bytes32,bytes,uint256)[],(uint8,bytes32,bytes32)[],address,uint64)[])": {
        "notice": "Attests to multiple schemas using via provided ECDSA signatures."
      },
      "multiRevoke((bytes32,(bytes32,uint256)[])[])": {
        "notice": "Revokes existing attestations to multiple schemas."
      },
      "multiRevokeByDelegation((bytes32,(bytes32,uint256)[],(uint8,bytes32,bytes32)[],address,uint64)[])": {
        "notice": "Revokes existing attestations to multiple schemas via provided ECDSA signatures."
      },
      "multiRevokeOffchain(bytes32[])": {
        "notice": "Revokes the specified multiple bytes32 data."
      },
      "multiTimestamp(bytes32[])": {
        "notice": "Timestamps the specified multiple bytes32 data."
      },
      "revoke((bytes32,(bytes32,uint256)))": {
        "notice": "Revokes an existing attestation to a specific schema."
      },
      "revokeByDelegation((bytes32,(bytes32,uint256),(uint8,bytes32,bytes32),address,uint64))": {
        "notice": "Revokes an existing attestation to a specific schema via the provided ECDSA signature."
      },
      "revokeOffchain(bytes32)": {
        "notice": "Revokes the specified bytes32 data."
      },
      "timestamp(bytes32)": {
        "notice": "Timestamps the specified bytes32 data."
      },
      "version()": {
        "notice": "Returns the full semver contract version."
      }
    },
    "notice": "The Ethereum Attestation Service protocol.",
    "version": 1
  },
  "storageLayout": {
    "storage": [
      {
        "astId": 5558,
        "contract": "@ethereum-attestation-service/eas-contracts/contracts/EAS.sol:EAS",
        "label": "_nameFallback",
        "offset": 0,
        "slot": "0",
        "type": "t_string_storage"
      },
      {
        "astId": 5560,
        "contract": "@ethereum-attestation-service/eas-contracts/contracts/EAS.sol:EAS",
        "label": "_versionFallback",
        "offset": 0,
        "slot": "1",
        "type": "t_string_storage"
      },
      {
        "astId": 3106,
        "contract": "@ethereum-attestation-service/eas-contracts/contracts/EAS.sol:EAS",
        "label": "_name",
        "offset": 0,
        "slot": "2",
        "type": "t_string_storage"
      },
      {
        "astId": 3110,
        "contract": "@ethereum-attestation-service/eas-contracts/contracts/EAS.sol:EAS",
        "label": "_nonces",
        "offset": 0,
        "slot": "3",
        "type": "t_mapping(t_address,t_uint256)"
      },
      {
        "astId": 138,
        "contract": "@ethereum-attestation-service/eas-contracts/contracts/EAS.sol:EAS",
        "label": "_db",
        "offset": 0,
        "slot": "4",
        "type": "t_mapping(t_bytes32,t_struct(Attestation)49_storage)"
      },
      {
        "astId": 142,
        "contract": "@ethereum-attestation-service/eas-contracts/contracts/EAS.sol:EAS",
        "label": "_timestamps",
        "offset": 0,
        "slot": "5",
        "type": "t_mapping(t_bytes32,t_uint64)"
      },
      {
        "astId": 148,
        "contract": "@ethereum-attestation-service/eas-contracts/contracts/EAS.sol:EAS",
        "label": "_revocationsOffchain",
        "offset": 0,
        "slot": "6",
        "type": "t_mapping(t_address,t_mapping(t_bytes32,t_uint64))"
      }
    ],
    "types": {
      "t_address": {
        "encoding": "inplace",
        "label": "address",
        "numberOfBytes": "20"
      },
      "t_bool": {
        "encoding": "inplace",
        "label": "bool",
        "numberOfBytes": "1"
      },
      "t_bytes32": {
        "encoding": "inplace",
        "label": "bytes32",
        "numberOfBytes": "32"
      },
      "t_bytes_storage": {
        "encoding": "bytes",
        "label": "bytes",
        "numberOfBytes": "32"
      },
      "t_mapping(t_address,t_mapping(t_bytes32,t_uint64))": {
        "encoding": "mapping",
        "key": "t_address",
        "label": "mapping(address => mapping(bytes32 => uint64))",
        "numberOfBytes": "32",
        "value": "t_mapping(t_bytes32,t_uint64)"
      },
      "t_mapping(t_address,t_uint256)": {
        "encoding": "mapping",
        "key": "t_address",
        "label": "mapping(address => uint256)",
        "numberOfBytes": "32",
        "value": "t_uint256"
      },
      "t_mapping(t_bytes32,t_struct(Attestation)49_storage)": {
        "encoding": "mapping",
        "key": "t_bytes32",
        "label": "mapping(bytes32 => struct Attestation)",
        "numberOfBytes": "32",
        "value": "t_struct(Attestation)49_storage"
      },
      "t_mapping(t_bytes32,t_uint64)": {
        "encoding": "mapping",
        "key": "t_bytes32",
        "label": "mapping(bytes32 => uint64)",
        "numberOfBytes": "32",
        "value": "t_uint64"
      },
      "t_string_storage": {
        "encoding": "bytes",
        "label": "string",
        "numberOfBytes": "32"
      },
      "t_struct(Attestation)49_storage": {
        "encoding": "inplace",
        "label": "struct Attestation",
        "members": [
          {
            "astId": 30,
            "contract": "@ethereum-attestation-service/eas-contracts/contracts/EAS.sol:EAS",
            "label": "uid",
            "offset": 0,
            "slot": "0",
            "type": "t_bytes32"
          },
          {
            "astId": 32,
            "contract": "@ethereum-attestation-service/eas-contracts/contracts/EAS.sol:EAS",
            "label": "schema",
            "offset": 0,
            "slot": "1",
            "type": "t_bytes32"
          },
          {
            "astId": 34,
            "contract": "@ethereum-attestation-service/eas-contracts/contracts/EAS.sol:EAS",
            "label": "time",
            "offset": 0,
            "slot": "2",
            "type": "t_uint64"
          },
          {
            "astId": 36,
            "contract": "@ethereum-attestation-service/eas-contracts/contracts/EAS.sol:EAS",
            "label": "expirationTime",
            "offset": 8,
            "slot": "2",
            "type": "t_uint64"
          },
          {
            "astId": 38,
            "contract": "@ethereum-attestation-service/eas-contracts/contracts/EAS.sol:EAS",
            "label": "revocationTime",
            "offset": 16,
            "slot": "2",
            "type": "t_uint64"
          },
          {
            "astId": 40,
            "contract": "@ethereum-attestation-service/eas-contracts/contracts/EAS.sol:EAS",
            "label": "refUID",
            "offset": 0,
            "slot": "3",
            "type": "t_bytes32"
          },
          {
            "astId": 42,
            "contract": "@ethereum-attestation-service/eas-contracts/contracts/EAS.sol:EAS",
            "label": "recipient",
            "offset": 0,
            "slot": "4",
            "type": "t_address"
          },
          {
            "astId": 44,
            "contract": "@ethereum-attestation-service/eas-contracts/contracts/EAS.sol:EAS",
            "label": "attester",
            "offset": 0,
            "slot": "5",
            "type": "t_address"
          },
          {
            "astId": 46,
            "contract": "@ethereum-attestation-service/eas-contracts/contracts/EAS.sol:EAS",
            "label": "revocable",
            "offset": 20,
            "slot": "5",
            "type": "t_bool"
          },
          {
            "astId": 48,
            "contract": "@ethereum-attestation-service/eas-contracts/contracts/EAS.sol:EAS",
            "label": "data",
            "offset": 0,
            "slot": "6",
            "type": "t_bytes_storage"
          }
        ],
        "numberOfBytes": "224"
      },
      "t_uint256": {
        "encoding": "inplace",
        "label": "uint256",
        "numberOfBytes": "32"
      },
      "t_uint64": {
        "encoding": "inplace",
        "label": "uint64",
        "numberOfBytes": "8"
      }
    }
  }
}