{
  "address": "0x2980bc1581F1652ABe254051f8ff0647EcE05fce",
  "abi": [
    {
      "inputs": [
        {
          "internalType": "contract ISchemaRegistry",
          "name": "registry",
          "type": "address"
        }
      ],
      "stateMutability": "nonpayable",
      "type": "constructor"
    },
    {
      "inputs": [],
      "name": "AccessDenied",
      "type": "error"
    },
    {
      "inputs": [],
      "name": "AlreadyRevoked",
      "type": "error"
    },
    {
      "inputs": [],
      "name": "InsufficientValue",
      "type": "error"
    },
    {
      "inputs": [],
      "name": "InvalidAttestation",
      "type": "error"
    },
    {
      "inputs": [],
      "name": "InvalidAttestations",
      "type": "error"
    },
    {
      "inputs": [],
      "name": "InvalidExpirationTime",
      "type": "error"
    },
    {
      "inputs": [],
      "name": "InvalidLength",
      "type": "error"
    },
    {
      "inputs": [],
      "name": "InvalidOffset",
      "type": "error"
    },
    {
      "inputs": [],
      "name": "InvalidRegistry",
      "type": "error"
    },
    {
      "inputs": [],
      "name": "InvalidRevocation",
      "type": "error"
    },
    {
      "inputs": [],
      "name": "InvalidRevocations",
      "type": "error"
    },
    {
      "inputs": [],
      "name": "InvalidSchema",
      "type": "error"
    },
    {
      "inputs": [],
      "name": "InvalidSignature",
      "type": "error"
    },
    {
      "inputs": [],
      "name": "InvalidVerifier",
      "type": "error"
    },
    {
      "inputs": [],
      "name": "Irrevocable",
      "type": "error"
    },
    {
      "inputs": [],
      "name": "NotFound",
      "type": "error"
    },
    {
      "inputs": [],
      "name": "NotPayable",
      "type": "error"
    },
    {
      "inputs": [],
      "name": "WrongSchema",
      "type": "error"
    },
    {
      "anonymous": false,
      "inputs": [
        {
          "indexed": true,
          "internalType": "address",
          "name": "recipient",
          "type": "address"
        },
        {
          "indexed": true,
          "internalType": "address",
          "name": "attester",
          "type": "address"
        },
        {
          "indexed": false,
          "internalType": "bytes32",
          "name": "uuid",
          "type": "bytes32"
        },
        {
          "indexed": true,
          "internalType": "bytes32",
          "name": "schema",
          "type": "bytes32"
        }
      ],
      "name": "Attested",
      "type": "event"
    },
    {
      "anonymous": false,
      "inputs": [
        {
          "indexed": true,
          "internalType": "address",
          "name": "recipient",
          "type": "address"
        },
        {
          "indexed": true,
          "internalType": "address",
          "name": "attester",
          "type": "address"
        },
        {
          "indexed": false,
          "internalType": "bytes32",
          "name": "uuid",
          "type": "bytes32"
        },
        {
          "indexed": true,
          "internalType": "bytes32",
          "name": "schema",
          "type": "bytes32"
        }
      ],
      "name": "Revoked",
      "type": "event"
    },
    {
      "inputs": [],
      "name": "VERSION",
      "outputs": [
        {
          "internalType": "string",
          "name": "",
          "type": "string"
        }
      ],
      "stateMutability": "view",
      "type": "function"
    },
    {
      "inputs": [
        {
          "components": [
            {
              "internalType": "bytes32",
              "name": "schema",
              "type": "bytes32"
            },
            {
              "components": [
                {
                  "internalType": "address",
                  "name": "recipient",
                  "type": "address"
                },
                {
                  "internalType": "uint32",
                  "name": "expirationTime",
                  "type": "uint32"
                },
                {
                  "internalType": "bool",
                  "name": "revocable",
                  "type": "bool"
                },
                {
                  "internalType": "bytes32",
                  "name": "refUUID",
                  "type": "bytes32"
                },
                {
                  "internalType": "bytes",
                  "name": "data",
                  "type": "bytes"
                },
                {
                  "internalType": "uint256",
                  "name": "value",
                  "type": "uint256"
                }
              ],
              "internalType": "struct AttestationRequestData",
              "name": "data",
              "type": "tuple"
            }
          ],
          "internalType": "struct AttestationRequest",
          "name": "request",
          "type": "tuple"
        }
      ],
      "name": "attest",
      "outputs": [
        {
          "internalType": "bytes32",
          "name": "",
          "type": "bytes32"
        }
      ],
      "stateMutability": "payable",
      "type": "function"
    },
    {
      "inputs": [
        {
          "components": [
            {
              "internalType": "bytes32",
              "name": "schema",
              "type": "bytes32"
            },
            {
              "components": [
                {
                  "internalType": "address",
                  "name": "recipient",
                  "type": "address"
                },
                {
                  "internalType": "uint32",
                  "name": "expirationTime",
                  "type": "uint32"
                },
                {
                  "internalType": "bool",
                  "name": "revocable",
                  "type": "bool"
                },
                {
                  "internalType": "bytes32",
                  "name": "refUUID",
                  "type": "bytes32"
                },
                {
                  "internalType": "bytes",
                  "name": "data",
                  "type": "bytes"
                },
                {
                  "internalType": "uint256",
                  "name": "value",
                  "type": "uint256"
                }
              ],
              "internalType": "struct AttestationRequestData",
              "name": "data",
              "type": "tuple"
            },
            {
              "components": [
                {
                  "internalType": "uint8",
                  "name": "v",
                  "type": "uint8"
                },
                {
                  "internalType": "bytes32",
                  "name": "r",
                  "type": "bytes32"
                },
                {
                  "internalType": "bytes32",
                  "name": "s",
                  "type": "bytes32"
                }
              ],
              "internalType": "struct EIP712Signature",
              "name": "signature",
              "type": "tuple"
            },
            {
              "internalType": "address",
              "name": "attester",
              "type": "address"
            }
          ],
          "internalType": "struct DelegatedAttestationRequest",
          "name": "delegatedRequest",
          "type": "tuple"
        }
      ],
      "name": "attestByDelegation",
      "outputs": [
        {
          "internalType": "bytes32",
          "name": "",
          "type": "bytes32"
        }
      ],
      "stateMutability": "payable",
      "type": "function"
    },
    {
      "inputs": [],
      "name": "getAttestTypeHash",
      "outputs": [
        {
          "internalType": "bytes32",
          "name": "",
          "type": "bytes32"
        }
      ],
      "stateMutability": "pure",
      "type": "function"
    },
    {
      "inputs": [
        {
          "internalType": "bytes32",
          "name": "uuid",
          "type": "bytes32"
        }
      ],
      "name": "getAttestation",
      "outputs": [
        {
          "components": [
            {
              "internalType": "bytes32",
              "name": "uuid",
              "type": "bytes32"
            },
            {
              "internalType": "bytes32",
              "name": "schema",
              "type": "bytes32"
            },
            {
              "internalType": "bytes32",
              "name": "refUUID",
              "type": "bytes32"
            },
            {
              "internalType": "uint32",
              "name": "time",
              "type": "uint32"
            },
            {
              "internalType": "uint32",
              "name": "expirationTime",
              "type": "uint32"
            },
            {
              "internalType": "uint32",
              "name": "revocationTime",
              "type": "uint32"
            },
            {
              "internalType": "address",
              "name": "recipient",
              "type": "address"
            },
            {
              "internalType": "address",
              "name": "attester",
              "type": "address"
            },
            {
              "internalType": "bool",
              "name": "revocable",
              "type": "bool"
            },
            {
              "internalType": "bytes",
              "name": "data",
              "type": "bytes"
            }
          ],
          "internalType": "struct Attestation",
          "name": "",
          "type": "tuple"
        }
      ],
      "stateMutability": "view",
      "type": "function"
    },
    {
      "inputs": [],
      "name": "getDomainSeparator",
      "outputs": [
        {
          "internalType": "bytes32",
          "name": "",
          "type": "bytes32"
        }
      ],
      "stateMutability": "view",
      "type": "function"
    },
    {
      "inputs": [
        {
          "internalType": "address",
          "name": "account",
          "type": "address"
        }
      ],
      "name": "getNonce",
      "outputs": [
        {
          "internalType": "uint256",
          "name": "",
          "type": "uint256"
        }
      ],
      "stateMutability": "view",
      "type": "function"
    },
    {
      "inputs": [],
      "name": "getRevokeTypeHash",
      "outputs": [
        {
          "internalType": "bytes32",
          "name": "",
          "type": "bytes32"
        }
      ],
      "stateMutability": "pure",
      "type": "function"
    },
    {
      "inputs": [],
      "name": "getSchemaRegistry",
      "outputs": [
        {
          "internalType": "contract ISchemaRegistry",
          "name": "",
          "type": "address"
        }
      ],
      "stateMutability": "view",
      "type": "function"
    },
    {
      "inputs": [
        {
          "internalType": "bytes32",
          "name": "uuid",
          "type": "bytes32"
        }
      ],
      "name": "isAttestationValid",
      "outputs": [
        {
          "internalType": "bool",
          "name": "",
          "type": "bool"
        }
      ],
      "stateMutability": "view",
      "type": "function"
    },
    {
      "inputs": [
        {
          "components": [
            {
              "internalType": "bytes32",
              "name": "schema",
              "type": "bytes32"
            },
            {
              "components": [
                {
                  "internalType": "address",
                  "name": "recipient",
                  "type": "address"
                },
                {
                  "internalType": "uint32",
                  "name": "expirationTime",
                  "type": "uint32"
                },
                {
                  "internalType": "bool",
                  "name": "revocable",
                  "type": "bool"
                },
                {
                  "internalType": "bytes32",
                  "name": "refUUID",
                  "type": "bytes32"
                },
                {
                  "internalType": "bytes",
                  "name": "data",
                  "type": "bytes"
                },
                {
                  "internalType": "uint256",
                  "name": "value",
                  "type": "uint256"
                }
              ],
              "internalType": "struct AttestationRequestData[]",
              "name": "data",
              "type": "tuple[]"
            }
          ],
          "internalType": "struct MultiAttestationRequest[]",
          "name": "multiRequests",
          "type": "tuple[]"
        }
      ],
      "name": "multiAttest",
      "outputs": [
        {
          "internalType": "bytes32[]",
          "name": "",
          "type": "bytes32[]"
        }
      ],
      "stateMutability": "payable",
      "type": "function"
    },
    {
      "inputs": [
        {
          "components": [
            {
              "internalType": "bytes32",
              "name": "schema",
              "type": "bytes32"
            },
            {
              "components": [
                {
                  "internalType": "address",
                  "name": "recipient",
                  "type": "address"
                },
                {
                  "internalType": "uint32",
                  "name": "expirationTime",
                  "type": "uint32"
                },
                {
                  "internalType": "bool",
                  "name": "revocable",
                  "type": "bool"
                },
                {
                  "internalType": "bytes32",
                  "name": "refUUID",
                  "type": "bytes32"
                },
                {
                  "internalType": "bytes",
                  "name": "data",
                  "type": "bytes"
                },
                {
                  "internalType": "uint256",
                  "name": "value",
                  "type": "uint256"
                }
              ],
              "internalType": "struct AttestationRequestData[]",
              "name": "data",
              "type": "tuple[]"
            },
            {
              "components": [
                {
                  "internalType": "uint8",
                  "name": "v",
                  "type": "uint8"
                },
                {
                  "internalType": "bytes32",
                  "name": "r",
                  "type": "bytes32"
                },
                {
                  "internalType": "bytes32",
                  "name": "s",
                  "type": "bytes32"
                }
              ],
              "internalType": "struct EIP712Signature[]",
              "name": "signatures",
              "type": "tuple[]"
            },
            {
              "internalType": "address",
              "name": "attester",
              "type": "address"
            }
          ],
          "internalType": "struct MultiDelegatedAttestationRequest[]",
          "name": "multiDelegatedRequests",
          "type": "tuple[]"
        }
      ],
      "name": "multiAttestByDelegation",
      "outputs": [
        {
          "internalType": "bytes32[]",
          "name": "",
          "type": "bytes32[]"
        }
      ],
      "stateMutability": "payable",
      "type": "function"
    },
    {
      "inputs": [
        {
          "components": [
            {
              "internalType": "bytes32",
              "name": "schema",
              "type": "bytes32"
            },
            {
              "components": [
                {
                  "internalType": "bytes32",
                  "name": "uuid",
                  "type": "bytes32"
                },
                {
                  "internalType": "uint256",
                  "name": "value",
                  "type": "uint256"
                }
              ],
              "internalType": "struct RevocationRequestData[]",
              "name": "data",
              "type": "tuple[]"
            }
          ],
          "internalType": "struct MultiRevocationRequest[]",
          "name": "multiRequests",
          "type": "tuple[]"
        }
      ],
      "name": "multiRevoke",
      "outputs": [],
      "stateMutability": "payable",
      "type": "function"
    },
    {
      "inputs": [
        {
          "components": [
            {
              "internalType": "bytes32",
              "name": "schema",
              "type": "bytes32"
            },
            {
              "components": [
                {
                  "internalType": "bytes32",
                  "name": "uuid",
                  "type": "bytes32"
                },
                {
                  "internalType": "uint256",
                  "name": "value",
                  "type": "uint256"
                }
              ],
              "internalType": "struct RevocationRequestData[]",
              "name": "data",
              "type": "tuple[]"
            },
            {
              "components": [
                {
                  "internalType": "uint8",
                  "name": "v",
                  "type": "uint8"
                },
                {
                  "internalType": "bytes32",
                  "name": "r",
                  "type": "bytes32"
                },
                {
                  "internalType": "bytes32",
                  "name": "s",
                  "type": "bytes32"
                }
              ],
              "internalType": "struct EIP712Signature[]",
              "name": "signatures",
              "type": "tuple[]"
            },
            {
              "internalType": "address",
              "name": "revoker",
              "type": "address"
            }
          ],
          "internalType": "struct MultiDelegatedRevocationRequest[]",
          "name": "multiDelegatedRequests",
          "type": "tuple[]"
        }
      ],
      "name": "multiRevokeByDelegation",
      "outputs": [],
      "stateMutability": "payable",
      "type": "function"
    },
    {
      "inputs": [
        {
          "components": [
            {
              "internalType": "bytes32",
              "name": "schema",
              "type": "bytes32"
            },
            {
              "components": [
                {
                  "internalType": "bytes32",
                  "name": "uuid",
                  "type": "bytes32"
                },
                {
                  "internalType": "uint256",
                  "name": "value",
                  "type": "uint256"
                }
              ],
              "internalType": "struct RevocationRequestData",
              "name": "data",
              "type": "tuple"
            }
          ],
          "internalType": "struct RevocationRequest",
          "name": "request",
          "type": "tuple"
        }
      ],
      "name": "revoke",
      "outputs": [],
      "stateMutability": "payable",
      "type": "function"
    },
    {
      "inputs": [
        {
          "components": [
            {
              "internalType": "bytes32",
              "name": "schema",
              "type": "bytes32"
            },
            {
              "components": [
                {
                  "internalType": "bytes32",
                  "name": "uuid",
                  "type": "bytes32"
                },
                {
                  "internalType": "uint256",
                  "name": "value",
                  "type": "uint256"
                }
              ],
              "internalType": "struct RevocationRequestData",
              "name": "data",
              "type": "tuple"
            },
            {
              "components": [
                {
                  "internalType": "uint8",
                  "name": "v",
                  "type": "uint8"
                },
                {
                  "internalType": "bytes32",
                  "name": "r",
                  "type": "bytes32"
                },
                {
                  "internalType": "bytes32",
                  "name": "s",
                  "type": "bytes32"
                }
              ],
              "internalType": "struct EIP712Signature",
              "name": "signature",
              "type": "tuple"
            },
            {
              "internalType": "address",
              "name": "revoker",
              "type": "address"
            }
          ],
          "internalType": "struct DelegatedRevocationRequest",
          "name": "delegatedRequest",
          "type": "tuple"
        }
      ],
      "name": "revokeByDelegation",
      "outputs": [],
      "stateMutability": "payable",
      "type": "function"
    }
  ],
  "transactionHash": "0xeb5e371cec752d235c20960041a4811bf77eee3cdaea88c0a83df17e1b341ca9",
  "args": [
    "0x5b25B105b4699CF6Ac01044B2FC6eb816A488e55"
  ],
  "numDeployments": 1,
  "solcInputHash": "ab80e7af281622c8e16745e63fd1141b",
  "bytecode": "0x61016034620001b657601f62004ad338819003918201601f19168301926001600160401b0392909183851183861017620001a0578160209284926040978852833981010312620001b657516001600160a01b03811692838203620001b6578051926200006b84620001bb565b600484526020840163302e323160e01b81526003602084516200008e81620001bb565b828152016245415360e81b81522094519020948460e052610100958087524660a052835160208101917f8b73c3c69bb8fe3d512ecc4cf759cc79239f7b179b0ffacaa9a75d522b39400f978884528683015260608201524660808201523060a082015260a0815260c081019381851090851117620001a0578385525190206080523060c0526101209485521562000191575061014091825251916148fb9384620001d8853960805184614371015260a0518461442c015260c05184614342015260e051846143c0015251836143e60152518261439d0152518181816101a001528181610d170152818161154b0152818161280c01528181612ec801526131370152f35b6311a1e69760e01b8152600490fd5b634e487b7160e01b600052604160045260246000fd5b600080fd5b604081019081106001600160401b03821117620001a05760405256fe61010080604052600436101561001457600080fd5b60003560e01c90816312b11a1714611bce5750806316bc31ff14611461578063195bf9af14610bb65780632d0335ab14610b4e5780634692626714610af05780634cb7e9e5146109ee578063706c190a146108e9578063a3112a6414610882578063b83010d314610829578063e30bb563146107d5578063e45d03f91461059b578063e57a6b1b14610497578063ed24911d14610456578063ee5ad0f2146101c4578063f10b5cc8146101555763ffa1ad74146100d057600080fd5b346101505760007ffffffffffffffffffffffffffffffffffffffffffffffffffffffffffffffffc3601126101505761014c60405161010e81611e04565b600481527f302e3231000000000000000000000000000000000000000000000000000000006020820152604051918291602083526020830190611cd5565b0390f35b600080fd5b346101505760007ffffffffffffffffffffffffffffffffffffffffffffffffffffffffffffffffc36011261015057602060405173ffffffffffffffffffffffffffffffffffffffff7f0000000000000000000000000000000000000000000000000000000000000000168152f35b60207ffffffffffffffffffffffffffffffffffffffffffffffffffffffffffffffffc3601126101505760043567ffffffffffffffff81116101505761020e903690600401611c46565b610217816120ba565b916000918291345b82841061023f5761014c61023386886142be565b60405191829182611c77565b9091929361024e858585612261565b61025b6020820182612161565b90918115801561043e575b61041457908491888860005b8481106102fd5750936102d6936102cd936102c660019998947fffffffffffffffffffffffffffffffffffffffffffffffffffffffffffffffff6020990114946102be60608401612099565b9336916121b5565b903561279a565b94855190612225565b930180516102e4888a611f78565b526102ef8789611f78565b50515101940192919061021f565b9293945050506103128160051b850185611f38565b9061032060408401846122a1565b8293919310156103e55761033660608501612099565b926040519081608081011067ffffffffffffffff6080840111176103b65760019461039a73ffffffffffffffffffffffffffffffffffffffff926103896103aa96608087016040528a3587523690611f8c565b60208601523690606088020161205b565b6040840152166060820152614452565b01908888879493610272565b7f4e487b7100000000000000000000000000000000000000000000000000000000600052604160045260246000fd5b7f4e487b7100000000000000000000000000000000000000000000000000000000600052603260045260246000fd5b60046040517f947d5a84000000000000000000000000000000000000000000000000000000008152fd5b5061044c60408201826122a1565b9050821415610266565b346101505760007ffffffffffffffffffffffffffffffffffffffffffffffffffffffffffffffffc36011261015057602061048f61432b565b604051908152f35b60e07ffffffffffffffffffffffffffffffffffffffffffffffffffffffffffffffffc360112610150576040516104cd81611db0565b6004358082526104dc36612344565b602083015260607fffffffffffffffffffffffffffffffffffffffffffffffffffffffffffffff9c3601126101505760405161051781611de8565b60643560ff81168103610150578152608435602082015260a4356040820152604083015260c43573ffffffffffffffffffffffffffffffffffffffff811681036101505761056d83826060610599960152614828565b6105756122f5565b61057e36612344565b61058782611f6b565b5261059181611f6b565b503492612e7b565b005b6020807ffffffffffffffffffffffffffffffffffffffffffffffffffffffffffffffffc3601126101505767ffffffffffffffff600435818111610150576105e883913690600401611c46565b909234926000915b8383106105f957005b610604838588612261565b94608086360312610150576040519561061c87611db0565b803587528381013583811161015057810194601f953687820112156101505761064b903690878135910161238a565b928589019384526040830135858111610150578301963690880112156101505786359461067786611eb8565b97610685604051998a611e3d565b868952878901886060809902830101913683116101505789808a9201925b8484106107bd57505090506106c1915060408c01958a875201611c25565b94868b019586525197885180159182156107b1575b50506104145760005b8851811015610747576001906107418c516106fa838d611f78565b51610706848a51611f78565b5173ffffffffffffffffffffffffffffffffffffffff8b5116916040519361072d85611db0565b84528d84015260408301528a820152614828565b016106df565b509860019550819350906107a1929a976107a79592519073ffffffffffffffffffffffffffffffffffffffff8d7fffffffffffffffffffffffffffffffffffffffffffffffffffffffffffffffff8d0114945116916130e9565b90612225565b95019194936105f0565b51141590508c806106d6565b6107c7368561205b565b8152019101908989916106a3565b346101505760207ffffffffffffffffffffffffffffffffffffffffffffffffffffffffffffffffc36011261015057602061081f6004356000526001602052604060002054151590565b6040519015158152f35b346101505760007ffffffffffffffffffffffffffffffffffffffffffffffffffffffffffffffffc3601126101505760206040517ff4d55e0bcbb226b4aaff947cf2f41ec6d6dcaecd1306fbe6f9b8746ad288b48e8152f35b346101505760207ffffffffffffffffffffffffffffffffffffffffffffffffffffffffffffffffc360112610150576108b96123fc565b50600435600052600160205261014c6108d5604060002061249a565b604051918291602083526020830190611d18565b6020807ffffffffffffffffffffffffffffffffffffffffffffffffffffffffffffffffc3601126101505760043567ffffffffffffffff811161015057610934903690600401611c46565b610940819392936120ba565b92600092346000937fffffffffffffffffffffffffffffffffffffffffffffffffffffffffffffffff8101905b8086106109815761014c610233888a6142be565b909192939495600190856109c56109bc8a888861099f838a8f612121565b6102c66109ae88830183612161565b9390951494339336916121b5565b96875190612225565b950180516109d38a8c611f78565b526109de898b611f78565b505151019601949392919061096d565b6020807ffffffffffffffffffffffffffffffffffffffffffffffffffffffffffffffffc3601126101505767ffffffffffffffff9060043582811161015057610a3b903690600401611c46565b929091600090345b858310610a4c57005b610a57838787612121565b828101357fffffffffffffffffffffffffffffffffffffffffffffffffffffffffffffffe18236030181121561015057810191823592868411610150578401928060061b3603841361015057600193826107a192610ae895610ae17fffffffffffffffffffffffffffffffffffffffffffffffffffffffffffffffff8e018b14943393369161238a565b90356130e9565b920191610a43565b60607ffffffffffffffffffffffffffffffffffffffffffffffffffffffffffffffffc36011261015057610599610b256122f5565b610b2e36612344565b610b3782611f6b565b52610b4181611f6b565b5034903390600435612e7b565b346101505760207ffffffffffffffffffffffffffffffffffffffffffffffffffffffffffffffffc3601126101505760043573ffffffffffffffffffffffffffffffffffffffff81168091036101505760005260006020526020604060002054604051908152f35b7ffffffffffffffffffffffffffffffffffffffffffffffffffffffffffffffffc6020813601126101505760043567ffffffffffffffff81116101505760c0816004019282360301126101505760405190610c1082611db0565b82358252602481019182359167ffffffffffffffff83116101505760a4610c7091610c44610ca59560043691840101611f8c565b6020850152610c56366044830161205b565b60408501520191610c6683611c25565b6060820152614452565b610c8c610c7b611ed0565b93610c87369187611f38565b611f8c565b610c9584611f6b565b52610c9f83611f6b565b50612099565b90610cae6125f0565b50805190610cba6125f0565b60a052610cc68261260a565b602060a05101526040517fa2ea7c6e0000000000000000000000000000000000000000000000000000000081528435600482015260008160248173ffffffffffffffffffffffffffffffffffffffff7f0000000000000000000000000000000000000000000000000000000000000000165afa801561145557600060e052611430575b5060e0515115611406579091610d5e8361272d565b60c052610d6a8361260a565b6080526000915b838310610da757610d8a3460805160c05160e0516133b7565b60a051526020610d9e8160a0510151611f6b565b51604051908152f35b610db18382611f78565b519063ffffffff60208301511680151590816113f5575b506113cb57604060e051015115806113be575b6113945760608201519463ffffffff60208401511673ffffffffffffffffffffffffffffffffffffffff845116604085015115159060808601519260405199610e238b611e20565b60008b528b3560208c015260408b015263ffffffff421660608b015260808a0152600060a08a015260c089015273ffffffffffffffffffffffffffffffffffffffff861660e089015261010088015261012087015260005b602087015160c0880151610f64609560e08b015160608c015160808d0151908d6101008101511515610120604083015192015192604051988996602088019b8c527fffffffffffffffffffffffffffffffffffffffff000000000000000000000000809260601b16604089015260601b1660548701527fffffffff000000000000000000000000000000000000000000000000000000009485809260e01b16606888015260e01b16606c86015260f81b607085015260718401528051610f4a8160919360208588019101611cb2565b8301918860e01b1690820152036075810184520182611e3d565b51902080600052600160205260406000205415610f8a575060010163ffffffff16610e7b565b9195929496905081815281600052600160205260406000208151815560208201516001820155604082015160028201556003810163ffffffff6060840151168154907fffffffffffffffffffffffffffffffffffffffffffffffff000000000000000067ffffffff00000000608087015160201b1692161717815561105163ffffffff60a08501511682907fffffffffffffffffffffffffffffffffffffffff00000000ffffffffffffffff6bffffffff000000000000000083549260401b169116179055565b60c08301516bffffffffffffffffffffffff7fffffffffffffffffffffffffffffffffffffffff00000000000000000000000083549260601b1691161790556004810173ffffffffffffffffffffffffffffffffffffffff60e0840151168154907fffffffffffffffffffffff00000000000000000000000000000000000000000074ff0000000000000000000000000000000000000000610100870151151560a01b1692161717905561012082015180519067ffffffffffffffff82116103b6576111206005840154612447565b601f811161134d575b50602090601f8311600114611283576005929160009183611278575b50507fffffffffffffffffffffffffffffffffffffffffffffffffffffffffffffffff8260011b9260031b1c1916179101555b60608401518061122c575b5060019373ffffffffffffffffffffffffffffffffffffffff916111a98560c051611f78565b526111b68460c051611f78565b5060a08101516111c885608051611f78565b52826111da85602060a0510151611f78565b525116906040519081528735917f8bf46bf4cfd674fa735a3d63ec1c9ad4153f033c290341f3a588b75685141b35602073ffffffffffffffffffffffffffffffffffffffff8a1693a401919290610d71565b611243906000526001602052604060002054151590565b1561124e5788611183565b60046040517fc5723b51000000000000000000000000000000000000000000000000000000008152fd5b015190508c80611145565b906005840160005260206000209160005b7fffffffffffffffffffffffffffffffffffffffffffffffffffffffffffffffe0851681106113355750918391600193837fffffffffffffffffffffffffffffffffffffffffffffffffffffffffffffffe060059716106112fe575b505050811b01910155611178565b01517fffffffffffffffffffffffffffffffffffffffffffffffffffffffffffffffff60f88460031b161c191690558c80806112f0565b91926020600181928685015181550194019201611294565b600584016000526020600020601f840160051c81016020851061138d575b601f830160051c82018110611381575050611129565b6000815560010161136b565b508061136b565b60046040517f157bd4c3000000000000000000000000000000000000000000000000000000008152fd5b5060408201511515610ddb565b60046040517f08e8b937000000000000000000000000000000000000000000000000000000008152fd5b905063ffffffff4216101587610dc8565b60046040517fbf37b20e000000000000000000000000000000000000000000000000000000008152fd5b61144c903d806000833e6114448183611e3d565b810190612666565b60e05284610d49565b6040513d6000823e3d90fd5b7ffffffffffffffffffffffffffffffffffffffffffffffffffffffffffffffffc602081360112610150576004359067ffffffffffffffff821161015057604082600401918336030112610150576114c96114ba611ed0565b92610c87602436920184611f38565b6114d283611f6b565b526114dc82611f6b565b506114e56125f0565b508151916114f16125f0565b916114fb8461260a565b6020840152604051937fa2ea7c6e0000000000000000000000000000000000000000000000000000000085528135600486015260008560248173ffffffffffffffffffffffffffffffffffffffff7f0000000000000000000000000000000000000000000000000000000000000000165afa94851561145557600095611bb1575b50845115611406579161158e8361272d565b916115988461260a565b936000925b8184106115c0576020610d9e81896115b7348b8b8f6133b7565b81520151611f6b565b6115d284829994969893959799611f78565b519263ffffffff6020850151168015159081611ba0575b506113cb5760408101511580611b93575b6113945760608401519463ffffffff60208601511673ffffffffffffffffffffffffffffffffffffffff8651166040870151151590608088015192604051996116428b611e20565b60008b528b3560208c015260408b015263ffffffff421660608b015260808a0152600060a08a015260c08901523360e089015261010088015261012087015260005b602087015160c0880151611753609560e08b015160608c015160808d0151908d6101008101511515610120604083015192015192604051988996602088019b8c527fffffffffffffffffffffffffffffffffffffffff000000000000000000000000809260601b16604089015260601b1660548701527fffffffff000000000000000000000000000000000000000000000000000000009485809260e01b16606888015260e01b16606c86015260f81b607085015260718401528051610f4a8160919360208588019101611cb2565b51902080600052600160205260406000205415611779575060010163ffffffff16611684565b91969050999791999896949293988181528160005260016020526040600020908051825560208101516001830155604081015160028301556003820163ffffffff6060830151168154907fffffffffffffffffffffffffffffffffffffffffffffffff000000000000000067ffffffff00000000608086015160201b1692161717815561184863ffffffff60a08401511682907fffffffffffffffffffffffffffffffffffffffff00000000ffffffffffffffff6bffffffff000000000000000083549260401b169116179055565b60c08201516bffffffffffffffffffffffff7fffffffffffffffffffffffffffffffffffffffff00000000000000000000000083549260601b1691161790556004820173ffffffffffffffffffffffffffffffffffffffff60e0830151168154907fffffffffffffffffffffff00000000000000000000000000000000000000000074ff0000000000000000000000000000000000000000610100860151151560a01b1692161717905561012081015180519167ffffffffffffffff83116103b657838c938c938f96600561191e910154612447565b601f8111611b1f575b50602090601f8311600114611a42576005929160009183611a37575b50507fffffffffffffffffffffffffffffffffffffffffffffffffffffffffffffffff8260011b9260031b1c1916179101555b606087015180611a0c575b5085602073ffffffffffffffffffffffffffffffffffffffff95600199956119b984876119d1976119b3838e9b611f78565b52611f78565b506119c98460a089015192611f78565b520151611f78565b525116906040519081528535917f8bf46bf4cfd674fa735a3d63ec1c9ad4153f033c290341f3a588b75685141b3560203393a401929061159d565b91509250611a2891506000526001602052604060002054151590565b1561124e5788888b928e611981565b015190503880611943565b906005840160005260206000209160005b7fffffffffffffffffffffffffffffffffffffffffffffffffffffffffffffffe085168110611af45750918391600193837fffffffffffffffffffffffffffffffffffffffffffffffffffffffffffffffe06005971610611abd575b505050811b01910155611976565b01517fffffffffffffffffffffffffffffffffffffffffffffffffffffffffffffffff60f88460031b161c19169055388080611aaf565b9497509295509396506020600181928685015181550194019201928f9693928f9693928f9693611a53565b9295509295509250600584016000526020600020601f840160051c810160208510611b8c575b928f9693928f9693928f96935b601f830160051c82018110611b68575050611927565b60019396995080929598506000919497505501928f9693928f9693928f9693611b52565b5080611b45565b50604084015115156115fa565b905063ffffffff421610158a6115e9565b611bc79195503d806000833e6114448183611e3d565b938561157c565b346101505760007ffffffffffffffffffffffffffffffffffffffffffffffffffffffffffffffffc36011261015057807f790a6069414c6efe8e6aa1d915482176ee1e2e7d73c6f34d03df1813c5cb4ce960209252f35b359073ffffffffffffffffffffffffffffffffffffffff8216820361015057565b9181601f840112156101505782359167ffffffffffffffff8311610150576020808501948460051b01011161015057565b6020908160408183019282815285518094520193019160005b828110611c9e575050505090565b835185529381019392810192600101611c90565b60005b838110611cc55750506000910152565b8181015183820152602001611cb5565b907fffffffffffffffffffffffffffffffffffffffffffffffffffffffffffffffe0601f602093611d1181518092818752878088019101611cb2565b0116010190565b90611dad9180518252602081015160208301526040810151604083015263ffffffff80606083015116606084015280608083015116608084015260a08201511660a083015273ffffffffffffffffffffffffffffffffffffffff8060c08301511660c084015260e08201511660e083015261010080820151151590830152610120809101519161014080928201520190611cd5565b90565b6080810190811067ffffffffffffffff8211176103b657604052565b60c0810190811067ffffffffffffffff8211176103b657604052565b6060810190811067ffffffffffffffff8211176103b657604052565b6040810190811067ffffffffffffffff8211176103b657604052565b610140810190811067ffffffffffffffff8211176103b657604052565b90601f7fffffffffffffffffffffffffffffffffffffffffffffffffffffffffffffffe0910116810190811067ffffffffffffffff8211176103b657604052565b67ffffffffffffffff81116103b657601f017fffffffffffffffffffffffffffffffffffffffffffffffffffffffffffffffe01660200190565b67ffffffffffffffff81116103b65760051b60200190565b604090815191611edf83611e04565b60018352829160005b602080821015611f3057835160209291611f0182611dcc565b6000825260008183015260008683015260606000818401526080830152600060a0830152828801015201611ee8565b505091925050565b9035907fffffffffffffffffffffffffffffffffffffffffffffffffffffffffffffff4181360301821215610150570190565b8051156103e55760200190565b80518210156103e55760209160051b010190565b919060c083820312610150576040519067ffffffffffffffff9060c08301828111848210176103b6576040528294611fc381611c25565b84526020928382013563ffffffff811681036101505784860152604082013580151581036101505760408601526060820135606086015260808201359081116101505781019180601f840112156101505782359261202084611e7e565b9161202e6040519384611e3d565b84835285858301011161015057848460a09695879660009401838601378301015260808501520135910152565b91908260609103126101505760405161207381611de8565b8092803560ff811681036101505760409182918452602081013560208501520135910152565b3573ffffffffffffffffffffffffffffffffffffffff811681036101505790565b906120c482611eb8565b6120d16040519182611e3d565b8281527fffffffffffffffffffffffffffffffffffffffffffffffffffffffffffffffe06120ff8294611eb8565b019060005b82811061211057505050565b806060602080938501015201612104565b91908110156103e55760051b810135907fffffffffffffffffffffffffffffffffffffffffffffffffffffffffffffffc181360301821215610150570190565b9035907fffffffffffffffffffffffffffffffffffffffffffffffffffffffffffffffe181360301821215610150570180359067ffffffffffffffff821161015057602001918160051b3603831361015057565b929190926121c284611eb8565b916121d06040519384611e3d565b829480845260208094019060051b8301928284116101505780915b8483106121fa57505050505050565b823567ffffffffffffffff811161015057869161221a8684938601611f8c565b8152019201916121eb565b9190820391821161223257565b7f4e487b7100000000000000000000000000000000000000000000000000000000600052601160045260246000fd5b91908110156103e55760051b810135907fffffffffffffffffffffffffffffffffffffffffffffffffffffffffffffff8181360301821215610150570190565b9035907fffffffffffffffffffffffffffffffffffffffffffffffffffffffffffffffe181360301821215610150570180359067ffffffffffffffff82116101505760200191606082023603831361015057565b60409081519161230483611e04565b600183528291600091825b60208082101561233b5782516020929161232882611e04565b868252868183015282890101520161230f565b50505091925050565b7fffffffffffffffffffffffffffffffffffffffffffffffffffffffffffffffdc6040910112610150576040519061237b82611e04565b60243582526044356020830152565b92919261239682611eb8565b6040926123a584519283611e3d565b819581835260208093019160061b84019381851161015057915b8483106123ce57505050505050565b85838303126101505783869182516123e581611e04565b8535815282860135838201528152019201916123bf565b6040519061240982611e20565b606061012083600080825280602083015280604083015280848301528060808301528060a08301528060c08301528060e08301526101008201520152565b90600182811c92168015612490575b602083101461246157565b7f4e487b7100000000000000000000000000000000000000000000000000000000600052602260045260246000fd5b91607f1691612456565b90604051916124a883611e20565b82815481526001600581840154936020948585015260028101546040850152600381015463ffffffff80821660608701528082881c1660808701528160401c1660a086015260601c60c085015260ff600482015473ffffffffffffffffffffffffffffffffffffffff811660e087015260a01c161515610100850152019060405193849260009281549161253b83612447565b808752928281169081156125b0575060011461256a575b505050506101209291612566910384611e3d565b0152565b60009081528381209695945091905b8183106125985750939450919250908201018161256661012038612552565b86548884018501529586019587945091830191612579565b7fffffffffffffffffffffffffffffffffffffffffffffffffffffffffffffff001685880152505050151560051b83010190508161256661012038612552565b604051906125fd82611e04565b6060602083600081520152565b9061261482611eb8565b6126216040519182611e3d565b8281527fffffffffffffffffffffffffffffffffffffffffffffffffffffffffffffffe061264f8294611eb8565b0190602036910137565b5190811515820361015057565b906020808383031261015057825167ffffffffffffffff93848211610150570192608084840312610150576040519361269e85611db0565b805185528281015173ffffffffffffffffffffffffffffffffffffffff8116810361015057838601526126d360408201612659565b60408601526060810151918211610150570182601f82011215610150578051906126fc82611e7e565b9361270a6040519586611e3d565b82855283838301011161015057826127259385019101611cb2565b606082015290565b9061273782611eb8565b6127446040519182611e3d565b8281527fffffffffffffffffffffffffffffffffffffffffffffffffffffffffffffffe06127728294611eb8565b019060005b82811061278357505050565b60209061278e6123fc565b82828501015201612777565b92909493916127a76125f0565b508551936127b36125f0565b946127bd8161260a565b6020870152604051907fa2ea7c6e00000000000000000000000000000000000000000000000000000000825282600483015260008260248173ffffffffffffffffffffffffffffffffffffffff7f0000000000000000000000000000000000000000000000000000000000000000165afa91821561145557600092612e5e575b5081511561140657929790916128528461272d565b9861285c8561260a565b946000935b81851061287e5750505050509561287994959661361e565b815290565b919593989496999092976128928a84611f78565b519a63ffffffff60208d0151168015159081612e4d575b506113cb5760408901511580612e40575b61139457899860608d01518d602081015163ffffffff16815173ffffffffffffffffffffffffffffffffffffffff1690604083015115159260800151936040519e8f9061290682611e20565b600082526020820152604001528d4263ffffffff1660608201526080015260a08d016000905260c08d015273ffffffffffffffffffffffffffffffffffffffff8b1660e08d01526101008c01526101208b015260005b60208b01518b612a2d609560c08301519260e08101519060608101516080820151916101008101511515610120604083015192015192604051988996602088019b8c527fffffffffffffffffffffffffffffffffffffffff000000000000000000000000809260601b16604089015260601b1660548701527fffffffff000000000000000000000000000000000000000000000000000000009485809260e01b16606888015260e01b16606c86015260f81b607085015260718401528051610f4a8160919360208588019101611cb2565b51902080600052600160205260406000205415612a53575060010163ffffffff1661295c565b90509d979b9199929a949d9c909698939c8084528060005260016020526040600020918451835560208501516001840155604085015160028401556003830163ffffffff6060870151168154907fffffffffffffffffffffffffffffffffffffffffffffffff000000000000000067ffffffff0000000060808a015160201b16921617178155612b2563ffffffff60a08801511682907fffffffffffffffffffffffffffffffffffffffff00000000ffffffffffffffff6bffffffff000000000000000083549260401b169116179055565b60c08601516bffffffffffffffffffffffff7fffffffffffffffffffffffffffffffffffffffff00000000000000000000000083549260601b1691161790556004830173ffffffffffffffffffffffffffffffffffffffff60e0870151168154907fffffffffffffffffffffff00000000000000000000000000000000000000000074ff00000000000000000000000000000000000000006101008a0151151560a01b1692161717905561012085015192835167ffffffffffffffff81116103b6578894612bf66005840154612447565b601f8111612de5575b50602090601f8311600114612d18576005929160009183612d0d575b50507fffffffffffffffffffffffffffffffffffffffffffffffffffffffffffffffff8260011b9260031b1c1916179101555b8d8b8b606084015180612ce0575b5086602073ffffffffffffffffffffffffffffffffffffffff959487946119b9848660019e6119b383612c8e9a611f78565b5251166040519182527f8bf46bf4cfd674fa735a3d63ec1c9ad4153f033c290341f3a588b75685141b35602073ffffffffffffffffffffffffffffffffffffffff881693a4019290919293949a612861565b92505050612cfd9193506000526001602052604060002054151590565b1561124e5785918d8b8b38612c5c565b015190503880612c1b565b906005840160005260206000209160005b7fffffffffffffffffffffffffffffffffffffffffffffffffffffffffffffffe085168110612dca5750918391600193837fffffffffffffffffffffffffffffffffffffffffffffffffffffffffffffffe06005971610612d93575b505050811b01910155612c4e565b01517fffffffffffffffffffffffffffffffffffffffffffffffffffffffffffffffff60f88460031b161c19169055388080612d85565b8183015184558c985060019093019260209283019201612d29565b90919293949550600584016000526020600020601f840160051c810160208510612e39575b908b979695949392915b601f830160051c82018110612e2a575050612bff565b600081558c9850600101612e14565b5080612e0a565b5060408c015115156128ba565b905063ffffffff42161015386128a9565b612e749192503d806000833e6114448183611e3d565b903861283d565b939291936040517fa2ea7c6e00000000000000000000000000000000000000000000000000000000815281600482015260008160248173ffffffffffffffffffffffffffffffffffffffff7f0000000000000000000000000000000000000000000000000000000000000000165afa908115611455576000916130ce575b50805115611406578251612f0c8161272d565b92612f168261260a565b9460005b838110612f305750505050611dad9495506137ff565b612f3a8183611f78565b51908151600052600160205260406000209182541561124e578460018401540361140657600483015473ffffffffffffffffffffffffffffffffffffffff8d1673ffffffffffffffffffffffffffffffffffffffff8216036130a45760a01c60ff16156113945763ffffffff600384015460401c1661307a576003830180547fffffffffffffffffffffffffffffffffffffffff00000000ffffffffffffffff164260401b6bffffffff0000000000000000161790556001928c91612ffe8261249a565b613008858c611f78565b52613013848b611f78565b506020810151613023858d611f78565b527ff930a6e2523c9cc298691873087a740550b8fc85a0680830414c148ed927f615602073ffffffffffffffffffffffffffffffffffffffff87600386015460601c9451950154956040519586521693a401612f1a565b60046040517f905e7107000000000000000000000000000000000000000000000000000000008152fd5b60046040517f4ca88867000000000000000000000000000000000000000000000000000000008152fd5b6130e391503d806000833e6114448183611e3d565b38612ef9565b90949392916040517fa2ea7c6e00000000000000000000000000000000000000000000000000000000815282600482015260008160248173ffffffffffffffffffffffffffffffffffffffff7f0000000000000000000000000000000000000000000000000000000000000000165afa908115611455576000916132e8575b5080511561140657865161317b8161272d565b926131858261260a565b9460005b83811061319f5750505050611dad9596506139fe565b6131a9818c611f78565b51908151600052600160205260406000209182541561124e578360018401540361140657600483015473ffffffffffffffffffffffffffffffffffffffff861673ffffffffffffffffffffffffffffffffffffffff8216036130a45760a01c60ff16156113945763ffffffff600384015460401c1661307a576003830180547fffffffffffffffffffffffffffffffffffffffff00000000ffffffffffffffff164260401b6bffffffff00000000000000001617905560019261326b8161249a565b613275848b611f78565b52613280838a611f78565b506020820151613290848c611f78565b5283600382015460601c9251910154916040519182527ff930a6e2523c9cc298691873087a740550b8fc85a0680830414c148ed927f615602073ffffffffffffffffffffffffffffffffffffffff891693a401613189565b6132fd91503d806000833e6114448183611e3d565b38613168565b60408101906040815282518092526060810160608360051b830101926020809501916000905b82821061336c57505050508281830391015281808451928381520193019160005b828110613358575050505090565b83518552938101939281019260010161334a565b909192959485806133a7837fffffffffffffffffffffffffffffffffffffffffffffffffffffffffffffffa089600196030186528a51611d18565b9798019493919091019101613329565b9092918351936001908186146135fd5773ffffffffffffffffffffffffffffffffffffffff602080950151169182156135cd579560009687915b8083106134bf575050509183929161343a9492876040518097819582947f9a3353ec00000000000000000000000000000000000000000000000000000000845260048401613303565b03925af190811561145557600091613488575b5090501561345e57611dad9061418f565b60046040517fe8bee839000000000000000000000000000000000000000000000000000000008152fd5b82813d83116134b8575b61349c8183611e3d565b810103126134b557506134ae90612659565b803861344d565b80fd5b503d613492565b909197966134cd8987611f78565b5180151580613547575b61351d578181116134f3578084920398019801909190916133f1565b60046040517f11011294000000000000000000000000000000000000000000000000000000008152fd5b60046040517f1574f9f3000000000000000000000000000000000000000000000000000000008152fd5b50604080517fce46e04600000000000000000000000000000000000000000000000000000000815289816004818b5afa9182156135c3575060009161358e575b50156134d7565b908982813d83116135bc575b6135a48183611e3d565b810103126134b557506135b690612659565b38613587565b503d61359a565b513d6000823e3d90fd5b9594505050905060005b8281106135e75750505050600090565b6135f18183611f78565b5161351d5783016135d7565b611dad9550613617915061361090611f6b565b5191611f6b565b5191613bd6565b9093918451946001908187146137e25773ffffffffffffffffffffffffffffffffffffffff602080950151169182156137b1579660009788915b80831061370157505050918392916136a19492886040518097819582947f9a3353ec00000000000000000000000000000000000000000000000000000000845260048401613303565b03925af1908115611455576000916136cd575b5090501561345e576136c4575090565b611dad9061418f565b82813d83116136fa575b6136e18183611e3d565b810103126134b557506136f390612659565b80386136b4565b503d6136d7565b9091989761370f8a87611f78565b5180151580613735575b61351d578181116134f357808492039901990190919091613658565b50604080517fce46e04600000000000000000000000000000000000000000000000000000000815289816004818b5afa9182156135c3575060009161377c575b5015613719565b908982813d83116137aa575b6137928183611e3d565b810103126134b557506137a490612659565b38613775565b503d613788565b969550505091505060005b8281106137cc5750505050600090565b6137d68183611f78565b5161351d5783016137bc565b611dad96506137f8915061361090959495611f6b565b5191613d5d565b9092918351936001908186146139e45773ffffffffffffffffffffffffffffffffffffffff602080950151169182156139b4579560009687915b80831061390457505050918392916138829492876040518097819582947f3c76d99c00000000000000000000000000000000000000000000000000000000845260048401613303565b03925af1908115611455576000916138d0575b509050156138a657611dad9061418f565b60046040517fbf2f3a8b000000000000000000000000000000000000000000000000000000008152fd5b82813d83116138fd575b6138e48183611e3d565b810103126134b557506138f690612659565b8038613895565b503d6138da565b909197966139128987611f78565b5180151580613938575b61351d578181116134f357808492039801980190919091613839565b50604080517fce46e04600000000000000000000000000000000000000000000000000000000815289816004818b5afa9182156135c3575060009161397f575b501561391c565b908982813d83116139ad575b6139958183611e3d565b810103126134b557506139a790612659565b38613978565b503d61398b565b9594505050905060005b8281106139ce5750505050600090565b6139d88183611f78565b5161351d5783016139be565b611dad95506139f7915061361090611f6b565b5191613ec5565b909391845194600190818714613bb95773ffffffffffffffffffffffffffffffffffffffff60208095015116918215613b88579660009788915b808310613ad85750505091839291613a819492886040518097819582947f3c76d99c00000000000000000000000000000000000000000000000000000000845260048401613303565b03925af190811561145557600091613aa4575b509050156138a6576136c4575090565b82813d8311613ad1575b613ab88183611e3d565b810103126134b55750613aca90612659565b8038613a94565b503d613aae565b90919897613ae68a87611f78565b5180151580613b0c575b61351d578181116134f357808492039901990190919091613a38565b50604080517fce46e04600000000000000000000000000000000000000000000000000000000815289816004818b5afa9182156135c35750600091613b53575b5015613af0565b908982813d8311613b81575b613b698183611e3d565b810103126134b55750613b7b90612659565b38613b4c565b503d613b5f565b969550505091505060005b828110613ba35750505050600090565b613bad8183611f78565b5161351d578301613b93565b611dad9650613bcf915061361090959495611f6b565b519161403f565b92919273ffffffffffffffffffffffffffffffffffffffff602080920151168015613d505784151580613cd6575b61351d578385116134f357613c52829186946040519586809481937f3085d6990000000000000000000000000000000000000000000000000000000083528760048401526024830190611d18565b03925af190811561145557600091613ca2575b50905015613c785781611dad910361418f565b60046040517fbd8ba84d000000000000000000000000000000000000000000000000000000008152fd5b82813d8311613ccf575b613cb68183611e3d565b810103126134b55750613cc890612659565b8038613c65565b503d613cac565b506040517fce46e0460000000000000000000000000000000000000000000000000000000081528281600481855afa90811561145557600091613d1b575b5015613c04565b908382813d8311613d49575b613d318183611e3d565b810103126134b55750613d4390612659565b38613d14565b503d613d27565b5050505061351d57600090565b93919373ffffffffffffffffffffffffffffffffffffffff602080920151168015613eb75785151580613e3d575b61351d578486116134f357613dd9829187946040519586809481937f3085d6990000000000000000000000000000000000000000000000000000000083528760048401526024830190611d18565b03925af190811561145557600091613e09575b50905015613c78578290613dff57505090565b611dad910361418f565b82813d8311613e36575b613e1d8183611e3d565b810103126134b55750613e2f90612659565b8038613dec565b503d613e13565b506040517fce46e0460000000000000000000000000000000000000000000000000000000081528281600481855afa90811561145557600091613e82575b5015613d8b565b908382813d8311613eb0575b613e988183611e3d565b810103126134b55750613eaa90612659565b38613e7b565b503d613e8e565b505050505061351d57600090565b92919273ffffffffffffffffffffffffffffffffffffffff602080920151168015613d505784151580613fc5575b61351d578385116134f357613f41829186946040519586809481937f4fda5cea0000000000000000000000000000000000000000000000000000000083528760048401526024830190611d18565b03925af190811561145557600091613f91575b50905015613f675781611dad910361418f565b60046040517fccf3bb27000000000000000000000000000000000000000000000000000000008152fd5b82813d8311613fbe575b613fa58183611e3d565b810103126134b55750613fb790612659565b8038613f54565b503d613f9b565b506040517fce46e0460000000000000000000000000000000000000000000000000000000081528281600481855afa9081156114555760009161400a575b5015613ef3565b908382813d8311614038575b6140208183611e3d565b810103126134b5575061403290612659565b38614003565b503d614016565b93919373ffffffffffffffffffffffffffffffffffffffff602080920151168015613eb75785151580614115575b61351d578486116134f3576140bb829187946040519586809481937f4fda5cea0000000000000000000000000000000000000000000000000000000083528760048401526024830190611d18565b03925af1908115611455576000916140e1575b50905015613f67578290613dff57505090565b82813d831161410e575b6140f58183611e3d565b810103126134b5575061410790612659565b80386140ce565b503d6140eb565b506040517fce46e0460000000000000000000000000000000000000000000000000000000081528281600481855afa9081156114555760009161415a575b501561406d565b908382813d8311614188575b6141708183611e3d565b810103126134b5575061418290612659565b38614153565b503d614166565b806141975750565b80471061426057600080808093335af13d1561425b573d6141b781611e7e565b906141c56040519283611e3d565b8152600060203d92013e5b156141d757565b60846040517f08c379a000000000000000000000000000000000000000000000000000000000815260206004820152603a60248201527f416464726573733a20756e61626c6520746f2073656e642076616c75652c207260448201527f6563697069656e74206d617920686176652072657665727465640000000000006064820152fd5b6141d0565b60646040517f08c379a000000000000000000000000000000000000000000000000000000000815260206004820152601d60248201527f416464726573733a20696e73756666696369656e742062616c616e63650000006044820152fd5b906142c89061260a565b60009283925b805184101561432357936142e28486611f78565b519160005b8351811015614312576142fa8185611f78565b516143058487611f78565b52600192830192016142e7565b5090946001909401939091506142ce565b509250905090565b73ffffffffffffffffffffffffffffffffffffffff7f000000000000000000000000000000000000000000000000000000000000000016301480614429575b15614393577f000000000000000000000000000000000000000000000000000000000000000090565b60405160208101907f000000000000000000000000000000000000000000000000000000000000000082527f000000000000000000000000000000000000000000000000000000000000000060408201527f000000000000000000000000000000000000000000000000000000000000000060608201524660808201523060a082015260a0815261442381611dcc565b51902090565b507f0000000000000000000000000000000000000000000000000000000000000000461461436a565b602080820151906040928381015192606082019073ffffffffffffffffffffffffffffffffffffffff93848351166000526000815286600020938454946001860190555193858351169263ffffffff83820151169089810151151560806060830151920151858151910120928b5196868801997f790a6069414c6efe8e6aa1d915482176ee1e2e7d73c6f34d03df1813c5cb4ce98b528d8901526060880152608087015260a086015260c085015260e08401526101009081840152825261012082019582871067ffffffffffffffff8811176103b65761453f86956145539461455b998b525190206147c5565b918860ff8351169183015192015192614729565b949094614590565b51169116036145675750565b600490517f8baa579f000000000000000000000000000000000000000000000000000000008152fd5b60058110156146fa57806145a15750565b600181036146075760646040517f08c379a000000000000000000000000000000000000000000000000000000000815260206004820152601860248201527f45434453413a20696e76616c6964207369676e617475726500000000000000006044820152fd5b6002810361466d5760646040517f08c379a000000000000000000000000000000000000000000000000000000000815260206004820152601f60248201527f45434453413a20696e76616c6964207369676e6174757265206c656e677468006044820152fd5b60031461467657565b60846040517f08c379a000000000000000000000000000000000000000000000000000000000815260206004820152602260248201527f45434453413a20696e76616c6964207369676e6174757265202773272076616c60448201527f75650000000000000000000000000000000000000000000000000000000000006064820152fd5b7f4e487b7100000000000000000000000000000000000000000000000000000000600052602160045260246000fd5b9291907f7fffffffffffffffffffffffffffffff5d576e7357a4501ddfe92f46681b20a083116147b95791608094939160ff602094604051948552168484015260408301526060820152600093849182805260015afa156147ac57815173ffffffffffffffffffffffffffffffffffffffff8116156147a6579190565b50600190565b50604051903d90823e3d90fd5b50505050600090600390565b6147cd61432b565b906040519060208201927f1901000000000000000000000000000000000000000000000000000000000000845260228301526042820152604281526080810181811067ffffffffffffffff8211176103b65760405251902090565b602081015160409182810151916060820173ffffffffffffffffffffffffffffffffffffffff9283825116600052600060205285600020908154916001830190555192519086519160208301947ff4d55e0bcbb226b4aaff947cf2f41ec6d6dcaecd1306fbe6f9b8746ad288b48e865288840152606083015260808201526080815260a081019481861067ffffffffffffffff8711176103b6576148d985946145539361455b988a525190206147c5565b9060ff8151168860208301519201519261472956fea164736f6c6343000811000a",
  "devdoc": {
    "kind": "dev",
    "methods": {
      "attest((bytes32,(address,uint32,bool,bytes32,bytes,uint256)))": {
        "details": "Attests to a specific schema.",
        "params": {
          "request": "The arguments of the attestation request. Example: attest({     schema: \"0facc36681cbe2456019c1b0d1e7bedd6d1d40f6f324bf3dd3a4cef2999200a0\",     data: {         recipient: \"0xdEADBeAFdeAdbEafdeadbeafDeAdbEAFdeadbeaf\",         expirationTime: 0,         revocable: true,         refUUID: \"0x0000000000000000000000000000000000000000000000000000000000000000\",         data: \"0xF00D\",         value: 0     } })"
        },
        "returns": {
          "_0": "The UUID of the new attestation."
        }
      },
      "attestByDelegation((bytes32,(address,uint32,bool,bytes32,bytes,uint256),(uint8,bytes32,bytes32),address))": {
        "details": "Attests to a specific schema via the provided EIP712 signature.",
        "params": {
          "delegatedRequest": "The arguments of the delegated attestation request. Example: attestByDelegation({     schema: '0x8e72f5bc0a8d4be6aa98360baa889040c50a0e51f32dbf0baa5199bd93472ebc',     data: {         recipient: '0xf39Fd6e51aad88F6F4ce6aB8827279cffFb92266',         expirationTime: 1673891048,         revocable: true,         refUUID: '0x0000000000000000000000000000000000000000000000000000000000000000',         data: '0x1234',         value: 0     },     signature: {         v: 28,         r: '0x148c...b25b',         s: '0x5a72...be22'     },     attester: '0xc5E8740aD971409492b1A63Db8d83025e0Fc427e' })"
        },
        "returns": {
          "_0": "The UUID of the new attestation."
        }
      },
      "constructor": {
        "details": "Creates a new EAS instance.",
        "params": {
          "registry": "The address of the global schema registry."
        }
      },
      "getAttestation(bytes32)": {
        "details": "Returns an existing attestation by UUID.",
        "params": {
          "uuid": "The UUID of the attestation to retrieve."
        },
        "returns": {
          "_0": "The attestation data members."
        }
      },
      "getDomainSeparator()": {
        "details": "Returns the domain separator used in the encoding of the signatures for attest, and revoke."
      },
      "getNonce(address)": {
        "details": "Returns the current nonce per-account.",
        "params": {
          "account": "The requested account."
        },
        "returns": {
          "_0": "The current nonce."
        }
      },
      "getSchemaRegistry()": {
        "details": "Returns the address of the global schema registry.",
        "returns": {
          "_0": "The address of the global schema registry."
        }
      },
      "isAttestationValid(bytes32)": {
        "details": "Checks whether an attestation exists.",
        "params": {
          "uuid": "The UUID of the attestation to retrieve."
        },
        "returns": {
          "_0": "Whether an attestation exists."
        }
      },
      "multiAttest((bytes32,(address,uint32,bool,bytes32,bytes,uint256)[])[])": {
        "details": "Attests to multiple schemas.",
        "params": {
          "multiRequests": "The arguments of the multi attestation requests. The requests should be grouped by distinct schema ids to benefit from the best batching optimization. Example: multiAttest([{     schema: '0x33e9094830a5cba5554d1954310e4fbed2ef5f859ec1404619adea4207f391fd',     data: [{         recipient: '0xdEADBeAFdeAdbEafdeadbeafDeAdbEAFdeadbeaf',         expirationTime: 1673891048,         revocable: true,         refUUID: '0x0000000000000000000000000000000000000000000000000000000000000000',         data: '0x1234',         value: 1000     },     {         recipient: '0xf39Fd6e51aad88F6F4ce6aB8827279cffFb92266',         expirationTime: 0,         revocable: false,         refUUID: '0x480df4a039efc31b11bfdf491b383ca138b6bde160988222a2a3509c02cee174',         data: '0x00',         value: 0     }], }, {     schema: '0x5ac273ce41e3c8bfa383efe7c03e54c5f0bff29c9f11ef6ffa930fc84ca32425',     data: [{         recipient: '0xdEADBeAFdeAdbEafdeadbeafDeAdbEAFdeadbeaf',         expirationTime: 0,         revocable: true,         refUUID: '0x75bf2ed8dca25a8190c50c52db136664de25b2449535839008ccfdab469b214f',         data: '0x12345678',         value: 0     }, }])"
        },
        "returns": {
          "_0": "The UUIDs of the new attestations."
        }
      },
      "multiAttestByDelegation((bytes32,(address,uint32,bool,bytes32,bytes,uint256)[],(uint8,bytes32,bytes32)[],address)[])": {
        "details": "Attests to multiple schemas using via provided EIP712 signatures.",
        "params": {
          "multiDelegatedRequests": "The arguments of the delegated multi attestation requests. The requests should be grouped by distinct schema ids to benefit from the best batching optimization. Example: multiAttestByDelegation([{     schema: '0x8e72f5bc0a8d4be6aa98360baa889040c50a0e51f32dbf0baa5199bd93472ebc',     data: [{         recipient: '0xf39Fd6e51aad88F6F4ce6aB8827279cffFb92266',         expirationTime: 1673891048,         revocable: true,         refUUID: '0x0000000000000000000000000000000000000000000000000000000000000000',         data: '0x1234',         value: 0     },     {         recipient: '0xdEADBeAFdeAdbEafdeadbeafDeAdbEAFdeadbeaf',         expirationTime: 0,         revocable: false,         refUUID: '0x0000000000000000000000000000000000000000000000000000000000000000',         data: '0x00',         value: 0     }],     signatures: [{         v: 28,         r: '0x148c...b25b',         s: '0x5a72...be22'     },     {         v: 28,         r: '0x487s...67bb',         s: '0x12ad...2366'     }],     attester: '0x1D86495b2A7B524D747d2839b3C645Bed32e8CF4' }])"
        },
        "returns": {
          "_0": "The UUIDs of the new attestations."
        }
      },
      "multiRevoke((bytes32,(bytes32,uint256)[])[])": {
        "details": "Revokes existing attestations to multiple schemas.",
        "params": {
          "multiRequests": "The arguments of the multi revocation requests. The requests should be grouped by distinct schema ids to benefit from the best batching optimization. Example: multiRevoke([{     schema: '0x8e72f5bc0a8d4be6aa98360baa889040c50a0e51f32dbf0baa5199bd93472ebc',     data: [{         uuid: '0x211296a1ca0d7f9f2cfebf0daaa575bea9b20e968d81aef4e743d699c6ac4b25',         value: 1000     },     {         uuid: '0xe160ac1bd3606a287b4d53d5d1d6da5895f65b4b4bab6d93aaf5046e48167ade',         value: 0     }], }, {     schema: '0x5ac273ce41e3c8bfa383efe7c03e54c5f0bff29c9f11ef6ffa930fc84ca32425',     data: [{         uuid: '0x053d42abce1fd7c8fcddfae21845ad34dae287b2c326220b03ba241bc5a8f019',         value: 0     }, }])"
        }
      },
      "multiRevokeByDelegation((bytes32,(bytes32,uint256)[],(uint8,bytes32,bytes32)[],address)[])": {
        "details": "Revokes existing attestations to multiple schemas via provided EIP712 signatures.",
        "params": {
          "multiDelegatedRequests": "The arguments of the delegated multi revocation attestation requests. The requests should be grouped by distinct schema ids to benefit from the best batching optimization. Example: multiRevokeByDelegation([{     schema: '0x8e72f5bc0a8d4be6aa98360baa889040c50a0e51f32dbf0baa5199bd93472ebc',     data: [{         uuid: '0x211296a1ca0d7f9f2cfebf0daaa575bea9b20e968d81aef4e743d699c6ac4b25',         value: 1000     },     {         uuid: '0xe160ac1bd3606a287b4d53d5d1d6da5895f65b4b4bab6d93aaf5046e48167ade',         value: 0     }],     signatures: [{         v: 28,         r: '0x148c...b25b',         s: '0x5a72...be22'     },     {         v: 28,         r: '0x487s...67bb',         s: '0x12ad...2366'     }],     revoker: '0x244934dd3e31bE2c81f84ECf0b3E6329F5381992' }])"
        }
      },
      "revoke((bytes32,(bytes32,uint256)))": {
        "details": "Revokes an existing attestation to a specific schema. Example: revoke({     schema: '0x8e72f5bc0a8d4be6aa98360baa889040c50a0e51f32dbf0baa5199bd93472ebc',     data: {         uuid: '0x101032e487642ee04ee17049f99a70590c735b8614079fc9275f9dd57c00966d',         value: 0     } })",
        "params": {
          "request": "The arguments of the revocation request."
        }
      },
      "revokeByDelegation((bytes32,(bytes32,uint256),(uint8,bytes32,bytes32),address))": {
        "details": "Revokes an existing attestation to a specific schema via the provided EIP712 signature. Example: revokeByDelegation({     schema: '0x8e72f5bc0a8d4be6aa98360baa889040c50a0e51f32dbf0baa5199bd93472ebc',     data: {         uuid: '0xcbbc12102578c642a0f7b34fe7111e41afa25683b6cd7b5a14caf90fa14d24ba',         value: 0     },     signature: {         v: 27,         r: '0xb593...7142',         s: '0x0f5b...2cce'     },     revoker: '0x244934dd3e31bE2c81f84ECf0b3E6329F5381992' })",
        "params": {
          "delegatedRequest": "The arguments of the delegated revocation request."
        }
      }
    },
    "title": "EAS - Ethereum Attestation Service",
    "version": 1
  },
  "userdoc": {
    "kind": "user",
    "methods": {
      "getAttestTypeHash()": {
        "notice": "Returns the EIP712 type hash for the attest function."
      },
      "getRevokeTypeHash()": {
        "notice": "Returns the EIP712 type hash for the revoke function."
      }
    },
    "version": 1
  },
  "storageLayout": {
    "storage": [
      {
        "astId": 4574,
        "contract": "contracts/EAS.sol:EAS",
        "label": "_nonces",
        "offset": 0,
        "slot": "0",
        "type": "t_mapping(t_address,t_uint256)"
      },
      {
        "astId": 3002,
        "contract": "contracts/EAS.sol:EAS",
        "label": "_db",
        "offset": 0,
        "slot": "1",
        "type": "t_mapping(t_bytes32,t_struct(Attestation)4796_storage)"
      }
    ],
    "types": {
      "t_address": {
        "encoding": "inplace",
        "label": "address",
        "numberOfBytes": "20"
      },
      "t_bool": {
        "encoding": "inplace",
        "label": "bool",
        "numberOfBytes": "1"
      },
      "t_bytes32": {
        "encoding": "inplace",
        "label": "bytes32",
        "numberOfBytes": "32"
      },
      "t_bytes_storage": {
        "encoding": "bytes",
        "label": "bytes",
        "numberOfBytes": "32"
      },
      "t_mapping(t_address,t_uint256)": {
        "encoding": "mapping",
        "key": "t_address",
        "label": "mapping(address => uint256)",
        "numberOfBytes": "32",
        "value": "t_uint256"
      },
      "t_mapping(t_bytes32,t_struct(Attestation)4796_storage)": {
        "encoding": "mapping",
        "key": "t_bytes32",
        "label": "mapping(bytes32 => struct Attestation)",
        "numberOfBytes": "32",
        "value": "t_struct(Attestation)4796_storage"
      },
      "t_struct(Attestation)4796_storage": {
        "encoding": "inplace",
        "label": "struct Attestation",
        "members": [
          {
            "astId": 4777,
            "contract": "contracts/EAS.sol:EAS",
            "label": "uuid",
            "offset": 0,
            "slot": "0",
            "type": "t_bytes32"
          },
          {
            "astId": 4779,
            "contract": "contracts/EAS.sol:EAS",
            "label": "schema",
            "offset": 0,
            "slot": "1",
            "type": "t_bytes32"
          },
          {
            "astId": 4781,
            "contract": "contracts/EAS.sol:EAS",
            "label": "refUUID",
            "offset": 0,
            "slot": "2",
            "type": "t_bytes32"
          },
          {
            "astId": 4783,
            "contract": "contracts/EAS.sol:EAS",
            "label": "time",
            "offset": 0,
            "slot": "3",
            "type": "t_uint32"
          },
          {
            "astId": 4785,
            "contract": "contracts/EAS.sol:EAS",
            "label": "expirationTime",
            "offset": 4,
            "slot": "3",
            "type": "t_uint32"
          },
          {
            "astId": 4787,
            "contract": "contracts/EAS.sol:EAS",
            "label": "revocationTime",
            "offset": 8,
            "slot": "3",
            "type": "t_uint32"
          },
          {
            "astId": 4789,
            "contract": "contracts/EAS.sol:EAS",
            "label": "recipient",
            "offset": 12,
            "slot": "3",
            "type": "t_address"
          },
          {
            "astId": 4791,
            "contract": "contracts/EAS.sol:EAS",
            "label": "attester",
            "offset": 0,
            "slot": "4",
            "type": "t_address"
          },
          {
            "astId": 4793,
            "contract": "contracts/EAS.sol:EAS",
            "label": "revocable",
            "offset": 20,
            "slot": "4",
            "type": "t_bool"
          },
          {
            "astId": 4795,
            "contract": "contracts/EAS.sol:EAS",
            "label": "data",
            "offset": 0,
            "slot": "5",
            "type": "t_bytes_storage"
          }
        ],
        "numberOfBytes": "192"
      },
      "t_uint256": {
        "encoding": "inplace",
        "label": "uint256",
        "numberOfBytes": "32"
      },
      "t_uint32": {
        "encoding": "inplace",
        "label": "uint32",
        "numberOfBytes": "4"
      }
    }
  }
}