{
  "address": "0x4a9Db81755c2F5bC47DdcDC716f0CF5B38252538",
  "abi": [
    {
      "inputs": [
        {
          "internalType": "contract ISchemaRegistry",
          "name": "registry",
          "type": "address"
        },
        {
          "internalType": "contract IEIP712Verifier",
          "name": "verifier",
          "type": "address"
        }
      ],
      "stateMutability": "nonpayable",
      "type": "constructor"
    },
    {
      "inputs": [],
      "name": "AccessDenied",
      "type": "error"
    },
    {
      "inputs": [],
      "name": "AlreadyRevoked",
      "type": "error"
    },
    {
      "inputs": [],
      "name": "InvalidAttestation",
      "type": "error"
    },
    {
      "inputs": [],
      "name": "InvalidExpirationTime",
      "type": "error"
    },
    {
      "inputs": [],
      "name": "InvalidOffset",
      "type": "error"
    },
    {
      "inputs": [],
      "name": "InvalidRegistry",
      "type": "error"
    },
    {
      "inputs": [],
      "name": "InvalidRevocation",
      "type": "error"
    },
    {
      "inputs": [],
      "name": "InvalidSchema",
      "type": "error"
    },
    {
      "inputs": [],
      "name": "InvalidVerifier",
      "type": "error"
    },
    {
      "inputs": [],
      "name": "NotFound",
      "type": "error"
    },
    {
      "inputs": [],
      "name": "NotPayable",
      "type": "error"
    },
    {
      "anonymous": false,
      "inputs": [
        {
          "indexed": true,
          "internalType": "address",
          "name": "recipient",
          "type": "address"
        },
        {
          "indexed": true,
          "internalType": "address",
          "name": "attester",
          "type": "address"
        },
        {
          "indexed": false,
          "internalType": "bytes32",
          "name": "uuid",
          "type": "bytes32"
        },
        {
          "indexed": true,
          "internalType": "bytes32",
          "name": "schema",
          "type": "bytes32"
        }
      ],
      "name": "Attested",
      "type": "event"
    },
    {
      "anonymous": false,
      "inputs": [
        {
          "indexed": true,
          "internalType": "address",
          "name": "recipient",
          "type": "address"
        },
        {
          "indexed": true,
          "internalType": "address",
          "name": "attester",
          "type": "address"
        },
        {
          "indexed": false,
          "internalType": "bytes32",
          "name": "uuid",
          "type": "bytes32"
        },
        {
          "indexed": true,
          "internalType": "bytes32",
          "name": "schema",
          "type": "bytes32"
        }
      ],
      "name": "Revoked",
      "type": "event"
    },
    {
      "inputs": [],
      "name": "VERSION",
      "outputs": [
        {
          "internalType": "string",
          "name": "",
          "type": "string"
        }
      ],
      "stateMutability": "view",
      "type": "function"
    },
    {
      "inputs": [
        {
          "internalType": "address",
          "name": "recipient",
          "type": "address"
        },
        {
          "internalType": "bytes32",
          "name": "schema",
          "type": "bytes32"
        },
        {
          "internalType": "uint32",
          "name": "expirationTime",
          "type": "uint32"
        },
        {
          "internalType": "bytes32",
          "name": "refUUID",
          "type": "bytes32"
        },
        {
          "internalType": "bytes",
          "name": "data",
          "type": "bytes"
        }
      ],
      "name": "attest",
      "outputs": [
        {
          "internalType": "bytes32",
          "name": "",
          "type": "bytes32"
        }
      ],
      "stateMutability": "payable",
      "type": "function"
    },
    {
      "inputs": [
        {
          "internalType": "address",
          "name": "recipient",
          "type": "address"
        },
        {
          "internalType": "bytes32",
          "name": "schema",
          "type": "bytes32"
        },
        {
          "internalType": "uint32",
          "name": "expirationTime",
          "type": "uint32"
        },
        {
          "internalType": "bytes32",
          "name": "refUUID",
          "type": "bytes32"
        },
        {
          "internalType": "bytes",
          "name": "data",
          "type": "bytes"
        },
        {
          "internalType": "address",
          "name": "attester",
          "type": "address"
        },
        {
          "internalType": "uint8",
          "name": "v",
          "type": "uint8"
        },
        {
          "internalType": "bytes32",
          "name": "r",
          "type": "bytes32"
        },
        {
          "internalType": "bytes32",
          "name": "s",
          "type": "bytes32"
        }
      ],
      "name": "attestByDelegation",
      "outputs": [
        {
          "internalType": "bytes32",
          "name": "",
          "type": "bytes32"
        }
      ],
      "stateMutability": "payable",
      "type": "function"
    },
    {
      "inputs": [
        {
          "internalType": "bytes32",
          "name": "uuid",
          "type": "bytes32"
        }
      ],
      "name": "getAttestation",
      "outputs": [
        {
          "components": [
            {
              "internalType": "bytes32",
              "name": "uuid",
              "type": "bytes32"
            },
            {
              "internalType": "bytes32",
              "name": "schema",
              "type": "bytes32"
            },
            {
              "internalType": "bytes32",
              "name": "refUUID",
              "type": "bytes32"
            },
            {
              "internalType": "uint32",
              "name": "time",
              "type": "uint32"
            },
            {
              "internalType": "uint32",
              "name": "expirationTime",
              "type": "uint32"
            },
            {
              "internalType": "uint32",
              "name": "revocationTime",
              "type": "uint32"
            },
            {
              "internalType": "address",
              "name": "recipient",
              "type": "address"
            },
            {
              "internalType": "address",
              "name": "attester",
              "type": "address"
            },
            {
              "internalType": "bytes",
              "name": "data",
              "type": "bytes"
            }
          ],
          "internalType": "struct Attestation",
          "name": "",
          "type": "tuple"
        }
      ],
      "stateMutability": "view",
      "type": "function"
    },
    {
      "inputs": [],
      "name": "getEIP712Verifier",
      "outputs": [
        {
          "internalType": "contract IEIP712Verifier",
          "name": "",
          "type": "address"
        }
      ],
      "stateMutability": "view",
      "type": "function"
    },
    {
      "inputs": [],
      "name": "getSchemaRegistry",
      "outputs": [
        {
          "internalType": "contract ISchemaRegistry",
          "name": "",
          "type": "address"
        }
      ],
      "stateMutability": "view",
      "type": "function"
    },
    {
      "inputs": [
        {
          "internalType": "bytes32",
          "name": "uuid",
          "type": "bytes32"
        }
      ],
      "name": "isAttestationValid",
      "outputs": [
        {
          "internalType": "bool",
          "name": "",
          "type": "bool"
        }
      ],
      "stateMutability": "view",
      "type": "function"
    },
    {
      "inputs": [
        {
          "internalType": "bytes32",
          "name": "uuid",
          "type": "bytes32"
        }
      ],
      "name": "revoke",
      "outputs": [],
      "stateMutability": "nonpayable",
      "type": "function"
    },
    {
      "inputs": [
        {
          "internalType": "bytes32",
          "name": "uuid",
          "type": "bytes32"
        },
        {
          "internalType": "address",
          "name": "attester",
          "type": "address"
        },
        {
          "internalType": "uint8",
          "name": "v",
          "type": "uint8"
        },
        {
          "internalType": "bytes32",
          "name": "r",
          "type": "bytes32"
        },
        {
          "internalType": "bytes32",
          "name": "s",
          "type": "bytes32"
        }
      ],
      "name": "revokeByDelegation",
      "outputs": [],
      "stateMutability": "nonpayable",
      "type": "function"
    }
  ],
  "transactionHash": "0x3e3e723e6f2d5b61735ad4d138f07556a6bf125faa1653c1c2a5135709187154",
  "args": [
    "0x2177e8D1D1ED5e044dEE53C5cEB3bC4a8f4B25A2",
    "0x501b2AcD827240f109Bbc630Ab32E6b2702BbdCb"
  ],
  "numDeployments": 1,
  "solcInputHash": "870b3bcc3246f1a43cad1376b0171253",
  "bytecode": "0x60c06040523480156200001157600080fd5b5060405162001a1d38038062001a1d8339810160408190526200003491620000b5565b6001600160a01b0382166200005c576040516311a1e69760e01b815260040160405180910390fd5b6001600160a01b038116620000845760405163baa3de5f60e01b815260040160405180910390fd5b6001600160a01b039182166080521660a052620000f4565b6001600160a01b0381168114620000b257600080fd5b50565b60008060408385031215620000c957600080fd5b8251620000d6816200009c565b6020840151909250620000e9816200009c565b809150509250929050565b60805160a0516118e8620001356000396000818160aa01528181610448015261054f0152600081816101e5015281816106480152610b6e01526118e86000f3fe6080604052600436106100965760003560e01c8063b75c7dc611610069578063e30bb5631161004e578063e30bb56314610197578063f10b5cc8146101d6578063ffa1ad741461020957600080fd5b8063b75c7dc614610155578063d87647b21461017757600080fd5b806315cd31a11461009b5780634bfd5bf1146100f4578063a3112a6414610115578063ae0791d214610142575b600080fd5b3480156100a757600080fd5b507f00000000000000000000000000000000000000000000000000000000000000005b60405173ffffffffffffffffffffffffffffffffffffffff90911681526020015b60405180910390f35b610107610102366004611105565b61025f565b6040519081526020016100eb565b34801561012157600080fd5b5061013561013036600461117f565b61027b565b6040516100eb9190611206565b6101076101503660046112e1565b610408565b34801561016157600080fd5b5061017561017036600461117f565b6104df565b005b34801561018357600080fd5b50610175610192366004611392565b6104ec565b3480156101a357600080fd5b506101c66101b236600461117f565b600090815260208190526040902054151590565b60405190151581526020016100eb565b3480156101e257600080fd5b507f00000000000000000000000000000000000000000000000000000000000000006100ca565b34801561021557600080fd5b506102526040518060400160405280600481526020017f302e31320000000000000000000000000000000000000000000000000000000081525081565b6040516100eb91906113e2565b6000610270878787878787336105bc565b979650505050505050565b604080516101208101825260008082526020820181905291810182905260608082018390526080820183905260a0820183905260c0820183905260e08201929092526101008101919091526000828152602081815260409182902082516101208101845281548152600182015492810192909252600281015492820192909252600382015463ffffffff80821660608401526401000000008204811660808401526801000000000000000082041660a083015273ffffffffffffffffffffffffffffffffffffffff6c01000000000000000000000000909104811660c083015260048301541660e08201526005820180549192916101008401919061037f906113fc565b80601f01602080910402602001604051908101604052809291908181526020018280546103ab906113fc565b80156103f85780601f106103cd576101008083540402835291602001916103f8565b820191906000526020600020905b8154815290600101906020018083116103db57829003601f168201915b5050505050815250509050919050565b6040517fa182e38c00000000000000000000000000000000000000000000000000000000815260009073ffffffffffffffffffffffffffffffffffffffff7f0000000000000000000000000000000000000000000000000000000000000000169063a182e38c9061048f908e908e908e908e908e908e908e908e908e908e9060040161144f565b600060405180830381600087803b1580156104a957600080fd5b505af11580156104bd573d6000803e3d6000fd5b505050506104d08b8b8b8b8b8b8b6105bc565b9b9a5050505050505050505050565b6104e98133610a0e565b50565b6040517f1863f01d0000000000000000000000000000000000000000000000000000000081526004810186905273ffffffffffffffffffffffffffffffffffffffff858116602483015260ff8516604483015260648201849052608482018390527f00000000000000000000000000000000000000000000000000000000000000001690631863f01d9060a401600060405180830381600087803b15801561059357600080fd5b505af11580156105a7573d6000803e3d6000fd5b505050506105b58585610a0e565b5050505050565b600063ffffffff8616158015906105df57504263ffffffff168663ffffffff1611155b15610616576040517f08e8b93700000000000000000000000000000000000000000000000000000000815260040160405180910390fd5b6040517fa2ea7c6e000000000000000000000000000000000000000000000000000000008152600481018890526000907f000000000000000000000000000000000000000000000000000000000000000073ffffffffffffffffffffffffffffffffffffffff169063a2ea7c6e90602401600060405180830381865afa1580156106a4573d6000803e3d6000fd5b505050506040513d6000823e601f3d9081017fffffffffffffffffffffffffffffffffffffffffffffffffffffffffffffffe01682016040526106ea91908101906115a2565b8051909150610725576040517fbf37b20e00000000000000000000000000000000000000000000000000000000815260040160405180910390fd5b60006040518061012001604052806000801b81526020018a815260200188815260200161074f4290565b63ffffffff1681526020018963ffffffff168152602001600063ffffffff1681526020018b73ffffffffffffffffffffffffffffffffffffffff1681526020018573ffffffffffffffffffffffffffffffffffffffff16815260200187878080601f0160208091040260200160405190810160405280939291908181526020018383808284376000920182905250939094525092935091508190505b6107f58382610dad565b60008181526020819052604090205490925015610814576001016107eb565b81835261082384846000610e03565b60008281526020818152604091829020855181559085015160018201559084015160028201556060840151600382018054608087015160a088015160c089015163ffffffff9586167fffffffffffffffffffffffffffffffffffffffffffffffff000000000000000090941693909317640100000000928616929092029190911767ffffffffffffffff166801000000000000000094909116939093026bffffffffffffffffffffffff16929092176c0100000000000000000000000073ffffffffffffffffffffffffffffffffffffffff9384160217905560e08501516004830180547fffffffffffffffffffffffff00000000000000000000000000000000000000001691909216179055610100840151849190600582019061094890826116f7565b50508915905061099757600089815260208190526040902054610997576040517fc5723b5100000000000000000000000000000000000000000000000000000000815260040160405180910390fd5b8a8673ffffffffffffffffffffffffffffffffffffffff168d73ffffffffffffffffffffffffffffffffffffffff167f8bf46bf4cfd674fa735a3d63ec1c9ad4153f033c290341f3a588b75685141b35856040516109f791815260200190565b60405180910390a4509a9950505050505050505050565b60008281526020819052604090208054610a54576040517fc5723b5100000000000000000000000000000000000000000000000000000000815260040160405180910390fd5b600481015473ffffffffffffffffffffffffffffffffffffffff838116911614610aaa576040517f4ca8886700000000000000000000000000000000000000000000000000000000815260040160405180910390fd5b600381015468010000000000000000900463ffffffff1615610af8576040517f905e710700000000000000000000000000000000000000000000000000000000815260040160405180910390fd5b6003810180547fffffffffffffffffffffffffffffffffffffffff00000000ffffffffffffffff166801000000000000000063ffffffff42160217905560018101546040517fa2ea7c6e0000000000000000000000000000000000000000000000000000000081526004810191909152610d40907f000000000000000000000000000000000000000000000000000000000000000073ffffffffffffffffffffffffffffffffffffffff169063a2ea7c6e90602401600060405180830381865afa158015610bca573d6000803e3d6000fd5b505050506040513d6000823e601f3d9081017fffffffffffffffffffffffffffffffffffffffffffffffffffffffffffffffe0168201604052610c1091908101906115a2565b60408051610120810182528454815260018501546020820152600285015491810191909152600384015463ffffffff80821660608401526401000000008204811660808401526801000000000000000082041660a083015273ffffffffffffffffffffffffffffffffffffffff6c01000000000000000000000000909104811660c083015260048501541660e08201526005840180548591610100840191610cb7906113fc565b80601f0160208091040260200160405190810160405280929190818152602001828054610ce3906113fc565b8015610d305780601f10610d0557610100808354040283529160200191610d30565b820191906000526020600020905b815481529060010190602001808311610d1357829003601f168201915b5050505050815250506001610e03565b6001810154600382015460405185815273ffffffffffffffffffffffffffffffffffffffff858116926c01000000000000000000000000900416907ff930a6e2523c9cc298691873087a740550b8fc85a0680830414c148ed927f6159060200160405180910390a4505050565b600082602001518360c001518460e001518560600151866080015187610100015187604051602001610de59796959493929190611811565b60405160208183030381529060405280519060200120905092915050565b602083015173ffffffffffffffffffffffffffffffffffffffff8116610e295750505050565b3415801590610ea457508073ffffffffffffffffffffffffffffffffffffffff1663ce46e0466040518163ffffffff1660e01b8152600401602060405180830381865afa158015610e7e573d6000803e3d6000fd5b505050506040513d601f19601f82011682018060405250810190610ea291906118b9565b155b15610edb576040517f1574f9f300000000000000000000000000000000000000000000000000000000815260040160405180910390fd5b8115610fb4576040517fe292614000000000000000000000000000000000000000000000000000000000815273ffffffffffffffffffffffffffffffffffffffff82169063e2926140903490610f35908790600401611206565b60206040518083038185885af1158015610f53573d6000803e3d6000fd5b50505050506040513d601f19601f82011682018060405250810190610f7891906118b9565b610fae576040517fccf3bb2700000000000000000000000000000000000000000000000000000000815260040160405180910390fd5b50505050565b6040517fa3f2a84600000000000000000000000000000000000000000000000000000000815273ffffffffffffffffffffffffffffffffffffffff82169063a3f2a846903490611008908790600401611206565b60206040518083038185885af1158015611026573d6000803e3d6000fd5b50505050506040513d601f19601f8201168201806040525081019061104b91906118b9565b610fae576040517fbd8ba84d00000000000000000000000000000000000000000000000000000000815260040160405180910390fd5b73ffffffffffffffffffffffffffffffffffffffff811681146104e957600080fd5b803563ffffffff811681146110b757600080fd5b919050565b60008083601f8401126110ce57600080fd5b50813567ffffffffffffffff8111156110e657600080fd5b6020830191508360208285010111156110fe57600080fd5b9250929050565b60008060008060008060a0878903121561111e57600080fd5b863561112981611081565b95506020870135945061113e604088016110a3565b935060608701359250608087013567ffffffffffffffff81111561116157600080fd5b61116d89828a016110bc565b979a9699509497509295939492505050565b60006020828403121561119157600080fd5b5035919050565b60005b838110156111b357818101518382015260200161119b565b50506000910152565b600081518084526111d4816020860160208601611198565b601f017fffffffffffffffffffffffffffffffffffffffffffffffffffffffffffffffe0169290920160200192915050565b602081528151602082015260208201516040820152604082015160608201526000606083015161123e608084018263ffffffff169052565b50608083015163ffffffff811660a08401525060a083015163ffffffff811660c08401525060c083015173ffffffffffffffffffffffffffffffffffffffff811660e08401525060e08301516101006112ae8185018373ffffffffffffffffffffffffffffffffffffffff169052565b8401516101208481015290506112c86101408401826111bc565b949350505050565b803560ff811681146110b757600080fd5b6000806000806000806000806000806101208b8d03121561130157600080fd5b8a3561130c81611081565b995060208b0135985061132160408c016110a3565b975060608b0135965060808b013567ffffffffffffffff81111561134457600080fd5b6113508d828e016110bc565b90975095505060a08b013561136481611081565b935061137260c08c016112d0565b925060e08b013591506101008b013590509295989b9194979a5092959850565b600080600080600060a086880312156113aa57600080fd5b8535945060208601356113bc81611081565b93506113ca604087016112d0565b94979396509394606081013594506080013592915050565b6020815260006113f560208301846111bc565b9392505050565b600181811c9082168061141057607f821691505b602082108103611449577f4e487b7100000000000000000000000000000000000000000000000000000000600052602260045260246000fd5b50919050565b600061012073ffffffffffffffffffffffffffffffffffffffff808e1684528c602085015263ffffffff8c1660408501528a606085015281608085015288828501526101409150888a838601376000848a018301529690961660a08301525060ff9390931660c084015260e0830191909152610100820152601f9092017fffffffffffffffffffffffffffffffffffffffffffffffffffffffffffffffe0169091010195945050505050565b7f4e487b7100000000000000000000000000000000000000000000000000000000600052604160045260246000fd5b6040516080810167ffffffffffffffff8111828210171561154d5761154d6114fb565b60405290565b604051601f82017fffffffffffffffffffffffffffffffffffffffffffffffffffffffffffffffe016810167ffffffffffffffff8111828210171561159a5761159a6114fb565b604052919050565b600060208083850312156115b557600080fd5b825167ffffffffffffffff808211156115cd57600080fd5b90840190608082870312156115e157600080fd5b6115e961152a565b82518152838301516115fa81611081565b818501526040838101519082015260608301518281111561161a57600080fd5b80840193505086601f84011261162f57600080fd5b825182811115611641576116416114fb565b611671857fffffffffffffffffffffffffffffffffffffffffffffffffffffffffffffffe0601f84011601611553565b9250808352878582860101111561168757600080fd5b61169681868501878701611198565b50606081019190915295945050505050565b601f8211156116f257600081815260208120601f850160051c810160208610156116cf5750805b601f850160051c820191505b818110156116ee578281556001016116db565b5050505b505050565b815167ffffffffffffffff811115611711576117116114fb565b6117258161171f84546113fc565b846116a8565b602080601f83116001811461177857600084156117425750858301515b7fffffffffffffffffffffffffffffffffffffffffffffffffffffffffffffffff600386901b1c1916600185901b1785556116ee565b6000858152602081207fffffffffffffffffffffffffffffffffffffffffffffffffffffffffffffffe08616915b828110156117c5578886015182559484019460019091019084016117a6565b508582101561180157878501517fffffffffffffffffffffffffffffffffffffffffffffffffffffffffffffffff600388901b60f8161c191681555b5050505050600190811b01905550565b87815260007fffffffffffffffffffffffffffffffffffffffff000000000000000000000000808960601b166020840152808860601b166034840152507fffffffff00000000000000000000000000000000000000000000000000000000808760e01b166048840152808660e01b16604c8401528451611898816050860160208901611198565b60e09490941b16919092016050810191909152605401979650505050505050565b6000602082840312156118cb57600080fd5b815180151581146113f557600080fdfea164736f6c6343000811000a",
  "devdoc": {
    "kind": "dev",
    "methods": {
      "attest(address,bytes32,uint32,bytes32,bytes)": {
        "details": "Attests to a specific AS.",
        "params": {
          "data": "Additional custom data.",
          "expirationTime": "The expiration time of the attestation.",
          "recipient": "The recipient of the attestation.",
          "refUUID": "An optional related attestation's UUID.",
          "schema": "The UUID of the schema."
        },
        "returns": {
          "_0": "The UUID of the new attestation."
        }
      },
      "attestByDelegation(address,bytes32,uint32,bytes32,bytes,address,uint8,bytes32,bytes32)": {
        "details": "Attests to a specific schema using the provided EIP712 signature.",
        "params": {
          "attester": "The attesting account.",
          "data": "Additional custom data.",
          "expirationTime": "The expiration time of the attestation.",
          "r": "The x-coordinate of the nonce R.",
          "recipient": "The recipient of the attestation.",
          "refUUID": "An optional related attestation's UUID.",
          "s": "The signature data.",
          "schema": "The UUID of the schema.",
          "v": "The recovery ID."
        },
        "returns": {
          "_0": "The UUID of the new attestation."
        }
      },
      "constructor": {
        "details": "Creates a new EAS instance.",
        "params": {
          "registry": "The address of the global schema registry.",
          "verifier": "The address of the EIP712 verifier."
        }
      },
      "getAttestation(bytes32)": {
        "details": "Returns an existing attestation by UUID.",
        "params": {
          "uuid": "The UUID of the attestation to retrieve."
        },
        "returns": {
          "_0": "The attestation data members."
        }
      },
      "getEIP712Verifier()": {
        "details": "Returns the address of the EIP712 verifier used to verify signed attestations.",
        "returns": {
          "_0": "The address of the EIP712 verifier used to verify signed attestations."
        }
      },
      "getSchemaRegistry()": {
        "details": "Returns the address of the global schema registry.",
        "returns": {
          "_0": "The address of the global schema registry."
        }
      },
      "isAttestationValid(bytes32)": {
        "details": "Checks whether an attestation exists.",
        "params": {
          "uuid": "The UUID of the attestation to retrieve."
        },
        "returns": {
          "_0": "Whether an attestation exists."
        }
      },
      "revoke(bytes32)": {
        "details": "Revokes an existing attestation to a specific AS.",
        "params": {
          "uuid": "The UUID of the attestation to revoke."
        }
      },
      "revokeByDelegation(bytes32,address,uint8,bytes32,bytes32)": {
        "details": "Attests to a specific schema the EIP712 signature.",
        "params": {
          "attester": "The attesting account.",
          "r": "The x-coordinate of the nonce R.",
          "s": "The signature data.",
          "uuid": "The UUID of the attestation to revoke.",
          "v": "The recovery ID."
        }
      }
    },
    "title": "EAS - Ethereum Attestation Service",
    "version": 1
  },
  "userdoc": {
    "kind": "user",
    "methods": {},
    "version": 1
  },
  "storageLayout": {
    "storage": [
      {
        "astId": 52,
        "contract": "contracts/EAS.sol:EAS",
        "label": "_db",
        "offset": 0,
        "slot": "0",
        "type": "t_mapping(t_bytes32,t_struct(Attestation)617_storage)"
      }
    ],
    "types": {
      "t_address": {
        "encoding": "inplace",
        "label": "address",
        "numberOfBytes": "20"
      },
      "t_bytes32": {
        "encoding": "inplace",
        "label": "bytes32",
        "numberOfBytes": "32"
      },
      "t_bytes_storage": {
        "encoding": "bytes",
        "label": "bytes",
        "numberOfBytes": "32"
      },
      "t_mapping(t_bytes32,t_struct(Attestation)617_storage)": {
        "encoding": "mapping",
        "key": "t_bytes32",
        "label": "mapping(bytes32 => struct Attestation)",
        "numberOfBytes": "32",
        "value": "t_struct(Attestation)617_storage"
      },
      "t_struct(Attestation)617_storage": {
        "encoding": "inplace",
        "label": "struct Attestation",
        "members": [
          {
            "astId": 600,
            "contract": "contracts/EAS.sol:EAS",
            "label": "uuid",
            "offset": 0,
            "slot": "0",
            "type": "t_bytes32"
          },
          {
            "astId": 602,
            "contract": "contracts/EAS.sol:EAS",
            "label": "schema",
            "offset": 0,
            "slot": "1",
            "type": "t_bytes32"
          },
          {
            "astId": 604,
            "contract": "contracts/EAS.sol:EAS",
            "label": "refUUID",
            "offset": 0,
            "slot": "2",
            "type": "t_bytes32"
          },
          {
            "astId": 606,
            "contract": "contracts/EAS.sol:EAS",
            "label": "time",
            "offset": 0,
            "slot": "3",
            "type": "t_uint32"
          },
          {
            "astId": 608,
            "contract": "contracts/EAS.sol:EAS",
            "label": "expirationTime",
            "offset": 4,
            "slot": "3",
            "type": "t_uint32"
          },
          {
            "astId": 610,
            "contract": "contracts/EAS.sol:EAS",
            "label": "revocationTime",
            "offset": 8,
            "slot": "3",
            "type": "t_uint32"
          },
          {
            "astId": 612,
            "contract": "contracts/EAS.sol:EAS",
            "label": "recipient",
            "offset": 12,
            "slot": "3",
            "type": "t_address"
          },
          {
            "astId": 614,
            "contract": "contracts/EAS.sol:EAS",
            "label": "attester",
            "offset": 0,
            "slot": "4",
            "type": "t_address"
          },
          {
            "astId": 616,
            "contract": "contracts/EAS.sol:EAS",
            "label": "data",
            "offset": 0,
            "slot": "5",
            "type": "t_bytes_storage"
          }
        ],
        "numberOfBytes": "192"
      },
      "t_uint32": {
        "encoding": "inplace",
        "label": "uint32",
        "numberOfBytes": "4"
      }
    }
  }
}